{
	"optimzed inspection module.sol": {
		"InspectionModule": {
			"abi": [
				{
					"anonymous": false,
					"inputs": [
						{
							"indexed": true,
							"internalType": "uint256",
							"name": "inspectionId",
							"type": "uint256"
						}
					],
					"name": "InspectionSubmitted",
					"type": "event"
				},
				{
					"anonymous": false,
					"inputs": [
						{
							"indexed": true,
							"internalType": "uint256",
							"name": "inspectionId",
							"type": "uint256"
						}
					],
					"name": "InspectionUpdated",
					"type": "event"
				},
				{
					"inputs": [
						{
							"internalType": "uint256",
							"name": "_id",
							"type": "uint256"
						}
					],
					"name": "getInspection",
					"outputs": [
						{
							"components": [
								{
									"internalType": "uint64",
									"name": "inspectionId",
									"type": "uint64"
								},
								{
									"internalType": "bool",
									"name": "approved",
									"type": "bool"
								},
								{
									"internalType": "string",
									"name": "report",
									"type": "string"
								}
							],
							"internalType": "struct InspectionModule.Inspection",
							"name": "",
							"type": "tuple"
						}
					],
					"stateMutability": "view",
					"type": "function"
				},
				{
					"inputs": [],
					"name": "inspectionCounter",
					"outputs": [
						{
							"internalType": "uint256",
							"name": "",
							"type": "uint256"
						}
					],
					"stateMutability": "view",
					"type": "function"
				},
				{
					"inputs": [
						{
							"internalType": "uint256",
							"name": "_id",
							"type": "uint256"
						}
					],
					"name": "isApproved",
					"outputs": [
						{
							"internalType": "bool",
							"name": "",
							"type": "bool"
						}
					],
					"stateMutability": "view",
					"type": "function"
				},
				{
					"inputs": [
						{
							"internalType": "string",
							"name": "_report",
							"type": "string"
						}
					],
					"name": "submitInspection",
					"outputs": [],
					"stateMutability": "nonpayable",
					"type": "function"
				},
				{
					"inputs": [
						{
							"internalType": "uint256",
							"name": "_id",
							"type": "uint256"
						},
						{
							"internalType": "string",
							"name": "_report",
							"type": "string"
						}
					],
					"name": "updateInspection",
					"outputs": [],
					"stateMutability": "nonpayable",
					"type": "function"
				}
			],
			"devdoc": {
				"kind": "dev",
				"methods": {},
				"version": 1
			},
			"evm": {
				"assembly": "    /* \"optimzed inspection module.sol\":61:2226  contract InspectionModule {... */\n  mstore(0x40, 0x80)\n  callvalue\n  dup1\n  iszero\n  tag_1\n  jumpi\n  revert(0x00, 0x00)\ntag_1:\n  pop\n  dataSize(sub_0)\n  dup1\n  dataOffset(sub_0)\n  0x00\n  codecopy\n  0x00\n  return\nstop\n\nsub_0: assembly {\n        /* \"optimzed inspection module.sol\":61:2226  contract InspectionModule {... */\n      mstore(0x40, 0x80)\n      callvalue\n      dup1\n      iszero\n      tag_1\n      jumpi\n      revert(0x00, 0x00)\n    tag_1:\n      pop\n      jumpi(tag_2, lt(calldatasize, 0x04))\n      shr(0xe0, calldataload(0x00))\n      dup1\n      0x2fd2303c\n      eq\n      tag_3\n      jumpi\n      dup1\n      0x38d80ea6\n      eq\n      tag_4\n      jumpi\n      dup1\n      0x428bcaf9\n      eq\n      tag_5\n      jumpi\n      dup1\n      0x7910867b\n      eq\n      tag_6\n      jumpi\n      dup1\n      0xf2836670\n      eq\n      tag_7\n      jumpi\n    tag_2:\n      revert(0x00, 0x00)\n        /* \"optimzed inspection module.sol\":350:382  uint256 public inspectionCounter */\n    tag_3:\n      tag_8\n      sload(0x01)\n      dup2\n      jump\n    tag_8:\n      mload(0x40)\n        /* \"#utility.yul\":160:185   */\n      swap1\n      dup2\n      mstore\n        /* \"#utility.yul\":148:150   */\n      0x20\n        /* \"#utility.yul\":133:151   */\n      add\n        /* \"optimzed inspection module.sol\":350:382  uint256 public inspectionCounter */\n    tag_10:\n      mload(0x40)\n      dup1\n      swap2\n      sub\n      swap1\n      return\n        /* \"optimzed inspection module.sol\":1229:1493  function updateInspection(uint256 _id, string calldata _report) external {... */\n    tag_4:\n      tag_12\n      tag_13\n      calldatasize\n      0x04\n      tag_14\n      jump\t// in\n    tag_13:\n      tag_15\n      jump\t// in\n    tag_12:\n      stop\n        /* \"optimzed inspection module.sol\":717:1056  function submitInspection(string calldata _report) external {... */\n    tag_5:\n      tag_12\n      tag_17\n      calldatasize\n      0x04\n      tag_18\n      jump\t// in\n    tag_17:\n      tag_19\n      jump\t// in\n        /* \"optimzed inspection module.sol\":2078:2223  function isApproved(uint256 _id)... */\n    tag_6:\n      tag_20\n      tag_21\n      calldatasize\n      0x04\n      tag_22\n      jump\t// in\n    tag_21:\n        /* \"optimzed inspection module.sol\":2161:2165  bool */\n      0x00\n        /* \"optimzed inspection module.sol\":2190:2206  inspections[_id] */\n      swap1\n      dup2\n      mstore\n      0x20\n      dup2\n      swap1\n      mstore\n      0x40\n      swap1\n      keccak256\n        /* \"optimzed inspection module.sol\":2190:2215  inspections[_id].approved */\n      sload\n      shl(0x40, 0x01)\n      swap1\n      div\n      0xff\n      and\n      swap1\n        /* \"optimzed inspection module.sol\":2078:2223  function isApproved(uint256 _id)... */\n      jump\n    tag_20:\n      mload(0x40)\n        /* \"#utility.yul\":1891:1905   */\n      swap1\n      iszero\n        /* \"#utility.yul\":1884:1906   */\n      iszero\n        /* \"#utility.yul\":1866:1907   */\n      dup2\n      mstore\n        /* \"#utility.yul\":1854:1856   */\n      0x20\n        /* \"#utility.yul\":1839:1857   */\n      add\n        /* \"optimzed inspection module.sol\":2078:2223  function isApproved(uint256 _id)... */\n      tag_10\n        /* \"#utility.yul\":1726:1913   */\n      jump\n        /* \"optimzed inspection module.sol\":1663:1911  function getInspection(uint256 _id)... */\n    tag_7:\n      tag_26\n      tag_27\n      calldatasize\n      0x04\n      tag_22\n      jump\t// in\n    tag_27:\n      tag_28\n      jump\t// in\n    tag_26:\n      mload(0x40)\n      tag_10\n      swap2\n      swap1\n      tag_30\n      jump\t// in\n        /* \"optimzed inspection module.sol\":1229:1493  function updateInspection(uint256 _id, string calldata _report) external {... */\n    tag_15:\n        /* \"optimzed inspection module.sol\":1315:1337  Inspection storage ins */\n      0x00\n        /* \"optimzed inspection module.sol\":1340:1356  inspections[_id] */\n      dup4\n      dup2\n      mstore\n      0x20\n      dup2\n      swap1\n      mstore\n      0x40\n      dup2\n      keccak256\n        /* \"optimzed inspection module.sol\":1377:1393  ins.inspectionId */\n      dup1\n      sload\n        /* \"optimzed inspection module.sol\":1340:1356  inspections[_id] */\n      swap1\n      swap2\n        /* \"optimzed inspection module.sol\":1377:1393  ins.inspectionId */\n      0xffffffffffffffff\n      swap1\n      swap2\n      and\n        /* \"optimzed inspection module.sol\":1377:1398  ins.inspectionId != 0 */\n      swap1\n      sub\n        /* \"optimzed inspection module.sol\":1369:1412  require(ins.inspectionId != 0, \"Not found\") */\n      tag_32\n      jumpi\n      mload(0x40)\n      shl(0xe5, 0x461bcd)\n      dup2\n      mstore\n        /* \"#utility.yul\":2833:2835   */\n      0x20\n        /* \"optimzed inspection module.sol\":1369:1412  require(ins.inspectionId != 0, \"Not found\") */\n      0x04\n      dup3\n      add\n        /* \"#utility.yul\":2815:2836   */\n      mstore\n        /* \"#utility.yul\":2872:2873   */\n      0x09\n        /* \"#utility.yul\":2852:2870   */\n      0x24\n      dup3\n      add\n        /* \"#utility.yul\":2845:2874   */\n      mstore\n      shl(0xba, 0x139bdd08199bdd5b99)\n        /* \"#utility.yul\":2890:2908   */\n      0x44\n      dup3\n      add\n        /* \"#utility.yul\":2883:2922   */\n      mstore\n        /* \"#utility.yul\":2939:2957   */\n      0x64\n      add\n        /* \"optimzed inspection module.sol\":1369:1412  require(ins.inspectionId != 0, \"Not found\") */\n    tag_33:\n      mload(0x40)\n      dup1\n      swap2\n      sub\n      swap1\n      revert\n    tag_32:\n        /* \"optimzed inspection module.sol\":1425:1435  ins.report */\n      0x01\n      dup2\n      add\n        /* \"optimzed inspection module.sol\":1425:1445  ins.report = _report */\n      tag_35\n        /* \"optimzed inspection module.sol\":1438:1445  _report */\n      dup4\n      dup6\n        /* \"optimzed inspection module.sol\":1425:1435  ins.report */\n      dup4\n        /* \"optimzed inspection module.sol\":1425:1445  ins.report = _report */\n      tag_36\n      jump\t// in\n    tag_35:\n      pop\n        /* \"optimzed inspection module.sol\":1463:1485  InspectionUpdated(_id) */\n      mload(0x40)\n        /* \"optimzed inspection module.sol\":1481:1484  _id */\n      dup5\n      swap1\n        /* \"optimzed inspection module.sol\":1463:1485  InspectionUpdated(_id) */\n      0x2cb5d4cb05e7deefd97af518223b1c2708b1d3d0220092fd0f8653952559a026\n      swap1\n      0x00\n      swap1\n      log2\n        /* \"optimzed inspection module.sol\":1302:1493  {... */\n      pop\n        /* \"optimzed inspection module.sol\":1229:1493  function updateInspection(uint256 _id, string calldata _report) external {... */\n      pop\n      pop\n      pop\n      jump\t// out\n        /* \"optimzed inspection module.sol\":717:1056  function submitInspection(string calldata _report) external {... */\n    tag_19:\n        /* \"optimzed inspection module.sol\":790:807  inspectionCounter */\n      0x01\n        /* \"optimzed inspection module.sol\":790:809  inspectionCounter++ */\n      dup1\n      sload\n      swap1\n        /* \"optimzed inspection module.sol\":790:807  inspectionCounter */\n      0x00\n        /* \"optimzed inspection module.sol\":790:809  inspectionCounter++ */\n      tag_38\n      dup4\n      tag_39\n      jump\t// in\n    tag_38:\n      swap2\n      swap1\n      pop\n      sstore\n      pop\n        /* \"optimzed inspection module.sol\":855:992  Inspection({... */\n      mload(0x40)\n      dup1\n      0x60\n      add\n      0x40\n      mstore\n      dup1\n        /* \"optimzed inspection module.sol\":902:919  inspectionCounter */\n      sload(0x01)\n        /* \"optimzed inspection module.sol\":855:992  Inspection({... */\n      0xffffffffffffffff\n      and\n      dup2\n      mstore\n      0x20\n      add\n        /* \"optimzed inspection module.sol\":945:950  false */\n      0x00\n        /* \"optimzed inspection module.sol\":855:992  Inspection({... */\n      iszero\n      iszero\n      dup2\n      mstore\n      0x20\n      add\n        /* \"optimzed inspection module.sol\":973:980  _report */\n      dup4\n      dup4\n        /* \"optimzed inspection module.sol\":855:992  Inspection({... */\n      dup1\n      dup1\n      0x1f\n      add\n      0x20\n      dup1\n      swap2\n      div\n      mul\n      0x20\n      add\n      mload(0x40)\n      swap1\n      dup2\n      add\n      0x40\n      mstore\n      dup1\n      swap4\n      swap3\n      swap2\n      swap1\n      dup2\n      dup2\n      mstore\n      0x20\n      add\n      dup4\n      dup4\n      dup1\n      dup3\n      dup5\n      calldatacopy\n      0x00\n      swap3\n      add\n      dup3\n      swap1\n      mstore\n      pop\n      swap4\n      swap1\n      swap5\n      mstore\n      pop\n      pop\n        /* \"optimzed inspection module.sol\":834:851  inspectionCounter */\n      0x01\n      dup1\n      sload\n        /* \"optimzed inspection module.sol\":822:852  inspections[inspectionCounter] */\n      dup3\n      mstore\n      0x20\n      dup3\n      dup2\n      mstore\n      0x40\n      swap3\n      dup4\n      swap1\n      keccak256\n        /* \"optimzed inspection module.sol\":822:992  inspections[inspectionCounter] = Inspection({... */\n      dup6\n      mload\n      dup2\n      sload\n      swap3\n      dup8\n      add\n      mload\n      iszero\n      iszero\n      shl(0x40, 0x01)\n      mul\n      not(0xffffffffffffffffff)\n      swap1\n      swap4\n      and\n      0xffffffffffffffff\n      swap1\n      swap2\n      and\n      or\n      swap2\n      swap1\n      swap2\n      or\n      dup2\n      sstore\n      swap2\n      dup5\n      add\n      mload\n        /* \"optimzed inspection module.sol\":822:852  inspections[inspectionCounter] */\n      swap2\n      swap3\n      pop\n        /* \"optimzed inspection module.sol\":822:992  inspections[inspectionCounter] = Inspection({... */\n      dup3\n      add\n      swap1\n      tag_40\n      swap1\n      dup3\n      tag_41\n      jump\t// in\n    tag_40:\n      pop\n      pop\n        /* \"optimzed inspection module.sol\":1030:1047  inspectionCounter */\n      sload(0x01)\n        /* \"optimzed inspection module.sol\":1010:1048  InspectionSubmitted(inspectionCounter) */\n      mload(0x40)\n        /* \"optimzed inspection module.sol\":1030:1047  inspectionCounter */\n      swap1\n      swap2\n      pop\n        /* \"optimzed inspection module.sol\":1010:1048  InspectionSubmitted(inspectionCounter) */\n      0x6486f03dc40683353e3169c2e66e0fff300c7182fe0797891a1ab553a28ec818\n      swap1\n      0x00\n      swap1\n      log2\n        /* \"optimzed inspection module.sol\":717:1056  function submitInspection(string calldata _report) external {... */\n      pop\n      pop\n      jump\t// out\n        /* \"optimzed inspection module.sol\":1663:1911  function getInspection(uint256 _id)... */\n    tag_28:\n      0x40\n      dup1\n      mload\n      0x60\n      dup1\n      dup3\n      add\n      dup4\n      mstore\n      0x00\n      dup1\n      dup4\n      mstore\n      0x20\n      dup4\n      add\n      mstore\n      swap2\n      dup2\n      add\n      swap2\n      swap1\n      swap2\n      mstore\n        /* \"optimzed inspection module.sol\":1784:1805  Inspection memory ins */\n      0x00\n        /* \"optimzed inspection module.sol\":1808:1824  inspections[_id] */\n      dup3\n      dup2\n      mstore\n      0x20\n      dup2\n      dup2\n      mstore\n      0x40\n      dup1\n      dup4\n      keccak256\n        /* \"optimzed inspection module.sol\":1784:1824  Inspection memory ins = inspections[_id] */\n      dup2\n      mload\n      0x60\n      dup2\n      add\n      dup4\n      mstore\n      dup2\n      sload\n      0xffffffffffffffff\n      dup2\n      and\n      dup3\n      mstore\n      shl(0x40, 0x01)\n      swap1\n      div\n      0xff\n      and\n      iszero\n      iszero\n      swap4\n      dup2\n      add\n      swap4\n      swap1\n      swap4\n      mstore\n      0x01\n      dup2\n      add\n      dup1\n      sload\n        /* \"optimzed inspection module.sol\":1808:1824  inspections[_id] */\n      swap2\n      swap3\n        /* \"optimzed inspection module.sol\":1784:1824  Inspection memory ins = inspections[_id] */\n      dup5\n      add\n      swap2\n      tag_46\n      swap1\n      tag_47\n      jump\t// in\n    tag_46:\n      dup1\n      0x1f\n      add\n      0x20\n      dup1\n      swap2\n      div\n      mul\n      0x20\n      add\n      mload(0x40)\n      swap1\n      dup2\n      add\n      0x40\n      mstore\n      dup1\n      swap3\n      swap2\n      swap1\n      dup2\n      dup2\n      mstore\n      0x20\n      add\n      dup3\n      dup1\n      sload\n      tag_48\n      swap1\n      tag_47\n      jump\t// in\n    tag_48:\n      dup1\n      iszero\n      tag_49\n      jumpi\n      dup1\n      0x1f\n      lt\n      tag_50\n      jumpi\n      0x0100\n      dup1\n      dup4\n      sload\n      div\n      mul\n      dup4\n      mstore\n      swap2\n      0x20\n      add\n      swap2\n      jump(tag_49)\n    tag_50:\n      dup3\n      add\n      swap2\n      swap1\n      0x00\n      mstore\n      keccak256(0x00, 0x20)\n      swap1\n    tag_51:\n      dup2\n      sload\n      dup2\n      mstore\n      swap1\n      0x01\n      add\n      swap1\n      0x20\n      add\n      dup1\n      dup4\n      gt\n      tag_51\n      jumpi\n      dup3\n      swap1\n      sub\n      0x1f\n      and\n      dup3\n      add\n      swap2\n    tag_49:\n      pop\n      pop\n      pop\n      pop\n      pop\n      dup2\n      mstore\n      pop\n      pop\n      swap1\n      pop\n        /* \"optimzed inspection module.sol\":1845:1848  ins */\n      dup1\n        /* \"optimzed inspection module.sol\":1845:1861  ins.inspectionId */\n      0x00\n      add\n      mload\n        /* \"optimzed inspection module.sol\":1845:1866  ins.inspectionId != 0 */\n      0xffffffffffffffff\n      and\n        /* \"optimzed inspection module.sol\":1865:1866  0 */\n      0x00\n        /* \"optimzed inspection module.sol\":1845:1866  ins.inspectionId != 0 */\n      sub\n        /* \"optimzed inspection module.sol\":1837:1880  require(ins.inspectionId != 0, \"Not found\") */\n      tag_52\n      jumpi\n      mload(0x40)\n      shl(0xe5, 0x461bcd)\n      dup2\n      mstore\n        /* \"#utility.yul\":2833:2835   */\n      0x20\n        /* \"optimzed inspection module.sol\":1837:1880  require(ins.inspectionId != 0, \"Not found\") */\n      0x04\n      dup3\n      add\n        /* \"#utility.yul\":2815:2836   */\n      mstore\n        /* \"#utility.yul\":2872:2873   */\n      0x09\n        /* \"#utility.yul\":2852:2870   */\n      0x24\n      dup3\n      add\n        /* \"#utility.yul\":2845:2874   */\n      mstore\n      shl(0xba, 0x139bdd08199bdd5b99)\n        /* \"#utility.yul\":2890:2908   */\n      0x44\n      dup3\n      add\n        /* \"#utility.yul\":2883:2922   */\n      mstore\n        /* \"#utility.yul\":2939:2957   */\n      0x64\n      add\n        /* \"optimzed inspection module.sol\":1837:1880  require(ins.inspectionId != 0, \"Not found\") */\n      tag_33\n        /* \"#utility.yul\":2631:2963   */\n      jump\n        /* \"optimzed inspection module.sol\":1837:1880  require(ins.inspectionId != 0, \"Not found\") */\n    tag_52:\n        /* \"optimzed inspection module.sol\":1900:1903  ins */\n      swap3\n        /* \"optimzed inspection module.sol\":1663:1911  function getInspection(uint256 _id)... */\n      swap2\n      pop\n      pop\n      jump\t// out\n        /* \"#utility.yul\":196:544   */\n    tag_54:\n        /* \"#utility.yul\":248:256   */\n      0x00\n        /* \"#utility.yul\":258:264   */\n      0x00\n        /* \"#utility.yul\":312:315   */\n      dup4\n        /* \"#utility.yul\":305:309   */\n      0x1f\n        /* \"#utility.yul\":297:303   */\n      dup5\n        /* \"#utility.yul\":293:310   */\n      add\n        /* \"#utility.yul\":289:316   */\n      slt\n        /* \"#utility.yul\":279:334   */\n      tag_62\n      jumpi\n        /* \"#utility.yul\":330:331   */\n      0x00\n        /* \"#utility.yul\":327:328   */\n      0x00\n        /* \"#utility.yul\":320:332   */\n      revert\n        /* \"#utility.yul\":279:334   */\n    tag_62:\n      pop\n        /* \"#utility.yul\":353:373   */\n      dup2\n      calldataload\n        /* \"#utility.yul\":396:414   */\n      0xffffffffffffffff\n        /* \"#utility.yul\":385:415   */\n      dup2\n      gt\n        /* \"#utility.yul\":382:432   */\n      iszero\n      tag_63\n      jumpi\n        /* \"#utility.yul\":428:429   */\n      0x00\n        /* \"#utility.yul\":425:426   */\n      0x00\n        /* \"#utility.yul\":418:430   */\n      revert\n        /* \"#utility.yul\":382:432   */\n    tag_63:\n        /* \"#utility.yul\":465:469   */\n      0x20\n        /* \"#utility.yul\":457:463   */\n      dup4\n        /* \"#utility.yul\":453:470   */\n      add\n        /* \"#utility.yul\":441:470   */\n      swap2\n      pop\n        /* \"#utility.yul\":517:520   */\n      dup4\n        /* \"#utility.yul\":510:514   */\n      0x20\n        /* \"#utility.yul\":501:507   */\n      dup3\n        /* \"#utility.yul\":493:499   */\n      dup6\n        /* \"#utility.yul\":489:508   */\n      add\n        /* \"#utility.yul\":485:515   */\n      add\n        /* \"#utility.yul\":482:521   */\n      gt\n        /* \"#utility.yul\":479:538   */\n      iszero\n      tag_64\n      jumpi\n        /* \"#utility.yul\":534:535   */\n      0x00\n        /* \"#utility.yul\":531:532   */\n      0x00\n        /* \"#utility.yul\":524:536   */\n      revert\n        /* \"#utility.yul\":479:538   */\n    tag_64:\n        /* \"#utility.yul\":196:544   */\n      swap3\n      pop\n      swap3\n      swap1\n      pop\n      jump\t// out\n        /* \"#utility.yul\":549:1074   */\n    tag_14:\n        /* \"#utility.yul\":629:635   */\n      0x00\n        /* \"#utility.yul\":637:643   */\n      0x00\n        /* \"#utility.yul\":645:651   */\n      0x00\n        /* \"#utility.yul\":698:700   */\n      0x40\n        /* \"#utility.yul\":686:695   */\n      dup5\n        /* \"#utility.yul\":677:684   */\n      dup7\n        /* \"#utility.yul\":673:696   */\n      sub\n        /* \"#utility.yul\":669:701   */\n      slt\n        /* \"#utility.yul\":666:718   */\n      iszero\n      tag_66\n      jumpi\n        /* \"#utility.yul\":714:715   */\n      0x00\n        /* \"#utility.yul\":711:712   */\n      0x00\n        /* \"#utility.yul\":704:716   */\n      revert\n        /* \"#utility.yul\":666:718   */\n    tag_66:\n        /* \"#utility.yul\":759:782   */\n      dup4\n      calldataload\n      swap3\n      pop\n        /* \"#utility.yul\":857:859   */\n      0x20\n        /* \"#utility.yul\":842:860   */\n      dup5\n      add\n        /* \"#utility.yul\":829:861   */\n      calldataload\n        /* \"#utility.yul\":884:902   */\n      0xffffffffffffffff\n        /* \"#utility.yul\":873:903   */\n      dup2\n      gt\n        /* \"#utility.yul\":870:920   */\n      iszero\n      tag_67\n      jumpi\n        /* \"#utility.yul\":916:917   */\n      0x00\n        /* \"#utility.yul\":913:914   */\n      0x00\n        /* \"#utility.yul\":906:918   */\n      revert\n        /* \"#utility.yul\":870:920   */\n    tag_67:\n        /* \"#utility.yul\":955:1014   */\n      tag_68\n        /* \"#utility.yul\":1006:1013   */\n      dup7\n        /* \"#utility.yul\":997:1003   */\n      dup3\n        /* \"#utility.yul\":986:995   */\n      dup8\n        /* \"#utility.yul\":982:1004   */\n      add\n        /* \"#utility.yul\":955:1014   */\n      tag_54\n      jump\t// in\n    tag_68:\n        /* \"#utility.yul\":549:1074   */\n      swap5\n      swap8\n        /* \"#utility.yul\":1033:1041   */\n      swap1\n      swap7\n      pop\n        /* \"#utility.yul\":929:1014   */\n      swap4\n      swap5\n      pop\n      pop\n      pop\n      pop\n        /* \"#utility.yul\":549:1074   */\n      jump\t// out\n        /* \"#utility.yul\":1079:1490   */\n    tag_18:\n        /* \"#utility.yul\":1150:1156   */\n      0x00\n        /* \"#utility.yul\":1158:1164   */\n      0x00\n        /* \"#utility.yul\":1211:1213   */\n      0x20\n        /* \"#utility.yul\":1199:1208   */\n      dup4\n        /* \"#utility.yul\":1190:1197   */\n      dup6\n        /* \"#utility.yul\":1186:1209   */\n      sub\n        /* \"#utility.yul\":1182:1214   */\n      slt\n        /* \"#utility.yul\":1179:1231   */\n      iszero\n      tag_70\n      jumpi\n        /* \"#utility.yul\":1227:1228   */\n      0x00\n        /* \"#utility.yul\":1224:1225   */\n      0x00\n        /* \"#utility.yul\":1217:1229   */\n      revert\n        /* \"#utility.yul\":1179:1231   */\n    tag_70:\n        /* \"#utility.yul\":1267:1276   */\n      dup3\n        /* \"#utility.yul\":1254:1277   */\n      calldataload\n        /* \"#utility.yul\":1300:1318   */\n      0xffffffffffffffff\n        /* \"#utility.yul\":1292:1298   */\n      dup2\n        /* \"#utility.yul\":1289:1319   */\n      gt\n        /* \"#utility.yul\":1286:1336   */\n      iszero\n      tag_71\n      jumpi\n        /* \"#utility.yul\":1332:1333   */\n      0x00\n        /* \"#utility.yul\":1329:1330   */\n      0x00\n        /* \"#utility.yul\":1322:1334   */\n      revert\n        /* \"#utility.yul\":1286:1336   */\n    tag_71:\n        /* \"#utility.yul\":1371:1430   */\n      tag_72\n        /* \"#utility.yul\":1422:1429   */\n      dup6\n        /* \"#utility.yul\":1413:1419   */\n      dup3\n        /* \"#utility.yul\":1402:1411   */\n      dup7\n        /* \"#utility.yul\":1398:1420   */\n      add\n        /* \"#utility.yul\":1371:1430   */\n      tag_54\n      jump\t// in\n    tag_72:\n        /* \"#utility.yul\":1449:1457   */\n      swap1\n      swap7\n        /* \"#utility.yul\":1345:1430   */\n      swap1\n      swap6\n      pop\n        /* \"#utility.yul\":1079:1490   */\n      swap4\n      pop\n      pop\n      pop\n      pop\n      jump\t// out\n        /* \"#utility.yul\":1495:1721   */\n    tag_22:\n        /* \"#utility.yul\":1554:1560   */\n      0x00\n        /* \"#utility.yul\":1607:1609   */\n      0x20\n        /* \"#utility.yul\":1595:1604   */\n      dup3\n        /* \"#utility.yul\":1586:1593   */\n      dup5\n        /* \"#utility.yul\":1582:1605   */\n      sub\n        /* \"#utility.yul\":1578:1610   */\n      slt\n        /* \"#utility.yul\":1575:1627   */\n      iszero\n      tag_74\n      jumpi\n        /* \"#utility.yul\":1623:1624   */\n      0x00\n        /* \"#utility.yul\":1620:1621   */\n      0x00\n        /* \"#utility.yul\":1613:1625   */\n      revert\n        /* \"#utility.yul\":1575:1627   */\n    tag_74:\n      pop\n        /* \"#utility.yul\":1668:1691   */\n      calldataload\n      swap2\n        /* \"#utility.yul\":1495:1721   */\n      swap1\n      pop\n      jump\t// out\n        /* \"#utility.yul\":1918:2626   */\n    tag_30:\n        /* \"#utility.yul\":2097:2099   */\n      0x20\n        /* \"#utility.yul\":2086:2095   */\n      dup2\n        /* \"#utility.yul\":2079:2100   */\n      mstore\n        /* \"#utility.yul\":2155:2173   */\n      0xffffffffffffffff\n        /* \"#utility.yul\":2146:2152   */\n      dup3\n        /* \"#utility.yul\":2140:2153   */\n      mload\n        /* \"#utility.yul\":2136:2174   */\n      and\n        /* \"#utility.yul\":2131:2133   */\n      0x20\n        /* \"#utility.yul\":2120:2129   */\n      dup3\n        /* \"#utility.yul\":2116:2134   */\n      add\n        /* \"#utility.yul\":2109:2175   */\n      mstore\n        /* \"#utility.yul\":2243:2245   */\n      0x20\n        /* \"#utility.yul\":2235:2241   */\n      dup3\n        /* \"#utility.yul\":2231:2246   */\n      add\n        /* \"#utility.yul\":2225:2247   */\n      mload\n        /* \"#utility.yul\":2218:2248   */\n      iszero\n        /* \"#utility.yul\":2211:2249   */\n      iszero\n        /* \"#utility.yul\":2206:2208   */\n      0x40\n        /* \"#utility.yul\":2195:2204   */\n      dup3\n        /* \"#utility.yul\":2191:2209   */\n      add\n        /* \"#utility.yul\":2184:2250   */\n      mstore\n        /* \"#utility.yul\":2060:2064   */\n      0x00\n        /* \"#utility.yul\":2297:2299   */\n      0x40\n        /* \"#utility.yul\":2289:2295   */\n      dup4\n        /* \"#utility.yul\":2285:2300   */\n      add\n        /* \"#utility.yul\":2279:2301   */\n      mload\n        /* \"#utility.yul\":2339:2343   */\n      0x60\n        /* \"#utility.yul\":2332:2336   */\n      dup1\n        /* \"#utility.yul\":2321:2330   */\n      dup5\n        /* \"#utility.yul\":2317:2337   */\n      add\n        /* \"#utility.yul\":2310:2344   */\n      mstore\n        /* \"#utility.yul\":2373:2385   */\n      dup1\n        /* \"#utility.yul\":2367:2386   */\n      mload\n        /* \"#utility.yul\":2423:2429   */\n      dup1\n        /* \"#utility.yul\":2417:2420   */\n      0x80\n        /* \"#utility.yul\":2406:2415   */\n      dup6\n        /* \"#utility.yul\":2402:2421   */\n      add\n        /* \"#utility.yul\":2395:2430   */\n      mstore\n        /* \"#utility.yul\":2489:2495   */\n      dup1\n        /* \"#utility.yul\":2484:2486   */\n      0x20\n        /* \"#utility.yul\":2470:2482   */\n      dup4\n        /* \"#utility.yul\":2466:2487   */\n      add\n        /* \"#utility.yul\":2460:2463   */\n      0xa0\n        /* \"#utility.yul\":2449:2458   */\n      dup7\n        /* \"#utility.yul\":2445:2464   */\n      add\n        /* \"#utility.yul\":2439:2496   */\n      mcopy\n        /* \"#utility.yul\":2546:2547   */\n      0x00\n        /* \"#utility.yul\":2540:2543   */\n      0xa0\n        /* \"#utility.yul\":2531:2537   */\n      dup3\n        /* \"#utility.yul\":2520:2529   */\n      dup7\n        /* \"#utility.yul\":2516:2538   */\n      add\n        /* \"#utility.yul\":2512:2544   */\n      add\n        /* \"#utility.yul\":2505:2548   */\n      mstore\n        /* \"#utility.yul\":2616:2619   */\n      0xa0\n        /* \"#utility.yul\":2609:2611   */\n      0x1f\n        /* \"#utility.yul\":2605:2612   */\n      not\n        /* \"#utility.yul\":2600:2602   */\n      0x1f\n        /* \"#utility.yul\":2592:2598   */\n      dup4\n        /* \"#utility.yul\":2588:2603   */\n      add\n        /* \"#utility.yul\":2584:2613   */\n      and\n        /* \"#utility.yul\":2573:2582   */\n      dup6\n        /* \"#utility.yul\":2569:2614   */\n      add\n        /* \"#utility.yul\":2565:2620   */\n      add\n        /* \"#utility.yul\":2557:2620   */\n      swap3\n      pop\n      pop\n      pop\n        /* \"#utility.yul\":1918:2626   */\n      swap3\n      swap2\n      pop\n      pop\n      jump\t// out\n        /* \"#utility.yul\":2968:3095   */\n    tag_55:\n        /* \"#utility.yul\":3029:3039   */\n      0x4e487b71\n        /* \"#utility.yul\":3024:3027   */\n      0xe0\n        /* \"#utility.yul\":3020:3040   */\n      shl\n        /* \"#utility.yul\":3017:3018   */\n      0x00\n        /* \"#utility.yul\":3010:3041   */\n      mstore\n        /* \"#utility.yul\":3060:3064   */\n      0x41\n        /* \"#utility.yul\":3057:3058   */\n      0x04\n        /* \"#utility.yul\":3050:3065   */\n      mstore\n        /* \"#utility.yul\":3084:3088   */\n      0x24\n        /* \"#utility.yul\":3081:3082   */\n      0x00\n        /* \"#utility.yul\":3074:3089   */\n      revert\n        /* \"#utility.yul\":3100:3480   */\n    tag_47:\n        /* \"#utility.yul\":3179:3180   */\n      0x01\n        /* \"#utility.yul\":3175:3187   */\n      dup2\n      dup2\n      shr\n      swap1\n        /* \"#utility.yul\":3222:3234   */\n      dup3\n      and\n      dup1\n        /* \"#utility.yul\":3243:3304   */\n      tag_80\n      jumpi\n        /* \"#utility.yul\":3297:3301   */\n      0x7f\n        /* \"#utility.yul\":3289:3295   */\n      dup3\n        /* \"#utility.yul\":3285:3302   */\n      and\n        /* \"#utility.yul\":3275:3302   */\n      swap2\n      pop\n        /* \"#utility.yul\":3243:3304   */\n    tag_80:\n        /* \"#utility.yul\":3350:3352   */\n      0x20\n        /* \"#utility.yul\":3342:3348   */\n      dup3\n        /* \"#utility.yul\":3339:3353   */\n      lt\n        /* \"#utility.yul\":3319:3337   */\n      dup2\n        /* \"#utility.yul\":3316:3354   */\n      sub\n        /* \"#utility.yul\":3313:3474   */\n      tag_81\n      jumpi\n        /* \"#utility.yul\":3396:3406   */\n      0x4e487b71\n        /* \"#utility.yul\":3391:3394   */\n      0xe0\n        /* \"#utility.yul\":3387:3407   */\n      shl\n        /* \"#utility.yul\":3384:3385   */\n      0x00\n        /* \"#utility.yul\":3377:3408   */\n      mstore\n        /* \"#utility.yul\":3431:3435   */\n      0x22\n        /* \"#utility.yul\":3428:3429   */\n      0x04\n        /* \"#utility.yul\":3421:3436   */\n      mstore\n        /* \"#utility.yul\":3459:3463   */\n      0x24\n        /* \"#utility.yul\":3456:3457   */\n      0x00\n        /* \"#utility.yul\":3449:3464   */\n      revert\n        /* \"#utility.yul\":3313:3474   */\n    tag_81:\n      pop\n        /* \"#utility.yul\":3100:3480   */\n      swap2\n      swap1\n      pop\n      jump\t// out\n        /* \"#utility.yul\":3611:4129   */\n    tag_57:\n        /* \"#utility.yul\":3713:3715   */\n      0x1f\n        /* \"#utility.yul\":3708:3711   */\n      dup3\n        /* \"#utility.yul\":3705:3716   */\n      gt\n        /* \"#utility.yul\":3702:4123   */\n      iszero\n      tag_84\n      jumpi\n        /* \"#utility.yul\":3749:3754   */\n      dup1\n        /* \"#utility.yul\":3746:3747   */\n      0x00\n        /* \"#utility.yul\":3739:3755   */\n      mstore\n        /* \"#utility.yul\":3793:3797   */\n      0x20\n        /* \"#utility.yul\":3790:3791   */\n      0x00\n        /* \"#utility.yul\":3780:3798   */\n      keccak256\n        /* \"#utility.yul\":3863:3865   */\n      0x1f\n        /* \"#utility.yul\":3851:3861   */\n      dup5\n        /* \"#utility.yul\":3847:3866   */\n      add\n        /* \"#utility.yul\":3844:3845   */\n      0x05\n        /* \"#utility.yul\":3840:3867   */\n      shr\n        /* \"#utility.yul\":3834:3838   */\n      dup2\n        /* \"#utility.yul\":3830:3868   */\n      add\n        /* \"#utility.yul\":3899:3903   */\n      0x20\n        /* \"#utility.yul\":3887:3897   */\n      dup6\n        /* \"#utility.yul\":3884:3904   */\n      lt\n        /* \"#utility.yul\":3881:3928   */\n      iszero\n      tag_85\n      jumpi\n      pop\n        /* \"#utility.yul\":3922:3926   */\n      dup1\n        /* \"#utility.yul\":3881:3928   */\n    tag_85:\n        /* \"#utility.yul\":3977:3979   */\n      0x1f\n        /* \"#utility.yul\":3972:3975   */\n      dup5\n        /* \"#utility.yul\":3968:3980   */\n      add\n        /* \"#utility.yul\":3965:3966   */\n      0x05\n        /* \"#utility.yul\":3961:3981   */\n      shr\n        /* \"#utility.yul\":3955:3959   */\n      dup3\n        /* \"#utility.yul\":3951:3982   */\n      add\n        /* \"#utility.yul\":3941:3982   */\n      swap2\n      pop\n        /* \"#utility.yul\":4032:4113   */\n    tag_86:\n        /* \"#utility.yul\":4050:4052   */\n      dup2\n        /* \"#utility.yul\":4043:4048   */\n      dup2\n        /* \"#utility.yul\":4040:4053   */\n      lt\n        /* \"#utility.yul\":4032:4113   */\n      iszero\n      tag_88\n      jumpi\n        /* \"#utility.yul\":4109:4110   */\n      0x00\n        /* \"#utility.yul\":4095:4111   */\n      dup2\n      sstore\n        /* \"#utility.yul\":4076:4077   */\n      0x01\n        /* \"#utility.yul\":4065:4078   */\n      add\n        /* \"#utility.yul\":4032:4113   */\n      jump(tag_86)\n    tag_88:\n        /* \"#utility.yul\":4036:4039   */\n      pop\n      pop\n        /* \"#utility.yul\":3702:4123   */\n    tag_84:\n        /* \"#utility.yul\":3611:4129   */\n      pop\n      pop\n      pop\n      jump\t// out\n        /* \"#utility.yul\":4305:5503   */\n    tag_36:\n        /* \"#utility.yul\":4429:4447   */\n      0xffffffffffffffff\n        /* \"#utility.yul\":4424:4427   */\n      dup4\n        /* \"#utility.yul\":4421:4448   */\n      gt\n        /* \"#utility.yul\":4418:4471   */\n      iszero\n      tag_92\n      jumpi\n        /* \"#utility.yul\":4451:4469   */\n      tag_92\n      tag_55\n      jump\t// in\n    tag_92:\n        /* \"#utility.yul\":4480:4574   */\n      tag_93\n        /* \"#utility.yul\":4570:4573   */\n      dup4\n        /* \"#utility.yul\":4530:4568   */\n      tag_94\n        /* \"#utility.yul\":4562:4566   */\n      dup4\n        /* \"#utility.yul\":4556:4567   */\n      sload\n        /* \"#utility.yul\":4530:4568   */\n      tag_47\n      jump\t// in\n    tag_94:\n        /* \"#utility.yul\":4524:4528   */\n      dup4\n        /* \"#utility.yul\":4480:4574   */\n      tag_57\n      jump\t// in\n    tag_93:\n        /* \"#utility.yul\":4600:4601   */\n      0x00\n        /* \"#utility.yul\":4625:4627   */\n      0x1f\n        /* \"#utility.yul\":4620:4623   */\n      dup5\n        /* \"#utility.yul\":4617:4628   */\n      gt\n        /* \"#utility.yul\":4642:4643   */\n      0x01\n        /* \"#utility.yul\":4637:5245   */\n      dup2\n      eq\n      tag_96\n      jumpi\n        /* \"#utility.yul\":5289:5290   */\n      0x00\n        /* \"#utility.yul\":5306:5309   */\n      dup6\n        /* \"#utility.yul\":5303:5396   */\n      iszero\n      tag_97\n      jumpi\n      pop\n        /* \"#utility.yul\":5362:5381   */\n      dup4\n      dup3\n      add\n        /* \"#utility.yul\":5349:5382   */\n      calldataload\n        /* \"#utility.yul\":5303:5396   */\n    tag_97:\n      not(0x00)\n        /* \"#utility.yul\":4262:4263   */\n      0x03\n        /* \"#utility.yul\":4258:4269   */\n      dup8\n      swap1\n      shl\n        /* \"#utility.yul\":4254:4278   */\n      shr\n        /* \"#utility.yul\":4250:4279   */\n      not\n        /* \"#utility.yul\":4240:4280   */\n      and\n        /* \"#utility.yul\":4286:4287   */\n      0x01\n        /* \"#utility.yul\":4282:4293   */\n      dup7\n      swap1\n      shl\n        /* \"#utility.yul\":4237:4294   */\n      or\n        /* \"#utility.yul\":5409:5487   */\n      dup4\n      sstore\n        /* \"#utility.yul\":4610:5497   */\n      jump(tag_88)\n        /* \"#utility.yul\":4637:5245   */\n    tag_96:\n        /* \"#utility.yul\":3558:3559   */\n      0x00\n        /* \"#utility.yul\":3551:3565   */\n      dup4\n      dup2\n      mstore\n        /* \"#utility.yul\":3595:3599   */\n      0x20\n        /* \"#utility.yul\":3582:3600   */\n      dup2\n      keccak256\n      not(0x1f)\n        /* \"#utility.yul\":4673:4690   */\n      dup8\n      and\n      swap2\n        /* \"#utility.yul\":4788:5017   */\n    tag_100:\n        /* \"#utility.yul\":4802:4809   */\n      dup3\n        /* \"#utility.yul\":4799:4800   */\n      dup2\n        /* \"#utility.yul\":4796:4810   */\n      lt\n        /* \"#utility.yul\":4788:5017   */\n      iszero\n      tag_102\n      jumpi\n        /* \"#utility.yul\":4891:4910   */\n      dup7\n      dup6\n      add\n        /* \"#utility.yul\":4878:4911   */\n      calldataload\n        /* \"#utility.yul\":4863:4912   */\n      dup3\n      sstore\n        /* \"#utility.yul\":4998:5002   */\n      0x20\n        /* \"#utility.yul\":4983:5003   */\n      swap5\n      dup6\n      add\n      swap5\n        /* \"#utility.yul\":4951:4952   */\n      0x01\n        /* \"#utility.yul\":4939:4953   */\n      swap1\n      swap3\n      add\n      swap2\n        /* \"#utility.yul\":4818:4830   */\n      add\n        /* \"#utility.yul\":4788:5017   */\n      jump(tag_100)\n    tag_102:\n        /* \"#utility.yul\":4792:4795   */\n      pop\n        /* \"#utility.yul\":5045:5048   */\n      dup7\n        /* \"#utility.yul\":5036:5043   */\n      dup3\n        /* \"#utility.yul\":5033:5049   */\n      lt\n        /* \"#utility.yul\":5030:5189   */\n      iszero\n      tag_103\n      jumpi\n        /* \"#utility.yul\":5169:5170   */\n      0x00\n        /* \"#utility.yul\":5165:5171   */\n      not\n        /* \"#utility.yul\":5159:5162   */\n      0xf8\n        /* \"#utility.yul\":5153:5156   */\n      dup9\n        /* \"#utility.yul\":5150:5151   */\n      0x03\n        /* \"#utility.yul\":5146:5157   */\n      shl\n        /* \"#utility.yul\":5142:5163   */\n      and\n        /* \"#utility.yul\":5138:5172   */\n      shr\n        /* \"#utility.yul\":5134:5173   */\n      not\n        /* \"#utility.yul\":5121:5130   */\n      dup5\n        /* \"#utility.yul\":5116:5119   */\n      dup8\n        /* \"#utility.yul\":5112:5131   */\n      add\n        /* \"#utility.yul\":5099:5132   */\n      calldataload\n        /* \"#utility.yul\":5095:5174   */\n      and\n        /* \"#utility.yul\":5087:5093   */\n      dup2\n        /* \"#utility.yul\":5080:5175   */\n      sstore\n        /* \"#utility.yul\":5030:5189   */\n    tag_103:\n      pop\n      pop\n        /* \"#utility.yul\":5232:5233   */\n      0x01\n        /* \"#utility.yul\":5226:5229   */\n      dup6\n        /* \"#utility.yul\":5223:5224   */\n      0x01\n        /* \"#utility.yul\":5219:5230   */\n      shl\n        /* \"#utility.yul\":5215:5234   */\n      add\n        /* \"#utility.yul\":5209:5213   */\n      dup4\n        /* \"#utility.yul\":5202:5235   */\n      sstore\n        /* \"#utility.yul\":4610:5497   */\n      pop\n      pop\n        /* \"#utility.yul\":4305:5503   */\n      pop\n      pop\n      pop\n      jump\t// out\n        /* \"#utility.yul\":5508:5740   */\n    tag_39:\n        /* \"#utility.yul\":5547:5550   */\n      0x00\n        /* \"#utility.yul\":5568:5585   */\n      0x01\n      dup3\n      add\n        /* \"#utility.yul\":5565:5705   */\n      tag_105\n      jumpi\n        /* \"#utility.yul\":5627:5637   */\n      0x4e487b71\n        /* \"#utility.yul\":5622:5625   */\n      0xe0\n        /* \"#utility.yul\":5618:5638   */\n      shl\n        /* \"#utility.yul\":5615:5616   */\n      0x00\n        /* \"#utility.yul\":5608:5639   */\n      mstore\n        /* \"#utility.yul\":5662:5666   */\n      0x11\n        /* \"#utility.yul\":5659:5660   */\n      0x04\n        /* \"#utility.yul\":5652:5667   */\n      mstore\n        /* \"#utility.yul\":5690:5694   */\n      0x24\n        /* \"#utility.yul\":5687:5688   */\n      0x00\n        /* \"#utility.yul\":5680:5695   */\n      revert\n        /* \"#utility.yul\":5565:5705   */\n    tag_105:\n      pop\n        /* \"#utility.yul\":5732:5733   */\n      0x01\n        /* \"#utility.yul\":5721:5734   */\n      add\n      swap1\n        /* \"#utility.yul\":5508:5740   */\n      jump\t// out\n        /* \"#utility.yul\":5745:7044   */\n    tag_41:\n        /* \"#utility.yul\":5871:5874   */\n      dup2\n        /* \"#utility.yul\":5865:5875   */\n      mload\n        /* \"#utility.yul\":5898:5916   */\n      0xffffffffffffffff\n        /* \"#utility.yul\":5890:5896   */\n      dup2\n        /* \"#utility.yul\":5887:5917   */\n      gt\n        /* \"#utility.yul\":5884:5940   */\n      iszero\n      tag_108\n      jumpi\n        /* \"#utility.yul\":5920:5938   */\n      tag_108\n      tag_55\n      jump\t// in\n    tag_108:\n        /* \"#utility.yul\":5949:6046   */\n      tag_109\n        /* \"#utility.yul\":6039:6045   */\n      dup2\n        /* \"#utility.yul\":5999:6037   */\n      tag_110\n        /* \"#utility.yul\":6031:6035   */\n      dup5\n        /* \"#utility.yul\":6025:6036   */\n      sload\n        /* \"#utility.yul\":5999:6037   */\n      tag_47\n      jump\t// in\n    tag_110:\n        /* \"#utility.yul\":5993:5997   */\n      dup5\n        /* \"#utility.yul\":5949:6046   */\n      tag_57\n      jump\t// in\n    tag_109:\n        /* \"#utility.yul\":6095:6099   */\n      0x20\n        /* \"#utility.yul\":6126:6128   */\n      0x1f\n        /* \"#utility.yul\":6115:6129   */\n      dup3\n      gt\n        /* \"#utility.yul\":6143:6144   */\n      0x01\n        /* \"#utility.yul\":6138:6787   */\n      dup2\n      eq\n      tag_112\n      jumpi\n        /* \"#utility.yul\":6831:6832   */\n      0x00\n        /* \"#utility.yul\":6848:6854   */\n      dup4\n        /* \"#utility.yul\":6845:6934   */\n      iszero\n      tag_113\n      jumpi\n      pop\n        /* \"#utility.yul\":6900:6919   */\n      dup5\n      dup3\n      add\n        /* \"#utility.yul\":6894:6920   */\n      mload\n        /* \"#utility.yul\":6845:6934   */\n    tag_113:\n      not(0x00)\n        /* \"#utility.yul\":4262:4263   */\n      0x03\n        /* \"#utility.yul\":4258:4269   */\n      dup6\n      swap1\n      shl\n        /* \"#utility.yul\":4254:4278   */\n      shr\n        /* \"#utility.yul\":4250:4279   */\n      not\n        /* \"#utility.yul\":4240:4280   */\n      and\n        /* \"#utility.yul\":4286:4287   */\n      0x01\n        /* \"#utility.yul\":4282:4293   */\n      dup5\n      swap1\n      shl\n        /* \"#utility.yul\":4237:4294   */\n      or\n        /* \"#utility.yul\":6947:7028   */\n      dup5\n      sstore\n        /* \"#utility.yul\":6108:7038   */\n      jump(tag_88)\n        /* \"#utility.yul\":6138:6787   */\n    tag_112:\n        /* \"#utility.yul\":3558:3559   */\n      0x00\n        /* \"#utility.yul\":3551:3565   */\n      dup5\n      dup2\n      mstore\n        /* \"#utility.yul\":3595:3599   */\n      0x20\n        /* \"#utility.yul\":3582:3600   */\n      dup2\n      keccak256\n      not(0x1f)\n        /* \"#utility.yul\":6174:6194   */\n      dup6\n      and\n      swap2\n        /* \"#utility.yul\":6292:6514   */\n    tag_116:\n        /* \"#utility.yul\":6306:6313   */\n      dup3\n        /* \"#utility.yul\":6303:6304   */\n      dup2\n        /* \"#utility.yul\":6300:6314   */\n      lt\n        /* \"#utility.yul\":6292:6514   */\n      iszero\n      tag_118\n      jumpi\n        /* \"#utility.yul\":6388:6407   */\n      dup8\n      dup6\n      add\n        /* \"#utility.yul\":6382:6408   */\n      mload\n        /* \"#utility.yul\":6367:6409   */\n      dup3\n      sstore\n        /* \"#utility.yul\":6495:6499   */\n      0x20\n        /* \"#utility.yul\":6480:6500   */\n      swap5\n      dup6\n      add\n      swap5\n        /* \"#utility.yul\":6448:6449   */\n      0x01\n        /* \"#utility.yul\":6436:6450   */\n      swap1\n      swap3\n      add\n      swap2\n        /* \"#utility.yul\":6322:6334   */\n      add\n        /* \"#utility.yul\":6292:6514   */\n      jump(tag_116)\n    tag_118:\n        /* \"#utility.yul\":6296:6299   */\n      pop\n        /* \"#utility.yul\":6542:6548   */\n      dup5\n        /* \"#utility.yul\":6533:6540   */\n      dup3\n        /* \"#utility.yul\":6530:6549   */\n      lt\n        /* \"#utility.yul\":6527:6728   */\n      iszero\n      tag_119\n      jumpi\n        /* \"#utility.yul\":6603:6622   */\n      dup7\n      dup5\n      add\n        /* \"#utility.yul\":6597:6623   */\n      mload\n      not(0x00)\n        /* \"#utility.yul\":6686:6687   */\n      0x03\n        /* \"#utility.yul\":6682:6696   */\n      dup8\n      swap1\n      shl\n        /* \"#utility.yul\":6698:6701   */\n      0xf8\n        /* \"#utility.yul\":6678:6702   */\n      and\n        /* \"#utility.yul\":6674:6711   */\n      shr\n        /* \"#utility.yul\":6670:6712   */\n      not\n        /* \"#utility.yul\":6655:6713   */\n      and\n        /* \"#utility.yul\":6640:6714   */\n      dup2\n      sstore\n        /* \"#utility.yul\":6527:6728   */\n    tag_119:\n      pop\n      pop\n      pop\n      pop\n        /* \"#utility.yul\":6774:6775   */\n      0x01\n        /* \"#utility.yul\":6758:6772   */\n      swap1\n      dup2\n      shl\n        /* \"#utility.yul\":6754:6776   */\n      add\n        /* \"#utility.yul\":6741:6777   */\n      swap1\n      sstore\n      pop\n        /* \"#utility.yul\":5745:7044   */\n      jump\t// out\n\n    auxdata: 0xa26469706673582212207390fab99bf49cb6c1687096d3f57634fcdb8b8b09330f1c93e250bab6bd08c364736f6c634300081e0033\n}\n",
				"bytecode": {
					"linkReferences": {},
					"object": "6080604052348015600e575f5ffd5b5061076b8061001c5f395ff3fe608060405234801561000f575f5ffd5b5060043610610055575f3560e01c80632fd2303c1461005957806338d80ea614610075578063428bcaf91461008a5780637910867b1461009d578063f2836670146100d6575b5f5ffd5b61006260015481565b6040519081526020015b60405180910390f35b610088610083366004610408565b6100f6565b005b610088610098366004610450565b610192565b6100c66100ab36600461048f565b5f90815260208190526040902054600160401b900460ff1690565b604051901515815260200161006c565b6100e96100e436600461048f565b61028c565b60405161006c91906104a6565b5f8381526020819052604081208054909167ffffffffffffffff90911690036101525760405162461bcd60e51b8152602060048201526009602482015268139bdd08199bdd5b9960ba1b60448201526064015b60405180910390fd5b6001810161016183858361059c565b5060405184907f2cb5d4cb05e7deefd97af518223b1c2708b1d3d0220092fd0f8653952559a026905f90a250505050565b60018054905f6101a183610656565b9190505550604051806060016040528060015467ffffffffffffffff1681526020015f1515815260200183838080601f0160208091040260200160405190810160405280939291908181526020018383808284375f920182905250939094525050600180548252602082815260409283902085518154928701511515600160401b0268ffffffffffffffffff1990931667ffffffffffffffff9091161791909117815591840151919250820190610258908261067a565b50506001546040519091507f6486f03dc40683353e3169c2e66e0fff300c7182fe0797891a1ab553a28ec818905f90a25050565b60408051606080820183525f8083526020830152918101919091525f828152602081815260408083208151606081018352815467ffffffffffffffff81168252600160401b900460ff1615159381019390935260018101805491928401916102f390610518565b80601f016020809104026020016040519081016040528092919081815260200182805461031f90610518565b801561036a5780601f106103415761010080835404028352916020019161036a565b820191905f5260205f20905b81548152906001019060200180831161034d57829003601f168201915b5050505050815250509050805f015167ffffffffffffffff165f036103bd5760405162461bcd60e51b8152602060048201526009602482015268139bdd08199bdd5b9960ba1b6044820152606401610149565b92915050565b5f5f83601f8401126103d3575f5ffd5b50813567ffffffffffffffff8111156103ea575f5ffd5b602083019150836020828501011115610401575f5ffd5b9250929050565b5f5f5f6040848603121561041a575f5ffd5b83359250602084013567ffffffffffffffff811115610437575f5ffd5b610443868287016103c3565b9497909650939450505050565b5f5f60208385031215610461575f5ffd5b823567ffffffffffffffff811115610477575f5ffd5b610483858286016103c3565b90969095509350505050565b5f6020828403121561049f575f5ffd5b5035919050565b6020815267ffffffffffffffff82511660208201526020820151151560408201525f60408301516060808401528051806080850152806020830160a086015e5f60a0828601015260a0601f19601f8301168501019250505092915050565b634e487b7160e01b5f52604160045260245ffd5b600181811c9082168061052c57607f821691505b60208210810361054a57634e487b7160e01b5f52602260045260245ffd5b50919050565b601f82111561059757805f5260205f20601f840160051c810160208510156105755750805b601f840160051c820191505b81811015610594575f8155600101610581565b50505b505050565b67ffffffffffffffff8311156105b4576105b4610504565b6105c8836105c28354610518565b83610550565b5f601f8411600181146105f9575f85156105e25750838201355b5f19600387901b1c1916600186901b178355610594565b5f83815260208120601f198716915b828110156106285786850135825560209485019460019092019101610608565b5086821015610644575f1960f88860031b161c19848701351681555b505060018560011b0183555050505050565b5f6001820161067357634e487b7160e01b5f52601160045260245ffd5b5060010190565b815167ffffffffffffffff81111561069457610694610504565b6106a8816106a28454610518565b84610550565b6020601f8211600181146106da575f83156106c35750848201515b5f19600385901b1c1916600184901b178455610594565b5f84815260208120601f198516915b8281101561070957878501518255602094850194600190920191016106e9565b508482101561072657868401515f19600387901b60f8161c191681555b50505050600190811b0190555056fea26469706673582212207390fab99bf49cb6c1687096d3f57634fcdb8b8b09330f1c93e250bab6bd08c364736f6c634300081e0033",
					"opcodes": "PUSH1 0x80 PUSH1 0x40 MSTORE CALLVALUE DUP1 ISZERO PUSH1 0xE JUMPI PUSH0 PUSH0 REVERT JUMPDEST POP PUSH2 0x76B DUP1 PUSH2 0x1C PUSH0 CODECOPY PUSH0 RETURN INVALID PUSH1 0x80 PUSH1 0x40 MSTORE CALLVALUE DUP1 ISZERO PUSH2 0xF JUMPI PUSH0 PUSH0 REVERT JUMPDEST POP PUSH1 0x4 CALLDATASIZE LT PUSH2 0x55 JUMPI PUSH0 CALLDATALOAD PUSH1 0xE0 SHR DUP1 PUSH4 0x2FD2303C EQ PUSH2 0x59 JUMPI DUP1 PUSH4 0x38D80EA6 EQ PUSH2 0x75 JUMPI DUP1 PUSH4 0x428BCAF9 EQ PUSH2 0x8A JUMPI DUP1 PUSH4 0x7910867B EQ PUSH2 0x9D JUMPI DUP1 PUSH4 0xF2836670 EQ PUSH2 0xD6 JUMPI JUMPDEST PUSH0 PUSH0 REVERT JUMPDEST PUSH2 0x62 PUSH1 0x1 SLOAD DUP2 JUMP JUMPDEST PUSH1 0x40 MLOAD SWAP1 DUP2 MSTORE PUSH1 0x20 ADD JUMPDEST PUSH1 0x40 MLOAD DUP1 SWAP2 SUB SWAP1 RETURN JUMPDEST PUSH2 0x88 PUSH2 0x83 CALLDATASIZE PUSH1 0x4 PUSH2 0x408 JUMP JUMPDEST PUSH2 0xF6 JUMP JUMPDEST STOP JUMPDEST PUSH2 0x88 PUSH2 0x98 CALLDATASIZE PUSH1 0x4 PUSH2 0x450 JUMP JUMPDEST PUSH2 0x192 JUMP JUMPDEST PUSH2 0xC6 PUSH2 0xAB CALLDATASIZE PUSH1 0x4 PUSH2 0x48F JUMP JUMPDEST PUSH0 SWAP1 DUP2 MSTORE PUSH1 0x20 DUP2 SWAP1 MSTORE PUSH1 0x40 SWAP1 KECCAK256 SLOAD PUSH1 0x1 PUSH1 0x40 SHL SWAP1 DIV PUSH1 0xFF AND SWAP1 JUMP JUMPDEST PUSH1 0x40 MLOAD SWAP1 ISZERO ISZERO DUP2 MSTORE PUSH1 0x20 ADD PUSH2 0x6C JUMP JUMPDEST PUSH2 0xE9 PUSH2 0xE4 CALLDATASIZE PUSH1 0x4 PUSH2 0x48F JUMP JUMPDEST PUSH2 0x28C JUMP JUMPDEST PUSH1 0x40 MLOAD PUSH2 0x6C SWAP2 SWAP1 PUSH2 0x4A6 JUMP JUMPDEST PUSH0 DUP4 DUP2 MSTORE PUSH1 0x20 DUP2 SWAP1 MSTORE PUSH1 0x40 DUP2 KECCAK256 DUP1 SLOAD SWAP1 SWAP2 PUSH8 0xFFFFFFFFFFFFFFFF SWAP1 SWAP2 AND SWAP1 SUB PUSH2 0x152 JUMPI PUSH1 0x40 MLOAD PUSH3 0x461BCD PUSH1 0xE5 SHL DUP2 MSTORE PUSH1 0x20 PUSH1 0x4 DUP3 ADD MSTORE PUSH1 0x9 PUSH1 0x24 DUP3 ADD MSTORE PUSH9 0x139BDD08199BDD5B99 PUSH1 0xBA SHL PUSH1 0x44 DUP3 ADD MSTORE PUSH1 0x64 ADD JUMPDEST PUSH1 0x40 MLOAD DUP1 SWAP2 SUB SWAP1 REVERT JUMPDEST PUSH1 0x1 DUP2 ADD PUSH2 0x161 DUP4 DUP6 DUP4 PUSH2 0x59C JUMP JUMPDEST POP PUSH1 0x40 MLOAD DUP5 SWAP1 PUSH32 0x2CB5D4CB05E7DEEFD97AF518223B1C2708B1D3D0220092FD0F8653952559A026 SWAP1 PUSH0 SWAP1 LOG2 POP POP POP POP JUMP JUMPDEST PUSH1 0x1 DUP1 SLOAD SWAP1 PUSH0 PUSH2 0x1A1 DUP4 PUSH2 0x656 JUMP JUMPDEST SWAP2 SWAP1 POP SSTORE POP PUSH1 0x40 MLOAD DUP1 PUSH1 0x60 ADD PUSH1 0x40 MSTORE DUP1 PUSH1 0x1 SLOAD PUSH8 0xFFFFFFFFFFFFFFFF AND DUP2 MSTORE PUSH1 0x20 ADD PUSH0 ISZERO ISZERO DUP2 MSTORE PUSH1 0x20 ADD DUP4 DUP4 DUP1 DUP1 PUSH1 0x1F ADD PUSH1 0x20 DUP1 SWAP2 DIV MUL PUSH1 0x20 ADD PUSH1 0x40 MLOAD SWAP1 DUP2 ADD PUSH1 0x40 MSTORE DUP1 SWAP4 SWAP3 SWAP2 SWAP1 DUP2 DUP2 MSTORE PUSH1 0x20 ADD DUP4 DUP4 DUP1 DUP3 DUP5 CALLDATACOPY PUSH0 SWAP3 ADD DUP3 SWAP1 MSTORE POP SWAP4 SWAP1 SWAP5 MSTORE POP POP PUSH1 0x1 DUP1 SLOAD DUP3 MSTORE PUSH1 0x20 DUP3 DUP2 MSTORE PUSH1 0x40 SWAP3 DUP4 SWAP1 KECCAK256 DUP6 MLOAD DUP2 SLOAD SWAP3 DUP8 ADD MLOAD ISZERO ISZERO PUSH1 0x1 PUSH1 0x40 SHL MUL PUSH9 0xFFFFFFFFFFFFFFFFFF NOT SWAP1 SWAP4 AND PUSH8 0xFFFFFFFFFFFFFFFF SWAP1 SWAP2 AND OR SWAP2 SWAP1 SWAP2 OR DUP2 SSTORE SWAP2 DUP5 ADD MLOAD SWAP2 SWAP3 POP DUP3 ADD SWAP1 PUSH2 0x258 SWAP1 DUP3 PUSH2 0x67A JUMP JUMPDEST POP POP PUSH1 0x1 SLOAD PUSH1 0x40 MLOAD SWAP1 SWAP2 POP PUSH32 0x6486F03DC40683353E3169C2E66E0FFF300C7182FE0797891A1AB553A28EC818 SWAP1 PUSH0 SWAP1 LOG2 POP POP JUMP JUMPDEST PUSH1 0x40 DUP1 MLOAD PUSH1 0x60 DUP1 DUP3 ADD DUP4 MSTORE PUSH0 DUP1 DUP4 MSTORE PUSH1 0x20 DUP4 ADD MSTORE SWAP2 DUP2 ADD SWAP2 SWAP1 SWAP2 MSTORE PUSH0 DUP3 DUP2 MSTORE PUSH1 0x20 DUP2 DUP2 MSTORE PUSH1 0x40 DUP1 DUP4 KECCAK256 DUP2 MLOAD PUSH1 0x60 DUP2 ADD DUP4 MSTORE DUP2 SLOAD PUSH8 0xFFFFFFFFFFFFFFFF DUP2 AND DUP3 MSTORE PUSH1 0x1 PUSH1 0x40 SHL SWAP1 DIV PUSH1 0xFF AND ISZERO ISZERO SWAP4 DUP2 ADD SWAP4 SWAP1 SWAP4 MSTORE PUSH1 0x1 DUP2 ADD DUP1 SLOAD SWAP2 SWAP3 DUP5 ADD SWAP2 PUSH2 0x2F3 SWAP1 PUSH2 0x518 JUMP JUMPDEST DUP1 PUSH1 0x1F ADD PUSH1 0x20 DUP1 SWAP2 DIV MUL PUSH1 0x20 ADD PUSH1 0x40 MLOAD SWAP1 DUP2 ADD PUSH1 0x40 MSTORE DUP1 SWAP3 SWAP2 SWAP1 DUP2 DUP2 MSTORE PUSH1 0x20 ADD DUP3 DUP1 SLOAD PUSH2 0x31F SWAP1 PUSH2 0x518 JUMP JUMPDEST DUP1 ISZERO PUSH2 0x36A JUMPI DUP1 PUSH1 0x1F LT PUSH2 0x341 JUMPI PUSH2 0x100 DUP1 DUP4 SLOAD DIV MUL DUP4 MSTORE SWAP2 PUSH1 0x20 ADD SWAP2 PUSH2 0x36A JUMP JUMPDEST DUP3 ADD SWAP2 SWAP1 PUSH0 MSTORE PUSH1 0x20 PUSH0 KECCAK256 SWAP1 JUMPDEST DUP2 SLOAD DUP2 MSTORE SWAP1 PUSH1 0x1 ADD SWAP1 PUSH1 0x20 ADD DUP1 DUP4 GT PUSH2 0x34D JUMPI DUP3 SWAP1 SUB PUSH1 0x1F AND DUP3 ADD SWAP2 JUMPDEST POP POP POP POP POP DUP2 MSTORE POP POP SWAP1 POP DUP1 PUSH0 ADD MLOAD PUSH8 0xFFFFFFFFFFFFFFFF AND PUSH0 SUB PUSH2 0x3BD JUMPI PUSH1 0x40 MLOAD PUSH3 0x461BCD PUSH1 0xE5 SHL DUP2 MSTORE PUSH1 0x20 PUSH1 0x4 DUP3 ADD MSTORE PUSH1 0x9 PUSH1 0x24 DUP3 ADD MSTORE PUSH9 0x139BDD08199BDD5B99 PUSH1 0xBA SHL PUSH1 0x44 DUP3 ADD MSTORE PUSH1 0x64 ADD PUSH2 0x149 JUMP JUMPDEST SWAP3 SWAP2 POP POP JUMP JUMPDEST PUSH0 PUSH0 DUP4 PUSH1 0x1F DUP5 ADD SLT PUSH2 0x3D3 JUMPI PUSH0 PUSH0 REVERT JUMPDEST POP DUP2 CALLDATALOAD PUSH8 0xFFFFFFFFFFFFFFFF DUP2 GT ISZERO PUSH2 0x3EA JUMPI PUSH0 PUSH0 REVERT JUMPDEST PUSH1 0x20 DUP4 ADD SWAP2 POP DUP4 PUSH1 0x20 DUP3 DUP6 ADD ADD GT ISZERO PUSH2 0x401 JUMPI PUSH0 PUSH0 REVERT JUMPDEST SWAP3 POP SWAP3 SWAP1 POP JUMP JUMPDEST PUSH0 PUSH0 PUSH0 PUSH1 0x40 DUP5 DUP7 SUB SLT ISZERO PUSH2 0x41A JUMPI PUSH0 PUSH0 REVERT JUMPDEST DUP4 CALLDATALOAD SWAP3 POP PUSH1 0x20 DUP5 ADD CALLDATALOAD PUSH8 0xFFFFFFFFFFFFFFFF DUP2 GT ISZERO PUSH2 0x437 JUMPI PUSH0 PUSH0 REVERT JUMPDEST PUSH2 0x443 DUP7 DUP3 DUP8 ADD PUSH2 0x3C3 JUMP JUMPDEST SWAP5 SWAP8 SWAP1 SWAP7 POP SWAP4 SWAP5 POP POP POP POP JUMP JUMPDEST PUSH0 PUSH0 PUSH1 0x20 DUP4 DUP6 SUB SLT ISZERO PUSH2 0x461 JUMPI PUSH0 PUSH0 REVERT JUMPDEST DUP3 CALLDATALOAD PUSH8 0xFFFFFFFFFFFFFFFF DUP2 GT ISZERO PUSH2 0x477 JUMPI PUSH0 PUSH0 REVERT JUMPDEST PUSH2 0x483 DUP6 DUP3 DUP7 ADD PUSH2 0x3C3 JUMP JUMPDEST SWAP1 SWAP7 SWAP1 SWAP6 POP SWAP4 POP POP POP POP JUMP JUMPDEST PUSH0 PUSH1 0x20 DUP3 DUP5 SUB SLT ISZERO PUSH2 0x49F JUMPI PUSH0 PUSH0 REVERT JUMPDEST POP CALLDATALOAD SWAP2 SWAP1 POP JUMP JUMPDEST PUSH1 0x20 DUP2 MSTORE PUSH8 0xFFFFFFFFFFFFFFFF DUP3 MLOAD AND PUSH1 0x20 DUP3 ADD MSTORE PUSH1 0x20 DUP3 ADD MLOAD ISZERO ISZERO PUSH1 0x40 DUP3 ADD MSTORE PUSH0 PUSH1 0x40 DUP4 ADD MLOAD PUSH1 0x60 DUP1 DUP5 ADD MSTORE DUP1 MLOAD DUP1 PUSH1 0x80 DUP6 ADD MSTORE DUP1 PUSH1 0x20 DUP4 ADD PUSH1 0xA0 DUP7 ADD MCOPY PUSH0 PUSH1 0xA0 DUP3 DUP7 ADD ADD MSTORE PUSH1 0xA0 PUSH1 0x1F NOT PUSH1 0x1F DUP4 ADD AND DUP6 ADD ADD SWAP3 POP POP POP SWAP3 SWAP2 POP POP JUMP JUMPDEST PUSH4 0x4E487B71 PUSH1 0xE0 SHL PUSH0 MSTORE PUSH1 0x41 PUSH1 0x4 MSTORE PUSH1 0x24 PUSH0 REVERT JUMPDEST PUSH1 0x1 DUP2 DUP2 SHR SWAP1 DUP3 AND DUP1 PUSH2 0x52C JUMPI PUSH1 0x7F DUP3 AND SWAP2 POP JUMPDEST PUSH1 0x20 DUP3 LT DUP2 SUB PUSH2 0x54A JUMPI PUSH4 0x4E487B71 PUSH1 0xE0 SHL PUSH0 MSTORE PUSH1 0x22 PUSH1 0x4 MSTORE PUSH1 0x24 PUSH0 REVERT JUMPDEST POP SWAP2 SWAP1 POP JUMP JUMPDEST PUSH1 0x1F DUP3 GT ISZERO PUSH2 0x597 JUMPI DUP1 PUSH0 MSTORE PUSH1 0x20 PUSH0 KECCAK256 PUSH1 0x1F DUP5 ADD PUSH1 0x5 SHR DUP2 ADD PUSH1 0x20 DUP6 LT ISZERO PUSH2 0x575 JUMPI POP DUP1 JUMPDEST PUSH1 0x1F DUP5 ADD PUSH1 0x5 SHR DUP3 ADD SWAP2 POP JUMPDEST DUP2 DUP2 LT ISZERO PUSH2 0x594 JUMPI PUSH0 DUP2 SSTORE PUSH1 0x1 ADD PUSH2 0x581 JUMP JUMPDEST POP POP JUMPDEST POP POP POP JUMP JUMPDEST PUSH8 0xFFFFFFFFFFFFFFFF DUP4 GT ISZERO PUSH2 0x5B4 JUMPI PUSH2 0x5B4 PUSH2 0x504 JUMP JUMPDEST PUSH2 0x5C8 DUP4 PUSH2 0x5C2 DUP4 SLOAD PUSH2 0x518 JUMP JUMPDEST DUP4 PUSH2 0x550 JUMP JUMPDEST PUSH0 PUSH1 0x1F DUP5 GT PUSH1 0x1 DUP2 EQ PUSH2 0x5F9 JUMPI PUSH0 DUP6 ISZERO PUSH2 0x5E2 JUMPI POP DUP4 DUP3 ADD CALLDATALOAD JUMPDEST PUSH0 NOT PUSH1 0x3 DUP8 SWAP1 SHL SHR NOT AND PUSH1 0x1 DUP7 SWAP1 SHL OR DUP4 SSTORE PUSH2 0x594 JUMP JUMPDEST PUSH0 DUP4 DUP2 MSTORE PUSH1 0x20 DUP2 KECCAK256 PUSH1 0x1F NOT DUP8 AND SWAP2 JUMPDEST DUP3 DUP2 LT ISZERO PUSH2 0x628 JUMPI DUP7 DUP6 ADD CALLDATALOAD DUP3 SSTORE PUSH1 0x20 SWAP5 DUP6 ADD SWAP5 PUSH1 0x1 SWAP1 SWAP3 ADD SWAP2 ADD PUSH2 0x608 JUMP JUMPDEST POP DUP7 DUP3 LT ISZERO PUSH2 0x644 JUMPI PUSH0 NOT PUSH1 0xF8 DUP9 PUSH1 0x3 SHL AND SHR NOT DUP5 DUP8 ADD CALLDATALOAD AND DUP2 SSTORE JUMPDEST POP POP PUSH1 0x1 DUP6 PUSH1 0x1 SHL ADD DUP4 SSTORE POP POP POP POP POP JUMP JUMPDEST PUSH0 PUSH1 0x1 DUP3 ADD PUSH2 0x673 JUMPI PUSH4 0x4E487B71 PUSH1 0xE0 SHL PUSH0 MSTORE PUSH1 0x11 PUSH1 0x4 MSTORE PUSH1 0x24 PUSH0 REVERT JUMPDEST POP PUSH1 0x1 ADD SWAP1 JUMP JUMPDEST DUP2 MLOAD PUSH8 0xFFFFFFFFFFFFFFFF DUP2 GT ISZERO PUSH2 0x694 JUMPI PUSH2 0x694 PUSH2 0x504 JUMP JUMPDEST PUSH2 0x6A8 DUP2 PUSH2 0x6A2 DUP5 SLOAD PUSH2 0x518 JUMP JUMPDEST DUP5 PUSH2 0x550 JUMP JUMPDEST PUSH1 0x20 PUSH1 0x1F DUP3 GT PUSH1 0x1 DUP2 EQ PUSH2 0x6DA JUMPI PUSH0 DUP4 ISZERO PUSH2 0x6C3 JUMPI POP DUP5 DUP3 ADD MLOAD JUMPDEST PUSH0 NOT PUSH1 0x3 DUP6 SWAP1 SHL SHR NOT AND PUSH1 0x1 DUP5 SWAP1 SHL OR DUP5 SSTORE PUSH2 0x594 JUMP JUMPDEST PUSH0 DUP5 DUP2 MSTORE PUSH1 0x20 DUP2 KECCAK256 PUSH1 0x1F NOT DUP6 AND SWAP2 JUMPDEST DUP3 DUP2 LT ISZERO PUSH2 0x709 JUMPI DUP8 DUP6 ADD MLOAD DUP3 SSTORE PUSH1 0x20 SWAP5 DUP6 ADD SWAP5 PUSH1 0x1 SWAP1 SWAP3 ADD SWAP2 ADD PUSH2 0x6E9 JUMP JUMPDEST POP DUP5 DUP3 LT ISZERO PUSH2 0x726 JUMPI DUP7 DUP5 ADD MLOAD PUSH0 NOT PUSH1 0x3 DUP8 SWAP1 SHL PUSH1 0xF8 AND SHR NOT AND DUP2 SSTORE JUMPDEST POP POP POP POP PUSH1 0x1 SWAP1 DUP2 SHL ADD SWAP1 SSTORE POP JUMP INVALID LOG2 PUSH5 0x6970667358 0x22 SLT KECCAK256 PUSH20 0x90FAB99BF49CB6C1687096D3F57634FCDB8B8B09 CALLER 0xF SHR SWAP4 0xE2 POP 0xBA 0xB6 0xBD ADDMOD 0xC3 PUSH5 0x736F6C6343 STOP ADDMOD 0x1E STOP CALLER "
				},
				"gasEstimates": {
					"creation": {
						"codeDepositCost": "379800",
						"executionCost": "416",
						"totalCost": "380216"
					},
					"external": {
						"getInspection(uint256)": "infinite",
						"inspectionCounter()": "2261",
						"isApproved(uint256)": "2511",
						"submitInspection(string)": "infinite",
						"updateInspection(uint256,string)": "infinite"
					}
				},
				"methodIdentifiers": {
					"getInspection(uint256)": "f2836670",
					"inspectionCounter()": "2fd2303c",
					"isApproved(uint256)": "7910867b",
					"submitInspection(string)": "428bcaf9",
					"updateInspection(uint256,string)": "38d80ea6"
				}
			},
			"storageLayout": {
				"storage": [
					{
						"astId": 13,
						"contract": "optimzed inspection module.sol:InspectionModule",
						"label": "inspections",
						"offset": 0,
						"slot": "0",
						"type": "t_mapping(t_uint256,t_struct(Inspection)8_storage)"
					},
					{
						"astId": 15,
						"contract": "optimzed inspection module.sol:InspectionModule",
						"label": "inspectionCounter",
						"offset": 0,
						"slot": "1",
						"type": "t_uint256"
					}
				],
				"types": {
					"t_bool": {
						"encoding": "inplace",
						"label": "bool",
						"numberOfBytes": "1"
					},
					"t_mapping(t_uint256,t_struct(Inspection)8_storage)": {
						"encoding": "mapping",
						"key": "t_uint256",
						"label": "mapping(uint256 => struct InspectionModule.Inspection)",
						"numberOfBytes": "32",
						"value": "t_struct(Inspection)8_storage"
					},
					"t_string_storage": {
						"encoding": "bytes",
						"label": "string",
						"numberOfBytes": "32"
					},
					"t_struct(Inspection)8_storage": {
						"encoding": "inplace",
						"label": "struct InspectionModule.Inspection",
						"members": [
							{
								"astId": 3,
								"contract": "optimzed inspection module.sol:InspectionModule",
								"label": "inspectionId",
								"offset": 0,
								"slot": "0",
								"type": "t_uint64"
							},
							{
								"astId": 5,
								"contract": "optimzed inspection module.sol:InspectionModule",
								"label": "approved",
								"offset": 8,
								"slot": "0",
								"type": "t_bool"
							},
							{
								"astId": 7,
								"contract": "optimzed inspection module.sol:InspectionModule",
								"label": "report",
								"offset": 0,
								"slot": "1",
								"type": "t_string_storage"
							}
						],
						"numberOfBytes": "64"
					},
					"t_uint256": {
						"encoding": "inplace",
						"label": "uint256",
						"numberOfBytes": "32"
					},
					"t_uint64": {
						"encoding": "inplace",
						"label": "uint64",
						"numberOfBytes": "8"
					}
				}
			},
			"userdoc": {
				"kind": "user",
				"methods": {},
				"version": 1
			}
		}
	}
}