{
	"optimized material supply contract.sol": {
		"MaterialSupply": {
			"abi": [
				{
					"anonymous": false,
					"inputs": [
						{
							"indexed": true,
							"internalType": "uint256",
							"name": "materialId",
							"type": "uint256"
						},
						{
							"indexed": true,
							"internalType": "address",
							"name": "supplier",
							"type": "address"
						},
						{
							"indexed": false,
							"internalType": "uint256",
							"name": "quantity",
							"type": "uint256"
						}
					],
					"name": "MaterialAdded",
					"type": "event"
				},
				{
					"anonymous": false,
					"inputs": [
						{
							"indexed": true,
							"internalType": "uint256",
							"name": "materialId",
							"type": "uint256"
						}
					],
					"name": "MaterialDelivered",
					"type": "event"
				},
				{
					"anonymous": false,
					"inputs": [
						{
							"indexed": true,
							"internalType": "address",
							"name": "supplier",
							"type": "address"
						}
					],
					"name": "SupplierRegistered",
					"type": "event"
				},
				{
					"inputs": [
						{
							"internalType": "string",
							"name": "_name",
							"type": "string"
						},
						{
							"internalType": "uint256",
							"name": "_quantity",
							"type": "uint256"
						}
					],
					"name": "addMaterial",
					"outputs": [],
					"stateMutability": "nonpayable",
					"type": "function"
				},
				{
					"inputs": [
						{
							"internalType": "uint256",
							"name": "_materialId",
							"type": "uint256"
						}
					],
					"name": "deliverMaterial",
					"outputs": [],
					"stateMutability": "nonpayable",
					"type": "function"
				},
				{
					"inputs": [
						{
							"internalType": "uint256",
							"name": "_materialId",
							"type": "uint256"
						}
					],
					"name": "findMaterial",
					"outputs": [
						{
							"components": [
								{
									"internalType": "address",
									"name": "supplier",
									"type": "address"
								},
								{
									"internalType": "uint128",
									"name": "quantity",
									"type": "uint128"
								},
								{
									"internalType": "uint64",
									"name": "materialId",
									"type": "uint64"
								},
								{
									"internalType": "bool",
									"name": "delivered",
									"type": "bool"
								},
								{
									"internalType": "string",
									"name": "name",
									"type": "string"
								}
							],
							"internalType": "struct MaterialSupply.Material",
							"name": "",
							"type": "tuple"
						}
					],
					"stateMutability": "view",
					"type": "function"
				},
				{
					"inputs": [],
					"name": "materialCounter",
					"outputs": [
						{
							"internalType": "uint256",
							"name": "",
							"type": "uint256"
						}
					],
					"stateMutability": "view",
					"type": "function"
				},
				{
					"inputs": [
						{
							"internalType": "string",
							"name": "_name",
							"type": "string"
						}
					],
					"name": "registerSupplier",
					"outputs": [],
					"stateMutability": "nonpayable",
					"type": "function"
				}
			],
			"devdoc": {
				"kind": "dev",
				"methods": {},
				"version": 1
			},
			"evm": {
				"assembly": "    /* \"optimized material supply contract.sol\":61:2768  contract MaterialSupply {... */\n  mstore(0x40, 0x80)\n  callvalue\n  dup1\n  iszero\n  tag_1\n  jumpi\n  revert(0x00, 0x00)\ntag_1:\n  pop\n  dataSize(sub_0)\n  dup1\n  dataOffset(sub_0)\n  0x00\n  codecopy\n  0x00\n  return\nstop\n\nsub_0: assembly {\n        /* \"optimized material supply contract.sol\":61:2768  contract MaterialSupply {... */\n      mstore(0x40, 0x80)\n      callvalue\n      dup1\n      iszero\n      tag_1\n      jumpi\n      revert(0x00, 0x00)\n    tag_1:\n      pop\n      jumpi(tag_2, lt(calldatasize, 0x04))\n      shr(0xe0, calldataload(0x00))\n      dup1\n      0x32e3c0db\n      eq\n      tag_3\n      jumpi\n      dup1\n      0x7fe03487\n      eq\n      tag_4\n      jumpi\n      dup1\n      0x83e32b3f\n      eq\n      tag_5\n      jumpi\n      dup1\n      0xaad7fb3c\n      eq\n      tag_6\n      jumpi\n      dup1\n      0xc8e7060c\n      eq\n      tag_7\n      jumpi\n    tag_2:\n      revert(0x00, 0x00)\n        /* \"optimized material supply contract.sol\":1478:1907  function addMaterial(string calldata _name, uint256 _quantity) external {... */\n    tag_3:\n      tag_8\n      tag_9\n      calldatasize\n      0x04\n      tag_10\n      jump\t// in\n    tag_9:\n      tag_11\n      jump\t// in\n    tag_8:\n      stop\n        /* \"optimized material supply contract.sol\":2079:2338  function deliverMaterial(uint256 _materialId) external {... */\n    tag_4:\n      tag_8\n      tag_13\n      calldatasize\n      0x04\n      tag_14\n      jump\t// in\n    tag_13:\n      tag_15\n      jump\t// in\n        /* \"optimized material supply contract.sol\":563:593  uint256 public materialCounter */\n    tag_5:\n      tag_16\n      sload(0x02)\n      dup2\n      jump\n    tag_16:\n      mload(0x40)\n        /* \"#utility.yul\":1274:1299   */\n      swap1\n      dup2\n      mstore\n        /* \"#utility.yul\":1262:1264   */\n      0x20\n        /* \"#utility.yul\":1247:1265   */\n      add\n        /* \"optimized material supply contract.sol\":563:593  uint256 public materialCounter */\n    tag_18:\n      mload(0x40)\n      dup1\n      swap2\n      sub\n      swap1\n      return\n        /* \"optimized material supply contract.sol\":1037:1310  function registerSupplier(string calldata _name) external {... */\n    tag_6:\n      tag_8\n      tag_21\n      calldatasize\n      0x04\n      tag_22\n      jump\t// in\n    tag_21:\n      tag_23\n      jump\t// in\n        /* \"optimized material supply contract.sol\":2507:2765  function findMaterial(uint256 _materialId)... */\n    tag_7:\n      tag_24\n      tag_25\n      calldatasize\n      0x04\n      tag_14\n      jump\t// in\n    tag_25:\n      tag_26\n      jump\t// in\n    tag_24:\n      mload(0x40)\n      tag_18\n      swap2\n      swap1\n      tag_28\n      jump\t// in\n        /* \"optimized material supply contract.sol\":1478:1907  function addMaterial(string calldata _name, uint256 _quantity) external {... */\n    tag_11:\n        /* \"optimized material supply contract.sol\":1563:1578  materialCounter */\n      0x02\n        /* \"optimized material supply contract.sol\":1563:1580  materialCounter++ */\n      dup1\n      sload\n      swap1\n        /* \"optimized material supply contract.sol\":1563:1578  materialCounter */\n      0x00\n        /* \"optimized material supply contract.sol\":1563:1580  materialCounter++ */\n      tag_30\n      dup4\n      tag_31\n      jump\t// in\n    tag_30:\n      swap2\n      swap1\n      pop\n      sstore\n      pop\n        /* \"optimized material supply contract.sol\":1622:1828  Material({... */\n      mload(0x40)\n      dup1\n      0xa0\n      add\n      0x40\n      mstore\n      dup1\n        /* \"optimized material supply contract.sol\":1656:1666  msg.sender */\n      caller\n      sub(shl(0xa0, 0x01), 0x01)\n        /* \"optimized material supply contract.sol\":1622:1828  Material({... */\n      and\n      dup2\n      mstore\n      0x20\n      add\n        /* \"optimized material supply contract.sol\":1699:1708  _quantity */\n      dup3\n      sub(shl(0x80, 0x01), 0x01)\n        /* \"optimized material supply contract.sol\":1622:1828  Material({... */\n      and\n      dup2\n      mstore\n      0x20\n      add\n        /* \"optimized material supply contract.sol\":1743:1758  materialCounter */\n      sload(0x02)\n        /* \"optimized material supply contract.sol\":1622:1828  Material({... */\n      0xffffffffffffffff\n      and\n      dup2\n      mstore\n      0x20\n      add\n        /* \"optimized material supply contract.sol\":1785:1790  false */\n      0x00\n        /* \"optimized material supply contract.sol\":1622:1828  Material({... */\n      iszero\n      iszero\n      dup2\n      mstore\n      0x20\n      add\n        /* \"optimized material supply contract.sol\":1811:1816  _name */\n      dup5\n      dup5\n        /* \"optimized material supply contract.sol\":1622:1828  Material({... */\n      dup1\n      dup1\n      0x1f\n      add\n      0x20\n      dup1\n      swap2\n      div\n      mul\n      0x20\n      add\n      mload(0x40)\n      swap1\n      dup2\n      add\n      0x40\n      mstore\n      dup1\n      swap4\n      swap3\n      swap2\n      swap1\n      dup2\n      dup2\n      mstore\n      0x20\n      add\n      dup4\n      dup4\n      dup1\n      dup3\n      dup5\n      calldatacopy\n      0x00\n      swap3\n      add\n      dup3\n      swap1\n      mstore\n      pop\n      swap4\n      swap1\n      swap5\n      mstore\n      pop\n      pop\n        /* \"optimized material supply contract.sol\":1603:1618  materialCounter */\n      0x02\n      dup1\n      sload\n        /* \"optimized material supply contract.sol\":1593:1619  materials[materialCounter] */\n      dup3\n      mstore\n        /* \"optimized material supply contract.sol\":1593:1602  materials */\n      0x01\n        /* \"optimized material supply contract.sol\":1593:1619  materials[materialCounter] */\n      0x20\n      dup2\n      dup2\n      mstore\n      0x40\n      swap4\n      dup5\n      swap1\n      keccak256\n        /* \"optimized material supply contract.sol\":1593:1828  materials[materialCounter] = Material({... */\n      dup7\n      mload\n      dup2\n      sload\n      sub(shl(0xa0, 0x01), 0x01)\n      swap1\n      swap2\n      and\n      not(sub(shl(0xa0, 0x01), 0x01))\n      swap1\n      swap2\n      and\n      or\n      dup2\n      sstore\n      swap1\n      dup7\n      add\n      mload\n      swap2\n      dup2\n      add\n      dup1\n      sload\n      swap5\n      dup8\n      add\n      mload\n      0x60\n      dup9\n      add\n      mload\n      iszero\n      iszero\n      shl(0xc0, 0x01)\n      mul\n      not(shl(0xc0, 0xff))\n      0xffffffffffffffff\n      swap1\n      swap3\n      and\n      shl(0x80, 0x01)\n      mul\n      not(sub(shl(0xc0, 0x01), 0x01))\n      swap1\n      swap8\n      and\n      sub(shl(0x80, 0x01), 0x01)\n      swap1\n      swap6\n      and\n      swap5\n      swap1\n      swap5\n      or\n      swap6\n      swap1\n      swap6\n      or\n      swap5\n      swap1\n      swap5\n      and\n      swap2\n      swap1\n      swap2\n      or\n      swap1\n      swap3\n      sstore\n      0x80\n      dup5\n      add\n      mload\n        /* \"optimized material supply contract.sol\":1593:1619  materials[materialCounter] */\n      swap2\n      swap3\n      pop\n        /* \"optimized material supply contract.sol\":1593:1828  materials[materialCounter] = Material({... */\n      dup3\n      add\n      swap1\n      tag_32\n      swap1\n      dup3\n      tag_33\n      jump\t// in\n    tag_32:\n      pop\n      pop\n        /* \"optimized material supply contract.sol\":1860:1875  materialCounter */\n      sload(0x02)\n        /* \"optimized material supply contract.sol\":1846:1899  MaterialAdded(materialCounter, msg.sender, _quantity) */\n      mload(0x40)\n        /* \"#utility.yul\":1274:1299   */\n      dup4\n      dup2\n      mstore\n        /* \"optimized material supply contract.sol\":1877:1887  msg.sender */\n      caller\n      swap3\n      pop\n        /* \"optimized material supply contract.sol\":1846:1899  MaterialAdded(materialCounter, msg.sender, _quantity) */\n      0xcff76cc91de16ee001d268b35bcd59bf8768d4f7f211b249fb1a847c6aed7b43\n      swap1\n        /* \"#utility.yul\":1262:1264   */\n      0x20\n        /* \"#utility.yul\":1247:1265   */\n      add\n        /* \"optimized material supply contract.sol\":1846:1899  MaterialAdded(materialCounter, msg.sender, _quantity) */\n      mload(0x40)\n      dup1\n      swap2\n      sub\n      swap1\n      log3\n        /* \"optimized material supply contract.sol\":1478:1907  function addMaterial(string calldata _name, uint256 _quantity) external {... */\n      pop\n      pop\n      pop\n      jump\t// out\n        /* \"optimized material supply contract.sol\":2079:2338  function deliverMaterial(uint256 _materialId) external {... */\n    tag_15:\n        /* \"optimized material supply contract.sol\":2147:2165  Material storage m */\n      0x00\n        /* \"optimized material supply contract.sol\":2168:2190  materials[_materialId] */\n      dup2\n      dup2\n      mstore\n        /* \"optimized material supply contract.sol\":2168:2177  materials */\n      0x01\n        /* \"optimized material supply contract.sol\":2168:2190  materials[_materialId] */\n      0x20\n      dup2\n      swap1\n      mstore\n      0x40\n      dup3\n      keccak256\n        /* \"optimized material supply contract.sol\":2211:2223  m.materialId */\n      swap1\n      dup2\n      add\n      sload\n        /* \"optimized material supply contract.sol\":2168:2190  materials[_materialId] */\n      swap1\n      swap2\n      shl(0x80, 0x01)\n        /* \"optimized material supply contract.sol\":2211:2223  m.materialId */\n      swap1\n      swap2\n      div\n      0xffffffffffffffff\n      and\n        /* \"optimized material supply contract.sol\":2211:2228  m.materialId != 0 */\n      swap1\n      sub\n        /* \"optimized material supply contract.sol\":2203:2251  require(m.materialId != 0, \"Material not found\") */\n      tag_36\n      jumpi\n      mload(0x40)\n      shl(0xe5, 0x461bcd)\n      dup2\n      mstore\n        /* \"#utility.yul\":5704:5706   */\n      0x20\n        /* \"optimized material supply contract.sol\":2203:2251  require(m.materialId != 0, \"Material not found\") */\n      0x04\n      dup3\n      add\n        /* \"#utility.yul\":5686:5707   */\n      mstore\n        /* \"#utility.yul\":5743:5745   */\n      0x12\n        /* \"#utility.yul\":5723:5741   */\n      0x24\n      dup3\n      add\n        /* \"#utility.yul\":5716:5746   */\n      mstore\n      shl(0x72, 0x13585d195c9a585b081b9bdd08199bdd5b99)\n        /* \"#utility.yul\":5762:5780   */\n      0x44\n      dup3\n      add\n        /* \"#utility.yul\":5755:5803   */\n      mstore\n        /* \"#utility.yul\":5820:5838   */\n      0x64\n      add\n        /* \"optimized material supply contract.sol\":2203:2251  require(m.materialId != 0, \"Material not found\") */\n    tag_37:\n      mload(0x40)\n      dup1\n      swap2\n      sub\n      swap1\n      revert\n    tag_36:\n        /* \"optimized material supply contract.sol\":2278:2282  true */\n      0x01\n        /* \"optimized material supply contract.sol\":2264:2275  m.delivered */\n      dup2\n      add\n        /* \"optimized material supply contract.sol\":2264:2282  m.delivered = true */\n      dup1\n      sload\n      not(shl(0xc0, 0xff))\n      and\n      shl(0xc0, 0x01)\n      or\n      swap1\n      sstore\n        /* \"optimized material supply contract.sol\":2300:2330  MaterialDelivered(_materialId) */\n      mload(0x40)\n        /* \"optimized material supply contract.sol\":2318:2329  _materialId */\n      dup3\n      swap1\n        /* \"optimized material supply contract.sol\":2300:2330  MaterialDelivered(_materialId) */\n      0x8a2f1521aea355652c65a30457c21b578c99c9e6a02dadab78e99148e7962551\n      swap1\n        /* \"optimized material supply contract.sol\":2264:2282  m.delivered = true */\n      0x00\n      swap1\n        /* \"optimized material supply contract.sol\":2300:2330  MaterialDelivered(_materialId) */\n      log2\n        /* \"optimized material supply contract.sol\":2134:2338  {... */\n      pop\n        /* \"optimized material supply contract.sol\":2079:2338  function deliverMaterial(uint256 _materialId) external {... */\n      pop\n      jump\t// out\n        /* \"optimized material supply contract.sol\":1037:1310  function registerSupplier(string calldata _name) external {... */\n    tag_23:\n        /* \"optimized material supply contract.sol\":1132:1254  Supplier({... */\n      mload(0x40)\n      dup1\n      0x60\n      add\n      0x40\n      mstore\n      dup1\n        /* \"optimized material supply contract.sol\":1173:1183  msg.sender */\n      caller\n      sub(shl(0xa0, 0x01), 0x01)\n        /* \"optimized material supply contract.sol\":1132:1254  Supplier({... */\n      and\n      dup2\n      mstore\n      0x20\n      add\n        /* \"optimized material supply contract.sol\":1212:1216  true */\n      0x01\n        /* \"optimized material supply contract.sol\":1132:1254  Supplier({... */\n      iszero\n      iszero\n      dup2\n      mstore\n      0x20\n      add\n        /* \"optimized material supply contract.sol\":1237:1242  _name */\n      dup4\n      dup4\n        /* \"optimized material supply contract.sol\":1132:1254  Supplier({... */\n      dup1\n      dup1\n      0x1f\n      add\n      0x20\n      dup1\n      swap2\n      div\n      mul\n      0x20\n      add\n      mload(0x40)\n      swap1\n      dup2\n      add\n      0x40\n      mstore\n      dup1\n      swap4\n      swap3\n      swap2\n      swap1\n      dup2\n      dup2\n      mstore\n      0x20\n      add\n      dup4\n      dup4\n      dup1\n      dup3\n      dup5\n      calldatacopy\n      0x00\n      swap3\n      add\n      dup3\n      swap1\n      mstore\n      pop\n      swap4\n      swap1\n      swap5\n      mstore\n      pop\n      pop\n        /* \"optimized material supply contract.sol\":1118:1128  msg.sender */\n      caller\n        /* \"optimized material supply contract.sol\":1108:1129  suppliers[msg.sender] */\n      dup2\n      mstore\n      0x20\n      dup2\n      dup2\n      mstore\n      0x40\n      swap2\n      dup3\n      swap1\n      keccak256\n        /* \"optimized material supply contract.sol\":1108:1254  suppliers[msg.sender] = Supplier({... */\n      dup5\n      mload\n      dup2\n      sload\n      swap3\n      dup7\n      add\n      mload\n      iszero\n      iszero\n      shl(0xa0, 0x01)\n      mul\n      not(sub(shl(0xa8, 0x01), 0x01))\n      swap1\n      swap4\n      and\n      sub(shl(0xa0, 0x01), 0x01)\n      swap2\n      swap1\n      swap2\n      and\n      or\n      swap2\n      swap1\n      swap2\n      or\n      dup2\n      sstore\n      swap1\n      dup4\n      add\n      mload\n        /* \"optimized material supply contract.sol\":1108:1129  suppliers[msg.sender] */\n      swap1\n      swap2\n      pop\n        /* \"optimized material supply contract.sol\":1108:1254  suppliers[msg.sender] = Supplier({... */\n      0x01\n      dup3\n      add\n      swap1\n      tag_40\n      swap1\n      dup3\n      tag_33\n      jump\t// in\n    tag_40:\n      pop\n      pop\n        /* \"optimized material supply contract.sol\":1272:1302  SupplierRegistered(msg.sender) */\n      mload(0x40)\n        /* \"optimized material supply contract.sol\":1291:1301  msg.sender */\n      caller\n      swap2\n      pop\n        /* \"optimized material supply contract.sol\":1272:1302  SupplierRegistered(msg.sender) */\n      0xbcffc870b52d3cb785b17c2c7426be70f9181ce49c43cc7b479ebcfac2d7a1c8\n      swap1\n      0x00\n      swap1\n      log2\n        /* \"optimized material supply contract.sol\":1037:1310  function registerSupplier(string calldata _name) external {... */\n      pop\n      pop\n      jump\t// out\n        /* \"optimized material supply contract.sol\":2507:2765  function findMaterial(uint256 _materialId)... */\n    tag_26:\n      0x40\n      dup1\n      mload\n      0xa0\n      dup2\n      add\n      dup3\n      mstore\n      0x00\n      dup1\n      dup3\n      mstore\n      0x20\n      dup3\n      add\n      dup2\n      swap1\n      mstore\n      swap2\n      dup2\n      add\n      dup3\n      swap1\n      mstore\n      0x60\n      dup1\n      dup3\n      add\n      swap3\n      swap1\n      swap3\n      mstore\n      0x80\n      dup2\n      add\n      swap2\n      swap1\n      swap2\n      mstore\n        /* \"optimized material supply contract.sol\":2633:2650  Material memory m */\n      0x00\n        /* \"optimized material supply contract.sol\":2653:2675  materials[_materialId] */\n      dup3\n      dup2\n      mstore\n        /* \"optimized material supply contract.sol\":2653:2662  materials */\n      0x01\n        /* \"optimized material supply contract.sol\":2653:2675  materials[_materialId] */\n      0x20\n      dup2\n      dup2\n      mstore\n      0x40\n      dup1\n      dup5\n      keccak256\n        /* \"optimized material supply contract.sol\":2633:2675  Material memory m = materials[_materialId] */\n      dup2\n      mload\n      0xa0\n      dup2\n      add\n      dup4\n      mstore\n      dup2\n      sload\n      sub(shl(0xa0, 0x01), 0x01)\n      and\n      dup2\n      mstore\n      swap4\n      dup2\n      add\n      sload\n      sub(shl(0x80, 0x01), 0x01)\n      dup2\n      and\n      swap4\n      dup6\n      add\n      swap4\n      swap1\n      swap4\n      mstore\n      shl(0x80, 0x01)\n      dup4\n      div\n      0xffffffffffffffff\n      and\n      swap2\n      dup5\n      add\n      swap2\n      swap1\n      swap2\n      mstore\n      shl(0xc0, 0x01)\n      swap1\n      swap2\n      div\n      0xff\n      and\n      iszero\n      iszero\n      0x60\n      dup4\n      add\n      mstore\n      0x02\n      dup2\n      add\n      dup1\n      sload\n      0x80\n      dup5\n      add\n      swap2\n      swap1\n      tag_44\n      swap1\n      tag_45\n      jump\t// in\n    tag_44:\n      dup1\n      0x1f\n      add\n      0x20\n      dup1\n      swap2\n      div\n      mul\n      0x20\n      add\n      mload(0x40)\n      swap1\n      dup2\n      add\n      0x40\n      mstore\n      dup1\n      swap3\n      swap2\n      swap1\n      dup2\n      dup2\n      mstore\n      0x20\n      add\n      dup3\n      dup1\n      sload\n      tag_46\n      swap1\n      tag_45\n      jump\t// in\n    tag_46:\n      dup1\n      iszero\n      tag_47\n      jumpi\n      dup1\n      0x1f\n      lt\n      tag_48\n      jumpi\n      0x0100\n      dup1\n      dup4\n      sload\n      div\n      mul\n      dup4\n      mstore\n      swap2\n      0x20\n      add\n      swap2\n      jump(tag_47)\n    tag_48:\n      dup3\n      add\n      swap2\n      swap1\n      0x00\n      mstore\n      keccak256(0x00, 0x20)\n      swap1\n    tag_49:\n      dup2\n      sload\n      dup2\n      mstore\n      swap1\n      0x01\n      add\n      swap1\n      0x20\n      add\n      dup1\n      dup4\n      gt\n      tag_49\n      jumpi\n      dup3\n      swap1\n      sub\n      0x1f\n      and\n      dup3\n      add\n      swap2\n    tag_47:\n      pop\n      pop\n      pop\n      pop\n      pop\n      dup2\n      mstore\n      pop\n      pop\n      swap1\n      pop\n        /* \"optimized material supply contract.sol\":2696:2697  m */\n      dup1\n        /* \"optimized material supply contract.sol\":2696:2708  m.materialId */\n      0x40\n      add\n      mload\n        /* \"optimized material supply contract.sol\":2696:2713  m.materialId != 0 */\n      0xffffffffffffffff\n      and\n        /* \"optimized material supply contract.sol\":2712:2713  0 */\n      0x00\n        /* \"optimized material supply contract.sol\":2696:2713  m.materialId != 0 */\n      sub\n        /* \"optimized material supply contract.sol\":2688:2736  require(m.materialId != 0, \"Material not found\") */\n      tag_50\n      jumpi\n      mload(0x40)\n      shl(0xe5, 0x461bcd)\n      dup2\n      mstore\n        /* \"#utility.yul\":5704:5706   */\n      0x20\n        /* \"optimized material supply contract.sol\":2688:2736  require(m.materialId != 0, \"Material not found\") */\n      0x04\n      dup3\n      add\n        /* \"#utility.yul\":5686:5707   */\n      mstore\n        /* \"#utility.yul\":5743:5745   */\n      0x12\n        /* \"#utility.yul\":5723:5741   */\n      0x24\n      dup3\n      add\n        /* \"#utility.yul\":5716:5746   */\n      mstore\n      shl(0x72, 0x13585d195c9a585b081b9bdd08199bdd5b99)\n        /* \"#utility.yul\":5762:5780   */\n      0x44\n      dup3\n      add\n        /* \"#utility.yul\":5755:5803   */\n      mstore\n        /* \"#utility.yul\":5820:5838   */\n      0x64\n      add\n        /* \"optimized material supply contract.sol\":2688:2736  require(m.materialId != 0, \"Material not found\") */\n      tag_37\n        /* \"#utility.yul\":5502:5844   */\n      jump\n        /* \"optimized material supply contract.sol\":2688:2736  require(m.materialId != 0, \"Material not found\") */\n    tag_50:\n        /* \"optimized material supply contract.sol\":2756:2757  m */\n      swap3\n        /* \"optimized material supply contract.sol\":2507:2765  function findMaterial(uint256 _materialId)... */\n      swap2\n      pop\n      pop\n      jump\t// out\n        /* \"#utility.yul\":14:362   */\n    tag_52:\n        /* \"#utility.yul\":66:74   */\n      0x00\n        /* \"#utility.yul\":76:82   */\n      0x00\n        /* \"#utility.yul\":130:133   */\n      dup4\n        /* \"#utility.yul\":123:127   */\n      0x1f\n        /* \"#utility.yul\":115:121   */\n      dup5\n        /* \"#utility.yul\":111:128   */\n      add\n        /* \"#utility.yul\":107:134   */\n      slt\n        /* \"#utility.yul\":97:152   */\n      tag_59\n      jumpi\n        /* \"#utility.yul\":148:149   */\n      0x00\n        /* \"#utility.yul\":145:146   */\n      0x00\n        /* \"#utility.yul\":138:150   */\n      revert\n        /* \"#utility.yul\":97:152   */\n    tag_59:\n      pop\n        /* \"#utility.yul\":171:191   */\n      dup2\n      calldataload\n        /* \"#utility.yul\":214:232   */\n      0xffffffffffffffff\n        /* \"#utility.yul\":203:233   */\n      dup2\n      gt\n        /* \"#utility.yul\":200:250   */\n      iszero\n      tag_60\n      jumpi\n        /* \"#utility.yul\":246:247   */\n      0x00\n        /* \"#utility.yul\":243:244   */\n      0x00\n        /* \"#utility.yul\":236:248   */\n      revert\n        /* \"#utility.yul\":200:250   */\n    tag_60:\n        /* \"#utility.yul\":283:287   */\n      0x20\n        /* \"#utility.yul\":275:281   */\n      dup4\n        /* \"#utility.yul\":271:288   */\n      add\n        /* \"#utility.yul\":259:288   */\n      swap2\n      pop\n        /* \"#utility.yul\":335:338   */\n      dup4\n        /* \"#utility.yul\":328:332   */\n      0x20\n        /* \"#utility.yul\":319:325   */\n      dup3\n        /* \"#utility.yul\":311:317   */\n      dup6\n        /* \"#utility.yul\":307:326   */\n      add\n        /* \"#utility.yul\":303:333   */\n      add\n        /* \"#utility.yul\":300:339   */\n      gt\n        /* \"#utility.yul\":297:356   */\n      iszero\n      tag_61\n      jumpi\n        /* \"#utility.yul\":352:353   */\n      0x00\n        /* \"#utility.yul\":349:350   */\n      0x00\n        /* \"#utility.yul\":342:354   */\n      revert\n        /* \"#utility.yul\":297:356   */\n    tag_61:\n        /* \"#utility.yul\":14:362   */\n      swap3\n      pop\n      swap3\n      swap1\n      pop\n      jump\t// out\n        /* \"#utility.yul\":367:892   */\n    tag_10:\n        /* \"#utility.yul\":447:453   */\n      0x00\n        /* \"#utility.yul\":455:461   */\n      0x00\n        /* \"#utility.yul\":463:469   */\n      0x00\n        /* \"#utility.yul\":516:518   */\n      0x40\n        /* \"#utility.yul\":504:513   */\n      dup5\n        /* \"#utility.yul\":495:502   */\n      dup7\n        /* \"#utility.yul\":491:514   */\n      sub\n        /* \"#utility.yul\":487:519   */\n      slt\n        /* \"#utility.yul\":484:536   */\n      iszero\n      tag_63\n      jumpi\n        /* \"#utility.yul\":532:533   */\n      0x00\n        /* \"#utility.yul\":529:530   */\n      0x00\n        /* \"#utility.yul\":522:534   */\n      revert\n        /* \"#utility.yul\":484:536   */\n    tag_63:\n        /* \"#utility.yul\":572:581   */\n      dup4\n        /* \"#utility.yul\":559:582   */\n      calldataload\n        /* \"#utility.yul\":605:623   */\n      0xffffffffffffffff\n        /* \"#utility.yul\":597:603   */\n      dup2\n        /* \"#utility.yul\":594:624   */\n      gt\n        /* \"#utility.yul\":591:641   */\n      iszero\n      tag_64\n      jumpi\n        /* \"#utility.yul\":637:638   */\n      0x00\n        /* \"#utility.yul\":634:635   */\n      0x00\n        /* \"#utility.yul\":627:639   */\n      revert\n        /* \"#utility.yul\":591:641   */\n    tag_64:\n        /* \"#utility.yul\":676:735   */\n      tag_65\n        /* \"#utility.yul\":727:734   */\n      dup7\n        /* \"#utility.yul\":718:724   */\n      dup3\n        /* \"#utility.yul\":707:716   */\n      dup8\n        /* \"#utility.yul\":703:725   */\n      add\n        /* \"#utility.yul\":676:735   */\n      tag_52\n      jump\t// in\n    tag_65:\n        /* \"#utility.yul\":754:762   */\n      swap1\n      swap8\n        /* \"#utility.yul\":650:735   */\n      swap1\n      swap7\n      pop\n        /* \"#utility.yul\":858:860   */\n      0x20\n        /* \"#utility.yul\":843:861   */\n      swap6\n      swap1\n      swap6\n      add\n        /* \"#utility.yul\":830:862   */\n      calldataload\n      swap5\n        /* \"#utility.yul\":367:892   */\n      swap4\n      pop\n      pop\n      pop\n      pop\n      jump\t// out\n        /* \"#utility.yul\":897:1123   */\n    tag_14:\n        /* \"#utility.yul\":956:962   */\n      0x00\n        /* \"#utility.yul\":1009:1011   */\n      0x20\n        /* \"#utility.yul\":997:1006   */\n      dup3\n        /* \"#utility.yul\":988:995   */\n      dup5\n        /* \"#utility.yul\":984:1007   */\n      sub\n        /* \"#utility.yul\":980:1012   */\n      slt\n        /* \"#utility.yul\":977:1029   */\n      iszero\n      tag_67\n      jumpi\n        /* \"#utility.yul\":1025:1026   */\n      0x00\n        /* \"#utility.yul\":1022:1023   */\n      0x00\n        /* \"#utility.yul\":1015:1027   */\n      revert\n        /* \"#utility.yul\":977:1029   */\n    tag_67:\n      pop\n        /* \"#utility.yul\":1070:1093   */\n      calldataload\n      swap2\n        /* \"#utility.yul\":897:1123   */\n      swap1\n      pop\n      jump\t// out\n        /* \"#utility.yul\":1310:1721   */\n    tag_22:\n        /* \"#utility.yul\":1381:1387   */\n      0x00\n        /* \"#utility.yul\":1389:1395   */\n      0x00\n        /* \"#utility.yul\":1442:1444   */\n      0x20\n        /* \"#utility.yul\":1430:1439   */\n      dup4\n        /* \"#utility.yul\":1421:1428   */\n      dup6\n        /* \"#utility.yul\":1417:1440   */\n      sub\n        /* \"#utility.yul\":1413:1445   */\n      slt\n        /* \"#utility.yul\":1410:1462   */\n      iszero\n      tag_70\n      jumpi\n        /* \"#utility.yul\":1458:1459   */\n      0x00\n        /* \"#utility.yul\":1455:1456   */\n      0x00\n        /* \"#utility.yul\":1448:1460   */\n      revert\n        /* \"#utility.yul\":1410:1462   */\n    tag_70:\n        /* \"#utility.yul\":1498:1507   */\n      dup3\n        /* \"#utility.yul\":1485:1508   */\n      calldataload\n        /* \"#utility.yul\":1531:1549   */\n      0xffffffffffffffff\n        /* \"#utility.yul\":1523:1529   */\n      dup2\n        /* \"#utility.yul\":1520:1550   */\n      gt\n        /* \"#utility.yul\":1517:1567   */\n      iszero\n      tag_71\n      jumpi\n        /* \"#utility.yul\":1563:1564   */\n      0x00\n        /* \"#utility.yul\":1560:1561   */\n      0x00\n        /* \"#utility.yul\":1553:1565   */\n      revert\n        /* \"#utility.yul\":1517:1567   */\n    tag_71:\n        /* \"#utility.yul\":1602:1661   */\n      tag_72\n        /* \"#utility.yul\":1653:1660   */\n      dup6\n        /* \"#utility.yul\":1644:1650   */\n      dup3\n        /* \"#utility.yul\":1633:1642   */\n      dup7\n        /* \"#utility.yul\":1629:1651   */\n      add\n        /* \"#utility.yul\":1602:1661   */\n      tag_52\n      jump\t// in\n    tag_72:\n        /* \"#utility.yul\":1680:1688   */\n      swap1\n      swap7\n        /* \"#utility.yul\":1576:1661   */\n      swap1\n      swap6\n      pop\n        /* \"#utility.yul\":1310:1721   */\n      swap4\n      pop\n      pop\n      pop\n      pop\n      jump\t// out\n        /* \"#utility.yul\":1726:2619   */\n    tag_28:\n        /* \"#utility.yul\":1903:1905   */\n      0x20\n        /* \"#utility.yul\":1892:1901   */\n      dup2\n        /* \"#utility.yul\":1885:1906   */\n      mstore\n        /* \"#utility.yul\":1978:1979   */\n      0x01\n        /* \"#utility.yul\":1974:1975   */\n      dup1\n        /* \"#utility.yul\":1969:1972   */\n      0xa0\n        /* \"#utility.yul\":1965:1976   */\n      shl\n        /* \"#utility.yul\":1961:1980   */\n      sub\n        /* \"#utility.yul\":1952:1958   */\n      dup3\n        /* \"#utility.yul\":1946:1959   */\n      mload\n        /* \"#utility.yul\":1942:1981   */\n      and\n        /* \"#utility.yul\":1937:1939   */\n      0x20\n        /* \"#utility.yul\":1926:1935   */\n      dup3\n        /* \"#utility.yul\":1922:1940   */\n      add\n        /* \"#utility.yul\":1915:1982   */\n      mstore\n      sub(shl(0x80, 0x01), 0x01)\n        /* \"#utility.yul\":2040:2042   */\n      0x20\n        /* \"#utility.yul\":2032:2038   */\n      dup4\n        /* \"#utility.yul\":2028:2043   */\n      add\n        /* \"#utility.yul\":2022:2044   */\n      mload\n        /* \"#utility.yul\":2018:2081   */\n      and\n        /* \"#utility.yul\":2013:2015   */\n      0x40\n        /* \"#utility.yul\":2002:2011   */\n      dup3\n        /* \"#utility.yul\":1998:2016   */\n      add\n        /* \"#utility.yul\":1991:2082   */\n      mstore\n        /* \"#utility.yul\":2146:2164   */\n      0xffffffffffffffff\n        /* \"#utility.yul\":2140:2142   */\n      0x40\n        /* \"#utility.yul\":2132:2138   */\n      dup4\n        /* \"#utility.yul\":2128:2143   */\n      add\n        /* \"#utility.yul\":2122:2144   */\n      mload\n        /* \"#utility.yul\":2118:2165   */\n      and\n        /* \"#utility.yul\":2113:2115   */\n      0x60\n        /* \"#utility.yul\":2102:2111   */\n      dup3\n        /* \"#utility.yul\":2098:2116   */\n      add\n        /* \"#utility.yul\":2091:2166   */\n      mstore\n        /* \"#utility.yul\":2235:2237   */\n      0x60\n        /* \"#utility.yul\":2227:2233   */\n      dup3\n        /* \"#utility.yul\":2223:2238   */\n      add\n        /* \"#utility.yul\":2217:2239   */\n      mload\n        /* \"#utility.yul\":2210:2240   */\n      iszero\n        /* \"#utility.yul\":2203:2241   */\n      iszero\n        /* \"#utility.yul\":2197:2200   */\n      0x80\n        /* \"#utility.yul\":2186:2195   */\n      dup3\n        /* \"#utility.yul\":2182:2201   */\n      add\n        /* \"#utility.yul\":2175:2242   */\n      mstore\n        /* \"#utility.yul\":1866:1870   */\n      0x00\n        /* \"#utility.yul\":2289:2292   */\n      0x80\n        /* \"#utility.yul\":2281:2287   */\n      dup4\n        /* \"#utility.yul\":2277:2293   */\n      add\n        /* \"#utility.yul\":2271:2294   */\n      mload\n        /* \"#utility.yul\":2332:2336   */\n      0xa0\n        /* \"#utility.yul\":2325:2329   */\n      dup1\n        /* \"#utility.yul\":2314:2323   */\n      dup5\n        /* \"#utility.yul\":2310:2330   */\n      add\n        /* \"#utility.yul\":2303:2337   */\n      mstore\n        /* \"#utility.yul\":2366:2378   */\n      dup1\n        /* \"#utility.yul\":2360:2379   */\n      mload\n        /* \"#utility.yul\":2416:2422   */\n      dup1\n        /* \"#utility.yul\":2410:2413   */\n      0xc0\n        /* \"#utility.yul\":2399:2408   */\n      dup6\n        /* \"#utility.yul\":2395:2414   */\n      add\n        /* \"#utility.yul\":2388:2423   */\n      mstore\n        /* \"#utility.yul\":2482:2488   */\n      dup1\n        /* \"#utility.yul\":2477:2479   */\n      0x20\n        /* \"#utility.yul\":2463:2475   */\n      dup4\n        /* \"#utility.yul\":2459:2480   */\n      add\n        /* \"#utility.yul\":2453:2456   */\n      0xe0\n        /* \"#utility.yul\":2442:2451   */\n      dup7\n        /* \"#utility.yul\":2438:2457   */\n      add\n        /* \"#utility.yul\":2432:2489   */\n      mcopy\n        /* \"#utility.yul\":2539:2540   */\n      0x00\n        /* \"#utility.yul\":2533:2536   */\n      0xe0\n        /* \"#utility.yul\":2524:2530   */\n      dup3\n        /* \"#utility.yul\":2513:2522   */\n      dup7\n        /* \"#utility.yul\":2509:2531   */\n      add\n        /* \"#utility.yul\":2505:2537   */\n      add\n        /* \"#utility.yul\":2498:2541   */\n      mstore\n        /* \"#utility.yul\":2609:2612   */\n      0xe0\n        /* \"#utility.yul\":2602:2604   */\n      0x1f\n        /* \"#utility.yul\":2598:2605   */\n      not\n        /* \"#utility.yul\":2593:2595   */\n      0x1f\n        /* \"#utility.yul\":2585:2591   */\n      dup4\n        /* \"#utility.yul\":2581:2596   */\n      add\n        /* \"#utility.yul\":2577:2606   */\n      and\n        /* \"#utility.yul\":2566:2575   */\n      dup6\n        /* \"#utility.yul\":2562:2607   */\n      add\n        /* \"#utility.yul\":2558:2613   */\n      add\n        /* \"#utility.yul\":2550:2613   */\n      swap3\n      pop\n      pop\n      pop\n        /* \"#utility.yul\":1726:2619   */\n      swap3\n      swap2\n      pop\n      pop\n      jump\t// out\n        /* \"#utility.yul\":2624:2856   */\n    tag_31:\n        /* \"#utility.yul\":2663:2666   */\n      0x00\n        /* \"#utility.yul\":2684:2701   */\n      0x01\n      dup3\n      add\n        /* \"#utility.yul\":2681:2821   */\n      tag_75\n      jumpi\n        /* \"#utility.yul\":2743:2753   */\n      0x4e487b71\n        /* \"#utility.yul\":2738:2741   */\n      0xe0\n        /* \"#utility.yul\":2734:2754   */\n      shl\n        /* \"#utility.yul\":2731:2732   */\n      0x00\n        /* \"#utility.yul\":2724:2755   */\n      mstore\n        /* \"#utility.yul\":2778:2782   */\n      0x11\n        /* \"#utility.yul\":2775:2776   */\n      0x04\n        /* \"#utility.yul\":2768:2783   */\n      mstore\n        /* \"#utility.yul\":2806:2810   */\n      0x24\n        /* \"#utility.yul\":2803:2804   */\n      0x00\n        /* \"#utility.yul\":2796:2811   */\n      revert\n        /* \"#utility.yul\":2681:2821   */\n    tag_75:\n      pop\n        /* \"#utility.yul\":2848:2849   */\n      0x01\n        /* \"#utility.yul\":2837:2850   */\n      add\n      swap1\n        /* \"#utility.yul\":2624:2856   */\n      jump\t// out\n        /* \"#utility.yul\":2861:2988   */\n    tag_53:\n        /* \"#utility.yul\":2922:2932   */\n      0x4e487b71\n        /* \"#utility.yul\":2917:2920   */\n      0xe0\n        /* \"#utility.yul\":2913:2933   */\n      shl\n        /* \"#utility.yul\":2910:2911   */\n      0x00\n        /* \"#utility.yul\":2903:2934   */\n      mstore\n        /* \"#utility.yul\":2953:2957   */\n      0x41\n        /* \"#utility.yul\":2950:2951   */\n      0x04\n        /* \"#utility.yul\":2943:2958   */\n      mstore\n        /* \"#utility.yul\":2977:2981   */\n      0x24\n        /* \"#utility.yul\":2974:2975   */\n      0x00\n        /* \"#utility.yul\":2967:2982   */\n      revert\n        /* \"#utility.yul\":2993:3373   */\n    tag_45:\n        /* \"#utility.yul\":3072:3073   */\n      0x01\n        /* \"#utility.yul\":3068:3080   */\n      dup2\n      dup2\n      shr\n      swap1\n        /* \"#utility.yul\":3115:3127   */\n      dup3\n      and\n      dup1\n        /* \"#utility.yul\":3136:3197   */\n      tag_78\n      jumpi\n        /* \"#utility.yul\":3190:3194   */\n      0x7f\n        /* \"#utility.yul\":3182:3188   */\n      dup3\n        /* \"#utility.yul\":3178:3195   */\n      and\n        /* \"#utility.yul\":3168:3195   */\n      swap2\n      pop\n        /* \"#utility.yul\":3136:3197   */\n    tag_78:\n        /* \"#utility.yul\":3243:3245   */\n      0x20\n        /* \"#utility.yul\":3235:3241   */\n      dup3\n        /* \"#utility.yul\":3232:3246   */\n      lt\n        /* \"#utility.yul\":3212:3230   */\n      dup2\n        /* \"#utility.yul\":3209:3247   */\n      sub\n        /* \"#utility.yul\":3206:3367   */\n      tag_79\n      jumpi\n        /* \"#utility.yul\":3289:3299   */\n      0x4e487b71\n        /* \"#utility.yul\":3284:3287   */\n      0xe0\n        /* \"#utility.yul\":3280:3300   */\n      shl\n        /* \"#utility.yul\":3277:3278   */\n      0x00\n        /* \"#utility.yul\":3270:3301   */\n      mstore\n        /* \"#utility.yul\":3324:3328   */\n      0x22\n        /* \"#utility.yul\":3321:3322   */\n      0x04\n        /* \"#utility.yul\":3314:3329   */\n      mstore\n        /* \"#utility.yul\":3352:3356   */\n      0x24\n        /* \"#utility.yul\":3349:3350   */\n      0x00\n        /* \"#utility.yul\":3342:3357   */\n      revert\n        /* \"#utility.yul\":3206:3367   */\n    tag_79:\n      pop\n        /* \"#utility.yul\":2993:3373   */\n      swap2\n      swap1\n      pop\n      jump\t// out\n        /* \"#utility.yul\":3504:4022   */\n    tag_55:\n        /* \"#utility.yul\":3606:3608   */\n      0x1f\n        /* \"#utility.yul\":3601:3604   */\n      dup3\n        /* \"#utility.yul\":3598:3609   */\n      gt\n        /* \"#utility.yul\":3595:4016   */\n      iszero\n      tag_82\n      jumpi\n        /* \"#utility.yul\":3642:3647   */\n      dup1\n        /* \"#utility.yul\":3639:3640   */\n      0x00\n        /* \"#utility.yul\":3632:3648   */\n      mstore\n        /* \"#utility.yul\":3686:3690   */\n      0x20\n        /* \"#utility.yul\":3683:3684   */\n      0x00\n        /* \"#utility.yul\":3673:3691   */\n      keccak256\n        /* \"#utility.yul\":3756:3758   */\n      0x1f\n        /* \"#utility.yul\":3744:3754   */\n      dup5\n        /* \"#utility.yul\":3740:3759   */\n      add\n        /* \"#utility.yul\":3737:3738   */\n      0x05\n        /* \"#utility.yul\":3733:3760   */\n      shr\n        /* \"#utility.yul\":3727:3731   */\n      dup2\n        /* \"#utility.yul\":3723:3761   */\n      add\n        /* \"#utility.yul\":3792:3796   */\n      0x20\n        /* \"#utility.yul\":3780:3790   */\n      dup6\n        /* \"#utility.yul\":3777:3797   */\n      lt\n        /* \"#utility.yul\":3774:3821   */\n      iszero\n      tag_83\n      jumpi\n      pop\n        /* \"#utility.yul\":3815:3819   */\n      dup1\n        /* \"#utility.yul\":3774:3821   */\n    tag_83:\n        /* \"#utility.yul\":3870:3872   */\n      0x1f\n        /* \"#utility.yul\":3865:3868   */\n      dup5\n        /* \"#utility.yul\":3861:3873   */\n      add\n        /* \"#utility.yul\":3858:3859   */\n      0x05\n        /* \"#utility.yul\":3854:3874   */\n      shr\n        /* \"#utility.yul\":3848:3852   */\n      dup3\n        /* \"#utility.yul\":3844:3875   */\n      add\n        /* \"#utility.yul\":3834:3875   */\n      swap2\n      pop\n        /* \"#utility.yul\":3925:4006   */\n    tag_84:\n        /* \"#utility.yul\":3943:3945   */\n      dup2\n        /* \"#utility.yul\":3936:3941   */\n      dup2\n        /* \"#utility.yul\":3933:3946   */\n      lt\n        /* \"#utility.yul\":3925:4006   */\n      iszero\n      tag_86\n      jumpi\n        /* \"#utility.yul\":4002:4003   */\n      0x00\n        /* \"#utility.yul\":3988:4004   */\n      dup2\n      sstore\n        /* \"#utility.yul\":3969:3970   */\n      0x01\n        /* \"#utility.yul\":3958:3971   */\n      add\n        /* \"#utility.yul\":3925:4006   */\n      jump(tag_84)\n    tag_86:\n        /* \"#utility.yul\":3929:3932   */\n      pop\n      pop\n        /* \"#utility.yul\":3595:4016   */\n    tag_82:\n        /* \"#utility.yul\":3504:4022   */\n      pop\n      pop\n      pop\n      jump\t// out\n        /* \"#utility.yul\":4198:5497   */\n    tag_33:\n        /* \"#utility.yul\":4324:4327   */\n      dup2\n        /* \"#utility.yul\":4318:4328   */\n      mload\n        /* \"#utility.yul\":4351:4369   */\n      0xffffffffffffffff\n        /* \"#utility.yul\":4343:4349   */\n      dup2\n        /* \"#utility.yul\":4340:4370   */\n      gt\n        /* \"#utility.yul\":4337:4393   */\n      iszero\n      tag_90\n      jumpi\n        /* \"#utility.yul\":4373:4391   */\n      tag_90\n      tag_53\n      jump\t// in\n    tag_90:\n        /* \"#utility.yul\":4402:4499   */\n      tag_91\n        /* \"#utility.yul\":4492:4498   */\n      dup2\n        /* \"#utility.yul\":4452:4490   */\n      tag_92\n        /* \"#utility.yul\":4484:4488   */\n      dup5\n        /* \"#utility.yul\":4478:4489   */\n      sload\n        /* \"#utility.yul\":4452:4490   */\n      tag_45\n      jump\t// in\n    tag_92:\n        /* \"#utility.yul\":4446:4450   */\n      dup5\n        /* \"#utility.yul\":4402:4499   */\n      tag_55\n      jump\t// in\n    tag_91:\n        /* \"#utility.yul\":4548:4552   */\n      0x20\n        /* \"#utility.yul\":4579:4581   */\n      0x1f\n        /* \"#utility.yul\":4568:4582   */\n      dup3\n      gt\n        /* \"#utility.yul\":4596:4597   */\n      0x01\n        /* \"#utility.yul\":4591:5240   */\n      dup2\n      eq\n      tag_94\n      jumpi\n        /* \"#utility.yul\":5284:5285   */\n      0x00\n        /* \"#utility.yul\":5301:5307   */\n      dup4\n        /* \"#utility.yul\":5298:5387   */\n      iszero\n      tag_95\n      jumpi\n      pop\n        /* \"#utility.yul\":5353:5372   */\n      dup5\n      dup3\n      add\n        /* \"#utility.yul\":5347:5373   */\n      mload\n        /* \"#utility.yul\":5298:5387   */\n    tag_95:\n      not(0x00)\n        /* \"#utility.yul\":4155:4156   */\n      0x03\n        /* \"#utility.yul\":4151:4162   */\n      dup6\n      swap1\n      shl\n        /* \"#utility.yul\":4147:4171   */\n      shr\n        /* \"#utility.yul\":4143:4172   */\n      not\n        /* \"#utility.yul\":4133:4173   */\n      and\n        /* \"#utility.yul\":4179:4180   */\n      0x01\n        /* \"#utility.yul\":4175:4186   */\n      dup5\n      swap1\n      shl\n        /* \"#utility.yul\":4130:4187   */\n      or\n        /* \"#utility.yul\":5400:5481   */\n      dup5\n      sstore\n        /* \"#utility.yul\":4561:5491   */\n      jump(tag_86)\n        /* \"#utility.yul\":4591:5240   */\n    tag_94:\n        /* \"#utility.yul\":3451:3452   */\n      0x00\n        /* \"#utility.yul\":3444:3458   */\n      dup5\n      dup2\n      mstore\n        /* \"#utility.yul\":3488:3492   */\n      0x20\n        /* \"#utility.yul\":3475:3493   */\n      dup2\n      keccak256\n      not(0x1f)\n        /* \"#utility.yul\":4627:4647   */\n      dup6\n      and\n      swap2\n        /* \"#utility.yul\":4745:4967   */\n    tag_98:\n        /* \"#utility.yul\":4759:4766   */\n      dup3\n        /* \"#utility.yul\":4756:4757   */\n      dup2\n        /* \"#utility.yul\":4753:4767   */\n      lt\n        /* \"#utility.yul\":4745:4967   */\n      iszero\n      tag_100\n      jumpi\n        /* \"#utility.yul\":4841:4860   */\n      dup8\n      dup6\n      add\n        /* \"#utility.yul\":4835:4861   */\n      mload\n        /* \"#utility.yul\":4820:4862   */\n      dup3\n      sstore\n        /* \"#utility.yul\":4948:4952   */\n      0x20\n        /* \"#utility.yul\":4933:4953   */\n      swap5\n      dup6\n      add\n      swap5\n        /* \"#utility.yul\":4901:4902   */\n      0x01\n        /* \"#utility.yul\":4889:4903   */\n      swap1\n      swap3\n      add\n      swap2\n        /* \"#utility.yul\":4775:4787   */\n      add\n        /* \"#utility.yul\":4745:4967   */\n      jump(tag_98)\n    tag_100:\n        /* \"#utility.yul\":4749:4752   */\n      pop\n        /* \"#utility.yul\":4995:5001   */\n      dup5\n        /* \"#utility.yul\":4986:4993   */\n      dup3\n        /* \"#utility.yul\":4983:5002   */\n      lt\n        /* \"#utility.yul\":4980:5181   */\n      iszero\n      tag_101\n      jumpi\n        /* \"#utility.yul\":5056:5075   */\n      dup7\n      dup5\n      add\n        /* \"#utility.yul\":5050:5076   */\n      mload\n      not(0x00)\n        /* \"#utility.yul\":5139:5140   */\n      0x03\n        /* \"#utility.yul\":5135:5149   */\n      dup8\n      swap1\n      shl\n        /* \"#utility.yul\":5151:5154   */\n      0xf8\n        /* \"#utility.yul\":5131:5155   */\n      and\n        /* \"#utility.yul\":5127:5164   */\n      shr\n        /* \"#utility.yul\":5123:5165   */\n      not\n        /* \"#utility.yul\":5108:5166   */\n      and\n        /* \"#utility.yul\":5093:5167   */\n      dup2\n      sstore\n        /* \"#utility.yul\":4980:5181   */\n    tag_101:\n      pop\n      pop\n      pop\n      pop\n        /* \"#utility.yul\":5227:5228   */\n      0x01\n        /* \"#utility.yul\":5211:5225   */\n      swap1\n      dup2\n      shl\n        /* \"#utility.yul\":5207:5229   */\n      add\n        /* \"#utility.yul\":5194:5230   */\n      swap1\n      sstore\n      pop\n        /* \"#utility.yul\":4198:5497   */\n      jump\t// out\n\n    auxdata: 0xa2646970667358221220867eaa3f714c63ab6dd92a695a42cde8efd0dec079a6b46dd2e0ee88b93a9d8564736f6c634300081e0033\n}\n",
				"bytecode": {
					"linkReferences": {},
					"object": "6080604052348015600e575f5ffd5b506108628061001c5f395ff3fe608060405234801561000f575f5ffd5b5060043610610055575f3560e01c806332e3c0db146100595780637fe034871461006e57806383e32b3f14610081578063aad7fb3c1461009d578063c8e7060c146100b0575b5f5ffd5b61006c610067366004610594565b6100d0565b005b61006c61007c3660046105dc565b610240565b61008a60025481565b6040519081526020015b60405180910390f35b61006c6100ab3660046105f3565b6102f2565b6100c36100be3660046105dc565b6103d0565b6040516100949190610632565b60028054905f6100df836106b5565b91905055506040518060a00160405280336001600160a01b03168152602001826001600160801b0316815260200160025467ffffffffffffffff1681526020015f1515815260200184848080601f0160208091040260200160405190810160405280939291908181526020018383808284375f92018290525093909452505060028054825260016020818152604093849020865181546001600160a01b039091166001600160a01b03199091161781559086015191810180549487015160608801511515600160c01b0260ff60c01b1967ffffffffffffffff909216600160801b026001600160c01b03199097166001600160801b039095169490941795909517949094169190911790925560808401519192508201906102009082610771565b50506002546040518381523392507fcff76cc91de16ee001d268b35bcd59bf8768d4f7f211b249fb1a847c6aed7b439060200160405180910390a3505050565b5f8181526001602081905260408220908101549091600160801b90910467ffffffffffffffff1690036102af5760405162461bcd60e51b815260206004820152601260248201527113585d195c9a585b081b9bdd08199bdd5b9960721b60448201526064015b60405180910390fd5b60018101805460ff60c01b1916600160c01b17905560405182907f8a2f1521aea355652c65a30457c21b578c99c9e6a02dadab78e99148e7962551905f90a25050565b6040518060600160405280336001600160a01b0316815260200160011515815260200183838080601f0160208091040260200160405190810160405280939291908181526020018383808284375f920182905250939094525050338152602081815260409182902084518154928601511515600160a01b026001600160a81b03199093166001600160a01b03919091161791909117815590830151909150600182019061039f9082610771565b50506040513391507fbcffc870b52d3cb785b17c2c7426be70f9181ce49c43cc7b479ebcfac2d7a1c8905f90a25050565b6040805160a0810182525f8082526020820181905291810182905260608082019290925260808101919091525f828152600160208181526040808420815160a08101835281546001600160a01b03168152938101546001600160801b03811693850193909352600160801b830467ffffffffffffffff1691840191909152600160c01b90910460ff1615156060830152600281018054608084019190610475906106ed565b80601f01602080910402602001604051908101604052809291908181526020018280546104a1906106ed565b80156104ec5780601f106104c3576101008083540402835291602001916104ec565b820191905f5260205f20905b8154815290600101906020018083116104cf57829003601f168201915b5050505050815250509050806040015167ffffffffffffffff165f036105495760405162461bcd60e51b815260206004820152601260248201527113585d195c9a585b081b9bdd08199bdd5b9960721b60448201526064016102a6565b92915050565b5f5f83601f84011261055f575f5ffd5b50813567ffffffffffffffff811115610576575f5ffd5b60208301915083602082850101111561058d575f5ffd5b9250929050565b5f5f5f604084860312156105a6575f5ffd5b833567ffffffffffffffff8111156105bc575f5ffd5b6105c88682870161054f565b909790965060209590950135949350505050565b5f602082840312156105ec575f5ffd5b5035919050565b5f5f60208385031215610604575f5ffd5b823567ffffffffffffffff81111561061a575f5ffd5b6106268582860161054f565b90969095509350505050565b6020815260018060a01b0382511660208201526001600160801b03602083015116604082015267ffffffffffffffff60408301511660608201526060820151151560808201525f608083015160a08084015280518060c0850152806020830160e086015e5f60e0828601015260e0601f19601f8301168501019250505092915050565b5f600182016106d257634e487b7160e01b5f52601160045260245ffd5b5060010190565b634e487b7160e01b5f52604160045260245ffd5b600181811c9082168061070157607f821691505b60208210810361071f57634e487b7160e01b5f52602260045260245ffd5b50919050565b601f82111561076c57805f5260205f20601f840160051c8101602085101561074a5750805b601f840160051c820191505b81811015610769575f8155600101610756565b50505b505050565b815167ffffffffffffffff81111561078b5761078b6106d9565b61079f8161079984546106ed565b84610725565b6020601f8211600181146107d1575f83156107ba5750848201515b5f19600385901b1c1916600184901b178455610769565b5f84815260208120601f198516915b8281101561080057878501518255602094850194600190920191016107e0565b508482101561081d57868401515f19600387901b60f8161c191681555b50505050600190811b0190555056fea2646970667358221220867eaa3f714c63ab6dd92a695a42cde8efd0dec079a6b46dd2e0ee88b93a9d8564736f6c634300081e0033",
					"opcodes": "PUSH1 0x80 PUSH1 0x40 MSTORE CALLVALUE DUP1 ISZERO PUSH1 0xE JUMPI PUSH0 PUSH0 REVERT JUMPDEST POP PUSH2 0x862 DUP1 PUSH2 0x1C PUSH0 CODECOPY PUSH0 RETURN INVALID PUSH1 0x80 PUSH1 0x40 MSTORE CALLVALUE DUP1 ISZERO PUSH2 0xF JUMPI PUSH0 PUSH0 REVERT JUMPDEST POP PUSH1 0x4 CALLDATASIZE LT PUSH2 0x55 JUMPI PUSH0 CALLDATALOAD PUSH1 0xE0 SHR DUP1 PUSH4 0x32E3C0DB EQ PUSH2 0x59 JUMPI DUP1 PUSH4 0x7FE03487 EQ PUSH2 0x6E JUMPI DUP1 PUSH4 0x83E32B3F EQ PUSH2 0x81 JUMPI DUP1 PUSH4 0xAAD7FB3C EQ PUSH2 0x9D JUMPI DUP1 PUSH4 0xC8E7060C EQ PUSH2 0xB0 JUMPI JUMPDEST PUSH0 PUSH0 REVERT JUMPDEST PUSH2 0x6C PUSH2 0x67 CALLDATASIZE PUSH1 0x4 PUSH2 0x594 JUMP JUMPDEST PUSH2 0xD0 JUMP JUMPDEST STOP JUMPDEST PUSH2 0x6C PUSH2 0x7C CALLDATASIZE PUSH1 0x4 PUSH2 0x5DC JUMP JUMPDEST PUSH2 0x240 JUMP JUMPDEST PUSH2 0x8A PUSH1 0x2 SLOAD DUP2 JUMP JUMPDEST PUSH1 0x40 MLOAD SWAP1 DUP2 MSTORE PUSH1 0x20 ADD JUMPDEST PUSH1 0x40 MLOAD DUP1 SWAP2 SUB SWAP1 RETURN JUMPDEST PUSH2 0x6C PUSH2 0xAB CALLDATASIZE PUSH1 0x4 PUSH2 0x5F3 JUMP JUMPDEST PUSH2 0x2F2 JUMP JUMPDEST PUSH2 0xC3 PUSH2 0xBE CALLDATASIZE PUSH1 0x4 PUSH2 0x5DC JUMP JUMPDEST PUSH2 0x3D0 JUMP JUMPDEST PUSH1 0x40 MLOAD PUSH2 0x94 SWAP2 SWAP1 PUSH2 0x632 JUMP JUMPDEST PUSH1 0x2 DUP1 SLOAD SWAP1 PUSH0 PUSH2 0xDF DUP4 PUSH2 0x6B5 JUMP JUMPDEST SWAP2 SWAP1 POP SSTORE POP PUSH1 0x40 MLOAD DUP1 PUSH1 0xA0 ADD PUSH1 0x40 MSTORE DUP1 CALLER PUSH1 0x1 PUSH1 0x1 PUSH1 0xA0 SHL SUB AND DUP2 MSTORE PUSH1 0x20 ADD DUP3 PUSH1 0x1 PUSH1 0x1 PUSH1 0x80 SHL SUB AND DUP2 MSTORE PUSH1 0x20 ADD PUSH1 0x2 SLOAD PUSH8 0xFFFFFFFFFFFFFFFF AND DUP2 MSTORE PUSH1 0x20 ADD PUSH0 ISZERO ISZERO DUP2 MSTORE PUSH1 0x20 ADD DUP5 DUP5 DUP1 DUP1 PUSH1 0x1F ADD PUSH1 0x20 DUP1 SWAP2 DIV MUL PUSH1 0x20 ADD PUSH1 0x40 MLOAD SWAP1 DUP2 ADD PUSH1 0x40 MSTORE DUP1 SWAP4 SWAP3 SWAP2 SWAP1 DUP2 DUP2 MSTORE PUSH1 0x20 ADD DUP4 DUP4 DUP1 DUP3 DUP5 CALLDATACOPY PUSH0 SWAP3 ADD DUP3 SWAP1 MSTORE POP SWAP4 SWAP1 SWAP5 MSTORE POP POP PUSH1 0x2 DUP1 SLOAD DUP3 MSTORE PUSH1 0x1 PUSH1 0x20 DUP2 DUP2 MSTORE PUSH1 0x40 SWAP4 DUP5 SWAP1 KECCAK256 DUP7 MLOAD DUP2 SLOAD PUSH1 0x1 PUSH1 0x1 PUSH1 0xA0 SHL SUB SWAP1 SWAP2 AND PUSH1 0x1 PUSH1 0x1 PUSH1 0xA0 SHL SUB NOT SWAP1 SWAP2 AND OR DUP2 SSTORE SWAP1 DUP7 ADD MLOAD SWAP2 DUP2 ADD DUP1 SLOAD SWAP5 DUP8 ADD MLOAD PUSH1 0x60 DUP9 ADD MLOAD ISZERO ISZERO PUSH1 0x1 PUSH1 0xC0 SHL MUL PUSH1 0xFF PUSH1 0xC0 SHL NOT PUSH8 0xFFFFFFFFFFFFFFFF SWAP1 SWAP3 AND PUSH1 0x1 PUSH1 0x80 SHL MUL PUSH1 0x1 PUSH1 0x1 PUSH1 0xC0 SHL SUB NOT SWAP1 SWAP8 AND PUSH1 0x1 PUSH1 0x1 PUSH1 0x80 SHL SUB SWAP1 SWAP6 AND SWAP5 SWAP1 SWAP5 OR SWAP6 SWAP1 SWAP6 OR SWAP5 SWAP1 SWAP5 AND SWAP2 SWAP1 SWAP2 OR SWAP1 SWAP3 SSTORE PUSH1 0x80 DUP5 ADD MLOAD SWAP2 SWAP3 POP DUP3 ADD SWAP1 PUSH2 0x200 SWAP1 DUP3 PUSH2 0x771 JUMP JUMPDEST POP POP PUSH1 0x2 SLOAD PUSH1 0x40 MLOAD DUP4 DUP2 MSTORE CALLER SWAP3 POP PUSH32 0xCFF76CC91DE16EE001D268B35BCD59BF8768D4F7F211B249FB1A847C6AED7B43 SWAP1 PUSH1 0x20 ADD PUSH1 0x40 MLOAD DUP1 SWAP2 SUB SWAP1 LOG3 POP POP POP JUMP JUMPDEST PUSH0 DUP2 DUP2 MSTORE PUSH1 0x1 PUSH1 0x20 DUP2 SWAP1 MSTORE PUSH1 0x40 DUP3 KECCAK256 SWAP1 DUP2 ADD SLOAD SWAP1 SWAP2 PUSH1 0x1 PUSH1 0x80 SHL SWAP1 SWAP2 DIV PUSH8 0xFFFFFFFFFFFFFFFF AND SWAP1 SUB PUSH2 0x2AF JUMPI PUSH1 0x40 MLOAD PUSH3 0x461BCD PUSH1 0xE5 SHL DUP2 MSTORE PUSH1 0x20 PUSH1 0x4 DUP3 ADD MSTORE PUSH1 0x12 PUSH1 0x24 DUP3 ADD MSTORE PUSH18 0x13585D195C9A585B081B9BDD08199BDD5B99 PUSH1 0x72 SHL PUSH1 0x44 DUP3 ADD MSTORE PUSH1 0x64 ADD JUMPDEST PUSH1 0x40 MLOAD DUP1 SWAP2 SUB SWAP1 REVERT JUMPDEST PUSH1 0x1 DUP2 ADD DUP1 SLOAD PUSH1 0xFF PUSH1 0xC0 SHL NOT AND PUSH1 0x1 PUSH1 0xC0 SHL OR SWAP1 SSTORE PUSH1 0x40 MLOAD DUP3 SWAP1 PUSH32 0x8A2F1521AEA355652C65A30457C21B578C99C9E6A02DADAB78E99148E7962551 SWAP1 PUSH0 SWAP1 LOG2 POP POP JUMP JUMPDEST PUSH1 0x40 MLOAD DUP1 PUSH1 0x60 ADD PUSH1 0x40 MSTORE DUP1 CALLER PUSH1 0x1 PUSH1 0x1 PUSH1 0xA0 SHL SUB AND DUP2 MSTORE PUSH1 0x20 ADD PUSH1 0x1 ISZERO ISZERO DUP2 MSTORE PUSH1 0x20 ADD DUP4 DUP4 DUP1 DUP1 PUSH1 0x1F ADD PUSH1 0x20 DUP1 SWAP2 DIV MUL PUSH1 0x20 ADD PUSH1 0x40 MLOAD SWAP1 DUP2 ADD PUSH1 0x40 MSTORE DUP1 SWAP4 SWAP3 SWAP2 SWAP1 DUP2 DUP2 MSTORE PUSH1 0x20 ADD DUP4 DUP4 DUP1 DUP3 DUP5 CALLDATACOPY PUSH0 SWAP3 ADD DUP3 SWAP1 MSTORE POP SWAP4 SWAP1 SWAP5 MSTORE POP POP CALLER DUP2 MSTORE PUSH1 0x20 DUP2 DUP2 MSTORE PUSH1 0x40 SWAP2 DUP3 SWAP1 KECCAK256 DUP5 MLOAD DUP2 SLOAD SWAP3 DUP7 ADD MLOAD ISZERO ISZERO PUSH1 0x1 PUSH1 0xA0 SHL MUL PUSH1 0x1 PUSH1 0x1 PUSH1 0xA8 SHL SUB NOT SWAP1 SWAP4 AND PUSH1 0x1 PUSH1 0x1 PUSH1 0xA0 SHL SUB SWAP2 SWAP1 SWAP2 AND OR SWAP2 SWAP1 SWAP2 OR DUP2 SSTORE SWAP1 DUP4 ADD MLOAD SWAP1 SWAP2 POP PUSH1 0x1 DUP3 ADD SWAP1 PUSH2 0x39F SWAP1 DUP3 PUSH2 0x771 JUMP JUMPDEST POP POP PUSH1 0x40 MLOAD CALLER SWAP2 POP PUSH32 0xBCFFC870B52D3CB785B17C2C7426BE70F9181CE49C43CC7B479EBCFAC2D7A1C8 SWAP1 PUSH0 SWAP1 LOG2 POP POP JUMP JUMPDEST PUSH1 0x40 DUP1 MLOAD PUSH1 0xA0 DUP2 ADD DUP3 MSTORE PUSH0 DUP1 DUP3 MSTORE PUSH1 0x20 DUP3 ADD DUP2 SWAP1 MSTORE SWAP2 DUP2 ADD DUP3 SWAP1 MSTORE PUSH1 0x60 DUP1 DUP3 ADD SWAP3 SWAP1 SWAP3 MSTORE PUSH1 0x80 DUP2 ADD SWAP2 SWAP1 SWAP2 MSTORE PUSH0 DUP3 DUP2 MSTORE PUSH1 0x1 PUSH1 0x20 DUP2 DUP2 MSTORE PUSH1 0x40 DUP1 DUP5 KECCAK256 DUP2 MLOAD PUSH1 0xA0 DUP2 ADD DUP4 MSTORE DUP2 SLOAD PUSH1 0x1 PUSH1 0x1 PUSH1 0xA0 SHL SUB AND DUP2 MSTORE SWAP4 DUP2 ADD SLOAD PUSH1 0x1 PUSH1 0x1 PUSH1 0x80 SHL SUB DUP2 AND SWAP4 DUP6 ADD SWAP4 SWAP1 SWAP4 MSTORE PUSH1 0x1 PUSH1 0x80 SHL DUP4 DIV PUSH8 0xFFFFFFFFFFFFFFFF AND SWAP2 DUP5 ADD SWAP2 SWAP1 SWAP2 MSTORE PUSH1 0x1 PUSH1 0xC0 SHL SWAP1 SWAP2 DIV PUSH1 0xFF AND ISZERO ISZERO PUSH1 0x60 DUP4 ADD MSTORE PUSH1 0x2 DUP2 ADD DUP1 SLOAD PUSH1 0x80 DUP5 ADD SWAP2 SWAP1 PUSH2 0x475 SWAP1 PUSH2 0x6ED JUMP JUMPDEST DUP1 PUSH1 0x1F ADD PUSH1 0x20 DUP1 SWAP2 DIV MUL PUSH1 0x20 ADD PUSH1 0x40 MLOAD SWAP1 DUP2 ADD PUSH1 0x40 MSTORE DUP1 SWAP3 SWAP2 SWAP1 DUP2 DUP2 MSTORE PUSH1 0x20 ADD DUP3 DUP1 SLOAD PUSH2 0x4A1 SWAP1 PUSH2 0x6ED JUMP JUMPDEST DUP1 ISZERO PUSH2 0x4EC JUMPI DUP1 PUSH1 0x1F LT PUSH2 0x4C3 JUMPI PUSH2 0x100 DUP1 DUP4 SLOAD DIV MUL DUP4 MSTORE SWAP2 PUSH1 0x20 ADD SWAP2 PUSH2 0x4EC JUMP JUMPDEST DUP3 ADD SWAP2 SWAP1 PUSH0 MSTORE PUSH1 0x20 PUSH0 KECCAK256 SWAP1 JUMPDEST DUP2 SLOAD DUP2 MSTORE SWAP1 PUSH1 0x1 ADD SWAP1 PUSH1 0x20 ADD DUP1 DUP4 GT PUSH2 0x4CF JUMPI DUP3 SWAP1 SUB PUSH1 0x1F AND DUP3 ADD SWAP2 JUMPDEST POP POP POP POP POP DUP2 MSTORE POP POP SWAP1 POP DUP1 PUSH1 0x40 ADD MLOAD PUSH8 0xFFFFFFFFFFFFFFFF AND PUSH0 SUB PUSH2 0x549 JUMPI PUSH1 0x40 MLOAD PUSH3 0x461BCD PUSH1 0xE5 SHL DUP2 MSTORE PUSH1 0x20 PUSH1 0x4 DUP3 ADD MSTORE PUSH1 0x12 PUSH1 0x24 DUP3 ADD MSTORE PUSH18 0x13585D195C9A585B081B9BDD08199BDD5B99 PUSH1 0x72 SHL PUSH1 0x44 DUP3 ADD MSTORE PUSH1 0x64 ADD PUSH2 0x2A6 JUMP JUMPDEST SWAP3 SWAP2 POP POP JUMP JUMPDEST PUSH0 PUSH0 DUP4 PUSH1 0x1F DUP5 ADD SLT PUSH2 0x55F JUMPI PUSH0 PUSH0 REVERT JUMPDEST POP DUP2 CALLDATALOAD PUSH8 0xFFFFFFFFFFFFFFFF DUP2 GT ISZERO PUSH2 0x576 JUMPI PUSH0 PUSH0 REVERT JUMPDEST PUSH1 0x20 DUP4 ADD SWAP2 POP DUP4 PUSH1 0x20 DUP3 DUP6 ADD ADD GT ISZERO PUSH2 0x58D JUMPI PUSH0 PUSH0 REVERT JUMPDEST SWAP3 POP SWAP3 SWAP1 POP JUMP JUMPDEST PUSH0 PUSH0 PUSH0 PUSH1 0x40 DUP5 DUP7 SUB SLT ISZERO PUSH2 0x5A6 JUMPI PUSH0 PUSH0 REVERT JUMPDEST DUP4 CALLDATALOAD PUSH8 0xFFFFFFFFFFFFFFFF DUP2 GT ISZERO PUSH2 0x5BC JUMPI PUSH0 PUSH0 REVERT JUMPDEST PUSH2 0x5C8 DUP7 DUP3 DUP8 ADD PUSH2 0x54F JUMP JUMPDEST SWAP1 SWAP8 SWAP1 SWAP7 POP PUSH1 0x20 SWAP6 SWAP1 SWAP6 ADD CALLDATALOAD SWAP5 SWAP4 POP POP POP POP JUMP JUMPDEST PUSH0 PUSH1 0x20 DUP3 DUP5 SUB SLT ISZERO PUSH2 0x5EC JUMPI PUSH0 PUSH0 REVERT JUMPDEST POP CALLDATALOAD SWAP2 SWAP1 POP JUMP JUMPDEST PUSH0 PUSH0 PUSH1 0x20 DUP4 DUP6 SUB SLT ISZERO PUSH2 0x604 JUMPI PUSH0 PUSH0 REVERT JUMPDEST DUP3 CALLDATALOAD PUSH8 0xFFFFFFFFFFFFFFFF DUP2 GT ISZERO PUSH2 0x61A JUMPI PUSH0 PUSH0 REVERT JUMPDEST PUSH2 0x626 DUP6 DUP3 DUP7 ADD PUSH2 0x54F JUMP JUMPDEST SWAP1 SWAP7 SWAP1 SWAP6 POP SWAP4 POP POP POP POP JUMP JUMPDEST PUSH1 0x20 DUP2 MSTORE PUSH1 0x1 DUP1 PUSH1 0xA0 SHL SUB DUP3 MLOAD AND PUSH1 0x20 DUP3 ADD MSTORE PUSH1 0x1 PUSH1 0x1 PUSH1 0x80 SHL SUB PUSH1 0x20 DUP4 ADD MLOAD AND PUSH1 0x40 DUP3 ADD MSTORE PUSH8 0xFFFFFFFFFFFFFFFF PUSH1 0x40 DUP4 ADD MLOAD AND PUSH1 0x60 DUP3 ADD MSTORE PUSH1 0x60 DUP3 ADD MLOAD ISZERO ISZERO PUSH1 0x80 DUP3 ADD MSTORE PUSH0 PUSH1 0x80 DUP4 ADD MLOAD PUSH1 0xA0 DUP1 DUP5 ADD MSTORE DUP1 MLOAD DUP1 PUSH1 0xC0 DUP6 ADD MSTORE DUP1 PUSH1 0x20 DUP4 ADD PUSH1 0xE0 DUP7 ADD MCOPY PUSH0 PUSH1 0xE0 DUP3 DUP7 ADD ADD MSTORE PUSH1 0xE0 PUSH1 0x1F NOT PUSH1 0x1F DUP4 ADD AND DUP6 ADD ADD SWAP3 POP POP POP SWAP3 SWAP2 POP POP JUMP JUMPDEST PUSH0 PUSH1 0x1 DUP3 ADD PUSH2 0x6D2 JUMPI PUSH4 0x4E487B71 PUSH1 0xE0 SHL PUSH0 MSTORE PUSH1 0x11 PUSH1 0x4 MSTORE PUSH1 0x24 PUSH0 REVERT JUMPDEST POP PUSH1 0x1 ADD SWAP1 JUMP JUMPDEST PUSH4 0x4E487B71 PUSH1 0xE0 SHL PUSH0 MSTORE PUSH1 0x41 PUSH1 0x4 MSTORE PUSH1 0x24 PUSH0 REVERT JUMPDEST PUSH1 0x1 DUP2 DUP2 SHR SWAP1 DUP3 AND DUP1 PUSH2 0x701 JUMPI PUSH1 0x7F DUP3 AND SWAP2 POP JUMPDEST PUSH1 0x20 DUP3 LT DUP2 SUB PUSH2 0x71F JUMPI PUSH4 0x4E487B71 PUSH1 0xE0 SHL PUSH0 MSTORE PUSH1 0x22 PUSH1 0x4 MSTORE PUSH1 0x24 PUSH0 REVERT JUMPDEST POP SWAP2 SWAP1 POP JUMP JUMPDEST PUSH1 0x1F DUP3 GT ISZERO PUSH2 0x76C JUMPI DUP1 PUSH0 MSTORE PUSH1 0x20 PUSH0 KECCAK256 PUSH1 0x1F DUP5 ADD PUSH1 0x5 SHR DUP2 ADD PUSH1 0x20 DUP6 LT ISZERO PUSH2 0x74A JUMPI POP DUP1 JUMPDEST PUSH1 0x1F DUP5 ADD PUSH1 0x5 SHR DUP3 ADD SWAP2 POP JUMPDEST DUP2 DUP2 LT ISZERO PUSH2 0x769 JUMPI PUSH0 DUP2 SSTORE PUSH1 0x1 ADD PUSH2 0x756 JUMP JUMPDEST POP POP JUMPDEST POP POP POP JUMP JUMPDEST DUP2 MLOAD PUSH8 0xFFFFFFFFFFFFFFFF DUP2 GT ISZERO PUSH2 0x78B JUMPI PUSH2 0x78B PUSH2 0x6D9 JUMP JUMPDEST PUSH2 0x79F DUP2 PUSH2 0x799 DUP5 SLOAD PUSH2 0x6ED JUMP JUMPDEST DUP5 PUSH2 0x725 JUMP JUMPDEST PUSH1 0x20 PUSH1 0x1F DUP3 GT PUSH1 0x1 DUP2 EQ PUSH2 0x7D1 JUMPI PUSH0 DUP4 ISZERO PUSH2 0x7BA JUMPI POP DUP5 DUP3 ADD MLOAD JUMPDEST PUSH0 NOT PUSH1 0x3 DUP6 SWAP1 SHL SHR NOT AND PUSH1 0x1 DUP5 SWAP1 SHL OR DUP5 SSTORE PUSH2 0x769 JUMP JUMPDEST PUSH0 DUP5 DUP2 MSTORE PUSH1 0x20 DUP2 KECCAK256 PUSH1 0x1F NOT DUP6 AND SWAP2 JUMPDEST DUP3 DUP2 LT ISZERO PUSH2 0x800 JUMPI DUP8 DUP6 ADD MLOAD DUP3 SSTORE PUSH1 0x20 SWAP5 DUP6 ADD SWAP5 PUSH1 0x1 SWAP1 SWAP3 ADD SWAP2 ADD PUSH2 0x7E0 JUMP JUMPDEST POP DUP5 DUP3 LT ISZERO PUSH2 0x81D JUMPI DUP7 DUP5 ADD MLOAD PUSH0 NOT PUSH1 0x3 DUP8 SWAP1 SHL PUSH1 0xF8 AND SHR NOT AND DUP2 SSTORE JUMPDEST POP POP POP POP PUSH1 0x1 SWAP1 DUP2 SHL ADD SWAP1 SSTORE POP JUMP INVALID LOG2 PUSH5 0x6970667358 0x22 SLT KECCAK256 DUP7 PUSH31 0xAA3F714C63AB6DD92A695A42CDE8EFD0DEC079A6B46DD2E0EE88B93A9D8564 PUSH20 0x6F6C634300081E00330000000000000000000000 "
				},
				"gasEstimates": {
					"creation": {
						"codeDepositCost": "429200",
						"executionCost": "466",
						"totalCost": "429666"
					},
					"external": {
						"addMaterial(string,uint256)": "infinite",
						"deliverMaterial(uint256)": "27848",
						"findMaterial(uint256)": "infinite",
						"materialCounter()": "2305",
						"registerSupplier(string)": "infinite"
					}
				},
				"methodIdentifiers": {
					"addMaterial(string,uint256)": "32e3c0db",
					"deliverMaterial(uint256)": "7fe03487",
					"findMaterial(uint256)": "c8e7060c",
					"materialCounter()": "83e32b3f",
					"registerSupplier(string)": "aad7fb3c"
				}
			},
			"storageLayout": {
				"storage": [
					{
						"astId": 24,
						"contract": "optimized material supply contract.sol:MaterialSupply",
						"label": "suppliers",
						"offset": 0,
						"slot": "0",
						"type": "t_mapping(t_address,t_struct(Supplier)8_storage)"
					},
					{
						"astId": 29,
						"contract": "optimized material supply contract.sol:MaterialSupply",
						"label": "materials",
						"offset": 0,
						"slot": "1",
						"type": "t_mapping(t_uint256,t_struct(Material)19_storage)"
					},
					{
						"astId": 31,
						"contract": "optimized material supply contract.sol:MaterialSupply",
						"label": "materialCounter",
						"offset": 0,
						"slot": "2",
						"type": "t_uint256"
					}
				],
				"types": {
					"t_address": {
						"encoding": "inplace",
						"label": "address",
						"numberOfBytes": "20"
					},
					"t_bool": {
						"encoding": "inplace",
						"label": "bool",
						"numberOfBytes": "1"
					},
					"t_mapping(t_address,t_struct(Supplier)8_storage)": {
						"encoding": "mapping",
						"key": "t_address",
						"label": "mapping(address => struct MaterialSupply.Supplier)",
						"numberOfBytes": "32",
						"value": "t_struct(Supplier)8_storage"
					},
					"t_mapping(t_uint256,t_struct(Material)19_storage)": {
						"encoding": "mapping",
						"key": "t_uint256",
						"label": "mapping(uint256 => struct MaterialSupply.Material)",
						"numberOfBytes": "32",
						"value": "t_struct(Material)19_storage"
					},
					"t_string_storage": {
						"encoding": "bytes",
						"label": "string",
						"numberOfBytes": "32"
					},
					"t_struct(Material)19_storage": {
						"encoding": "inplace",
						"label": "struct MaterialSupply.Material",
						"members": [
							{
								"astId": 10,
								"contract": "optimized material supply contract.sol:MaterialSupply",
								"label": "supplier",
								"offset": 0,
								"slot": "0",
								"type": "t_address"
							},
							{
								"astId": 12,
								"contract": "optimized material supply contract.sol:MaterialSupply",
								"label": "quantity",
								"offset": 0,
								"slot": "1",
								"type": "t_uint128"
							},
							{
								"astId": 14,
								"contract": "optimized material supply contract.sol:MaterialSupply",
								"label": "materialId",
								"offset": 16,
								"slot": "1",
								"type": "t_uint64"
							},
							{
								"astId": 16,
								"contract": "optimized material supply contract.sol:MaterialSupply",
								"label": "delivered",
								"offset": 24,
								"slot": "1",
								"type": "t_bool"
							},
							{
								"astId": 18,
								"contract": "optimized material supply contract.sol:MaterialSupply",
								"label": "name",
								"offset": 0,
								"slot": "2",
								"type": "t_string_storage"
							}
						],
						"numberOfBytes": "96"
					},
					"t_struct(Supplier)8_storage": {
						"encoding": "inplace",
						"label": "struct MaterialSupply.Supplier",
						"members": [
							{
								"astId": 3,
								"contract": "optimized material supply contract.sol:MaterialSupply",
								"label": "supplierAddress",
								"offset": 0,
								"slot": "0",
								"type": "t_address"
							},
							{
								"astId": 5,
								"contract": "optimized material supply contract.sol:MaterialSupply",
								"label": "isRegistered",
								"offset": 20,
								"slot": "0",
								"type": "t_bool"
							},
							{
								"astId": 7,
								"contract": "optimized material supply contract.sol:MaterialSupply",
								"label": "name",
								"offset": 0,
								"slot": "1",
								"type": "t_string_storage"
							}
						],
						"numberOfBytes": "64"
					},
					"t_uint128": {
						"encoding": "inplace",
						"label": "uint128",
						"numberOfBytes": "16"
					},
					"t_uint256": {
						"encoding": "inplace",
						"label": "uint256",
						"numberOfBytes": "32"
					},
					"t_uint64": {
						"encoding": "inplace",
						"label": "uint64",
						"numberOfBytes": "8"
					}
				}
			},
			"userdoc": {
				"kind": "user",
				"methods": {},
				"version": 1
			}
		}
	}
}