{
	"payment module.sol": {
		"PaymentModule": {
			"abi": [
				{
					"inputs": [
						{
							"internalType": "address",
							"name": "_payee",
							"type": "address"
						}
					],
					"name": "createEscrow",
					"outputs": [],
					"stateMutability": "payable",
					"type": "function"
				},
				{
					"inputs": [
						{
							"internalType": "uint256",
							"name": "_escrowId",
							"type": "uint256"
						},
						{
							"internalType": "string",
							"name": "_desc",
							"type": "string"
						}
					],
					"name": "createMilestone",
					"outputs": [],
					"stateMutability": "nonpayable",
					"type": "function"
				},
				{
					"inputs": [],
					"name": "escrowCounter",
					"outputs": [
						{
							"internalType": "uint256",
							"name": "",
							"type": "uint256"
						}
					],
					"stateMutability": "view",
					"type": "function"
				},
				{
					"inputs": [
						{
							"internalType": "uint256",
							"name": "",
							"type": "uint256"
						}
					],
					"name": "escrows",
					"outputs": [
						{
							"internalType": "uint256",
							"name": "escrowId",
							"type": "uint256"
						},
						{
							"internalType": "address",
							"name": "payer",
							"type": "address"
						},
						{
							"internalType": "address",
							"name": "payee",
							"type": "address"
						},
						{
							"internalType": "uint256",
							"name": "amount",
							"type": "uint256"
						},
						{
							"internalType": "bool",
							"name": "released",
							"type": "bool"
						},
						{
							"internalType": "bool",
							"name": "refunded",
							"type": "bool"
						}
					],
					"stateMutability": "view",
					"type": "function"
				},
				{
					"inputs": [],
					"name": "milestoneCounter",
					"outputs": [
						{
							"internalType": "uint256",
							"name": "",
							"type": "uint256"
						}
					],
					"stateMutability": "view",
					"type": "function"
				},
				{
					"inputs": [
						{
							"internalType": "uint256",
							"name": "",
							"type": "uint256"
						}
					],
					"name": "milestones",
					"outputs": [
						{
							"internalType": "uint256",
							"name": "milestoneId",
							"type": "uint256"
						},
						{
							"internalType": "uint256",
							"name": "escrowId",
							"type": "uint256"
						},
						{
							"internalType": "string",
							"name": "description",
							"type": "string"
						},
						{
							"internalType": "bool",
							"name": "completed",
							"type": "bool"
						}
					],
					"stateMutability": "view",
					"type": "function"
				},
				{
					"inputs": [
						{
							"internalType": "uint256",
							"name": "_escrowId",
							"type": "uint256"
						}
					],
					"name": "refundEscrow",
					"outputs": [],
					"stateMutability": "nonpayable",
					"type": "function"
				},
				{
					"inputs": [
						{
							"internalType": "uint256",
							"name": "_escrowId",
							"type": "uint256"
						}
					],
					"name": "releasePayment",
					"outputs": [],
					"stateMutability": "nonpayable",
					"type": "function"
				}
			],
			"devdoc": {
				"kind": "dev",
				"methods": {},
				"version": 1
			},
			"evm": {
				"assembly": "    /* \"payment module.sol\":61:1657  contract PaymentModule {... */\n  mstore(0x40, 0x80)\n  callvalue\n  dup1\n  iszero\n  tag_1\n  jumpi\n  revert(0x00, 0x00)\ntag_1:\n  pop\n  dataSize(sub_0)\n  dup1\n  dataOffset(sub_0)\n  0x00\n  codecopy\n  0x00\n  return\nstop\n\nsub_0: assembly {\n        /* \"payment module.sol\":61:1657  contract PaymentModule {... */\n      mstore(0x40, 0x80)\n      jumpi(tag_1, lt(calldatasize, 0x04))\n      shr(0xe0, calldataload(0x00))\n      dup1\n      0xc7ceafea\n      gt\n      tag_10\n      jumpi\n      dup1\n      0xc7ceafea\n      eq\n      tag_6\n      jumpi\n      dup1\n      0xe89e4ed6\n      eq\n      tag_7\n      jumpi\n      dup1\n      0xf6a8419e\n      eq\n      tag_8\n      jumpi\n      dup1\n      0xf6baaec7\n      eq\n      tag_9\n      jumpi\n      revert(0x00, 0x00)\n    tag_10:\n      dup1\n      0x012f52ee\n      eq\n      tag_2\n      jumpi\n      dup1\n      0x356f9dfd\n      eq\n      tag_3\n      jumpi\n      dup1\n      0x44d0be64\n      eq\n      tag_4\n      jumpi\n      dup1\n      0x88685cd9\n      eq\n      tag_5\n      jumpi\n    tag_1:\n      revert(0x00, 0x00)\n        /* \"payment module.sol\":415:438  Escrow[] public escrows */\n    tag_2:\n      callvalue\n      dup1\n      iszero\n      tag_11\n      jumpi\n      revert(0x00, 0x00)\n    tag_11:\n      pop\n      tag_12\n      tag_13\n      calldatasize\n      0x04\n      tag_14\n      jump\t// in\n    tag_13:\n      tag_15\n      jump\t// in\n    tag_12:\n      0x40\n      dup1\n      mload\n        /* \"#utility.yul\":520:545   */\n      swap7\n      dup8\n      mstore\n      sub(shl(0xa0, 0x01), 0x01)\n        /* \"#utility.yul\":581:613   */\n      swap6\n      dup7\n      and\n        /* \"#utility.yul\":576:578   */\n      0x20\n        /* \"#utility.yul\":561:579   */\n      dup9\n      add\n        /* \"#utility.yul\":554:614   */\n      mstore\n        /* \"#utility.yul\":650:682   */\n      swap4\n      swap1\n      swap5\n      and\n        /* \"#utility.yul\":630:648   */\n      swap3\n      dup6\n      add\n        /* \"#utility.yul\":623:683   */\n      swap3\n      swap1\n      swap3\n      mstore\n        /* \"#utility.yul\":714:716   */\n      0x60\n        /* \"#utility.yul\":699:717   */\n      dup5\n      add\n        /* \"#utility.yul\":692:726   */\n      mstore\n        /* \"#utility.yul\":770:784   */\n      iszero\n        /* \"#utility.yul\":763:785   */\n      iszero\n        /* \"#utility.yul\":757:760   */\n      0x80\n        /* \"#utility.yul\":742:761   */\n      dup4\n      add\n        /* \"#utility.yul\":735:786   */\n      mstore\n        /* \"#utility.yul\":830:844   */\n      iszero\n        /* \"#utility.yul\":823:845   */\n      iszero\n        /* \"#utility.yul\":601:604   */\n      0xa0\n        /* \"#utility.yul\":802:821   */\n      dup3\n      add\n        /* \"#utility.yul\":795:846   */\n      mstore\n        /* \"#utility.yul\":507:510   */\n      0xc0\n        /* \"#utility.yul\":492:511   */\n      add\n        /* \"payment module.sol\":415:438  Escrow[] public escrows */\n    tag_16:\n      mload(0x40)\n      dup1\n      swap2\n      sub\n      swap1\n      return\n        /* \"payment module.sol\":1349:1654  function refundEscrow(uint256 _escrowId) public {... */\n    tag_3:\n      callvalue\n      dup1\n      iszero\n      tag_18\n      jumpi\n      revert(0x00, 0x00)\n    tag_18:\n      pop\n      tag_19\n      tag_20\n      calldatasize\n      0x04\n      tag_14\n      jump\t// in\n    tag_20:\n      tag_21\n      jump\t// in\n    tag_19:\n      stop\n        /* \"payment module.sol\":791:980  function createMilestone(uint256 _escrowId, string memory _desc) public {... */\n    tag_4:\n      callvalue\n      dup1\n      iszero\n      tag_22\n      jumpi\n      revert(0x00, 0x00)\n    tag_22:\n      pop\n      tag_19\n      tag_24\n      calldatasize\n      0x04\n      tag_25\n      jump\t// in\n    tag_24:\n      tag_26\n      jump\t// in\n        /* \"payment module.sol\":1012:1319  function releasePayment(uint256 _escrowId) public {... */\n    tag_5:\n      callvalue\n      dup1\n      iszero\n      tag_27\n      jumpi\n      revert(0x00, 0x00)\n    tag_27:\n      pop\n      tag_19\n      tag_29\n      calldatasize\n      0x04\n      tag_14\n      jump\t// in\n    tag_29:\n      tag_30\n      jump\t// in\n        /* \"payment module.sol\":483:511  uint256 public escrowCounter */\n    tag_6:\n      callvalue\n      dup1\n      iszero\n      tag_31\n      jumpi\n      revert(0x00, 0x00)\n    tag_31:\n      pop\n      tag_32\n      sload(0x02)\n      dup2\n      jump\n    tag_32:\n      mload(0x40)\n        /* \"#utility.yul\":2199:2224   */\n      swap1\n      dup2\n      mstore\n        /* \"#utility.yul\":2187:2189   */\n      0x20\n        /* \"#utility.yul\":2172:2190   */\n      add\n        /* \"payment module.sol\":483:511  uint256 public escrowCounter */\n      tag_16\n        /* \"#utility.yul\":2053:2230   */\n      jump\n        /* \"payment module.sol\":445:474  Milestone[] public milestones */\n    tag_7:\n      callvalue\n      dup1\n      iszero\n      tag_36\n      jumpi\n      revert(0x00, 0x00)\n    tag_36:\n      pop\n      tag_37\n      tag_38\n      calldatasize\n      0x04\n      tag_14\n      jump\t// in\n    tag_38:\n      tag_39\n      jump\t// in\n    tag_37:\n      mload(0x40)\n      tag_16\n      swap5\n      swap4\n      swap3\n      swap2\n      swap1\n      tag_41\n      jump\t// in\n        /* \"payment module.sol\":580:758  function createEscrow(address _payee) public payable {... */\n    tag_8:\n      tag_19\n      tag_43\n      calldatasize\n      0x04\n      tag_44\n      jump\t// in\n    tag_43:\n      tag_45\n      jump\t// in\n        /* \"payment module.sol\":518:549  uint256 public milestoneCounter */\n    tag_9:\n      callvalue\n      dup1\n      iszero\n      tag_46\n      jumpi\n      revert(0x00, 0x00)\n    tag_46:\n      pop\n      tag_32\n      sload(0x03)\n      dup2\n      jump\n        /* \"payment module.sol\":415:438  Escrow[] public escrows */\n    tag_15:\n      0x00\n      dup2\n      dup2\n      sload\n      dup2\n      lt\n      tag_50\n      jumpi\n      0x00\n      dup1\n      revert\n    tag_50:\n      0x00\n      swap2\n      dup3\n      mstore\n      0x20\n      swap1\n      swap2\n      keccak256\n      0x05\n      swap1\n      swap2\n      mul\n      add\n      dup1\n      sload\n      0x01\n      dup3\n      add\n      sload\n      0x02\n      dup4\n      add\n      sload\n      0x03\n      dup5\n      add\n      sload\n      0x04\n      swap1\n      swap5\n      add\n      sload\n      swap3\n      swap5\n      pop\n      sub(shl(0xa0, 0x01), 0x01)\n      swap2\n      dup3\n      and\n      swap4\n      swap2\n      and\n      swap2\n      0xff\n      dup1\n      dup3\n      and\n      swap2\n      0x0100\n      swap1\n      div\n      and\n      dup7\n      jump\t// out\n        /* \"payment module.sol\":1349:1654  function refundEscrow(uint256 _escrowId) public {... */\n    tag_21:\n        /* \"payment module.sol\":1413:1419  uint i */\n      0x00\n        /* \"payment module.sol\":1408:1647  for (uint i = 0; i < escrows.length; i++) {... */\n    tag_53:\n        /* \"payment module.sol\":1429:1436  escrows */\n      0x00\n        /* \"payment module.sol\":1429:1443  escrows.length */\n      sload\n        /* \"payment module.sol\":1425:1443  i < escrows.length */\n      dup2\n      lt\n        /* \"payment module.sol\":1408:1647  for (uint i = 0; i < escrows.length; i++) {... */\n      iszero\n      tag_54\n      jumpi\n        /* \"payment module.sol\":1492:1501  _escrowId */\n      dup2\n        /* \"payment module.sol\":1469:1476  escrows */\n      0x00\n        /* \"payment module.sol\":1477:1478  i */\n      dup3\n        /* \"payment module.sol\":1469:1479  escrows[i] */\n      dup2\n      sload\n      dup2\n      lt\n      tag_57\n      jumpi\n      tag_57\n      tag_58\n      jump\t// in\n    tag_57:\n      swap1\n      0x00\n      mstore\n      keccak256(0x00, 0x20)\n      swap1\n      0x05\n      mul\n      add\n        /* \"payment module.sol\":1469:1488  escrows[i].escrowId */\n      0x00\n      add\n      sload\n        /* \"payment module.sol\":1469:1501  escrows[i].escrowId == _escrowId */\n      sub\n        /* \"payment module.sol\":1465:1636  if (escrows[i].escrowId == _escrowId) {... */\n      tag_60\n      jumpi\n        /* \"payment module.sol\":1530:1537  escrows */\n      0x00\n        /* \"payment module.sol\":1538:1539  i */\n      dup2\n        /* \"payment module.sol\":1530:1540  escrows[i] */\n      dup2\n      sload\n      dup2\n      lt\n      tag_62\n      jumpi\n      tag_62\n      tag_58\n      jump\t// in\n    tag_62:\n      0x00\n      swap2\n      dup3\n      mstore\n      0x20\n      dup3\n      keccak256\n        /* \"payment module.sol\":1530:1546  escrows[i].payer */\n      0x01\n        /* \"payment module.sol\":1530:1540  escrows[i] */\n      0x05\n      swap1\n      swap3\n      mul\n      add\n        /* \"payment module.sol\":1530:1546  escrows[i].payer */\n      add\n      sload\n        /* \"payment module.sol\":1557:1567  escrows[i] */\n      dup2\n      sload\n      sub(shl(0xa0, 0x01), 0x01)\n        /* \"payment module.sol\":1530:1546  escrows[i].payer */\n      swap1\n      swap2\n      and\n      swap2\n        /* \"payment module.sol\":1522:1575  payable(escrows[i].payer).transfer(escrows[i].amount) */\n      0x08fc\n      swap2\n        /* \"payment module.sol\":1565:1566  i */\n      dup5\n      swap1\n        /* \"payment module.sol\":1557:1567  escrows[i] */\n      dup2\n      lt\n      tag_65\n      jumpi\n      tag_65\n      tag_58\n      jump\t// in\n    tag_65:\n      swap1\n      0x00\n      mstore\n      keccak256(0x00, 0x20)\n      swap1\n      0x05\n      mul\n      add\n        /* \"payment module.sol\":1557:1574  escrows[i].amount */\n      0x03\n      add\n      sload\n        /* \"payment module.sol\":1522:1575  payable(escrows[i].payer).transfer(escrows[i].amount) */\n      swap1\n      dup2\n      iszero\n      mul\n      swap1\n      mload(0x40)\n      0x00\n      mload(0x40)\n      dup1\n      dup4\n      sub\n      dup2\n      dup6\n      dup9\n      dup9\n      call\n      swap4\n      pop\n      pop\n      pop\n      pop\n      iszero\n      dup1\n      iszero\n      tag_68\n      jumpi\n      returndatacopy(0x00, 0x00, returndatasize)\n      revert(0x00, returndatasize)\n    tag_68:\n      pop\n        /* \"payment module.sol\":1616:1620  true */\n      0x01\n        /* \"payment module.sol\":1594:1601  escrows */\n      0x00\n        /* \"payment module.sol\":1602:1603  i */\n      dup3\n        /* \"payment module.sol\":1594:1604  escrows[i] */\n      dup2\n      sload\n      dup2\n      lt\n      tag_70\n      jumpi\n      tag_70\n      tag_58\n      jump\t// in\n    tag_70:\n      swap1\n      0x00\n      mstore\n      keccak256(0x00, 0x20)\n      swap1\n      0x05\n      mul\n      add\n        /* \"payment module.sol\":1594:1613  escrows[i].refunded */\n      0x04\n      add\n      0x01\n        /* \"payment module.sol\":1594:1620  escrows[i].refunded = true */\n      0x0100\n      exp\n      dup2\n      sload\n      dup2\n      0xff\n      mul\n      not\n      and\n      swap1\n      dup4\n      iszero\n      iszero\n      mul\n      or\n      swap1\n      sstore\n      pop\n        /* \"payment module.sol\":1465:1636  if (escrows[i].escrowId == _escrowId) {... */\n    tag_60:\n        /* \"payment module.sol\":1445:1448  i++ */\n      0x01\n      add\n        /* \"payment module.sol\":1408:1647  for (uint i = 0; i < escrows.length; i++) {... */\n      jump(tag_53)\n    tag_54:\n      pop\n        /* \"payment module.sol\":1349:1654  function refundEscrow(uint256 _escrowId) public {... */\n      pop\n      jump\t// out\n        /* \"payment module.sol\":791:980  function createMilestone(uint256 _escrowId, string memory _desc) public {... */\n    tag_26:\n        /* \"payment module.sol\":874:890  milestoneCounter */\n      0x03\n        /* \"payment module.sol\":874:892  milestoneCounter++ */\n      dup1\n      sload\n      swap1\n        /* \"payment module.sol\":874:890  milestoneCounter */\n      0x00\n        /* \"payment module.sol\":874:892  milestoneCounter++ */\n      tag_73\n      dup4\n      tag_74\n      jump\t// in\n    tag_73:\n      swap1\n      swap2\n      sstore\n      pop\n      pop\n        /* \"payment module.sol\":919:971  Milestone(milestoneCounter, _escrowId, _desc, false) */\n      0x40\n      dup1\n      mload\n      0x80\n      dup2\n      add\n      dup3\n      mstore\n        /* \"payment module.sol\":929:945  milestoneCounter */\n      sload(0x03)\n        /* \"payment module.sol\":919:971  Milestone(milestoneCounter, _escrowId, _desc, false) */\n      dup2\n      mstore\n      0x20\n      dup2\n      add\n      dup5\n      dup2\n      mstore\n      swap2\n      dup2\n      add\n      dup4\n      dup2\n      mstore\n      0x00\n      0x60\n      dup4\n      add\n      dup2\n      swap1\n      mstore\n        /* \"payment module.sol\":903:913  milestones */\n      0x01\n        /* \"payment module.sol\":903:972  milestones.push(Milestone(milestoneCounter, _escrowId, _desc, false)) */\n      dup1\n      sload\n      dup1\n      dup3\n      add\n      dup3\n      sstore\n      swap2\n      mstore\n      dup3\n      mload\n      0x04\n      swap1\n      swap2\n      mul\n      0xb10e2d527612073b26eecdfd717e6a320cf44b4afac2b0732d9fcbe2b7fa0cf6\n      dup2\n      add\n      swap2\n      dup3\n      sstore\n      swap4\n      mload\n      0xb10e2d527612073b26eecdfd717e6a320cf44b4afac2b0732d9fcbe2b7fa0cf7\n      dup6\n      add\n      sstore\n      swap1\n      mload\n        /* \"payment module.sol\":919:971  Milestone(milestoneCounter, _escrowId, _desc, false) */\n      swap2\n      swap3\n        /* \"payment module.sol\":903:972  milestones.push(Milestone(milestoneCounter, _escrowId, _desc, false)) */\n      swap1\n      swap2\n      0xb10e2d527612073b26eecdfd717e6a320cf44b4afac2b0732d9fcbe2b7fa0cf8\n      swap1\n      swap2\n      add\n      swap1\n      tag_76\n      swap1\n      dup3\n      tag_77\n      jump\t// in\n    tag_76:\n      pop\n      0x60\n      swap2\n      swap1\n      swap2\n      add\n      mload\n      0x03\n      swap1\n      swap2\n      add\n      dup1\n      sload\n      not(0xff)\n      and\n      swap2\n      iszero\n      iszero\n      swap2\n      swap1\n      swap2\n      or\n      swap1\n      sstore\n      pop\n      pop\n        /* \"payment module.sol\":791:980  function createMilestone(uint256 _escrowId, string memory _desc) public {... */\n      jump\t// out\n        /* \"payment module.sol\":1012:1319  function releasePayment(uint256 _escrowId) public {... */\n    tag_30:\n        /* \"payment module.sol\":1078:1084  uint i */\n      0x00\n        /* \"payment module.sol\":1073:1312  for (uint i = 0; i < escrows.length; i++) {... */\n    tag_79:\n        /* \"payment module.sol\":1094:1101  escrows */\n      0x00\n        /* \"payment module.sol\":1094:1108  escrows.length */\n      sload\n        /* \"payment module.sol\":1090:1108  i < escrows.length */\n      dup2\n      lt\n        /* \"payment module.sol\":1073:1312  for (uint i = 0; i < escrows.length; i++) {... */\n      iszero\n      tag_54\n      jumpi\n        /* \"payment module.sol\":1157:1166  _escrowId */\n      dup2\n        /* \"payment module.sol\":1134:1141  escrows */\n      0x00\n        /* \"payment module.sol\":1142:1143  i */\n      dup3\n        /* \"payment module.sol\":1134:1144  escrows[i] */\n      dup2\n      sload\n      dup2\n      lt\n      tag_83\n      jumpi\n      tag_83\n      tag_58\n      jump\t// in\n    tag_83:\n      swap1\n      0x00\n      mstore\n      keccak256(0x00, 0x20)\n      swap1\n      0x05\n      mul\n      add\n        /* \"payment module.sol\":1134:1153  escrows[i].escrowId */\n      0x00\n      add\n      sload\n        /* \"payment module.sol\":1134:1166  escrows[i].escrowId == _escrowId */\n      sub\n        /* \"payment module.sol\":1130:1301  if (escrows[i].escrowId == _escrowId) {... */\n      tag_85\n      jumpi\n        /* \"payment module.sol\":1195:1202  escrows */\n      0x00\n        /* \"payment module.sol\":1203:1204  i */\n      dup2\n        /* \"payment module.sol\":1195:1205  escrows[i] */\n      dup2\n      sload\n      dup2\n      lt\n      tag_87\n      jumpi\n      tag_87\n      tag_58\n      jump\t// in\n    tag_87:\n      0x00\n      swap2\n      dup3\n      mstore\n      0x20\n      dup3\n      keccak256\n        /* \"payment module.sol\":1195:1211  escrows[i].payee */\n      0x02\n        /* \"payment module.sol\":1195:1205  escrows[i] */\n      0x05\n      swap1\n      swap3\n      mul\n      add\n        /* \"payment module.sol\":1195:1211  escrows[i].payee */\n      add\n      sload\n        /* \"payment module.sol\":1222:1232  escrows[i] */\n      dup2\n      sload\n      sub(shl(0xa0, 0x01), 0x01)\n        /* \"payment module.sol\":1195:1211  escrows[i].payee */\n      swap1\n      swap2\n      and\n      swap2\n        /* \"payment module.sol\":1187:1240  payable(escrows[i].payee).transfer(escrows[i].amount) */\n      0x08fc\n      swap2\n        /* \"payment module.sol\":1230:1231  i */\n      dup5\n      swap1\n        /* \"payment module.sol\":1222:1232  escrows[i] */\n      dup2\n      lt\n      tag_90\n      jumpi\n      tag_90\n      tag_58\n      jump\t// in\n    tag_90:\n      swap1\n      0x00\n      mstore\n      keccak256(0x00, 0x20)\n      swap1\n      0x05\n      mul\n      add\n        /* \"payment module.sol\":1222:1239  escrows[i].amount */\n      0x03\n      add\n      sload\n        /* \"payment module.sol\":1187:1240  payable(escrows[i].payee).transfer(escrows[i].amount) */\n      swap1\n      dup2\n      iszero\n      mul\n      swap1\n      mload(0x40)\n      0x00\n      mload(0x40)\n      dup1\n      dup4\n      sub\n      dup2\n      dup6\n      dup9\n      dup9\n      call\n      swap4\n      pop\n      pop\n      pop\n      pop\n      iszero\n      dup1\n      iszero\n      tag_93\n      jumpi\n      returndatacopy(0x00, 0x00, returndatasize)\n      revert(0x00, returndatasize)\n    tag_93:\n      pop\n        /* \"payment module.sol\":1281:1285  true */\n      0x01\n        /* \"payment module.sol\":1259:1266  escrows */\n      0x00\n        /* \"payment module.sol\":1267:1268  i */\n      dup3\n        /* \"payment module.sol\":1259:1269  escrows[i] */\n      dup2\n      sload\n      dup2\n      lt\n      tag_95\n      jumpi\n      tag_95\n      tag_58\n      jump\t// in\n    tag_95:\n      0x00\n      swap2\n      dup3\n      mstore\n      0x20\n      swap1\n      swap2\n      keccak256\n      0x05\n      swap1\n      swap2\n      mul\n      add\n        /* \"payment module.sol\":1259:1278  escrows[i].released */\n      0x04\n      add\n        /* \"payment module.sol\":1259:1285  escrows[i].released = true */\n      dup1\n      sload\n      not(0xff)\n      and\n      swap2\n      iszero\n      iszero\n      swap2\n      swap1\n      swap2\n      or\n      swap1\n      sstore\n        /* \"payment module.sol\":1130:1301  if (escrows[i].escrowId == _escrowId) {... */\n    tag_85:\n        /* \"payment module.sol\":1110:1113  i++ */\n      0x01\n      add\n        /* \"payment module.sol\":1073:1312  for (uint i = 0; i < escrows.length; i++) {... */\n      jump(tag_79)\n        /* \"payment module.sol\":445:474  Milestone[] public milestones */\n    tag_39:\n      0x01\n      dup2\n      dup2\n      sload\n      dup2\n      lt\n      tag_97\n      jumpi\n      0x00\n      dup1\n      revert\n    tag_97:\n      swap1\n      0x00\n      mstore\n      keccak256(0x00, 0x20)\n      swap1\n      0x04\n      mul\n      add\n      0x00\n      swap2\n      pop\n      swap1\n      pop\n      dup1\n      0x00\n      add\n      sload\n      swap1\n      dup1\n      0x01\n      add\n      sload\n      swap1\n      dup1\n      0x02\n      add\n      dup1\n      sload\n      tag_99\n      swap1\n      tag_100\n      jump\t// in\n    tag_99:\n      dup1\n      0x1f\n      add\n      0x20\n      dup1\n      swap2\n      div\n      mul\n      0x20\n      add\n      mload(0x40)\n      swap1\n      dup2\n      add\n      0x40\n      mstore\n      dup1\n      swap3\n      swap2\n      swap1\n      dup2\n      dup2\n      mstore\n      0x20\n      add\n      dup3\n      dup1\n      sload\n      tag_101\n      swap1\n      tag_100\n      jump\t// in\n    tag_101:\n      dup1\n      iszero\n      tag_102\n      jumpi\n      dup1\n      0x1f\n      lt\n      tag_103\n      jumpi\n      0x0100\n      dup1\n      dup4\n      sload\n      div\n      mul\n      dup4\n      mstore\n      swap2\n      0x20\n      add\n      swap2\n      jump(tag_102)\n    tag_103:\n      dup3\n      add\n      swap2\n      swap1\n      0x00\n      mstore\n      keccak256(0x00, 0x20)\n      swap1\n    tag_104:\n      dup2\n      sload\n      dup2\n      mstore\n      swap1\n      0x01\n      add\n      swap1\n      0x20\n      add\n      dup1\n      dup4\n      gt\n      tag_104\n      jumpi\n      dup3\n      swap1\n      sub\n      0x1f\n      and\n      dup3\n      add\n      swap2\n    tag_102:\n      pop\n      pop\n      pop\n      0x03\n      swap1\n      swap4\n      add\n      sload\n      swap2\n      swap3\n      pop\n      pop\n      0xff\n      and\n      dup5\n      jump\t// out\n        /* \"payment module.sol\":580:758  function createEscrow(address _payee) public payable {... */\n    tag_45:\n        /* \"payment module.sol\":644:657  escrowCounter */\n      0x02\n        /* \"payment module.sol\":644:659  escrowCounter++ */\n      dup1\n      sload\n      swap1\n        /* \"payment module.sol\":644:657  escrowCounter */\n      0x00\n        /* \"payment module.sol\":644:659  escrowCounter++ */\n      tag_106\n      dup4\n      tag_74\n      jump\t// in\n    tag_106:\n      swap1\n      swap2\n      sstore\n      pop\n      pop\n        /* \"payment module.sol\":683:749  Escrow(escrowCounter, msg.sender, _payee, msg.value, false, false) */\n      0x40\n      dup1\n      mload\n      0xc0\n      dup2\n      add\n      dup3\n      mstore\n        /* \"payment module.sol\":690:703  escrowCounter */\n      sload(0x02)\n        /* \"payment module.sol\":683:749  Escrow(escrowCounter, msg.sender, _payee, msg.value, false, false) */\n      dup2\n      mstore\n        /* \"payment module.sol\":705:715  msg.sender */\n      caller\n        /* \"payment module.sol\":683:749  Escrow(escrowCounter, msg.sender, _payee, msg.value, false, false) */\n      0x20\n      dup3\n      add\n      swap1\n      dup2\n      mstore\n      sub(shl(0xa0, 0x01), 0x01)\n      swap4\n      dup5\n      and\n      swap3\n      dup3\n      add\n      swap3\n      dup4\n      mstore\n        /* \"payment module.sol\":725:734  msg.value */\n      callvalue\n        /* \"payment module.sol\":683:749  Escrow(escrowCounter, msg.sender, _payee, msg.value, false, false) */\n      0x60\n      dup4\n      add\n      swap1\n      dup2\n      mstore\n        /* \"payment module.sol\":670:677  escrows */\n      0x00\n        /* \"payment module.sol\":683:749  Escrow(escrowCounter, msg.sender, _payee, msg.value, false, false) */\n      0x80\n      dup5\n      add\n      dup2\n      dup2\n      mstore\n      0xa0\n      dup6\n      add\n      dup3\n      dup2\n      mstore\n        /* \"payment module.sol\":670:750  escrows.push(Escrow(escrowCounter, msg.sender, _payee, msg.value, false, false)) */\n      dup3\n      sload\n        /* \"payment module.sol\":683:749  Escrow(escrowCounter, msg.sender, _payee, msg.value, false, false) */\n      0x01\n        /* \"payment module.sol\":670:750  escrows.push(Escrow(escrowCounter, msg.sender, _payee, msg.value, false, false)) */\n      dup2\n      add\n      dup5\n      sstore\n      swap3\n      dup1\n      mstore\n      swap5\n      mload\n      0x05\n      swap1\n      swap3\n      mul\n      0x290decd9548b62a8d60345a988386fc84ba6bc95484008f6362f93160ef3e563\n      dup2\n      add\n      swap3\n      swap1\n      swap3\n      sstore\n      swap3\n      mload\n      0x290decd9548b62a8d60345a988386fc84ba6bc95484008f6362f93160ef3e564\n      dup3\n      add\n      dup1\n      sload\n      swap2\n      dup9\n      and\n      not(sub(shl(0xa0, 0x01), 0x01))\n      swap3\n      dup4\n      and\n      or\n      swap1\n      sstore\n      swap5\n      mload\n      0x290decd9548b62a8d60345a988386fc84ba6bc95484008f6362f93160ef3e565\n      dup3\n      add\n      dup1\n      sload\n      swap2\n      swap1\n      swap8\n      and\n      swap6\n      and\n      swap5\n      swap1\n      swap5\n      or\n      swap1\n      swap5\n      sstore\n      swap3\n      mload\n      0x290decd9548b62a8d60345a988386fc84ba6bc95484008f6362f93160ef3e566\n      dup4\n      add\n      sstore\n      swap2\n      mload\n      0x290decd9548b62a8d60345a988386fc84ba6bc95484008f6362f93160ef3e567\n      swap1\n      swap2\n      add\n      dup1\n      sload\n      swap3\n      mload\n      iszero\n      iszero\n      0x0100\n      mul\n      not(0xff00)\n      swap3\n      iszero\n      iszero\n      swap3\n      swap1\n      swap3\n      and\n      not(0xffff)\n      swap1\n      swap4\n      and\n      swap3\n      swap1\n      swap3\n      or\n      or\n      swap1\n      sstore\n        /* \"payment module.sol\":580:758  function createEscrow(address _payee) public payable {... */\n      jump\t// out\n        /* \"#utility.yul\":14:240   */\n    tag_14:\n        /* \"#utility.yul\":73:79   */\n      0x00\n        /* \"#utility.yul\":126:128   */\n      0x20\n        /* \"#utility.yul\":114:123   */\n      dup3\n        /* \"#utility.yul\":105:112   */\n      dup5\n        /* \"#utility.yul\":101:124   */\n      sub\n        /* \"#utility.yul\":97:129   */\n      slt\n        /* \"#utility.yul\":94:146   */\n      iszero\n      tag_114\n      jumpi\n        /* \"#utility.yul\":142:143   */\n      0x00\n        /* \"#utility.yul\":139:140   */\n      0x00\n        /* \"#utility.yul\":132:144   */\n      revert\n        /* \"#utility.yul\":94:146   */\n    tag_114:\n      pop\n        /* \"#utility.yul\":187:210   */\n      calldataload\n      swap2\n        /* \"#utility.yul\":14:240   */\n      swap1\n      pop\n      jump\t// out\n        /* \"#utility.yul\":857:984   */\n    tag_108:\n        /* \"#utility.yul\":918:928   */\n      0x4e487b71\n        /* \"#utility.yul\":913:916   */\n      0xe0\n        /* \"#utility.yul\":909:929   */\n      shl\n        /* \"#utility.yul\":906:907   */\n      0x00\n        /* \"#utility.yul\":899:930   */\n      mstore\n        /* \"#utility.yul\":949:953   */\n      0x41\n        /* \"#utility.yul\":946:947   */\n      0x04\n        /* \"#utility.yul\":939:954   */\n      mstore\n        /* \"#utility.yul\":973:977   */\n      0x24\n        /* \"#utility.yul\":970:971   */\n      0x00\n        /* \"#utility.yul\":963:978   */\n      revert\n        /* \"#utility.yul\":989:2048   */\n    tag_25:\n        /* \"#utility.yul\":1067:1073   */\n      0x00\n        /* \"#utility.yul\":1075:1081   */\n      0x00\n        /* \"#utility.yul\":1128:1130   */\n      0x40\n        /* \"#utility.yul\":1116:1125   */\n      dup4\n        /* \"#utility.yul\":1107:1114   */\n      dup6\n        /* \"#utility.yul\":1103:1126   */\n      sub\n        /* \"#utility.yul\":1099:1131   */\n      slt\n        /* \"#utility.yul\":1096:1148   */\n      iszero\n      tag_118\n      jumpi\n        /* \"#utility.yul\":1144:1145   */\n      0x00\n        /* \"#utility.yul\":1141:1142   */\n      0x00\n        /* \"#utility.yul\":1134:1146   */\n      revert\n        /* \"#utility.yul\":1096:1148   */\n    tag_118:\n        /* \"#utility.yul\":1189:1212   */\n      dup3\n      calldataload\n      swap2\n      pop\n        /* \"#utility.yul\":1287:1289   */\n      0x20\n        /* \"#utility.yul\":1272:1290   */\n      dup4\n      add\n        /* \"#utility.yul\":1259:1291   */\n      calldataload\n        /* \"#utility.yul\":1314:1332   */\n      0xffffffffffffffff\n        /* \"#utility.yul\":1303:1333   */\n      dup2\n      gt\n        /* \"#utility.yul\":1300:1350   */\n      iszero\n      tag_119\n      jumpi\n        /* \"#utility.yul\":1346:1347   */\n      0x00\n        /* \"#utility.yul\":1343:1344   */\n      0x00\n        /* \"#utility.yul\":1336:1348   */\n      revert\n        /* \"#utility.yul\":1300:1350   */\n    tag_119:\n        /* \"#utility.yul\":1369:1391   */\n      dup4\n      add\n        /* \"#utility.yul\":1422:1426   */\n      0x1f\n        /* \"#utility.yul\":1414:1427   */\n      dup2\n      add\n        /* \"#utility.yul\":1410:1437   */\n      dup6\n      sgt\n        /* \"#utility.yul\":1400:1455   */\n      tag_120\n      jumpi\n        /* \"#utility.yul\":1451:1452   */\n      0x00\n        /* \"#utility.yul\":1448:1449   */\n      0x00\n        /* \"#utility.yul\":1441:1453   */\n      revert\n        /* \"#utility.yul\":1400:1455   */\n    tag_120:\n        /* \"#utility.yul\":1491:1493   */\n      dup1\n        /* \"#utility.yul\":1478:1494   */\n      calldataload\n        /* \"#utility.yul\":1517:1535   */\n      0xffffffffffffffff\n        /* \"#utility.yul\":1509:1515   */\n      dup2\n        /* \"#utility.yul\":1506:1536   */\n      gt\n        /* \"#utility.yul\":1503:1559   */\n      iszero\n      tag_122\n      jumpi\n        /* \"#utility.yul\":1539:1557   */\n      tag_122\n      tag_108\n      jump\t// in\n    tag_122:\n        /* \"#utility.yul\":1588:1590   */\n      0x40\n        /* \"#utility.yul\":1582:1591   */\n      mload\n        /* \"#utility.yul\":1680:1682   */\n      0x1f\n        /* \"#utility.yul\":1642:1659   */\n      dup3\n      add\n      not(0x1f)\n        /* \"#utility.yul\":1638:1669   */\n      swap1\n      dup2\n      and\n        /* \"#utility.yul\":1671:1673   */\n      0x3f\n        /* \"#utility.yul\":1634:1674   */\n      add\n        /* \"#utility.yul\":1630:1684   */\n      and\n        /* \"#utility.yul\":1618:1685   */\n      dup2\n      add\n        /* \"#utility.yul\":1715:1733   */\n      0xffffffffffffffff\n        /* \"#utility.yul\":1700:1734   */\n      dup2\n      gt\n        /* \"#utility.yul\":1736:1758   */\n      dup3\n      dup3\n      lt\n        /* \"#utility.yul\":1697:1759   */\n      or\n        /* \"#utility.yul\":1694:1782   */\n      iszero\n      tag_124\n      jumpi\n        /* \"#utility.yul\":1762:1780   */\n      tag_124\n      tag_108\n      jump\t// in\n    tag_124:\n        /* \"#utility.yul\":1798:1800   */\n      0x40\n        /* \"#utility.yul\":1791:1813   */\n      mstore\n        /* \"#utility.yul\":1822:1844   */\n      dup2\n      dup2\n      mstore\n        /* \"#utility.yul\":1863:1878   */\n      dup3\n      dup3\n      add\n        /* \"#utility.yul\":1880:1882   */\n      0x20\n        /* \"#utility.yul\":1859:1883   */\n      add\n        /* \"#utility.yul\":1856:1893   */\n      dup8\n      lt\n        /* \"#utility.yul\":1853:1910   */\n      iszero\n      tag_125\n      jumpi\n        /* \"#utility.yul\":1906:1907   */\n      0x00\n        /* \"#utility.yul\":1903:1904   */\n      0x00\n        /* \"#utility.yul\":1896:1908   */\n      revert\n        /* \"#utility.yul\":1853:1910   */\n    tag_125:\n        /* \"#utility.yul\":1962:1968   */\n      dup2\n        /* \"#utility.yul\":1957:1959   */\n      0x20\n        /* \"#utility.yul\":1953:1955   */\n      dup5\n        /* \"#utility.yul\":1949:1960   */\n      add\n        /* \"#utility.yul\":1944:1946   */\n      0x20\n        /* \"#utility.yul\":1936:1942   */\n      dup4\n        /* \"#utility.yul\":1932:1947   */\n      add\n        /* \"#utility.yul\":1919:1969   */\n      calldatacopy\n        /* \"#utility.yul\":2015:2016   */\n      0x00\n        /* \"#utility.yul\":2010:2012   */\n      0x20\n        /* \"#utility.yul\":2001:2007   */\n      dup4\n        /* \"#utility.yul\":1993:1999   */\n      dup4\n        /* \"#utility.yul\":1989:2008   */\n      add\n        /* \"#utility.yul\":1985:2013   */\n      add\n        /* \"#utility.yul\":1978:2017   */\n      mstore\n        /* \"#utility.yul\":2036:2042   */\n      dup1\n        /* \"#utility.yul\":2026:2042   */\n      swap4\n      pop\n      pop\n      pop\n      pop\n        /* \"#utility.yul\":989:2048   */\n      swap3\n      pop\n      swap3\n      swap1\n      pop\n      jump\t// out\n        /* \"#utility.yul\":2235:2881   */\n    tag_41:\n        /* \"#utility.yul\":2462:2468   */\n      dup5\n        /* \"#utility.yul\":2451:2460   */\n      dup2\n        /* \"#utility.yul\":2444:2469   */\n      mstore\n        /* \"#utility.yul\":2505:2511   */\n      dup4\n        /* \"#utility.yul\":2500:2502   */\n      0x20\n        /* \"#utility.yul\":2489:2498   */\n      dup3\n        /* \"#utility.yul\":2485:2503   */\n      add\n        /* \"#utility.yul\":2478:2512   */\n      mstore\n        /* \"#utility.yul\":2548:2551   */\n      0x80\n        /* \"#utility.yul\":2543:2545   */\n      0x40\n        /* \"#utility.yul\":2532:2541   */\n      dup3\n        /* \"#utility.yul\":2528:2546   */\n      add\n        /* \"#utility.yul\":2521:2552   */\n      mstore\n        /* \"#utility.yul\":2425:2429   */\n      0x00\n        /* \"#utility.yul\":2581:2587   */\n      dup4\n        /* \"#utility.yul\":2575:2588   */\n      mload\n        /* \"#utility.yul\":2625:2631   */\n      dup1\n        /* \"#utility.yul\":2619:2622   */\n      0x80\n        /* \"#utility.yul\":2608:2617   */\n      dup5\n        /* \"#utility.yul\":2604:2623   */\n      add\n        /* \"#utility.yul\":2597:2632   */\n      mstore\n        /* \"#utility.yul\":2685:2691   */\n      dup1\n        /* \"#utility.yul\":2680:2682   */\n      0x20\n        /* \"#utility.yul\":2672:2678   */\n      dup7\n        /* \"#utility.yul\":2668:2683   */\n      add\n        /* \"#utility.yul\":2662:2665   */\n      0xa0\n        /* \"#utility.yul\":2651:2660   */\n      dup6\n        /* \"#utility.yul\":2647:2666   */\n      add\n        /* \"#utility.yul\":2641:2692   */\n      mcopy\n        /* \"#utility.yul\":2742:2743   */\n      0x00\n        /* \"#utility.yul\":2736:2739   */\n      0xa0\n        /* \"#utility.yul\":2727:2733   */\n      dup3\n        /* \"#utility.yul\":2716:2725   */\n      dup6\n        /* \"#utility.yul\":2712:2734   */\n      add\n        /* \"#utility.yul\":2708:2740   */\n      add\n        /* \"#utility.yul\":2701:2744   */\n      mstore\n        /* \"#utility.yul\":2812:2815   */\n      0xa0\n        /* \"#utility.yul\":2805:2807   */\n      0x1f\n        /* \"#utility.yul\":2801:2808   */\n      not\n        /* \"#utility.yul\":2796:2798   */\n      0x1f\n        /* \"#utility.yul\":2788:2794   */\n      dup4\n        /* \"#utility.yul\":2784:2799   */\n      add\n        /* \"#utility.yul\":2780:2809   */\n      and\n        /* \"#utility.yul\":2769:2778   */\n      dup5\n        /* \"#utility.yul\":2765:2810   */\n      add\n        /* \"#utility.yul\":2761:2816   */\n      add\n        /* \"#utility.yul\":2753:2816   */\n      swap2\n      pop\n      pop\n        /* \"#utility.yul\":2866:2872   */\n      dup3\n        /* \"#utility.yul\":2859:2873   */\n      iszero\n        /* \"#utility.yul\":2852:2874   */\n      iszero\n        /* \"#utility.yul\":2847:2849   */\n      0x60\n        /* \"#utility.yul\":2836:2845   */\n      dup4\n        /* \"#utility.yul\":2832:2850   */\n      add\n        /* \"#utility.yul\":2825:2875   */\n      mstore\n        /* \"#utility.yul\":2235:2881   */\n      swap6\n      swap5\n      pop\n      pop\n      pop\n      pop\n      pop\n      jump\t// out\n        /* \"#utility.yul\":2886:3172   */\n    tag_44:\n        /* \"#utility.yul\":2945:2951   */\n      0x00\n        /* \"#utility.yul\":2998:3000   */\n      0x20\n        /* \"#utility.yul\":2986:2995   */\n      dup3\n        /* \"#utility.yul\":2977:2984   */\n      dup5\n        /* \"#utility.yul\":2973:2996   */\n      sub\n        /* \"#utility.yul\":2969:3001   */\n      slt\n        /* \"#utility.yul\":2966:3018   */\n      iszero\n      tag_129\n      jumpi\n        /* \"#utility.yul\":3014:3015   */\n      0x00\n        /* \"#utility.yul\":3011:3012   */\n      0x00\n        /* \"#utility.yul\":3004:3016   */\n      revert\n        /* \"#utility.yul\":2966:3018   */\n    tag_129:\n        /* \"#utility.yul\":3040:3063   */\n      dup2\n      calldataload\n      sub(shl(0xa0, 0x01), 0x01)\n        /* \"#utility.yul\":3092:3123   */\n      dup2\n      and\n        /* \"#utility.yul\":3082:3124   */\n      dup2\n      eq\n        /* \"#utility.yul\":3072:3142   */\n      tag_130\n      jumpi\n        /* \"#utility.yul\":3138:3139   */\n      0x00\n        /* \"#utility.yul\":3135:3136   */\n      0x00\n        /* \"#utility.yul\":3128:3140   */\n      revert\n        /* \"#utility.yul\":3072:3142   */\n    tag_130:\n        /* \"#utility.yul\":3161:3166   */\n      swap4\n        /* \"#utility.yul\":2886:3172   */\n      swap3\n      pop\n      pop\n      pop\n      jump\t// out\n        /* \"#utility.yul\":3177:3304   */\n    tag_58:\n        /* \"#utility.yul\":3238:3248   */\n      0x4e487b71\n        /* \"#utility.yul\":3233:3236   */\n      0xe0\n        /* \"#utility.yul\":3229:3249   */\n      shl\n        /* \"#utility.yul\":3226:3227   */\n      0x00\n        /* \"#utility.yul\":3219:3250   */\n      mstore\n        /* \"#utility.yul\":3269:3273   */\n      0x32\n        /* \"#utility.yul\":3266:3267   */\n      0x04\n        /* \"#utility.yul\":3259:3274   */\n      mstore\n        /* \"#utility.yul\":3293:3297   */\n      0x24\n        /* \"#utility.yul\":3290:3291   */\n      0x00\n        /* \"#utility.yul\":3283:3298   */\n      revert\n        /* \"#utility.yul\":3309:3541   */\n    tag_74:\n        /* \"#utility.yul\":3348:3351   */\n      0x00\n        /* \"#utility.yul\":3369:3386   */\n      0x01\n      dup3\n      add\n        /* \"#utility.yul\":3366:3506   */\n      tag_133\n      jumpi\n        /* \"#utility.yul\":3428:3438   */\n      0x4e487b71\n        /* \"#utility.yul\":3423:3426   */\n      0xe0\n        /* \"#utility.yul\":3419:3439   */\n      shl\n        /* \"#utility.yul\":3416:3417   */\n      0x00\n        /* \"#utility.yul\":3409:3440   */\n      mstore\n        /* \"#utility.yul\":3463:3467   */\n      0x11\n        /* \"#utility.yul\":3460:3461   */\n      0x04\n        /* \"#utility.yul\":3453:3468   */\n      mstore\n        /* \"#utility.yul\":3491:3495   */\n      0x24\n        /* \"#utility.yul\":3488:3489   */\n      0x00\n        /* \"#utility.yul\":3481:3496   */\n      revert\n        /* \"#utility.yul\":3366:3506   */\n    tag_133:\n      pop\n        /* \"#utility.yul\":3533:3534   */\n      0x01\n        /* \"#utility.yul\":3522:3535   */\n      add\n      swap1\n        /* \"#utility.yul\":3309:3541   */\n      jump\t// out\n        /* \"#utility.yul\":3546:3926   */\n    tag_100:\n        /* \"#utility.yul\":3625:3626   */\n      0x01\n        /* \"#utility.yul\":3621:3633   */\n      dup2\n      dup2\n      shr\n      swap1\n        /* \"#utility.yul\":3668:3680   */\n      dup3\n      and\n      dup1\n        /* \"#utility.yul\":3689:3750   */\n      tag_135\n      jumpi\n        /* \"#utility.yul\":3743:3747   */\n      0x7f\n        /* \"#utility.yul\":3735:3741   */\n      dup3\n        /* \"#utility.yul\":3731:3748   */\n      and\n        /* \"#utility.yul\":3721:3748   */\n      swap2\n      pop\n        /* \"#utility.yul\":3689:3750   */\n    tag_135:\n        /* \"#utility.yul\":3796:3798   */\n      0x20\n        /* \"#utility.yul\":3788:3794   */\n      dup3\n        /* \"#utility.yul\":3785:3799   */\n      lt\n        /* \"#utility.yul\":3765:3783   */\n      dup2\n        /* \"#utility.yul\":3762:3800   */\n      sub\n        /* \"#utility.yul\":3759:3920   */\n      tag_136\n      jumpi\n        /* \"#utility.yul\":3842:3852   */\n      0x4e487b71\n        /* \"#utility.yul\":3837:3840   */\n      0xe0\n        /* \"#utility.yul\":3833:3853   */\n      shl\n        /* \"#utility.yul\":3830:3831   */\n      0x00\n        /* \"#utility.yul\":3823:3854   */\n      mstore\n        /* \"#utility.yul\":3877:3881   */\n      0x22\n        /* \"#utility.yul\":3874:3875   */\n      0x04\n        /* \"#utility.yul\":3867:3882   */\n      mstore\n        /* \"#utility.yul\":3905:3909   */\n      0x24\n        /* \"#utility.yul\":3902:3903   */\n      0x00\n        /* \"#utility.yul\":3895:3910   */\n      revert\n        /* \"#utility.yul\":3759:3920   */\n    tag_136:\n      pop\n        /* \"#utility.yul\":3546:3926   */\n      swap2\n      swap1\n      pop\n      jump\t// out\n        /* \"#utility.yul\":4057:4575   */\n    tag_110:\n        /* \"#utility.yul\":4159:4161   */\n      0x1f\n        /* \"#utility.yul\":4154:4157   */\n      dup3\n        /* \"#utility.yul\":4151:4162   */\n      gt\n        /* \"#utility.yul\":4148:4569   */\n      iszero\n      tag_139\n      jumpi\n        /* \"#utility.yul\":4195:4200   */\n      dup1\n        /* \"#utility.yul\":4192:4193   */\n      0x00\n        /* \"#utility.yul\":4185:4201   */\n      mstore\n        /* \"#utility.yul\":4239:4243   */\n      0x20\n        /* \"#utility.yul\":4236:4237   */\n      0x00\n        /* \"#utility.yul\":4226:4244   */\n      keccak256\n        /* \"#utility.yul\":4309:4311   */\n      0x1f\n        /* \"#utility.yul\":4297:4307   */\n      dup5\n        /* \"#utility.yul\":4293:4312   */\n      add\n        /* \"#utility.yul\":4290:4291   */\n      0x05\n        /* \"#utility.yul\":4286:4313   */\n      shr\n        /* \"#utility.yul\":4280:4284   */\n      dup2\n        /* \"#utility.yul\":4276:4314   */\n      add\n        /* \"#utility.yul\":4345:4349   */\n      0x20\n        /* \"#utility.yul\":4333:4343   */\n      dup6\n        /* \"#utility.yul\":4330:4350   */\n      lt\n        /* \"#utility.yul\":4327:4374   */\n      iszero\n      tag_140\n      jumpi\n      pop\n        /* \"#utility.yul\":4368:4372   */\n      dup1\n        /* \"#utility.yul\":4327:4374   */\n    tag_140:\n        /* \"#utility.yul\":4423:4425   */\n      0x1f\n        /* \"#utility.yul\":4418:4421   */\n      dup5\n        /* \"#utility.yul\":4414:4426   */\n      add\n        /* \"#utility.yul\":4411:4412   */\n      0x05\n        /* \"#utility.yul\":4407:4427   */\n      shr\n        /* \"#utility.yul\":4401:4405   */\n      dup3\n        /* \"#utility.yul\":4397:4428   */\n      add\n        /* \"#utility.yul\":4387:4428   */\n      swap2\n      pop\n        /* \"#utility.yul\":4478:4559   */\n    tag_141:\n        /* \"#utility.yul\":4496:4498   */\n      dup2\n        /* \"#utility.yul\":4489:4494   */\n      dup2\n        /* \"#utility.yul\":4486:4499   */\n      lt\n        /* \"#utility.yul\":4478:4559   */\n      iszero\n      tag_143\n      jumpi\n        /* \"#utility.yul\":4555:4556   */\n      0x00\n        /* \"#utility.yul\":4541:4557   */\n      dup2\n      sstore\n        /* \"#utility.yul\":4522:4523   */\n      0x01\n        /* \"#utility.yul\":4511:4524   */\n      add\n        /* \"#utility.yul\":4478:4559   */\n      jump(tag_141)\n    tag_143:\n        /* \"#utility.yul\":4482:4485   */\n      pop\n      pop\n        /* \"#utility.yul\":4148:4569   */\n    tag_139:\n        /* \"#utility.yul\":4057:4575   */\n      pop\n      pop\n      pop\n      jump\t// out\n        /* \"#utility.yul\":4751:6050   */\n    tag_77:\n        /* \"#utility.yul\":4877:4880   */\n      dup2\n        /* \"#utility.yul\":4871:4881   */\n      mload\n        /* \"#utility.yul\":4904:4922   */\n      0xffffffffffffffff\n        /* \"#utility.yul\":4896:4902   */\n      dup2\n        /* \"#utility.yul\":4893:4923   */\n      gt\n        /* \"#utility.yul\":4890:4946   */\n      iszero\n      tag_147\n      jumpi\n        /* \"#utility.yul\":4926:4944   */\n      tag_147\n      tag_108\n      jump\t// in\n    tag_147:\n        /* \"#utility.yul\":4955:5052   */\n      tag_148\n        /* \"#utility.yul\":5045:5051   */\n      dup2\n        /* \"#utility.yul\":5005:5043   */\n      tag_149\n        /* \"#utility.yul\":5037:5041   */\n      dup5\n        /* \"#utility.yul\":5031:5042   */\n      sload\n        /* \"#utility.yul\":5005:5043   */\n      tag_100\n      jump\t// in\n    tag_149:\n        /* \"#utility.yul\":4999:5003   */\n      dup5\n        /* \"#utility.yul\":4955:5052   */\n      tag_110\n      jump\t// in\n    tag_148:\n        /* \"#utility.yul\":5101:5105   */\n      0x20\n        /* \"#utility.yul\":5132:5134   */\n      0x1f\n        /* \"#utility.yul\":5121:5135   */\n      dup3\n      gt\n        /* \"#utility.yul\":5149:5150   */\n      0x01\n        /* \"#utility.yul\":5144:5793   */\n      dup2\n      eq\n      tag_151\n      jumpi\n        /* \"#utility.yul\":5837:5838   */\n      0x00\n        /* \"#utility.yul\":5854:5860   */\n      dup4\n        /* \"#utility.yul\":5851:5940   */\n      iszero\n      tag_152\n      jumpi\n      pop\n        /* \"#utility.yul\":5906:5925   */\n      dup5\n      dup3\n      add\n        /* \"#utility.yul\":5900:5926   */\n      mload\n        /* \"#utility.yul\":5851:5940   */\n    tag_152:\n      not(0x00)\n        /* \"#utility.yul\":4708:4709   */\n      0x03\n        /* \"#utility.yul\":4704:4715   */\n      dup6\n      swap1\n      shl\n        /* \"#utility.yul\":4700:4724   */\n      shr\n        /* \"#utility.yul\":4696:4725   */\n      not\n        /* \"#utility.yul\":4686:4726   */\n      and\n        /* \"#utility.yul\":4732:4733   */\n      0x01\n        /* \"#utility.yul\":4728:4739   */\n      dup5\n      swap1\n      shl\n        /* \"#utility.yul\":4683:4740   */\n      or\n        /* \"#utility.yul\":5953:6034   */\n      dup5\n      sstore\n        /* \"#utility.yul\":5114:6044   */\n      jump(tag_143)\n        /* \"#utility.yul\":5144:5793   */\n    tag_151:\n        /* \"#utility.yul\":4004:4005   */\n      0x00\n        /* \"#utility.yul\":3997:4011   */\n      dup5\n      dup2\n      mstore\n        /* \"#utility.yul\":4041:4045   */\n      0x20\n        /* \"#utility.yul\":4028:4046   */\n      dup2\n      keccak256\n      not(0x1f)\n        /* \"#utility.yul\":5180:5200   */\n      dup6\n      and\n      swap2\n        /* \"#utility.yul\":5298:5520   */\n    tag_155:\n        /* \"#utility.yul\":5312:5319   */\n      dup3\n        /* \"#utility.yul\":5309:5310   */\n      dup2\n        /* \"#utility.yul\":5306:5320   */\n      lt\n        /* \"#utility.yul\":5298:5520   */\n      iszero\n      tag_157\n      jumpi\n        /* \"#utility.yul\":5394:5413   */\n      dup8\n      dup6\n      add\n        /* \"#utility.yul\":5388:5414   */\n      mload\n        /* \"#utility.yul\":5373:5415   */\n      dup3\n      sstore\n        /* \"#utility.yul\":5501:5505   */\n      0x20\n        /* \"#utility.yul\":5486:5506   */\n      swap5\n      dup6\n      add\n      swap5\n        /* \"#utility.yul\":5454:5455   */\n      0x01\n        /* \"#utility.yul\":5442:5456   */\n      swap1\n      swap3\n      add\n      swap2\n        /* \"#utility.yul\":5328:5340   */\n      add\n        /* \"#utility.yul\":5298:5520   */\n      jump(tag_155)\n    tag_157:\n        /* \"#utility.yul\":5302:5305   */\n      pop\n        /* \"#utility.yul\":5548:5554   */\n      dup5\n        /* \"#utility.yul\":5539:5546   */\n      dup3\n        /* \"#utility.yul\":5536:5555   */\n      lt\n        /* \"#utility.yul\":5533:5734   */\n      iszero\n      tag_158\n      jumpi\n        /* \"#utility.yul\":5609:5628   */\n      dup7\n      dup5\n      add\n        /* \"#utility.yul\":5603:5629   */\n      mload\n      not(0x00)\n        /* \"#utility.yul\":5692:5693   */\n      0x03\n        /* \"#utility.yul\":5688:5702   */\n      dup8\n      swap1\n      shl\n        /* \"#utility.yul\":5704:5707   */\n      0xf8\n        /* \"#utility.yul\":5684:5708   */\n      and\n        /* \"#utility.yul\":5680:5717   */\n      shr\n        /* \"#utility.yul\":5676:5718   */\n      not\n        /* \"#utility.yul\":5661:5719   */\n      and\n        /* \"#utility.yul\":5646:5720   */\n      dup2\n      sstore\n        /* \"#utility.yul\":5533:5734   */\n    tag_158:\n      pop\n      pop\n      pop\n      pop\n        /* \"#utility.yul\":5780:5781   */\n      0x01\n        /* \"#utility.yul\":5764:5778   */\n      swap1\n      dup2\n      shl\n        /* \"#utility.yul\":5760:5782   */\n      add\n        /* \"#utility.yul\":5747:5783   */\n      swap1\n      sstore\n      pop\n        /* \"#utility.yul\":4751:6050   */\n      jump\t// out\n\n    auxdata: 0xa264697066735822122085535c65cbf81d1bfc47c51fc1f81d7afb65176f920ccb8a68781e93ef13edcd64736f6c634300081e0033\n}\n",
				"bytecode": {
					"linkReferences": {},
					"object": "6080604052348015600e575f5ffd5b50610a1a8061001c5f395ff3fe608060405260043610610079575f3560e01c8063c7ceafea1161004c578063c7ceafea1461013d578063e89e4ed614610160578063f6a8419e1461018f578063f6baaec7146101a2575f5ffd5b8063012f52ee1461007d578063356f9dfd146100de57806344d0be64146100ff57806388685cd91461011e575b5f5ffd5b348015610088575f5ffd5b5061009c61009736600461070c565b6101b7565b604080519687526001600160a01b0395861660208801529390941692850192909252606084015215156080830152151560a082015260c0015b60405180910390f35b3480156100e9575f5ffd5b506100fd6100f836600461070c565b61020c565b005b34801561010a575f5ffd5b506100fd610119366004610737565b610304565b348015610129575f5ffd5b506100fd61013836600461070c565b6103ef565b348015610148575f5ffd5b5061015260025481565b6040519081526020016100d5565b34801561016b575f5ffd5b5061017f61017a36600461070c565b6104de565b6040516100d594939291906107f4565b6100fd61019d366004610840565b6105a2565b3480156101ad575f5ffd5b5061015260035481565b5f81815481106101c5575f80fd5b5f918252602090912060059091020180546001820154600283015460038401546004909401549294506001600160a01b039182169391169160ff8082169161010090041686565b5f5b5f5481101561030057815f828154811061022a5761022a61086d565b905f5260205f2090600502015f0154036102f8575f81815481106102505761025061086d565b5f918252602082206001600590920201015481546001600160a01b03909116916108fc91849081106102845761028461086d565b905f5260205f2090600502016003015490811502906040515f60405180830381858888f193505050501580156102bc573d5f5f3e3d5ffd5b5060015f82815481106102d1576102d161086d565b905f5260205f20906005020160040160016101000a81548160ff0219169083151502179055505b60010161020e565b5050565b60038054905f61031383610881565b9091555050604080516080810182526003548152602081018481529181018381525f606083018190526001805480820182559152825160049091027fb10e2d527612073b26eecdfd717e6a320cf44b4afac2b0732d9fcbe2b7fa0cf6810191825593517fb10e2d527612073b26eecdfd717e6a320cf44b4afac2b0732d9fcbe2b7fa0cf78501559051919290917fb10e2d527612073b26eecdfd717e6a320cf44b4afac2b0732d9fcbe2b7fa0cf8909101906103cf9082610929565b50606091909101516003909101805460ff19169115159190911790555050565b5f5b5f5481101561030057815f828154811061040d5761040d61086d565b905f5260205f2090600502015f0154036104d6575f81815481106104335761043361086d565b5f918252602082206002600590920201015481546001600160a01b03909116916108fc91849081106104675761046761086d565b905f5260205f2090600502016003015490811502906040515f60405180830381858888f1935050505015801561049f573d5f5f3e3d5ffd5b5060015f82815481106104b4576104b461086d565b5f9182526020909120600590910201600401805460ff19169115159190911790555b6001016103f1565b600181815481106104ed575f80fd5b905f5260205f2090600402015f91509050805f015490806001015490806002018054610518906108a5565b80601f0160208091040260200160405190810160405280929190818152602001828054610544906108a5565b801561058f5780601f106105665761010080835404028352916020019161058f565b820191905f5260205f20905b81548152906001019060200180831161057257829003601f168201915b5050506003909301549192505060ff1684565b60028054905f6105b183610881565b90915550506040805160c081018252600254815233602082019081526001600160a01b0393841692820192835234606083019081525f6080840181815260a085018281528254600181018455928052945160059092027f290decd9548b62a8d60345a988386fc84ba6bc95484008f6362f93160ef3e56381019290925592517f290decd9548b62a8d60345a988386fc84ba6bc95484008f6362f93160ef3e564820180549188166001600160a01b031992831617905594517f290decd9548b62a8d60345a988386fc84ba6bc95484008f6362f93160ef3e565820180549190971695169490941790945592517f290decd9548b62a8d60345a988386fc84ba6bc95484008f6362f93160ef3e56683015591517f290decd9548b62a8d60345a988386fc84ba6bc95484008f6362f93160ef3e5679091018054925115156101000261ff00199215159290921661ffff1990931692909217179055565b5f6020828403121561071c575f5ffd5b5035919050565b634e487b7160e01b5f52604160045260245ffd5b5f5f60408385031215610748575f5ffd5b82359150602083013567ffffffffffffffff811115610765575f5ffd5b8301601f81018513610775575f5ffd5b803567ffffffffffffffff81111561078f5761078f610723565b604051601f8201601f19908116603f0116810167ffffffffffffffff811182821017156107be576107be610723565b6040528181528282016020018710156107d5575f5ffd5b816020840160208301375f602083830101528093505050509250929050565b848152836020820152608060408201525f8351806080840152806020860160a085015e5f60a0828501015260a0601f19601f830116840101915050821515606083015295945050505050565b5f60208284031215610850575f5ffd5b81356001600160a01b0381168114610866575f5ffd5b9392505050565b634e487b7160e01b5f52603260045260245ffd5b5f6001820161089e57634e487b7160e01b5f52601160045260245ffd5b5060010190565b600181811c908216806108b957607f821691505b6020821081036108d757634e487b7160e01b5f52602260045260245ffd5b50919050565b601f82111561092457805f5260205f20601f840160051c810160208510156109025750805b601f840160051c820191505b81811015610921575f815560010161090e565b50505b505050565b815167ffffffffffffffff81111561094357610943610723565b6109578161095184546108a5565b846108dd565b6020601f821160018114610989575f83156109725750848201515b5f19600385901b1c1916600184901b178455610921565b5f84815260208120601f198516915b828110156109b85787850151825560209485019460019092019101610998565b50848210156109d557868401515f19600387901b60f8161c191681555b50505050600190811b0190555056fea264697066735822122085535c65cbf81d1bfc47c51fc1f81d7afb65176f920ccb8a68781e93ef13edcd64736f6c634300081e0033",
					"opcodes": "PUSH1 0x80 PUSH1 0x40 MSTORE CALLVALUE DUP1 ISZERO PUSH1 0xE JUMPI PUSH0 PUSH0 REVERT JUMPDEST POP PUSH2 0xA1A DUP1 PUSH2 0x1C PUSH0 CODECOPY PUSH0 RETURN INVALID PUSH1 0x80 PUSH1 0x40 MSTORE PUSH1 0x4 CALLDATASIZE LT PUSH2 0x79 JUMPI PUSH0 CALLDATALOAD PUSH1 0xE0 SHR DUP1 PUSH4 0xC7CEAFEA GT PUSH2 0x4C JUMPI DUP1 PUSH4 0xC7CEAFEA EQ PUSH2 0x13D JUMPI DUP1 PUSH4 0xE89E4ED6 EQ PUSH2 0x160 JUMPI DUP1 PUSH4 0xF6A8419E EQ PUSH2 0x18F JUMPI DUP1 PUSH4 0xF6BAAEC7 EQ PUSH2 0x1A2 JUMPI PUSH0 PUSH0 REVERT JUMPDEST DUP1 PUSH4 0x12F52EE EQ PUSH2 0x7D JUMPI DUP1 PUSH4 0x356F9DFD EQ PUSH2 0xDE JUMPI DUP1 PUSH4 0x44D0BE64 EQ PUSH2 0xFF JUMPI DUP1 PUSH4 0x88685CD9 EQ PUSH2 0x11E JUMPI JUMPDEST PUSH0 PUSH0 REVERT JUMPDEST CALLVALUE DUP1 ISZERO PUSH2 0x88 JUMPI PUSH0 PUSH0 REVERT JUMPDEST POP PUSH2 0x9C PUSH2 0x97 CALLDATASIZE PUSH1 0x4 PUSH2 0x70C JUMP JUMPDEST PUSH2 0x1B7 JUMP JUMPDEST PUSH1 0x40 DUP1 MLOAD SWAP7 DUP8 MSTORE PUSH1 0x1 PUSH1 0x1 PUSH1 0xA0 SHL SUB SWAP6 DUP7 AND PUSH1 0x20 DUP9 ADD MSTORE SWAP4 SWAP1 SWAP5 AND SWAP3 DUP6 ADD SWAP3 SWAP1 SWAP3 MSTORE PUSH1 0x60 DUP5 ADD MSTORE ISZERO ISZERO PUSH1 0x80 DUP4 ADD MSTORE ISZERO ISZERO PUSH1 0xA0 DUP3 ADD MSTORE PUSH1 0xC0 ADD JUMPDEST PUSH1 0x40 MLOAD DUP1 SWAP2 SUB SWAP1 RETURN JUMPDEST CALLVALUE DUP1 ISZERO PUSH2 0xE9 JUMPI PUSH0 PUSH0 REVERT JUMPDEST POP PUSH2 0xFD PUSH2 0xF8 CALLDATASIZE PUSH1 0x4 PUSH2 0x70C JUMP JUMPDEST PUSH2 0x20C JUMP JUMPDEST STOP JUMPDEST CALLVALUE DUP1 ISZERO PUSH2 0x10A JUMPI PUSH0 PUSH0 REVERT JUMPDEST POP PUSH2 0xFD PUSH2 0x119 CALLDATASIZE PUSH1 0x4 PUSH2 0x737 JUMP JUMPDEST PUSH2 0x304 JUMP JUMPDEST CALLVALUE DUP1 ISZERO PUSH2 0x129 JUMPI PUSH0 PUSH0 REVERT JUMPDEST POP PUSH2 0xFD PUSH2 0x138 CALLDATASIZE PUSH1 0x4 PUSH2 0x70C JUMP JUMPDEST PUSH2 0x3EF JUMP JUMPDEST CALLVALUE DUP1 ISZERO PUSH2 0x148 JUMPI PUSH0 PUSH0 REVERT JUMPDEST POP PUSH2 0x152 PUSH1 0x2 SLOAD DUP2 JUMP JUMPDEST PUSH1 0x40 MLOAD SWAP1 DUP2 MSTORE PUSH1 0x20 ADD PUSH2 0xD5 JUMP JUMPDEST CALLVALUE DUP1 ISZERO PUSH2 0x16B JUMPI PUSH0 PUSH0 REVERT JUMPDEST POP PUSH2 0x17F PUSH2 0x17A CALLDATASIZE PUSH1 0x4 PUSH2 0x70C JUMP JUMPDEST PUSH2 0x4DE JUMP JUMPDEST PUSH1 0x40 MLOAD PUSH2 0xD5 SWAP5 SWAP4 SWAP3 SWAP2 SWAP1 PUSH2 0x7F4 JUMP JUMPDEST PUSH2 0xFD PUSH2 0x19D CALLDATASIZE PUSH1 0x4 PUSH2 0x840 JUMP JUMPDEST PUSH2 0x5A2 JUMP JUMPDEST CALLVALUE DUP1 ISZERO PUSH2 0x1AD JUMPI PUSH0 PUSH0 REVERT JUMPDEST POP PUSH2 0x152 PUSH1 0x3 SLOAD DUP2 JUMP JUMPDEST PUSH0 DUP2 DUP2 SLOAD DUP2 LT PUSH2 0x1C5 JUMPI PUSH0 DUP1 REVERT JUMPDEST PUSH0 SWAP2 DUP3 MSTORE PUSH1 0x20 SWAP1 SWAP2 KECCAK256 PUSH1 0x5 SWAP1 SWAP2 MUL ADD DUP1 SLOAD PUSH1 0x1 DUP3 ADD SLOAD PUSH1 0x2 DUP4 ADD SLOAD PUSH1 0x3 DUP5 ADD SLOAD PUSH1 0x4 SWAP1 SWAP5 ADD SLOAD SWAP3 SWAP5 POP PUSH1 0x1 PUSH1 0x1 PUSH1 0xA0 SHL SUB SWAP2 DUP3 AND SWAP4 SWAP2 AND SWAP2 PUSH1 0xFF DUP1 DUP3 AND SWAP2 PUSH2 0x100 SWAP1 DIV AND DUP7 JUMP JUMPDEST PUSH0 JUMPDEST PUSH0 SLOAD DUP2 LT ISZERO PUSH2 0x300 JUMPI DUP2 PUSH0 DUP3 DUP2 SLOAD DUP2 LT PUSH2 0x22A JUMPI PUSH2 0x22A PUSH2 0x86D JUMP JUMPDEST SWAP1 PUSH0 MSTORE PUSH1 0x20 PUSH0 KECCAK256 SWAP1 PUSH1 0x5 MUL ADD PUSH0 ADD SLOAD SUB PUSH2 0x2F8 JUMPI PUSH0 DUP2 DUP2 SLOAD DUP2 LT PUSH2 0x250 JUMPI PUSH2 0x250 PUSH2 0x86D JUMP JUMPDEST PUSH0 SWAP2 DUP3 MSTORE PUSH1 0x20 DUP3 KECCAK256 PUSH1 0x1 PUSH1 0x5 SWAP1 SWAP3 MUL ADD ADD SLOAD DUP2 SLOAD PUSH1 0x1 PUSH1 0x1 PUSH1 0xA0 SHL SUB SWAP1 SWAP2 AND SWAP2 PUSH2 0x8FC SWAP2 DUP5 SWAP1 DUP2 LT PUSH2 0x284 JUMPI PUSH2 0x284 PUSH2 0x86D JUMP JUMPDEST SWAP1 PUSH0 MSTORE PUSH1 0x20 PUSH0 KECCAK256 SWAP1 PUSH1 0x5 MUL ADD PUSH1 0x3 ADD SLOAD SWAP1 DUP2 ISZERO MUL SWAP1 PUSH1 0x40 MLOAD PUSH0 PUSH1 0x40 MLOAD DUP1 DUP4 SUB DUP2 DUP6 DUP9 DUP9 CALL SWAP4 POP POP POP POP ISZERO DUP1 ISZERO PUSH2 0x2BC JUMPI RETURNDATASIZE PUSH0 PUSH0 RETURNDATACOPY RETURNDATASIZE PUSH0 REVERT JUMPDEST POP PUSH1 0x1 PUSH0 DUP3 DUP2 SLOAD DUP2 LT PUSH2 0x2D1 JUMPI PUSH2 0x2D1 PUSH2 0x86D JUMP JUMPDEST SWAP1 PUSH0 MSTORE PUSH1 0x20 PUSH0 KECCAK256 SWAP1 PUSH1 0x5 MUL ADD PUSH1 0x4 ADD PUSH1 0x1 PUSH2 0x100 EXP DUP2 SLOAD DUP2 PUSH1 0xFF MUL NOT AND SWAP1 DUP4 ISZERO ISZERO MUL OR SWAP1 SSTORE POP JUMPDEST PUSH1 0x1 ADD PUSH2 0x20E JUMP JUMPDEST POP POP JUMP JUMPDEST PUSH1 0x3 DUP1 SLOAD SWAP1 PUSH0 PUSH2 0x313 DUP4 PUSH2 0x881 JUMP JUMPDEST SWAP1 SWAP2 SSTORE POP POP PUSH1 0x40 DUP1 MLOAD PUSH1 0x80 DUP2 ADD DUP3 MSTORE PUSH1 0x3 SLOAD DUP2 MSTORE PUSH1 0x20 DUP2 ADD DUP5 DUP2 MSTORE SWAP2 DUP2 ADD DUP4 DUP2 MSTORE PUSH0 PUSH1 0x60 DUP4 ADD DUP2 SWAP1 MSTORE PUSH1 0x1 DUP1 SLOAD DUP1 DUP3 ADD DUP3 SSTORE SWAP2 MSTORE DUP3 MLOAD PUSH1 0x4 SWAP1 SWAP2 MUL PUSH32 0xB10E2D527612073B26EECDFD717E6A320CF44B4AFAC2B0732D9FCBE2B7FA0CF6 DUP2 ADD SWAP2 DUP3 SSTORE SWAP4 MLOAD PUSH32 0xB10E2D527612073B26EECDFD717E6A320CF44B4AFAC2B0732D9FCBE2B7FA0CF7 DUP6 ADD SSTORE SWAP1 MLOAD SWAP2 SWAP3 SWAP1 SWAP2 PUSH32 0xB10E2D527612073B26EECDFD717E6A320CF44B4AFAC2B0732D9FCBE2B7FA0CF8 SWAP1 SWAP2 ADD SWAP1 PUSH2 0x3CF SWAP1 DUP3 PUSH2 0x929 JUMP JUMPDEST POP PUSH1 0x60 SWAP2 SWAP1 SWAP2 ADD MLOAD PUSH1 0x3 SWAP1 SWAP2 ADD DUP1 SLOAD PUSH1 0xFF NOT AND SWAP2 ISZERO ISZERO SWAP2 SWAP1 SWAP2 OR SWAP1 SSTORE POP POP JUMP JUMPDEST PUSH0 JUMPDEST PUSH0 SLOAD DUP2 LT ISZERO PUSH2 0x300 JUMPI DUP2 PUSH0 DUP3 DUP2 SLOAD DUP2 LT PUSH2 0x40D JUMPI PUSH2 0x40D PUSH2 0x86D JUMP JUMPDEST SWAP1 PUSH0 MSTORE PUSH1 0x20 PUSH0 KECCAK256 SWAP1 PUSH1 0x5 MUL ADD PUSH0 ADD SLOAD SUB PUSH2 0x4D6 JUMPI PUSH0 DUP2 DUP2 SLOAD DUP2 LT PUSH2 0x433 JUMPI PUSH2 0x433 PUSH2 0x86D JUMP JUMPDEST PUSH0 SWAP2 DUP3 MSTORE PUSH1 0x20 DUP3 KECCAK256 PUSH1 0x2 PUSH1 0x5 SWAP1 SWAP3 MUL ADD ADD SLOAD DUP2 SLOAD PUSH1 0x1 PUSH1 0x1 PUSH1 0xA0 SHL SUB SWAP1 SWAP2 AND SWAP2 PUSH2 0x8FC SWAP2 DUP5 SWAP1 DUP2 LT PUSH2 0x467 JUMPI PUSH2 0x467 PUSH2 0x86D JUMP JUMPDEST SWAP1 PUSH0 MSTORE PUSH1 0x20 PUSH0 KECCAK256 SWAP1 PUSH1 0x5 MUL ADD PUSH1 0x3 ADD SLOAD SWAP1 DUP2 ISZERO MUL SWAP1 PUSH1 0x40 MLOAD PUSH0 PUSH1 0x40 MLOAD DUP1 DUP4 SUB DUP2 DUP6 DUP9 DUP9 CALL SWAP4 POP POP POP POP ISZERO DUP1 ISZERO PUSH2 0x49F JUMPI RETURNDATASIZE PUSH0 PUSH0 RETURNDATACOPY RETURNDATASIZE PUSH0 REVERT JUMPDEST POP PUSH1 0x1 PUSH0 DUP3 DUP2 SLOAD DUP2 LT PUSH2 0x4B4 JUMPI PUSH2 0x4B4 PUSH2 0x86D JUMP JUMPDEST PUSH0 SWAP2 DUP3 MSTORE PUSH1 0x20 SWAP1 SWAP2 KECCAK256 PUSH1 0x5 SWAP1 SWAP2 MUL ADD PUSH1 0x4 ADD DUP1 SLOAD PUSH1 0xFF NOT AND SWAP2 ISZERO ISZERO SWAP2 SWAP1 SWAP2 OR SWAP1 SSTORE JUMPDEST PUSH1 0x1 ADD PUSH2 0x3F1 JUMP JUMPDEST PUSH1 0x1 DUP2 DUP2 SLOAD DUP2 LT PUSH2 0x4ED JUMPI PUSH0 DUP1 REVERT JUMPDEST SWAP1 PUSH0 MSTORE PUSH1 0x20 PUSH0 KECCAK256 SWAP1 PUSH1 0x4 MUL ADD PUSH0 SWAP2 POP SWAP1 POP DUP1 PUSH0 ADD SLOAD SWAP1 DUP1 PUSH1 0x1 ADD SLOAD SWAP1 DUP1 PUSH1 0x2 ADD DUP1 SLOAD PUSH2 0x518 SWAP1 PUSH2 0x8A5 JUMP JUMPDEST DUP1 PUSH1 0x1F ADD PUSH1 0x20 DUP1 SWAP2 DIV MUL PUSH1 0x20 ADD PUSH1 0x40 MLOAD SWAP1 DUP2 ADD PUSH1 0x40 MSTORE DUP1 SWAP3 SWAP2 SWAP1 DUP2 DUP2 MSTORE PUSH1 0x20 ADD DUP3 DUP1 SLOAD PUSH2 0x544 SWAP1 PUSH2 0x8A5 JUMP JUMPDEST DUP1 ISZERO PUSH2 0x58F JUMPI DUP1 PUSH1 0x1F LT PUSH2 0x566 JUMPI PUSH2 0x100 DUP1 DUP4 SLOAD DIV MUL DUP4 MSTORE SWAP2 PUSH1 0x20 ADD SWAP2 PUSH2 0x58F JUMP JUMPDEST DUP3 ADD SWAP2 SWAP1 PUSH0 MSTORE PUSH1 0x20 PUSH0 KECCAK256 SWAP1 JUMPDEST DUP2 SLOAD DUP2 MSTORE SWAP1 PUSH1 0x1 ADD SWAP1 PUSH1 0x20 ADD DUP1 DUP4 GT PUSH2 0x572 JUMPI DUP3 SWAP1 SUB PUSH1 0x1F AND DUP3 ADD SWAP2 JUMPDEST POP POP POP PUSH1 0x3 SWAP1 SWAP4 ADD SLOAD SWAP2 SWAP3 POP POP PUSH1 0xFF AND DUP5 JUMP JUMPDEST PUSH1 0x2 DUP1 SLOAD SWAP1 PUSH0 PUSH2 0x5B1 DUP4 PUSH2 0x881 JUMP JUMPDEST SWAP1 SWAP2 SSTORE POP POP PUSH1 0x40 DUP1 MLOAD PUSH1 0xC0 DUP2 ADD DUP3 MSTORE PUSH1 0x2 SLOAD DUP2 MSTORE CALLER PUSH1 0x20 DUP3 ADD SWAP1 DUP2 MSTORE PUSH1 0x1 PUSH1 0x1 PUSH1 0xA0 SHL SUB SWAP4 DUP5 AND SWAP3 DUP3 ADD SWAP3 DUP4 MSTORE CALLVALUE PUSH1 0x60 DUP4 ADD SWAP1 DUP2 MSTORE PUSH0 PUSH1 0x80 DUP5 ADD DUP2 DUP2 MSTORE PUSH1 0xA0 DUP6 ADD DUP3 DUP2 MSTORE DUP3 SLOAD PUSH1 0x1 DUP2 ADD DUP5 SSTORE SWAP3 DUP1 MSTORE SWAP5 MLOAD PUSH1 0x5 SWAP1 SWAP3 MUL PUSH32 0x290DECD9548B62A8D60345A988386FC84BA6BC95484008F6362F93160EF3E563 DUP2 ADD SWAP3 SWAP1 SWAP3 SSTORE SWAP3 MLOAD PUSH32 0x290DECD9548B62A8D60345A988386FC84BA6BC95484008F6362F93160EF3E564 DUP3 ADD DUP1 SLOAD SWAP2 DUP9 AND PUSH1 0x1 PUSH1 0x1 PUSH1 0xA0 SHL SUB NOT SWAP3 DUP4 AND OR SWAP1 SSTORE SWAP5 MLOAD PUSH32 0x290DECD9548B62A8D60345A988386FC84BA6BC95484008F6362F93160EF3E565 DUP3 ADD DUP1 SLOAD SWAP2 SWAP1 SWAP8 AND SWAP6 AND SWAP5 SWAP1 SWAP5 OR SWAP1 SWAP5 SSTORE SWAP3 MLOAD PUSH32 0x290DECD9548B62A8D60345A988386FC84BA6BC95484008F6362F93160EF3E566 DUP4 ADD SSTORE SWAP2 MLOAD PUSH32 0x290DECD9548B62A8D60345A988386FC84BA6BC95484008F6362F93160EF3E567 SWAP1 SWAP2 ADD DUP1 SLOAD SWAP3 MLOAD ISZERO ISZERO PUSH2 0x100 MUL PUSH2 0xFF00 NOT SWAP3 ISZERO ISZERO SWAP3 SWAP1 SWAP3 AND PUSH2 0xFFFF NOT SWAP1 SWAP4 AND SWAP3 SWAP1 SWAP3 OR OR SWAP1 SSTORE JUMP JUMPDEST PUSH0 PUSH1 0x20 DUP3 DUP5 SUB SLT ISZERO PUSH2 0x71C JUMPI PUSH0 PUSH0 REVERT JUMPDEST POP CALLDATALOAD SWAP2 SWAP1 POP JUMP JUMPDEST PUSH4 0x4E487B71 PUSH1 0xE0 SHL PUSH0 MSTORE PUSH1 0x41 PUSH1 0x4 MSTORE PUSH1 0x24 PUSH0 REVERT JUMPDEST PUSH0 PUSH0 PUSH1 0x40 DUP4 DUP6 SUB SLT ISZERO PUSH2 0x748 JUMPI PUSH0 PUSH0 REVERT JUMPDEST DUP3 CALLDATALOAD SWAP2 POP PUSH1 0x20 DUP4 ADD CALLDATALOAD PUSH8 0xFFFFFFFFFFFFFFFF DUP2 GT ISZERO PUSH2 0x765 JUMPI PUSH0 PUSH0 REVERT JUMPDEST DUP4 ADD PUSH1 0x1F DUP2 ADD DUP6 SGT PUSH2 0x775 JUMPI PUSH0 PUSH0 REVERT JUMPDEST DUP1 CALLDATALOAD PUSH8 0xFFFFFFFFFFFFFFFF DUP2 GT ISZERO PUSH2 0x78F JUMPI PUSH2 0x78F PUSH2 0x723 JUMP JUMPDEST PUSH1 0x40 MLOAD PUSH1 0x1F DUP3 ADD PUSH1 0x1F NOT SWAP1 DUP2 AND PUSH1 0x3F ADD AND DUP2 ADD PUSH8 0xFFFFFFFFFFFFFFFF DUP2 GT DUP3 DUP3 LT OR ISZERO PUSH2 0x7BE JUMPI PUSH2 0x7BE PUSH2 0x723 JUMP JUMPDEST PUSH1 0x40 MSTORE DUP2 DUP2 MSTORE DUP3 DUP3 ADD PUSH1 0x20 ADD DUP8 LT ISZERO PUSH2 0x7D5 JUMPI PUSH0 PUSH0 REVERT JUMPDEST DUP2 PUSH1 0x20 DUP5 ADD PUSH1 0x20 DUP4 ADD CALLDATACOPY PUSH0 PUSH1 0x20 DUP4 DUP4 ADD ADD MSTORE DUP1 SWAP4 POP POP POP POP SWAP3 POP SWAP3 SWAP1 POP JUMP JUMPDEST DUP5 DUP2 MSTORE DUP4 PUSH1 0x20 DUP3 ADD MSTORE PUSH1 0x80 PUSH1 0x40 DUP3 ADD MSTORE PUSH0 DUP4 MLOAD DUP1 PUSH1 0x80 DUP5 ADD MSTORE DUP1 PUSH1 0x20 DUP7 ADD PUSH1 0xA0 DUP6 ADD MCOPY PUSH0 PUSH1 0xA0 DUP3 DUP6 ADD ADD MSTORE PUSH1 0xA0 PUSH1 0x1F NOT PUSH1 0x1F DUP4 ADD AND DUP5 ADD ADD SWAP2 POP POP DUP3 ISZERO ISZERO PUSH1 0x60 DUP4 ADD MSTORE SWAP6 SWAP5 POP POP POP POP POP JUMP JUMPDEST PUSH0 PUSH1 0x20 DUP3 DUP5 SUB SLT ISZERO PUSH2 0x850 JUMPI PUSH0 PUSH0 REVERT JUMPDEST DUP2 CALLDATALOAD PUSH1 0x1 PUSH1 0x1 PUSH1 0xA0 SHL SUB DUP2 AND DUP2 EQ PUSH2 0x866 JUMPI PUSH0 PUSH0 REVERT JUMPDEST SWAP4 SWAP3 POP POP POP JUMP JUMPDEST PUSH4 0x4E487B71 PUSH1 0xE0 SHL PUSH0 MSTORE PUSH1 0x32 PUSH1 0x4 MSTORE PUSH1 0x24 PUSH0 REVERT JUMPDEST PUSH0 PUSH1 0x1 DUP3 ADD PUSH2 0x89E JUMPI PUSH4 0x4E487B71 PUSH1 0xE0 SHL PUSH0 MSTORE PUSH1 0x11 PUSH1 0x4 MSTORE PUSH1 0x24 PUSH0 REVERT JUMPDEST POP PUSH1 0x1 ADD SWAP1 JUMP JUMPDEST PUSH1 0x1 DUP2 DUP2 SHR SWAP1 DUP3 AND DUP1 PUSH2 0x8B9 JUMPI PUSH1 0x7F DUP3 AND SWAP2 POP JUMPDEST PUSH1 0x20 DUP3 LT DUP2 SUB PUSH2 0x8D7 JUMPI PUSH4 0x4E487B71 PUSH1 0xE0 SHL PUSH0 MSTORE PUSH1 0x22 PUSH1 0x4 MSTORE PUSH1 0x24 PUSH0 REVERT JUMPDEST POP SWAP2 SWAP1 POP JUMP JUMPDEST PUSH1 0x1F DUP3 GT ISZERO PUSH2 0x924 JUMPI DUP1 PUSH0 MSTORE PUSH1 0x20 PUSH0 KECCAK256 PUSH1 0x1F DUP5 ADD PUSH1 0x5 SHR DUP2 ADD PUSH1 0x20 DUP6 LT ISZERO PUSH2 0x902 JUMPI POP DUP1 JUMPDEST PUSH1 0x1F DUP5 ADD PUSH1 0x5 SHR DUP3 ADD SWAP2 POP JUMPDEST DUP2 DUP2 LT ISZERO PUSH2 0x921 JUMPI PUSH0 DUP2 SSTORE PUSH1 0x1 ADD PUSH2 0x90E JUMP JUMPDEST POP POP JUMPDEST POP POP POP JUMP JUMPDEST DUP2 MLOAD PUSH8 0xFFFFFFFFFFFFFFFF DUP2 GT ISZERO PUSH2 0x943 JUMPI PUSH2 0x943 PUSH2 0x723 JUMP JUMPDEST PUSH2 0x957 DUP2 PUSH2 0x951 DUP5 SLOAD PUSH2 0x8A5 JUMP JUMPDEST DUP5 PUSH2 0x8DD JUMP JUMPDEST PUSH1 0x20 PUSH1 0x1F DUP3 GT PUSH1 0x1 DUP2 EQ PUSH2 0x989 JUMPI PUSH0 DUP4 ISZERO PUSH2 0x972 JUMPI POP DUP5 DUP3 ADD MLOAD JUMPDEST PUSH0 NOT PUSH1 0x3 DUP6 SWAP1 SHL SHR NOT AND PUSH1 0x1 DUP5 SWAP1 SHL OR DUP5 SSTORE PUSH2 0x921 JUMP JUMPDEST PUSH0 DUP5 DUP2 MSTORE PUSH1 0x20 DUP2 KECCAK256 PUSH1 0x1F NOT DUP6 AND SWAP2 JUMPDEST DUP3 DUP2 LT ISZERO PUSH2 0x9B8 JUMPI DUP8 DUP6 ADD MLOAD DUP3 SSTORE PUSH1 0x20 SWAP5 DUP6 ADD SWAP5 PUSH1 0x1 SWAP1 SWAP3 ADD SWAP2 ADD PUSH2 0x998 JUMP JUMPDEST POP DUP5 DUP3 LT ISZERO PUSH2 0x9D5 JUMPI DUP7 DUP5 ADD MLOAD PUSH0 NOT PUSH1 0x3 DUP8 SWAP1 SHL PUSH1 0xF8 AND SHR NOT AND DUP2 SSTORE JUMPDEST POP POP POP POP PUSH1 0x1 SWAP1 DUP2 SHL ADD SWAP1 SSTORE POP JUMP INVALID LOG2 PUSH5 0x6970667358 0x22 SLT KECCAK256 DUP6 MSTORE8 TLOAD PUSH6 0xCBF81D1BFC47 0xC5 0x1F 0xC1 EXTCALL SAR PUSH27 0xFB65176F920CCB8A68781E93EF13EDCD64736F6C634300081E0033 "
				},
				"gasEstimates": {
					"creation": {
						"codeDepositCost": "517200",
						"executionCost": "547",
						"totalCost": "517747"
					},
					"external": {
						"createEscrow(address)": "168135",
						"createMilestone(uint256,string)": "infinite",
						"escrowCounter()": "2294",
						"escrows(uint256)": "13220",
						"milestoneCounter()": "2360",
						"milestones(uint256)": "infinite",
						"refundEscrow(uint256)": "infinite",
						"releasePayment(uint256)": "infinite"
					}
				},
				"methodIdentifiers": {
					"createEscrow(address)": "f6a8419e",
					"createMilestone(uint256,string)": "44d0be64",
					"escrowCounter()": "c7ceafea",
					"escrows(uint256)": "012f52ee",
					"milestoneCounter()": "f6baaec7",
					"milestones(uint256)": "e89e4ed6",
					"refundEscrow(uint256)": "356f9dfd",
					"releasePayment(uint256)": "88685cd9"
				}
			},
			"storageLayout": {
				"storage": [
					{
						"astId": 27,
						"contract": "payment module.sol:PaymentModule",
						"label": "escrows",
						"offset": 0,
						"slot": "0",
						"type": "t_array(t_struct(Escrow)14_storage)dyn_storage"
					},
					{
						"astId": 31,
						"contract": "payment module.sol:PaymentModule",
						"label": "milestones",
						"offset": 0,
						"slot": "1",
						"type": "t_array(t_struct(Milestone)23_storage)dyn_storage"
					},
					{
						"astId": 33,
						"contract": "payment module.sol:PaymentModule",
						"label": "escrowCounter",
						"offset": 0,
						"slot": "2",
						"type": "t_uint256"
					},
					{
						"astId": 35,
						"contract": "payment module.sol:PaymentModule",
						"label": "milestoneCounter",
						"offset": 0,
						"slot": "3",
						"type": "t_uint256"
					}
				],
				"types": {
					"t_address": {
						"encoding": "inplace",
						"label": "address",
						"numberOfBytes": "20"
					},
					"t_array(t_struct(Escrow)14_storage)dyn_storage": {
						"base": "t_struct(Escrow)14_storage",
						"encoding": "dynamic_array",
						"label": "struct PaymentModule.Escrow[]",
						"numberOfBytes": "32"
					},
					"t_array(t_struct(Milestone)23_storage)dyn_storage": {
						"base": "t_struct(Milestone)23_storage",
						"encoding": "dynamic_array",
						"label": "struct PaymentModule.Milestone[]",
						"numberOfBytes": "32"
					},
					"t_bool": {
						"encoding": "inplace",
						"label": "bool",
						"numberOfBytes": "1"
					},
					"t_string_storage": {
						"encoding": "bytes",
						"label": "string",
						"numberOfBytes": "32"
					},
					"t_struct(Escrow)14_storage": {
						"encoding": "inplace",
						"label": "struct PaymentModule.Escrow",
						"members": [
							{
								"astId": 3,
								"contract": "payment module.sol:PaymentModule",
								"label": "escrowId",
								"offset": 0,
								"slot": "0",
								"type": "t_uint256"
							},
							{
								"astId": 5,
								"contract": "payment module.sol:PaymentModule",
								"label": "payer",
								"offset": 0,
								"slot": "1",
								"type": "t_address"
							},
							{
								"astId": 7,
								"contract": "payment module.sol:PaymentModule",
								"label": "payee",
								"offset": 0,
								"slot": "2",
								"type": "t_address"
							},
							{
								"astId": 9,
								"contract": "payment module.sol:PaymentModule",
								"label": "amount",
								"offset": 0,
								"slot": "3",
								"type": "t_uint256"
							},
							{
								"astId": 11,
								"contract": "payment module.sol:PaymentModule",
								"label": "released",
								"offset": 0,
								"slot": "4",
								"type": "t_bool"
							},
							{
								"astId": 13,
								"contract": "payment module.sol:PaymentModule",
								"label": "refunded",
								"offset": 1,
								"slot": "4",
								"type": "t_bool"
							}
						],
						"numberOfBytes": "160"
					},
					"t_struct(Milestone)23_storage": {
						"encoding": "inplace",
						"label": "struct PaymentModule.Milestone",
						"members": [
							{
								"astId": 16,
								"contract": "payment module.sol:PaymentModule",
								"label": "milestoneId",
								"offset": 0,
								"slot": "0",
								"type": "t_uint256"
							},
							{
								"astId": 18,
								"contract": "payment module.sol:PaymentModule",
								"label": "escrowId",
								"offset": 0,
								"slot": "1",
								"type": "t_uint256"
							},
							{
								"astId": 20,
								"contract": "payment module.sol:PaymentModule",
								"label": "description",
								"offset": 0,
								"slot": "2",
								"type": "t_string_storage"
							},
							{
								"astId": 22,
								"contract": "payment module.sol:PaymentModule",
								"label": "completed",
								"offset": 0,
								"slot": "3",
								"type": "t_bool"
							}
						],
						"numberOfBytes": "128"
					},
					"t_uint256": {
						"encoding": "inplace",
						"label": "uint256",
						"numberOfBytes": "32"
					}
				}
			},
			"userdoc": {
				"kind": "user",
				"methods": {},
				"version": 1
			}
		}
	}
}