{
	"Payment module optimzed.sol": {
		"PaymentModule": {
			"abi": [
				{
					"anonymous": false,
					"inputs": [
						{
							"indexed": true,
							"internalType": "uint256",
							"name": "escrowId",
							"type": "uint256"
						},
						{
							"indexed": true,
							"internalType": "address",
							"name": "payer",
							"type": "address"
						},
						{
							"indexed": true,
							"internalType": "address",
							"name": "payee",
							"type": "address"
						},
						{
							"indexed": false,
							"internalType": "uint256",
							"name": "amount",
							"type": "uint256"
						}
					],
					"name": "EscrowCreated",
					"type": "event"
				},
				{
					"anonymous": false,
					"inputs": [
						{
							"indexed": true,
							"internalType": "uint256",
							"name": "escrowId",
							"type": "uint256"
						},
						{
							"indexed": true,
							"internalType": "address",
							"name": "payer",
							"type": "address"
						},
						{
							"indexed": false,
							"internalType": "uint256",
							"name": "amount",
							"type": "uint256"
						}
					],
					"name": "EscrowRefunded",
					"type": "event"
				},
				{
					"anonymous": false,
					"inputs": [
						{
							"indexed": true,
							"internalType": "uint256",
							"name": "milestoneId",
							"type": "uint256"
						},
						{
							"indexed": true,
							"internalType": "uint256",
							"name": "escrowId",
							"type": "uint256"
						}
					],
					"name": "MilestoneCreated",
					"type": "event"
				},
				{
					"anonymous": false,
					"inputs": [
						{
							"indexed": true,
							"internalType": "uint256",
							"name": "escrowId",
							"type": "uint256"
						},
						{
							"indexed": true,
							"internalType": "address",
							"name": "payee",
							"type": "address"
						},
						{
							"indexed": false,
							"internalType": "uint256",
							"name": "amount",
							"type": "uint256"
						}
					],
					"name": "PaymentReleased",
					"type": "event"
				},
				{
					"inputs": [
						{
							"internalType": "address",
							"name": "_payee",
							"type": "address"
						}
					],
					"name": "createEscrow",
					"outputs": [],
					"stateMutability": "payable",
					"type": "function"
				},
				{
					"inputs": [
						{
							"internalType": "uint256",
							"name": "_escrowId",
							"type": "uint256"
						},
						{
							"internalType": "string",
							"name": "_desc",
							"type": "string"
						}
					],
					"name": "createMilestone",
					"outputs": [],
					"stateMutability": "nonpayable",
					"type": "function"
				},
				{
					"inputs": [],
					"name": "escrowCounter",
					"outputs": [
						{
							"internalType": "uint256",
							"name": "",
							"type": "uint256"
						}
					],
					"stateMutability": "view",
					"type": "function"
				},
				{
					"inputs": [],
					"name": "milestoneCounter",
					"outputs": [
						{
							"internalType": "uint256",
							"name": "",
							"type": "uint256"
						}
					],
					"stateMutability": "view",
					"type": "function"
				},
				{
					"inputs": [
						{
							"internalType": "address",
							"name": "",
							"type": "address"
						}
					],
					"name": "pendingWithdrawals",
					"outputs": [
						{
							"internalType": "uint256",
							"name": "",
							"type": "uint256"
						}
					],
					"stateMutability": "view",
					"type": "function"
				},
				{
					"inputs": [
						{
							"internalType": "uint256",
							"name": "_escrowId",
							"type": "uint256"
						}
					],
					"name": "refundEscrow",
					"outputs": [],
					"stateMutability": "nonpayable",
					"type": "function"
				},
				{
					"inputs": [
						{
							"internalType": "uint256",
							"name": "_escrowId",
							"type": "uint256"
						}
					],
					"name": "releasePayment",
					"outputs": [],
					"stateMutability": "nonpayable",
					"type": "function"
				},
				{
					"inputs": [],
					"name": "withdraw",
					"outputs": [],
					"stateMutability": "nonpayable",
					"type": "function"
				}
			],
			"devdoc": {
				"kind": "dev",
				"methods": {},
				"version": 1
			},
			"evm": {
				"assembly": "    /* \"Payment module optimzed.sol\":61:3940  contract PaymentModule {... */\n  mstore(0x40, 0x80)\n  callvalue\n  dup1\n  iszero\n  tag_1\n  jumpi\n  revert(0x00, 0x00)\ntag_1:\n  pop\n  dataSize(sub_0)\n  dup1\n  dataOffset(sub_0)\n  0x00\n  codecopy\n  0x00\n  return\nstop\n\nsub_0: assembly {\n        /* \"Payment module optimzed.sol\":61:3940  contract PaymentModule {... */\n      mstore(0x40, 0x80)\n      jumpi(tag_1, lt(calldatasize, 0x04))\n      shr(0xe0, calldataload(0x00))\n      dup1\n      0xc7ceafea\n      gt\n      tag_10\n      jumpi\n      dup1\n      0xc7ceafea\n      eq\n      tag_6\n      jumpi\n      dup1\n      0xf3f43703\n      eq\n      tag_7\n      jumpi\n      dup1\n      0xf6a8419e\n      eq\n      tag_8\n      jumpi\n      dup1\n      0xf6baaec7\n      eq\n      tag_9\n      jumpi\n      revert(0x00, 0x00)\n    tag_10:\n      dup1\n      0x356f9dfd\n      eq\n      tag_2\n      jumpi\n      dup1\n      0x3ccfd60b\n      eq\n      tag_3\n      jumpi\n      dup1\n      0x44d0be64\n      eq\n      tag_4\n      jumpi\n      dup1\n      0x88685cd9\n      eq\n      tag_5\n      jumpi\n    tag_1:\n      revert(0x00, 0x00)\n        /* \"Payment module optimzed.sol\":3127:3520  function refundEscrow(uint256 _escrowId) external {... */\n    tag_2:\n      callvalue\n      dup1\n      iszero\n      tag_11\n      jumpi\n      revert(0x00, 0x00)\n    tag_11:\n      pop\n      tag_12\n      tag_13\n      calldatasize\n      0x04\n      tag_14\n      jump\t// in\n    tag_13:\n      tag_15\n      jump\t// in\n    tag_12:\n      stop\n        /* \"Payment module optimzed.sol\":3700:3937  function withdraw() external {... */\n    tag_3:\n      callvalue\n      dup1\n      iszero\n      tag_16\n      jumpi\n      revert(0x00, 0x00)\n    tag_16:\n      pop\n      tag_12\n      tag_18\n      jump\t// in\n        /* \"Payment module optimzed.sol\":1962:2364  function createMilestone(uint256 _escrowId, string calldata _desc) external {... */\n    tag_4:\n      callvalue\n      dup1\n      iszero\n      tag_19\n      jumpi\n      revert(0x00, 0x00)\n    tag_19:\n      pop\n      tag_12\n      tag_21\n      calldatasize\n      0x04\n      tag_22\n      jump\t// in\n    tag_21:\n      tag_23\n      jump\t// in\n        /* \"Payment module optimzed.sol\":2535:2958  function releasePayment(uint256 _escrowId) external {... */\n    tag_5:\n      callvalue\n      dup1\n      iszero\n      tag_24\n      jumpi\n      revert(0x00, 0x00)\n    tag_24:\n      pop\n      tag_12\n      tag_26\n      calldatasize\n      0x04\n      tag_14\n      jump\t// in\n    tag_26:\n      tag_27\n      jump\t// in\n        /* \"Payment module optimzed.sol\":696:724  uint256 public escrowCounter */\n    tag_6:\n      callvalue\n      dup1\n      iszero\n      tag_28\n      jumpi\n      revert(0x00, 0x00)\n    tag_28:\n      pop\n      tag_29\n      sload(0x03)\n      dup2\n      jump\n    tag_29:\n      mload(0x40)\n        /* \"#utility.yul\":1097:1122   */\n      swap1\n      dup2\n      mstore\n        /* \"#utility.yul\":1085:1087   */\n      0x20\n        /* \"#utility.yul\":1070:1088   */\n      add\n        /* \"Payment module optimzed.sol\":696:724  uint256 public escrowCounter */\n      mload(0x40)\n      dup1\n      swap2\n      sub\n      swap1\n      return\n        /* \"Payment module optimzed.sol\":634:687  mapping(address => uint256) public pendingWithdrawals */\n    tag_7:\n      callvalue\n      dup1\n      iszero\n      tag_33\n      jumpi\n      revert(0x00, 0x00)\n    tag_33:\n      pop\n      tag_29\n      tag_35\n      calldatasize\n      0x04\n      tag_36\n      jump\t// in\n    tag_35:\n      mstore(0x20, 0x02)\n      0x00\n      swap1\n      dup2\n      mstore\n      0x40\n      swap1\n      keccak256\n      sload\n      dup2\n      jump\n        /* \"Payment module optimzed.sol\":1358:1790  function createEscrow(address _payee) external payable {... */\n    tag_8:\n      tag_12\n      tag_40\n      calldatasize\n      0x04\n      tag_36\n      jump\t// in\n    tag_40:\n      tag_41\n      jump\t// in\n        /* \"Payment module optimzed.sol\":731:762  uint256 public milestoneCounter */\n    tag_9:\n      callvalue\n      dup1\n      iszero\n      tag_42\n      jumpi\n      revert(0x00, 0x00)\n    tag_42:\n      pop\n      tag_29\n      sload(0x04)\n      dup2\n      jump\n        /* \"Payment module optimzed.sol\":3127:3520  function refundEscrow(uint256 _escrowId) external {... */\n    tag_15:\n        /* \"Payment module optimzed.sol\":3190:3206  Escrow storage e */\n      0x00\n        /* \"Payment module optimzed.sol\":3209:3227  escrows[_escrowId] */\n      dup2\n      dup2\n      mstore\n      0x20\n      dup2\n      swap1\n      mstore\n      0x40\n      dup2\n      keccak256\n        /* \"Payment module optimzed.sol\":3248:3258  e.escrowId */\n      0x02\n      dup2\n      add\n      sload\n        /* \"Payment module optimzed.sol\":3209:3227  escrows[_escrowId] */\n      swap1\n      swap2\n      shl(0x80, 0x01)\n        /* \"Payment module optimzed.sol\":3248:3258  e.escrowId */\n      swap1\n      swap2\n      div\n      0xffffffffffffffff\n      and\n        /* \"Payment module optimzed.sol\":3248:3263  e.escrowId != 0 */\n      swap1\n      sub\n        /* \"Payment module optimzed.sol\":3240:3284  require(e.escrowId != 0, \"Escrow not found\") */\n      tag_47\n      jumpi\n      mload(0x40)\n      shl(0xe5, 0x461bcd)\n      dup2\n      mstore\n        /* \"#utility.yul\":1626:1628   */\n      0x20\n        /* \"Payment module optimzed.sol\":3240:3284  require(e.escrowId != 0, \"Escrow not found\") */\n      0x04\n      dup3\n      add\n        /* \"#utility.yul\":1608:1629   */\n      mstore\n        /* \"#utility.yul\":1665:1667   */\n      0x10\n        /* \"#utility.yul\":1645:1663   */\n      0x24\n      dup3\n      add\n        /* \"#utility.yul\":1638:1668   */\n      mstore\n      shl(0x82, 0x115cd8dc9bddc81b9bdd08199bdd5b99)\n        /* \"#utility.yul\":1684:1702   */\n      0x44\n      dup3\n      add\n        /* \"#utility.yul\":1677:1723   */\n      mstore\n        /* \"#utility.yul\":1740:1758   */\n      0x64\n      add\n        /* \"Payment module optimzed.sol\":3240:3284  require(e.escrowId != 0, \"Escrow not found\") */\n    tag_48:\n      mload(0x40)\n      dup1\n      swap2\n      sub\n      swap1\n      revert\n    tag_47:\n        /* \"Payment module optimzed.sol\":3304:3314  e.refunded */\n      0x02\n      dup2\n      add\n      sload\n      shl(0xc8, 0x01)\n      swap1\n      div\n      0xff\n      and\n        /* \"Payment module optimzed.sol\":3303:3314  !e.refunded */\n      iszero\n        /* \"Payment module optimzed.sol\":3295:3335  require(!e.refunded, \"Already refunded\") */\n      tag_50\n      jumpi\n      mload(0x40)\n      shl(0xe5, 0x461bcd)\n      dup2\n      mstore\n        /* \"#utility.yul\":1971:1973   */\n      0x20\n        /* \"Payment module optimzed.sol\":3295:3335  require(!e.refunded, \"Already refunded\") */\n      0x04\n      dup3\n      add\n        /* \"#utility.yul\":1953:1974   */\n      mstore\n        /* \"#utility.yul\":2010:2012   */\n      0x10\n        /* \"#utility.yul\":1990:2008   */\n      0x24\n      dup3\n      add\n        /* \"#utility.yul\":1983:2013   */\n      mstore\n      shl(0x82, 0x105b1c9958591e481c99599d5b991959)\n        /* \"#utility.yul\":2029:2047   */\n      0x44\n      dup3\n      add\n        /* \"#utility.yul\":2022:2068   */\n      mstore\n        /* \"#utility.yul\":2085:2103   */\n      0x64\n      add\n        /* \"Payment module optimzed.sol\":3295:3335  require(!e.refunded, \"Already refunded\") */\n      tag_48\n        /* \"#utility.yul\":1769:2109   */\n      jump\n        /* \"Payment module optimzed.sol\":3295:3335  require(!e.refunded, \"Already refunded\") */\n    tag_50:\n        /* \"Payment module optimzed.sol\":3348:3358  e.refunded */\n      0x02\n      dup1\n      dup3\n      add\n        /* \"Payment module optimzed.sol\":3348:3365  e.refunded = true */\n      dup1\n      sload\n      not(shl(0xc8, 0xff))\n      dup2\n      and\n      shl(0xc8, 0x01)\n      or\n      swap1\n      swap2\n      sstore\n        /* \"Payment module optimzed.sol\":3430:3437  e.payer */\n      dup3\n      sload\n      sub(shl(0xa0, 0x01), 0x01)\n      and\n        /* \"Payment module optimzed.sol\":3348:3365  e.refunded = true */\n      0x00\n        /* \"Payment module optimzed.sol\":3411:3438  pendingWithdrawals[e.payer] */\n      swap1\n      dup2\n      mstore\n      0x20\n      swap3\n      swap1\n      swap3\n      mstore\n      0x40\n      dup3\n      keccak256\n        /* \"Payment module optimzed.sol\":3411:3450  pendingWithdrawals[e.payer] += e.amount */\n      dup1\n      sload\n      sub(shl(0x80, 0x01), 0x01)\n        /* \"Payment module optimzed.sol\":3442:3450  e.amount */\n      swap1\n      swap3\n      and\n      swap3\n        /* \"Payment module optimzed.sol\":3411:3438  pendingWithdrawals[e.payer] */\n      swap1\n      swap2\n        /* \"Payment module optimzed.sol\":3411:3450  pendingWithdrawals[e.payer] += e.amount */\n      tag_53\n      swap1\n        /* \"Payment module optimzed.sol\":3442:3450  e.amount */\n      dup5\n      swap1\n        /* \"Payment module optimzed.sol\":3411:3450  pendingWithdrawals[e.payer] += e.amount */\n      tag_54\n      jump\t// in\n    tag_53:\n      swap1\n      swap2\n      sstore\n      pop\n      pop\n        /* \"Payment module optimzed.sol\":3494:3501  e.payer */\n      dup1\n      sload\n        /* \"Payment module optimzed.sol\":3503:3511  e.amount */\n      0x02\n      dup3\n      add\n      sload\n        /* \"Payment module optimzed.sol\":3468:3512  EscrowRefunded(_escrowId, e.payer, e.amount) */\n      mload(0x40)\n      sub(shl(0x80, 0x01), 0x01)\n        /* \"Payment module optimzed.sol\":3503:3511  e.amount */\n      swap1\n      swap2\n      and\n        /* \"#utility.yul\":2522:2588   */\n      dup2\n      mstore\n      sub(shl(0xa0, 0x01), 0x01)\n        /* \"Payment module optimzed.sol\":3494:3501  e.payer */\n      swap1\n      swap2\n      and\n      swap1\n        /* \"Payment module optimzed.sol\":3483:3492  _escrowId */\n      dup4\n      swap1\n        /* \"Payment module optimzed.sol\":3468:3512  EscrowRefunded(_escrowId, e.payer, e.amount) */\n      0xeac97bc1917fcedc984e3d0671d4e83b359890323d5d1c2de32b28d17c356ced\n      swap1\n        /* \"#utility.yul\":2510:2512   */\n      0x20\n        /* \"#utility.yul\":2495:2513   */\n      add\n        /* \"Payment module optimzed.sol\":3468:3512  EscrowRefunded(_escrowId, e.payer, e.amount) */\n    tag_55:\n      mload(0x40)\n      dup1\n      swap2\n      sub\n      swap1\n      log3\n        /* \"Payment module optimzed.sol\":3177:3520  {... */\n      pop\n        /* \"Payment module optimzed.sol\":3127:3520  function refundEscrow(uint256 _escrowId) external {... */\n      pop\n      jump\t// out\n        /* \"Payment module optimzed.sol\":3700:3937  function withdraw() external {... */\n    tag_18:\n        /* \"Payment module optimzed.sol\":3778:3788  msg.sender */\n      caller\n        /* \"Payment module optimzed.sol\":3742:3756  uint256 amount */\n      0x00\n        /* \"Payment module optimzed.sol\":3759:3789  pendingWithdrawals[msg.sender] */\n      swap1\n      dup2\n      mstore\n        /* \"Payment module optimzed.sol\":3759:3777  pendingWithdrawals */\n      0x02\n        /* \"Payment module optimzed.sol\":3759:3789  pendingWithdrawals[msg.sender] */\n      0x20\n      mstore\n      0x40\n      swap1\n      keccak256\n      sload\n        /* \"Payment module optimzed.sol\":3810:3820  amount > 0 */\n      dup1\n        /* \"Payment module optimzed.sol\":3802:3833  require(amount > 0, \"No funds\") */\n      tag_58\n      jumpi\n      mload(0x40)\n      shl(0xe5, 0x461bcd)\n      dup2\n      mstore\n        /* \"#utility.yul\":2801:2803   */\n      0x20\n        /* \"Payment module optimzed.sol\":3802:3833  require(amount > 0, \"No funds\") */\n      0x04\n      dup3\n      add\n        /* \"#utility.yul\":2783:2804   */\n      mstore\n        /* \"#utility.yul\":2840:2841   */\n      0x08\n        /* \"#utility.yul\":2820:2838   */\n      0x24\n      dup3\n      add\n        /* \"#utility.yul\":2813:2842   */\n      mstore\n      shl(0xc0, 0x4e6f2066756e6473)\n        /* \"#utility.yul\":2858:2876   */\n      0x44\n      dup3\n      add\n        /* \"#utility.yul\":2851:2889   */\n      mstore\n        /* \"#utility.yul\":2906:2924   */\n      0x64\n      add\n        /* \"Payment module optimzed.sol\":3802:3833  require(amount > 0, \"No funds\") */\n      tag_48\n        /* \"#utility.yul\":2599:2930   */\n      jump\n        /* \"Payment module optimzed.sol\":3802:3833  require(amount > 0, \"No funds\") */\n    tag_58:\n        /* \"Payment module optimzed.sol\":3865:3875  msg.sender */\n      caller\n        /* \"Payment module optimzed.sol\":3879:3880  0 */\n      0x00\n        /* \"Payment module optimzed.sol\":3846:3876  pendingWithdrawals[msg.sender] */\n      dup2\n      dup2\n      mstore\n        /* \"Payment module optimzed.sol\":3846:3864  pendingWithdrawals */\n      0x02\n        /* \"Payment module optimzed.sol\":3846:3876  pendingWithdrawals[msg.sender] */\n      0x20\n      mstore\n      0x40\n      dup1\n      dup3\n      keccak256\n        /* \"Payment module optimzed.sol\":3846:3880  pendingWithdrawals[msg.sender] = 0 */\n      dup3\n      swap1\n      sstore\n        /* \"Payment module optimzed.sol\":3893:3929  payable(msg.sender).transfer(amount) */\n      mload\n      dup4\n      iszero\n      0x08fc\n      mul\n      swap2\n        /* \"Payment module optimzed.sol\":3922:3928  amount */\n      dup5\n      swap2\n        /* \"Payment module optimzed.sol\":3893:3929  payable(msg.sender).transfer(amount) */\n      swap1\n      dup2\n        /* \"Payment module optimzed.sol\":3879:3880  0 */\n      dup2\n        /* \"Payment module optimzed.sol\":3893:3929  payable(msg.sender).transfer(amount) */\n      dup2\n        /* \"Payment module optimzed.sol\":3922:3928  amount */\n      dup6\n        /* \"Payment module optimzed.sol\":3865:3875  msg.sender */\n      dup9\n        /* \"Payment module optimzed.sol\":3893:3929  payable(msg.sender).transfer(amount) */\n      dup9\n      call\n      swap4\n      pop\n      pop\n      pop\n      pop\n      iszero\n      dup1\n      iszero\n      tag_62\n      jumpi\n      returndatacopy(0x00, 0x00, returndatasize)\n      revert(0x00, returndatasize)\n    tag_62:\n      pop\n        /* \"Payment module optimzed.sol\":3729:3937  {... */\n      pop\n        /* \"Payment module optimzed.sol\":3700:3937  function withdraw() external {... */\n      jump\t// out\n        /* \"Payment module optimzed.sol\":1962:2364  function createMilestone(uint256 _escrowId, string calldata _desc) external {... */\n    tag_23:\n        /* \"Payment module optimzed.sol\":2051:2067  milestoneCounter */\n      0x04\n        /* \"Payment module optimzed.sol\":2051:2069  milestoneCounter++ */\n      dup1\n      sload\n      swap1\n        /* \"Payment module optimzed.sol\":2051:2067  milestoneCounter */\n      0x00\n        /* \"Payment module optimzed.sol\":2051:2069  milestoneCounter++ */\n      tag_64\n      dup4\n      tag_65\n      jump\t// in\n    tag_64:\n      swap2\n      swap1\n      pop\n      sstore\n      pop\n        /* \"Payment module optimzed.sol\":2113:2293  Milestone({... */\n      mload(0x40)\n      dup1\n      0x80\n      add\n      0x40\n      mstore\n      dup1\n        /* \"Payment module optimzed.sol\":2158:2174  milestoneCounter */\n      sload(0x04)\n        /* \"Payment module optimzed.sol\":2113:2293  Milestone({... */\n      0xffffffffffffffff\n      and\n      dup2\n      mstore\n      0x20\n      add\n        /* \"Payment module optimzed.sol\":2207:2216  _escrowId */\n      dup5\n        /* \"Payment module optimzed.sol\":2113:2293  Milestone({... */\n      0xffffffffffffffff\n      and\n      dup2\n      mstore\n      0x20\n      add\n        /* \"Payment module optimzed.sol\":2243:2248  false */\n      0x00\n        /* \"Payment module optimzed.sol\":2113:2293  Milestone({... */\n      iszero\n      iszero\n      dup2\n      mstore\n      0x20\n      add\n        /* \"Payment module optimzed.sol\":2276:2281  _desc */\n      dup4\n      dup4\n        /* \"Payment module optimzed.sol\":2113:2293  Milestone({... */\n      dup1\n      dup1\n      0x1f\n      add\n      0x20\n      dup1\n      swap2\n      div\n      mul\n      0x20\n      add\n      mload(0x40)\n      swap1\n      dup2\n      add\n      0x40\n      mstore\n      dup1\n      swap4\n      swap3\n      swap2\n      swap1\n      dup2\n      dup2\n      mstore\n      0x20\n      add\n      dup4\n      dup4\n      dup1\n      dup3\n      dup5\n      calldatacopy\n      0x00\n      swap3\n      add\n      dup3\n      swap1\n      mstore\n      pop\n      swap4\n      swap1\n      swap5\n      mstore\n      pop\n      pop\n        /* \"Payment module optimzed.sol\":2093:2109  milestoneCounter */\n      sload(0x04)\n        /* \"Payment module optimzed.sol\":2082:2110  milestones[milestoneCounter] */\n      dup2\n      mstore\n        /* \"Payment module optimzed.sol\":2082:2092  milestones */\n      0x01\n        /* \"Payment module optimzed.sol\":2082:2110  milestones[milestoneCounter] */\n      0x20\n      dup2\n      dup2\n      mstore\n      0x40\n      swap3\n      dup4\n      swap1\n      keccak256\n        /* \"Payment module optimzed.sol\":2082:2293  milestones[milestoneCounter] = Milestone({... */\n      dup6\n      mload\n      dup2\n      sload\n      swap3\n      dup8\n      add\n      mload\n      swap5\n      dup8\n      add\n      mload\n      0xffffffffffffffff\n      swap2\n      dup3\n      and\n      not(0xffffffffffffffffffffffffffffffff)\n      swap1\n      swap5\n      and\n      swap4\n      swap1\n      swap4\n      or\n      0x010000000000000000\n      swap2\n      swap1\n      swap6\n      and\n      mul\n      swap4\n      swap1\n      swap4\n      or\n      not(shl(0x80, 0xff))\n      and\n      shl(0x80, 0x01)\n      swap2\n      iszero\n      iszero\n      swap2\n      swap1\n      swap2\n      mul\n      or\n      dup3\n      sstore\n      0x60\n      dup5\n      add\n      mload\n        /* \"Payment module optimzed.sol\":2082:2110  milestones[milestoneCounter] */\n      swap2\n      swap3\n      pop\n        /* \"Payment module optimzed.sol\":2082:2293  milestones[milestoneCounter] = Milestone({... */\n      dup3\n      add\n      swap1\n      tag_66\n      swap1\n      dup3\n      tag_67\n      jump\t// in\n    tag_66:\n      pop\n      pop\n        /* \"Payment module optimzed.sol\":2328:2344  milestoneCounter */\n      sload(0x04)\n        /* \"Payment module optimzed.sol\":2311:2356  MilestoneCreated(milestoneCounter, _escrowId) */\n      mload(0x40)\n        /* \"Payment module optimzed.sol\":2346:2355  _escrowId */\n      dup6\n      swap3\n      pop\n        /* \"Payment module optimzed.sol\":2311:2356  MilestoneCreated(milestoneCounter, _escrowId) */\n      0x3a2622619a6ba11c3f6805f19879501605e35983595b15a0a32c8982c5c45677\n      swap1\n      0x00\n      swap1\n      log3\n        /* \"Payment module optimzed.sol\":1962:2364  function createMilestone(uint256 _escrowId, string calldata _desc) external {... */\n      pop\n      pop\n      pop\n      jump\t// out\n        /* \"Payment module optimzed.sol\":2535:2958  function releasePayment(uint256 _escrowId) external {... */\n    tag_27:\n        /* \"Payment module optimzed.sol\":2600:2616  Escrow storage e */\n      0x00\n        /* \"Payment module optimzed.sol\":2619:2637  escrows[_escrowId] */\n      dup2\n      dup2\n      mstore\n      0x20\n      dup2\n      swap1\n      mstore\n      0x40\n      dup2\n      keccak256\n        /* \"Payment module optimzed.sol\":2658:2668  e.escrowId */\n      0x02\n      dup2\n      add\n      sload\n        /* \"Payment module optimzed.sol\":2619:2637  escrows[_escrowId] */\n      swap1\n      swap2\n      shl(0x80, 0x01)\n        /* \"Payment module optimzed.sol\":2658:2668  e.escrowId */\n      swap1\n      swap2\n      div\n      0xffffffffffffffff\n      and\n        /* \"Payment module optimzed.sol\":2658:2673  e.escrowId != 0 */\n      swap1\n      sub\n        /* \"Payment module optimzed.sol\":2650:2694  require(e.escrowId != 0, \"Escrow not found\") */\n      tag_69\n      jumpi\n      mload(0x40)\n      shl(0xe5, 0x461bcd)\n      dup2\n      mstore\n        /* \"#utility.yul\":1626:1628   */\n      0x20\n        /* \"Payment module optimzed.sol\":2650:2694  require(e.escrowId != 0, \"Escrow not found\") */\n      0x04\n      dup3\n      add\n        /* \"#utility.yul\":1608:1629   */\n      mstore\n        /* \"#utility.yul\":1665:1667   */\n      0x10\n        /* \"#utility.yul\":1645:1663   */\n      0x24\n      dup3\n      add\n        /* \"#utility.yul\":1638:1668   */\n      mstore\n      shl(0x82, 0x115cd8dc9bddc81b9bdd08199bdd5b99)\n        /* \"#utility.yul\":1684:1702   */\n      0x44\n      dup3\n      add\n        /* \"#utility.yul\":1677:1723   */\n      mstore\n        /* \"#utility.yul\":1740:1758   */\n      0x64\n      add\n        /* \"Payment module optimzed.sol\":2650:2694  require(e.escrowId != 0, \"Escrow not found\") */\n      tag_48\n        /* \"#utility.yul\":1424:1764   */\n      jump\n        /* \"Payment module optimzed.sol\":2650:2694  require(e.escrowId != 0, \"Escrow not found\") */\n    tag_69:\n        /* \"Payment module optimzed.sol\":2714:2724  e.released */\n      0x02\n      dup2\n      add\n      sload\n      shl(0xc0, 0x01)\n      swap1\n      div\n      0xff\n      and\n        /* \"Payment module optimzed.sol\":2713:2724  !e.released */\n      iszero\n        /* \"Payment module optimzed.sol\":2705:2745  require(!e.released, \"Already released\") */\n      tag_71\n      jumpi\n      mload(0x40)\n      shl(0xe5, 0x461bcd)\n      dup2\n      mstore\n        /* \"#utility.yul\":5918:5920   */\n      0x20\n        /* \"Payment module optimzed.sol\":2705:2745  require(!e.released, \"Already released\") */\n      0x04\n      dup3\n      add\n        /* \"#utility.yul\":5900:5921   */\n      mstore\n        /* \"#utility.yul\":5957:5959   */\n      0x10\n        /* \"#utility.yul\":5937:5955   */\n      0x24\n      dup3\n      add\n        /* \"#utility.yul\":5930:5960   */\n      mstore\n      shl(0x82, 0x105b1c9958591e481c995b19585cd959)\n        /* \"#utility.yul\":5976:5994   */\n      0x44\n      dup3\n      add\n        /* \"#utility.yul\":5969:6015   */\n      mstore\n        /* \"#utility.yul\":6032:6050   */\n      0x64\n      add\n        /* \"Payment module optimzed.sol\":2705:2745  require(!e.released, \"Already released\") */\n      tag_48\n        /* \"#utility.yul\":5716:6056   */\n      jump\n        /* \"Payment module optimzed.sol\":2705:2745  require(!e.released, \"Already released\") */\n    tag_71:\n        /* \"Payment module optimzed.sol\":2758:2768  e.released */\n      0x02\n      dup1\n      dup3\n      add\n        /* \"Payment module optimzed.sol\":2758:2775  e.released = true */\n      dup1\n      sload\n      not(shl(0xc0, 0xff))\n      dup2\n      and\n      shl(0xc0, 0x01)\n      or\n      swap1\n      swap2\n      sstore\n        /* \"Payment module optimzed.sol\":2771:2775  true */\n      0x01\n        /* \"Payment module optimzed.sol\":2867:2874  e.payee */\n      dup4\n      add\n      sload\n      sub(shl(0xa0, 0x01), 0x01)\n      and\n        /* \"Payment module optimzed.sol\":2758:2775  e.released = true */\n      0x00\n        /* \"Payment module optimzed.sol\":2848:2875  pendingWithdrawals[e.payee] */\n      swap1\n      dup2\n      mstore\n      0x20\n      swap3\n      swap1\n      swap3\n      mstore\n      0x40\n      dup3\n      keccak256\n        /* \"Payment module optimzed.sol\":2848:2887  pendingWithdrawals[e.payee] += e.amount */\n      dup1\n      sload\n      sub(shl(0x80, 0x01), 0x01)\n        /* \"Payment module optimzed.sol\":2879:2887  e.amount */\n      swap1\n      swap3\n      and\n      swap3\n        /* \"Payment module optimzed.sol\":2848:2875  pendingWithdrawals[e.payee] */\n      swap1\n      swap2\n        /* \"Payment module optimzed.sol\":2848:2887  pendingWithdrawals[e.payee] += e.amount */\n      tag_74\n      swap1\n        /* \"Payment module optimzed.sol\":2879:2887  e.amount */\n      dup5\n      swap1\n        /* \"Payment module optimzed.sol\":2848:2887  pendingWithdrawals[e.payee] += e.amount */\n      tag_54\n      jump\t// in\n    tag_74:\n      swap1\n      swap2\n      sstore\n      pop\n      pop\n        /* \"Payment module optimzed.sol\":2932:2939  e.payee */\n      0x01\n      dup2\n      add\n      sload\n        /* \"Payment module optimzed.sol\":2941:2949  e.amount */\n      0x02\n      dup3\n      add\n      sload\n        /* \"Payment module optimzed.sol\":2905:2950  PaymentReleased(_escrowId, e.payee, e.amount) */\n      mload(0x40)\n      sub(shl(0x80, 0x01), 0x01)\n        /* \"Payment module optimzed.sol\":2941:2949  e.amount */\n      swap1\n      swap2\n      and\n        /* \"#utility.yul\":2522:2588   */\n      dup2\n      mstore\n      sub(shl(0xa0, 0x01), 0x01)\n        /* \"Payment module optimzed.sol\":2932:2939  e.payee */\n      swap1\n      swap2\n      and\n      swap1\n        /* \"Payment module optimzed.sol\":2921:2930  _escrowId */\n      dup4\n      swap1\n        /* \"Payment module optimzed.sol\":2905:2950  PaymentReleased(_escrowId, e.payee, e.amount) */\n      0x21d71db5be59bb9fa133895586b7404307dd33fb93b16db09dc6f1d9d7d231b0\n      swap1\n        /* \"#utility.yul\":2510:2512   */\n      0x20\n        /* \"#utility.yul\":2495:2513   */\n      add\n        /* \"Payment module optimzed.sol\":2905:2950  PaymentReleased(_escrowId, e.payee, e.amount) */\n      tag_55\n        /* \"#utility.yul\":2376:2594   */\n      jump\n        /* \"Payment module optimzed.sol\":1358:1790  function createEscrow(address _payee) external payable {... */\n    tag_41:\n        /* \"Payment module optimzed.sol\":1426:1439  escrowCounter */\n      0x03\n        /* \"Payment module optimzed.sol\":1426:1441  escrowCounter++ */\n      dup1\n      sload\n      swap1\n        /* \"Payment module optimzed.sol\":1426:1439  escrowCounter */\n      0x00\n        /* \"Payment module optimzed.sol\":1426:1441  escrowCounter++ */\n      tag_77\n      dup4\n      tag_65\n      jump\t// in\n    tag_77:\n      swap1\n      swap2\n      sstore\n      pop\n      pop\n        /* \"Payment module optimzed.sol\":1479:1705  Escrow({... */\n      0x40\n      dup1\n      mload\n      0xc0\n      dup2\n      add\n      dup3\n      mstore\n        /* \"Payment module optimzed.sol\":1508:1518  msg.sender */\n      caller\n        /* \"Payment module optimzed.sol\":1479:1705  Escrow({... */\n      dup1\n      dup3\n      mstore\n      sub(shl(0xa0, 0x01), 0x01)\n      dup5\n      dup2\n      and\n      0x20\n      dup1\n      dup6\n      add\n      dup3\n      dup2\n      mstore\n      sub(shl(0x80, 0x01), 0x01)\n        /* \"Payment module optimzed.sol\":1577:1586  msg.value */\n      callvalue\n        /* \"Payment module optimzed.sol\":1479:1705  Escrow({... */\n      dup2\n      dup2\n      and\n      dup9\n      dup11\n      add\n      swap1\n      dup2\n      mstore\n        /* \"Payment module optimzed.sol\":1619:1632  escrowCounter */\n      0x03\n      dup1\n      sload\n        /* \"Payment module optimzed.sol\":1479:1705  Escrow({... */\n      0xffffffffffffffff\n      dup1\n      dup3\n      and\n      0x60\n      dup14\n      add\n      swap1\n      dup2\n      mstore\n      0x00\n      0x80\n      dup15\n      add\n      dup2\n      dup2\n      mstore\n      0xa0\n      dup16\n      add\n      dup3\n      dup2\n      mstore\n        /* \"Payment module optimzed.sol\":1454:1476  escrows[escrowCounter] */\n      swap5\n      dup3\n      mstore\n      swap10\n      dup2\n      swap1\n      mstore\n      dup15\n      swap1\n      keccak256\n        /* \"Payment module optimzed.sol\":1454:1705  escrows[escrowCounter] = Escrow({... */\n      swap13\n      mload\n      dup14\n      sload\n      swap1\n      dup13\n      and\n      not(sub(shl(0xa0, 0x01), 0x01))\n      swap2\n      dup3\n      and\n      or\n      dup15\n      sstore\n      swap8\n      mload\n        /* \"Payment module optimzed.sol\":1479:1705  Escrow({... */\n      0x01\n        /* \"Payment module optimzed.sol\":1454:1705  escrows[escrowCounter] = Escrow({... */\n      dup15\n      add\n      dup1\n      sload\n      swap2\n      swap1\n      swap13\n      and\n      swap9\n      and\n      swap8\n      swap1\n      swap8\n      or\n      swap1\n      swap10\n      sstore\n      swap2\n      mload\n      0x02\n      swap1\n      swap11\n      add\n      dup1\n      sload\n      swap6\n      mload\n      swap7\n      mload\n      swap3\n      mload\n      iszero\n      iszero\n      shl(0xc8, 0x01)\n      mul\n      not(shl(0xc8, 0xff))\n      swap4\n      iszero\n      iszero\n      shl(0xc0, 0x01)\n      mul\n      swap4\n      swap1\n      swap4\n      and\n      not(shl(0xc0, 0xffff))\n      swap8\n      swap1\n      swap10\n      and\n      shl(0x80, 0x01)\n      mul\n      not(sub(shl(0xc0, 0x01), 0x01))\n      swap1\n      swap7\n      and\n      swap11\n      swap1\n      swap5\n      and\n      swap10\n      swap1\n      swap10\n      or\n      swap4\n      swap1\n      swap4\n      or\n      swap4\n      swap1\n      swap4\n      and\n      swap5\n      swap1\n      swap5\n      or\n      or\n      swap1\n      swap3\n      sstore\n        /* \"Payment module optimzed.sol\":1737:1750  escrowCounter */\n      swap3\n      sload\n        /* \"Payment module optimzed.sol\":1723:1782  EscrowCreated(escrowCounter, msg.sender, _payee, msg.value) */\n      swap4\n      mload\n        /* \"Payment module optimzed.sol\":1479:1705  Escrow({... */\n      swap3\n      swap4\n        /* \"Payment module optimzed.sol\":1508:1518  msg.sender */\n      swap2\n      swap3\n        /* \"Payment module optimzed.sol\":1723:1782  EscrowCreated(escrowCounter, msg.sender, _payee, msg.value) */\n      0x9405ad0a6208539879349284d71265479b1623846f70303da1f9890d6e8c10a7\n      swap2\n      tag_78\n      swap2\n        /* \"#utility.yul\":1097:1122   */\n      swap1\n      dup2\n      mstore\n        /* \"#utility.yul\":1085:1087   */\n      0x20\n        /* \"#utility.yul\":1070:1088   */\n      add\n      swap1\n        /* \"#utility.yul\":951:1128   */\n      jump\n        /* \"Payment module optimzed.sol\":1723:1782  EscrowCreated(escrowCounter, msg.sender, _payee, msg.value) */\n    tag_78:\n      mload(0x40)\n      dup1\n      swap2\n      sub\n      swap1\n      log4\n        /* \"Payment module optimzed.sol\":1358:1790  function createEscrow(address _payee) external payable {... */\n      pop\n      jump\t// out\n        /* \"#utility.yul\":14:240   */\n    tag_14:\n        /* \"#utility.yul\":73:79   */\n      0x00\n        /* \"#utility.yul\":126:128   */\n      0x20\n        /* \"#utility.yul\":114:123   */\n      dup3\n        /* \"#utility.yul\":105:112   */\n      dup5\n        /* \"#utility.yul\":101:124   */\n      sub\n        /* \"#utility.yul\":97:129   */\n      slt\n        /* \"#utility.yul\":94:146   */\n      iszero\n      tag_87\n      jumpi\n        /* \"#utility.yul\":142:143   */\n      0x00\n        /* \"#utility.yul\":139:140   */\n      0x00\n        /* \"#utility.yul\":132:144   */\n      revert\n        /* \"#utility.yul\":94:146   */\n    tag_87:\n      pop\n        /* \"#utility.yul\":187:210   */\n      calldataload\n      swap2\n        /* \"#utility.yul\":14:240   */\n      swap1\n      pop\n      jump\t// out\n        /* \"#utility.yul\":245:946   */\n    tag_22:\n        /* \"#utility.yul\":325:331   */\n      0x00\n        /* \"#utility.yul\":333:339   */\n      0x00\n        /* \"#utility.yul\":341:347   */\n      0x00\n        /* \"#utility.yul\":394:396   */\n      0x40\n        /* \"#utility.yul\":382:391   */\n      dup5\n        /* \"#utility.yul\":373:380   */\n      dup7\n        /* \"#utility.yul\":369:392   */\n      sub\n        /* \"#utility.yul\":365:397   */\n      slt\n        /* \"#utility.yul\":362:414   */\n      iszero\n      tag_89\n      jumpi\n        /* \"#utility.yul\":410:411   */\n      0x00\n        /* \"#utility.yul\":407:408   */\n      0x00\n        /* \"#utility.yul\":400:412   */\n      revert\n        /* \"#utility.yul\":362:414   */\n    tag_89:\n        /* \"#utility.yul\":455:478   */\n      dup4\n      calldataload\n      swap3\n      pop\n        /* \"#utility.yul\":553:555   */\n      0x20\n        /* \"#utility.yul\":538:556   */\n      dup5\n      add\n        /* \"#utility.yul\":525:557   */\n      calldataload\n        /* \"#utility.yul\":580:598   */\n      0xffffffffffffffff\n        /* \"#utility.yul\":569:599   */\n      dup2\n      gt\n        /* \"#utility.yul\":566:616   */\n      iszero\n      tag_90\n      jumpi\n        /* \"#utility.yul\":612:613   */\n      0x00\n        /* \"#utility.yul\":609:610   */\n      0x00\n        /* \"#utility.yul\":602:614   */\n      revert\n        /* \"#utility.yul\":566:616   */\n    tag_90:\n        /* \"#utility.yul\":635:657   */\n      dup5\n      add\n        /* \"#utility.yul\":688:692   */\n      0x1f\n        /* \"#utility.yul\":680:693   */\n      dup2\n      add\n        /* \"#utility.yul\":676:703   */\n      dup7\n      sgt\n        /* \"#utility.yul\":666:721   */\n      tag_91\n      jumpi\n        /* \"#utility.yul\":717:718   */\n      0x00\n        /* \"#utility.yul\":714:715   */\n      0x00\n        /* \"#utility.yul\":707:719   */\n      revert\n        /* \"#utility.yul\":666:721   */\n    tag_91:\n        /* \"#utility.yul\":757:759   */\n      dup1\n        /* \"#utility.yul\":744:760   */\n      calldataload\n        /* \"#utility.yul\":783:801   */\n      0xffffffffffffffff\n        /* \"#utility.yul\":775:781   */\n      dup2\n        /* \"#utility.yul\":772:802   */\n      gt\n        /* \"#utility.yul\":769:819   */\n      iszero\n      tag_92\n      jumpi\n        /* \"#utility.yul\":815:816   */\n      0x00\n        /* \"#utility.yul\":812:813   */\n      0x00\n        /* \"#utility.yul\":805:817   */\n      revert\n        /* \"#utility.yul\":769:819   */\n    tag_92:\n        /* \"#utility.yul\":860:867   */\n      dup7\n        /* \"#utility.yul\":855:857   */\n      0x20\n        /* \"#utility.yul\":846:852   */\n      dup3\n        /* \"#utility.yul\":842:844   */\n      dup5\n        /* \"#utility.yul\":838:853   */\n      add\n        /* \"#utility.yul\":834:858   */\n      add\n        /* \"#utility.yul\":831:868   */\n      gt\n        /* \"#utility.yul\":828:885   */\n      iszero\n      tag_93\n      jumpi\n        /* \"#utility.yul\":881:882   */\n      0x00\n        /* \"#utility.yul\":878:879   */\n      0x00\n        /* \"#utility.yul\":871:883   */\n      revert\n        /* \"#utility.yul\":828:885   */\n    tag_93:\n        /* \"#utility.yul\":245:946   */\n      swap4\n      swap7\n        /* \"#utility.yul\":912:914   */\n      0x20\n        /* \"#utility.yul\":904:915   */\n      swap2\n      swap1\n      swap2\n      add\n      swap6\n      pop\n        /* \"#utility.yul\":934:940   */\n      swap3\n      swap4\n      pop\n      pop\n      pop\n        /* \"#utility.yul\":245:946   */\n      jump\t// out\n        /* \"#utility.yul\":1133:1419   */\n    tag_36:\n        /* \"#utility.yul\":1192:1198   */\n      0x00\n        /* \"#utility.yul\":1245:1247   */\n      0x20\n        /* \"#utility.yul\":1233:1242   */\n      dup3\n        /* \"#utility.yul\":1224:1231   */\n      dup5\n        /* \"#utility.yul\":1220:1243   */\n      sub\n        /* \"#utility.yul\":1216:1248   */\n      slt\n        /* \"#utility.yul\":1213:1265   */\n      iszero\n      tag_96\n      jumpi\n        /* \"#utility.yul\":1261:1262   */\n      0x00\n        /* \"#utility.yul\":1258:1259   */\n      0x00\n        /* \"#utility.yul\":1251:1263   */\n      revert\n        /* \"#utility.yul\":1213:1265   */\n    tag_96:\n        /* \"#utility.yul\":1287:1310   */\n      dup2\n      calldataload\n      sub(shl(0xa0, 0x01), 0x01)\n        /* \"#utility.yul\":1339:1370   */\n      dup2\n      and\n        /* \"#utility.yul\":1329:1371   */\n      dup2\n      eq\n        /* \"#utility.yul\":1319:1389   */\n      tag_97\n      jumpi\n        /* \"#utility.yul\":1385:1386   */\n      0x00\n        /* \"#utility.yul\":1382:1383   */\n      0x00\n        /* \"#utility.yul\":1375:1387   */\n      revert\n        /* \"#utility.yul\":1319:1389   */\n    tag_97:\n        /* \"#utility.yul\":1408:1413   */\n      swap4\n        /* \"#utility.yul\":1133:1419   */\n      swap3\n      pop\n      pop\n      pop\n      jump\t// out\n        /* \"#utility.yul\":2114:2241   */\n    tag_79:\n        /* \"#utility.yul\":2175:2185   */\n      0x4e487b71\n        /* \"#utility.yul\":2170:2173   */\n      0xe0\n        /* \"#utility.yul\":2166:2186   */\n      shl\n        /* \"#utility.yul\":2163:2164   */\n      0x00\n        /* \"#utility.yul\":2156:2187   */\n      mstore\n        /* \"#utility.yul\":2206:2210   */\n      0x11\n        /* \"#utility.yul\":2203:2204   */\n      0x04\n        /* \"#utility.yul\":2196:2211   */\n      mstore\n        /* \"#utility.yul\":2230:2234   */\n      0x24\n        /* \"#utility.yul\":2227:2228   */\n      0x00\n        /* \"#utility.yul\":2220:2235   */\n      revert\n        /* \"#utility.yul\":2246:2371   */\n    tag_54:\n        /* \"#utility.yul\":2311:2320   */\n      dup1\n      dup3\n      add\n        /* \"#utility.yul\":2332:2342   */\n      dup1\n      dup3\n      gt\n        /* \"#utility.yul\":2329:2365   */\n      iszero\n      tag_103\n      jumpi\n        /* \"#utility.yul\":2345:2363   */\n      tag_103\n      tag_79\n      jump\t// in\n    tag_103:\n        /* \"#utility.yul\":2246:2371   */\n      swap3\n      swap2\n      pop\n      pop\n      jump\t// out\n        /* \"#utility.yul\":2935:3070   */\n    tag_65:\n        /* \"#utility.yul\":2974:2977   */\n      0x00\n        /* \"#utility.yul\":2995:3012   */\n      0x01\n      dup3\n      add\n        /* \"#utility.yul\":2992:3035   */\n      tag_108\n      jumpi\n        /* \"#utility.yul\":3015:3033   */\n      tag_108\n      tag_79\n      jump\t// in\n    tag_108:\n      pop\n        /* \"#utility.yul\":3062:3063   */\n      0x01\n        /* \"#utility.yul\":3051:3064   */\n      add\n      swap1\n        /* \"#utility.yul\":2935:3070   */\n      jump\t// out\n        /* \"#utility.yul\":3075:3202   */\n    tag_80:\n        /* \"#utility.yul\":3136:3146   */\n      0x4e487b71\n        /* \"#utility.yul\":3131:3134   */\n      0xe0\n        /* \"#utility.yul\":3127:3147   */\n      shl\n        /* \"#utility.yul\":3124:3125   */\n      0x00\n        /* \"#utility.yul\":3117:3148   */\n      mstore\n        /* \"#utility.yul\":3167:3171   */\n      0x41\n        /* \"#utility.yul\":3164:3165   */\n      0x04\n        /* \"#utility.yul\":3157:3172   */\n      mstore\n        /* \"#utility.yul\":3191:3195   */\n      0x24\n        /* \"#utility.yul\":3188:3189   */\n      0x00\n        /* \"#utility.yul\":3181:3196   */\n      revert\n        /* \"#utility.yul\":3207:3587   */\n    tag_81:\n        /* \"#utility.yul\":3286:3287   */\n      0x01\n        /* \"#utility.yul\":3282:3294   */\n      dup2\n      dup2\n      shr\n      swap1\n        /* \"#utility.yul\":3329:3341   */\n      dup3\n      and\n      dup1\n        /* \"#utility.yul\":3350:3411   */\n      tag_111\n      jumpi\n        /* \"#utility.yul\":3404:3408   */\n      0x7f\n        /* \"#utility.yul\":3396:3402   */\n      dup3\n        /* \"#utility.yul\":3392:3409   */\n      and\n        /* \"#utility.yul\":3382:3409   */\n      swap2\n      pop\n        /* \"#utility.yul\":3350:3411   */\n    tag_111:\n        /* \"#utility.yul\":3457:3459   */\n      0x20\n        /* \"#utility.yul\":3449:3455   */\n      dup3\n        /* \"#utility.yul\":3446:3460   */\n      lt\n        /* \"#utility.yul\":3426:3444   */\n      dup2\n        /* \"#utility.yul\":3423:3461   */\n      sub\n        /* \"#utility.yul\":3420:3581   */\n      tag_112\n      jumpi\n        /* \"#utility.yul\":3503:3513   */\n      0x4e487b71\n        /* \"#utility.yul\":3498:3501   */\n      0xe0\n        /* \"#utility.yul\":3494:3514   */\n      shl\n        /* \"#utility.yul\":3491:3492   */\n      0x00\n        /* \"#utility.yul\":3484:3515   */\n      mstore\n        /* \"#utility.yul\":3538:3542   */\n      0x22\n        /* \"#utility.yul\":3535:3536   */\n      0x04\n        /* \"#utility.yul\":3528:3543   */\n      mstore\n        /* \"#utility.yul\":3566:3570   */\n      0x24\n        /* \"#utility.yul\":3563:3564   */\n      0x00\n        /* \"#utility.yul\":3556:3571   */\n      revert\n        /* \"#utility.yul\":3420:3581   */\n    tag_112:\n      pop\n        /* \"#utility.yul\":3207:3587   */\n      swap2\n      swap1\n      pop\n      jump\t// out\n        /* \"#utility.yul\":3718:4236   */\n    tag_83:\n        /* \"#utility.yul\":3820:3822   */\n      0x1f\n        /* \"#utility.yul\":3815:3818   */\n      dup3\n        /* \"#utility.yul\":3812:3823   */\n      gt\n        /* \"#utility.yul\":3809:4230   */\n      iszero\n      tag_115\n      jumpi\n        /* \"#utility.yul\":3856:3861   */\n      dup1\n        /* \"#utility.yul\":3853:3854   */\n      0x00\n        /* \"#utility.yul\":3846:3862   */\n      mstore\n        /* \"#utility.yul\":3900:3904   */\n      0x20\n        /* \"#utility.yul\":3897:3898   */\n      0x00\n        /* \"#utility.yul\":3887:3905   */\n      keccak256\n        /* \"#utility.yul\":3970:3972   */\n      0x1f\n        /* \"#utility.yul\":3958:3968   */\n      dup5\n        /* \"#utility.yul\":3954:3973   */\n      add\n        /* \"#utility.yul\":3951:3952   */\n      0x05\n        /* \"#utility.yul\":3947:3974   */\n      shr\n        /* \"#utility.yul\":3941:3945   */\n      dup2\n        /* \"#utility.yul\":3937:3975   */\n      add\n        /* \"#utility.yul\":4006:4010   */\n      0x20\n        /* \"#utility.yul\":3994:4004   */\n      dup6\n        /* \"#utility.yul\":3991:4011   */\n      lt\n        /* \"#utility.yul\":3988:4035   */\n      iszero\n      tag_116\n      jumpi\n      pop\n        /* \"#utility.yul\":4029:4033   */\n      dup1\n        /* \"#utility.yul\":3988:4035   */\n    tag_116:\n        /* \"#utility.yul\":4084:4086   */\n      0x1f\n        /* \"#utility.yul\":4079:4082   */\n      dup5\n        /* \"#utility.yul\":4075:4087   */\n      add\n        /* \"#utility.yul\":4072:4073   */\n      0x05\n        /* \"#utility.yul\":4068:4088   */\n      shr\n        /* \"#utility.yul\":4062:4066   */\n      dup3\n        /* \"#utility.yul\":4058:4089   */\n      add\n        /* \"#utility.yul\":4048:4089   */\n      swap2\n      pop\n        /* \"#utility.yul\":4139:4220   */\n    tag_117:\n        /* \"#utility.yul\":4157:4159   */\n      dup2\n        /* \"#utility.yul\":4150:4155   */\n      dup2\n        /* \"#utility.yul\":4147:4160   */\n      lt\n        /* \"#utility.yul\":4139:4220   */\n      iszero\n      tag_119\n      jumpi\n        /* \"#utility.yul\":4216:4217   */\n      0x00\n        /* \"#utility.yul\":4202:4218   */\n      dup2\n      sstore\n        /* \"#utility.yul\":4183:4184   */\n      0x01\n        /* \"#utility.yul\":4172:4185   */\n      add\n        /* \"#utility.yul\":4139:4220   */\n      jump(tag_117)\n    tag_119:\n        /* \"#utility.yul\":4143:4146   */\n      pop\n      pop\n        /* \"#utility.yul\":3809:4230   */\n    tag_115:\n        /* \"#utility.yul\":3718:4236   */\n      pop\n      pop\n      pop\n      jump\t// out\n        /* \"#utility.yul\":4412:5711   */\n    tag_67:\n        /* \"#utility.yul\":4538:4541   */\n      dup2\n        /* \"#utility.yul\":4532:4542   */\n      mload\n        /* \"#utility.yul\":4565:4583   */\n      0xffffffffffffffff\n        /* \"#utility.yul\":4557:4563   */\n      dup2\n        /* \"#utility.yul\":4554:4584   */\n      gt\n        /* \"#utility.yul\":4551:4607   */\n      iszero\n      tag_123\n      jumpi\n        /* \"#utility.yul\":4587:4605   */\n      tag_123\n      tag_80\n      jump\t// in\n    tag_123:\n        /* \"#utility.yul\":4616:4713   */\n      tag_124\n        /* \"#utility.yul\":4706:4712   */\n      dup2\n        /* \"#utility.yul\":4666:4704   */\n      tag_125\n        /* \"#utility.yul\":4698:4702   */\n      dup5\n        /* \"#utility.yul\":4692:4703   */\n      sload\n        /* \"#utility.yul\":4666:4704   */\n      tag_81\n      jump\t// in\n    tag_125:\n        /* \"#utility.yul\":4660:4664   */\n      dup5\n        /* \"#utility.yul\":4616:4713   */\n      tag_83\n      jump\t// in\n    tag_124:\n        /* \"#utility.yul\":4762:4766   */\n      0x20\n        /* \"#utility.yul\":4793:4795   */\n      0x1f\n        /* \"#utility.yul\":4782:4796   */\n      dup3\n      gt\n        /* \"#utility.yul\":4810:4811   */\n      0x01\n        /* \"#utility.yul\":4805:5454   */\n      dup2\n      eq\n      tag_127\n      jumpi\n        /* \"#utility.yul\":5498:5499   */\n      0x00\n        /* \"#utility.yul\":5515:5521   */\n      dup4\n        /* \"#utility.yul\":5512:5601   */\n      iszero\n      tag_128\n      jumpi\n      pop\n        /* \"#utility.yul\":5567:5586   */\n      dup5\n      dup3\n      add\n        /* \"#utility.yul\":5561:5587   */\n      mload\n        /* \"#utility.yul\":5512:5601   */\n    tag_128:\n      not(0x00)\n        /* \"#utility.yul\":4369:4370   */\n      0x03\n        /* \"#utility.yul\":4365:4376   */\n      dup6\n      swap1\n      shl\n        /* \"#utility.yul\":4361:4385   */\n      shr\n        /* \"#utility.yul\":4357:4386   */\n      not\n        /* \"#utility.yul\":4347:4387   */\n      and\n        /* \"#utility.yul\":4393:4394   */\n      0x01\n        /* \"#utility.yul\":4389:4400   */\n      dup5\n      swap1\n      shl\n        /* \"#utility.yul\":4344:4401   */\n      or\n        /* \"#utility.yul\":5614:5695   */\n      dup5\n      sstore\n        /* \"#utility.yul\":4775:5705   */\n      jump(tag_119)\n        /* \"#utility.yul\":4805:5454   */\n    tag_127:\n        /* \"#utility.yul\":3665:3666   */\n      0x00\n        /* \"#utility.yul\":3658:3672   */\n      dup5\n      dup2\n      mstore\n        /* \"#utility.yul\":3702:3706   */\n      0x20\n        /* \"#utility.yul\":3689:3707   */\n      dup2\n      keccak256\n      not(0x1f)\n        /* \"#utility.yul\":4841:4861   */\n      dup6\n      and\n      swap2\n        /* \"#utility.yul\":4959:5181   */\n    tag_131:\n        /* \"#utility.yul\":4973:4980   */\n      dup3\n        /* \"#utility.yul\":4970:4971   */\n      dup2\n        /* \"#utility.yul\":4967:4981   */\n      lt\n        /* \"#utility.yul\":4959:5181   */\n      iszero\n      tag_133\n      jumpi\n        /* \"#utility.yul\":5055:5074   */\n      dup8\n      dup6\n      add\n        /* \"#utility.yul\":5049:5075   */\n      mload\n        /* \"#utility.yul\":5034:5076   */\n      dup3\n      sstore\n        /* \"#utility.yul\":5162:5166   */\n      0x20\n        /* \"#utility.yul\":5147:5167   */\n      swap5\n      dup6\n      add\n      swap5\n        /* \"#utility.yul\":5115:5116   */\n      0x01\n        /* \"#utility.yul\":5103:5117   */\n      swap1\n      swap3\n      add\n      swap2\n        /* \"#utility.yul\":4989:5001   */\n      add\n        /* \"#utility.yul\":4959:5181   */\n      jump(tag_131)\n    tag_133:\n        /* \"#utility.yul\":4963:4966   */\n      pop\n        /* \"#utility.yul\":5209:5215   */\n      dup5\n        /* \"#utility.yul\":5200:5207   */\n      dup3\n        /* \"#utility.yul\":5197:5216   */\n      lt\n        /* \"#utility.yul\":5194:5395   */\n      iszero\n      tag_134\n      jumpi\n        /* \"#utility.yul\":5270:5289   */\n      dup7\n      dup5\n      add\n        /* \"#utility.yul\":5264:5290   */\n      mload\n      not(0x00)\n        /* \"#utility.yul\":5353:5354   */\n      0x03\n        /* \"#utility.yul\":5349:5363   */\n      dup8\n      swap1\n      shl\n        /* \"#utility.yul\":5365:5368   */\n      0xf8\n        /* \"#utility.yul\":5345:5369   */\n      and\n        /* \"#utility.yul\":5341:5378   */\n      shr\n        /* \"#utility.yul\":5337:5379   */\n      not\n        /* \"#utility.yul\":5322:5380   */\n      and\n        /* \"#utility.yul\":5307:5381   */\n      dup2\n      sstore\n        /* \"#utility.yul\":5194:5395   */\n    tag_134:\n      pop\n      pop\n      pop\n      pop\n        /* \"#utility.yul\":5441:5442   */\n      0x01\n        /* \"#utility.yul\":5425:5439   */\n      swap1\n      dup2\n      shl\n        /* \"#utility.yul\":5421:5443   */\n      add\n        /* \"#utility.yul\":5408:5444   */\n      swap1\n      sstore\n      pop\n        /* \"#utility.yul\":4412:5711   */\n      jump\t// out\n\n    auxdata: 0xa26469706673582212208b3cf379315d49716f352ae1c08f510c56493056b30656bf6606c5cdbad4fbb564736f6c634300081e0033\n}\n",
				"bytecode": {
					"linkReferences": {},
					"object": "6080604052348015600e575f5ffd5b506109ae8061001c5f395ff3fe608060405260043610610079575f3560e01c8063c7ceafea1161004c578063c7ceafea146100f0578063f3f4370314610117578063f6a8419e14610142578063f6baaec714610155575f5ffd5b8063356f9dfd1461007d5780633ccfd60b1461009e57806344d0be64146100b257806388685cd9146100d1575b5f5ffd5b348015610088575f5ffd5b5061009c610097366004610725565b61016a565b005b3480156100a9575f5ffd5b5061009c6102cd565b3480156100bd575f5ffd5b5061009c6100cc36600461073c565b610350565b3480156100dc575f5ffd5b5061009c6100eb366004610725565b610486565b3480156100fb575f5ffd5b5061010560035481565b60405190815260200160405180910390f35b348015610122575f5ffd5b506101056101313660046107b3565b60026020525f908152604090205481565b61009c6101503660046107b3565b6105e2565b348015610160575f5ffd5b5061010560045481565b5f81815260208190526040812060028101549091600160801b90910467ffffffffffffffff1690036101d65760405162461bcd60e51b815260206004820152601060248201526f115cd8dc9bddc81b9bdd08199bdd5b9960821b60448201526064015b60405180910390fd5b6002810154600160c81b900460ff16156102255760405162461bcd60e51b815260206004820152601060248201526f105b1c9958591e481c99599d5b99195960821b60448201526064016101cd565b6002808201805460ff60c81b198116600160c81b1790915582546001600160a01b03165f9081526020929092526040822080546001600160801b039092169290916102719084906107f4565b9091555050805460028201546040516001600160801b0390911681526001600160a01b039091169083907feac97bc1917fcedc984e3d0671d4e83b359890323d5d1c2de32b28d17c356ced906020015b60405180910390a35050565b335f90815260026020526040902054806103145760405162461bcd60e51b81526020600482015260086024820152674e6f2066756e647360c01b60448201526064016101cd565b335f818152600260205260408082208290555183156108fc0291849190818181858888f1935050505015801561034c573d5f5f3e3d5ffd5b5050565b60048054905f61035f8361080d565b9190505550604051806080016040528060045467ffffffffffffffff1681526020018467ffffffffffffffff1681526020015f1515815260200183838080601f0160208091040260200160405190810160405280939291908181526020018383808284375f92018290525093909452505060045481526001602081815260409283902085518154928701519487015167ffffffffffffffff9182166fffffffffffffffffffffffffffffffff19909416939093176801000000000000000091909516029390931760ff60801b1916600160801b91151591909102178255606084015191925082019061045190826108bd565b50506004546040518592507f3a2622619a6ba11c3f6805f19879501605e35983595b15a0a32c8982c5c45677905f90a3505050565b5f81815260208190526040812060028101549091600160801b90910467ffffffffffffffff1690036104ed5760405162461bcd60e51b815260206004820152601060248201526f115cd8dc9bddc81b9bdd08199bdd5b9960821b60448201526064016101cd565b6002810154600160c01b900460ff161561053c5760405162461bcd60e51b815260206004820152601060248201526f105b1c9958591e481c995b19585cd95960821b60448201526064016101cd565b6002808201805460ff60c01b198116600160c01b1790915560018301546001600160a01b03165f9081526020929092526040822080546001600160801b0390921692909161058b9084906107f4565b9091555050600181015460028201546040516001600160801b0390911681526001600160a01b039091169083907f21d71db5be59bb9fa133895586b7404307dd33fb93b16db09dc6f1d9d7d231b0906020016102c1565b60038054905f6105f18361080d565b90915550506040805160c081018252338082526001600160a01b0384811660208085018281526001600160801b0334818116888a019081526003805467ffffffffffffffff80821660608d019081525f60808e0181815260a08f01828152948252998190528e90209c518d54908c166001600160a01b0319918216178e55975160018e01805491909c1698169790971790995591516002909a0180549551965192511515600160c81b0260ff60c81b19931515600160c01b029390931661ffff60c01b1997909916600160801b026001600160c01b03199096169a909416999099179390931793909316949094171790925592549351929391927f9405ad0a6208539879349284d71265479b1623846f70303da1f9890d6e8c10a79161071a9190815260200190565b60405180910390a450565b5f60208284031215610735575f5ffd5b5035919050565b5f5f5f6040848603121561074e575f5ffd5b83359250602084013567ffffffffffffffff81111561076b575f5ffd5b8401601f8101861361077b575f5ffd5b803567ffffffffffffffff811115610791575f5ffd5b8660208284010111156107a2575f5ffd5b939660209190910195509293505050565b5f602082840312156107c3575f5ffd5b81356001600160a01b03811681146107d9575f5ffd5b9392505050565b634e487b7160e01b5f52601160045260245ffd5b80820180821115610807576108076107e0565b92915050565b5f6001820161081e5761081e6107e0565b5060010190565b634e487b7160e01b5f52604160045260245ffd5b600181811c9082168061084d57607f821691505b60208210810361086b57634e487b7160e01b5f52602260045260245ffd5b50919050565b601f8211156108b857805f5260205f20601f840160051c810160208510156108965750805b601f840160051c820191505b818110156108b5575f81556001016108a2565b50505b505050565b815167ffffffffffffffff8111156108d7576108d7610825565b6108eb816108e58454610839565b84610871565b6020601f82116001811461091d575f83156109065750848201515b5f19600385901b1c1916600184901b1784556108b5565b5f84815260208120601f198516915b8281101561094c578785015182556020948501946001909201910161092c565b508482101561096957868401515f19600387901b60f8161c191681555b50505050600190811b0190555056fea26469706673582212208b3cf379315d49716f352ae1c08f510c56493056b30656bf6606c5cdbad4fbb564736f6c634300081e0033",
					"opcodes": "PUSH1 0x80 PUSH1 0x40 MSTORE CALLVALUE DUP1 ISZERO PUSH1 0xE JUMPI PUSH0 PUSH0 REVERT JUMPDEST POP PUSH2 0x9AE DUP1 PUSH2 0x1C PUSH0 CODECOPY PUSH0 RETURN INVALID PUSH1 0x80 PUSH1 0x40 MSTORE PUSH1 0x4 CALLDATASIZE LT PUSH2 0x79 JUMPI PUSH0 CALLDATALOAD PUSH1 0xE0 SHR DUP1 PUSH4 0xC7CEAFEA GT PUSH2 0x4C JUMPI DUP1 PUSH4 0xC7CEAFEA EQ PUSH2 0xF0 JUMPI DUP1 PUSH4 0xF3F43703 EQ PUSH2 0x117 JUMPI DUP1 PUSH4 0xF6A8419E EQ PUSH2 0x142 JUMPI DUP1 PUSH4 0xF6BAAEC7 EQ PUSH2 0x155 JUMPI PUSH0 PUSH0 REVERT JUMPDEST DUP1 PUSH4 0x356F9DFD EQ PUSH2 0x7D JUMPI DUP1 PUSH4 0x3CCFD60B EQ PUSH2 0x9E JUMPI DUP1 PUSH4 0x44D0BE64 EQ PUSH2 0xB2 JUMPI DUP1 PUSH4 0x88685CD9 EQ PUSH2 0xD1 JUMPI JUMPDEST PUSH0 PUSH0 REVERT JUMPDEST CALLVALUE DUP1 ISZERO PUSH2 0x88 JUMPI PUSH0 PUSH0 REVERT JUMPDEST POP PUSH2 0x9C PUSH2 0x97 CALLDATASIZE PUSH1 0x4 PUSH2 0x725 JUMP JUMPDEST PUSH2 0x16A JUMP JUMPDEST STOP JUMPDEST CALLVALUE DUP1 ISZERO PUSH2 0xA9 JUMPI PUSH0 PUSH0 REVERT JUMPDEST POP PUSH2 0x9C PUSH2 0x2CD JUMP JUMPDEST CALLVALUE DUP1 ISZERO PUSH2 0xBD JUMPI PUSH0 PUSH0 REVERT JUMPDEST POP PUSH2 0x9C PUSH2 0xCC CALLDATASIZE PUSH1 0x4 PUSH2 0x73C JUMP JUMPDEST PUSH2 0x350 JUMP JUMPDEST CALLVALUE DUP1 ISZERO PUSH2 0xDC JUMPI PUSH0 PUSH0 REVERT JUMPDEST POP PUSH2 0x9C PUSH2 0xEB CALLDATASIZE PUSH1 0x4 PUSH2 0x725 JUMP JUMPDEST PUSH2 0x486 JUMP JUMPDEST CALLVALUE DUP1 ISZERO PUSH2 0xFB JUMPI PUSH0 PUSH0 REVERT JUMPDEST POP PUSH2 0x105 PUSH1 0x3 SLOAD DUP2 JUMP JUMPDEST PUSH1 0x40 MLOAD SWAP1 DUP2 MSTORE PUSH1 0x20 ADD PUSH1 0x40 MLOAD DUP1 SWAP2 SUB SWAP1 RETURN JUMPDEST CALLVALUE DUP1 ISZERO PUSH2 0x122 JUMPI PUSH0 PUSH0 REVERT JUMPDEST POP PUSH2 0x105 PUSH2 0x131 CALLDATASIZE PUSH1 0x4 PUSH2 0x7B3 JUMP JUMPDEST PUSH1 0x2 PUSH1 0x20 MSTORE PUSH0 SWAP1 DUP2 MSTORE PUSH1 0x40 SWAP1 KECCAK256 SLOAD DUP2 JUMP JUMPDEST PUSH2 0x9C PUSH2 0x150 CALLDATASIZE PUSH1 0x4 PUSH2 0x7B3 JUMP JUMPDEST PUSH2 0x5E2 JUMP JUMPDEST CALLVALUE DUP1 ISZERO PUSH2 0x160 JUMPI PUSH0 PUSH0 REVERT JUMPDEST POP PUSH2 0x105 PUSH1 0x4 SLOAD DUP2 JUMP JUMPDEST PUSH0 DUP2 DUP2 MSTORE PUSH1 0x20 DUP2 SWAP1 MSTORE PUSH1 0x40 DUP2 KECCAK256 PUSH1 0x2 DUP2 ADD SLOAD SWAP1 SWAP2 PUSH1 0x1 PUSH1 0x80 SHL SWAP1 SWAP2 DIV PUSH8 0xFFFFFFFFFFFFFFFF AND SWAP1 SUB PUSH2 0x1D6 JUMPI PUSH1 0x40 MLOAD PUSH3 0x461BCD PUSH1 0xE5 SHL DUP2 MSTORE PUSH1 0x20 PUSH1 0x4 DUP3 ADD MSTORE PUSH1 0x10 PUSH1 0x24 DUP3 ADD MSTORE PUSH16 0x115CD8DC9BDDC81B9BDD08199BDD5B99 PUSH1 0x82 SHL PUSH1 0x44 DUP3 ADD MSTORE PUSH1 0x64 ADD JUMPDEST PUSH1 0x40 MLOAD DUP1 SWAP2 SUB SWAP1 REVERT JUMPDEST PUSH1 0x2 DUP2 ADD SLOAD PUSH1 0x1 PUSH1 0xC8 SHL SWAP1 DIV PUSH1 0xFF AND ISZERO PUSH2 0x225 JUMPI PUSH1 0x40 MLOAD PUSH3 0x461BCD PUSH1 0xE5 SHL DUP2 MSTORE PUSH1 0x20 PUSH1 0x4 DUP3 ADD MSTORE PUSH1 0x10 PUSH1 0x24 DUP3 ADD MSTORE PUSH16 0x105B1C9958591E481C99599D5B991959 PUSH1 0x82 SHL PUSH1 0x44 DUP3 ADD MSTORE PUSH1 0x64 ADD PUSH2 0x1CD JUMP JUMPDEST PUSH1 0x2 DUP1 DUP3 ADD DUP1 SLOAD PUSH1 0xFF PUSH1 0xC8 SHL NOT DUP2 AND PUSH1 0x1 PUSH1 0xC8 SHL OR SWAP1 SWAP2 SSTORE DUP3 SLOAD PUSH1 0x1 PUSH1 0x1 PUSH1 0xA0 SHL SUB AND PUSH0 SWAP1 DUP2 MSTORE PUSH1 0x20 SWAP3 SWAP1 SWAP3 MSTORE PUSH1 0x40 DUP3 KECCAK256 DUP1 SLOAD PUSH1 0x1 PUSH1 0x1 PUSH1 0x80 SHL SUB SWAP1 SWAP3 AND SWAP3 SWAP1 SWAP2 PUSH2 0x271 SWAP1 DUP5 SWAP1 PUSH2 0x7F4 JUMP JUMPDEST SWAP1 SWAP2 SSTORE POP POP DUP1 SLOAD PUSH1 0x2 DUP3 ADD SLOAD PUSH1 0x40 MLOAD PUSH1 0x1 PUSH1 0x1 PUSH1 0x80 SHL SUB SWAP1 SWAP2 AND DUP2 MSTORE PUSH1 0x1 PUSH1 0x1 PUSH1 0xA0 SHL SUB SWAP1 SWAP2 AND SWAP1 DUP4 SWAP1 PUSH32 0xEAC97BC1917FCEDC984E3D0671D4E83B359890323D5D1C2DE32B28D17C356CED SWAP1 PUSH1 0x20 ADD JUMPDEST PUSH1 0x40 MLOAD DUP1 SWAP2 SUB SWAP1 LOG3 POP POP JUMP JUMPDEST CALLER PUSH0 SWAP1 DUP2 MSTORE PUSH1 0x2 PUSH1 0x20 MSTORE PUSH1 0x40 SWAP1 KECCAK256 SLOAD DUP1 PUSH2 0x314 JUMPI PUSH1 0x40 MLOAD PUSH3 0x461BCD PUSH1 0xE5 SHL DUP2 MSTORE PUSH1 0x20 PUSH1 0x4 DUP3 ADD MSTORE PUSH1 0x8 PUSH1 0x24 DUP3 ADD MSTORE PUSH8 0x4E6F2066756E6473 PUSH1 0xC0 SHL PUSH1 0x44 DUP3 ADD MSTORE PUSH1 0x64 ADD PUSH2 0x1CD JUMP JUMPDEST CALLER PUSH0 DUP2 DUP2 MSTORE PUSH1 0x2 PUSH1 0x20 MSTORE PUSH1 0x40 DUP1 DUP3 KECCAK256 DUP3 SWAP1 SSTORE MLOAD DUP4 ISZERO PUSH2 0x8FC MUL SWAP2 DUP5 SWAP2 SWAP1 DUP2 DUP2 DUP2 DUP6 DUP9 DUP9 CALL SWAP4 POP POP POP POP ISZERO DUP1 ISZERO PUSH2 0x34C JUMPI RETURNDATASIZE PUSH0 PUSH0 RETURNDATACOPY RETURNDATASIZE PUSH0 REVERT JUMPDEST POP POP JUMP JUMPDEST PUSH1 0x4 DUP1 SLOAD SWAP1 PUSH0 PUSH2 0x35F DUP4 PUSH2 0x80D JUMP JUMPDEST SWAP2 SWAP1 POP SSTORE POP PUSH1 0x40 MLOAD DUP1 PUSH1 0x80 ADD PUSH1 0x40 MSTORE DUP1 PUSH1 0x4 SLOAD PUSH8 0xFFFFFFFFFFFFFFFF AND DUP2 MSTORE PUSH1 0x20 ADD DUP5 PUSH8 0xFFFFFFFFFFFFFFFF AND DUP2 MSTORE PUSH1 0x20 ADD PUSH0 ISZERO ISZERO DUP2 MSTORE PUSH1 0x20 ADD DUP4 DUP4 DUP1 DUP1 PUSH1 0x1F ADD PUSH1 0x20 DUP1 SWAP2 DIV MUL PUSH1 0x20 ADD PUSH1 0x40 MLOAD SWAP1 DUP2 ADD PUSH1 0x40 MSTORE DUP1 SWAP4 SWAP3 SWAP2 SWAP1 DUP2 DUP2 MSTORE PUSH1 0x20 ADD DUP4 DUP4 DUP1 DUP3 DUP5 CALLDATACOPY PUSH0 SWAP3 ADD DUP3 SWAP1 MSTORE POP SWAP4 SWAP1 SWAP5 MSTORE POP POP PUSH1 0x4 SLOAD DUP2 MSTORE PUSH1 0x1 PUSH1 0x20 DUP2 DUP2 MSTORE PUSH1 0x40 SWAP3 DUP4 SWAP1 KECCAK256 DUP6 MLOAD DUP2 SLOAD SWAP3 DUP8 ADD MLOAD SWAP5 DUP8 ADD MLOAD PUSH8 0xFFFFFFFFFFFFFFFF SWAP2 DUP3 AND PUSH16 0xFFFFFFFFFFFFFFFFFFFFFFFFFFFFFFFF NOT SWAP1 SWAP5 AND SWAP4 SWAP1 SWAP4 OR PUSH9 0x10000000000000000 SWAP2 SWAP1 SWAP6 AND MUL SWAP4 SWAP1 SWAP4 OR PUSH1 0xFF PUSH1 0x80 SHL NOT AND PUSH1 0x1 PUSH1 0x80 SHL SWAP2 ISZERO ISZERO SWAP2 SWAP1 SWAP2 MUL OR DUP3 SSTORE PUSH1 0x60 DUP5 ADD MLOAD SWAP2 SWAP3 POP DUP3 ADD SWAP1 PUSH2 0x451 SWAP1 DUP3 PUSH2 0x8BD JUMP JUMPDEST POP POP PUSH1 0x4 SLOAD PUSH1 0x40 MLOAD DUP6 SWAP3 POP PUSH32 0x3A2622619A6BA11C3F6805F19879501605E35983595B15A0A32C8982C5C45677 SWAP1 PUSH0 SWAP1 LOG3 POP POP POP JUMP JUMPDEST PUSH0 DUP2 DUP2 MSTORE PUSH1 0x20 DUP2 SWAP1 MSTORE PUSH1 0x40 DUP2 KECCAK256 PUSH1 0x2 DUP2 ADD SLOAD SWAP1 SWAP2 PUSH1 0x1 PUSH1 0x80 SHL SWAP1 SWAP2 DIV PUSH8 0xFFFFFFFFFFFFFFFF AND SWAP1 SUB PUSH2 0x4ED JUMPI PUSH1 0x40 MLOAD PUSH3 0x461BCD PUSH1 0xE5 SHL DUP2 MSTORE PUSH1 0x20 PUSH1 0x4 DUP3 ADD MSTORE PUSH1 0x10 PUSH1 0x24 DUP3 ADD MSTORE PUSH16 0x115CD8DC9BDDC81B9BDD08199BDD5B99 PUSH1 0x82 SHL PUSH1 0x44 DUP3 ADD MSTORE PUSH1 0x64 ADD PUSH2 0x1CD JUMP JUMPDEST PUSH1 0x2 DUP2 ADD SLOAD PUSH1 0x1 PUSH1 0xC0 SHL SWAP1 DIV PUSH1 0xFF AND ISZERO PUSH2 0x53C JUMPI PUSH1 0x40 MLOAD PUSH3 0x461BCD PUSH1 0xE5 SHL DUP2 MSTORE PUSH1 0x20 PUSH1 0x4 DUP3 ADD MSTORE PUSH1 0x10 PUSH1 0x24 DUP3 ADD MSTORE PUSH16 0x105B1C9958591E481C995B19585CD959 PUSH1 0x82 SHL PUSH1 0x44 DUP3 ADD MSTORE PUSH1 0x64 ADD PUSH2 0x1CD JUMP JUMPDEST PUSH1 0x2 DUP1 DUP3 ADD DUP1 SLOAD PUSH1 0xFF PUSH1 0xC0 SHL NOT DUP2 AND PUSH1 0x1 PUSH1 0xC0 SHL OR SWAP1 SWAP2 SSTORE PUSH1 0x1 DUP4 ADD SLOAD PUSH1 0x1 PUSH1 0x1 PUSH1 0xA0 SHL SUB AND PUSH0 SWAP1 DUP2 MSTORE PUSH1 0x20 SWAP3 SWAP1 SWAP3 MSTORE PUSH1 0x40 DUP3 KECCAK256 DUP1 SLOAD PUSH1 0x1 PUSH1 0x1 PUSH1 0x80 SHL SUB SWAP1 SWAP3 AND SWAP3 SWAP1 SWAP2 PUSH2 0x58B SWAP1 DUP5 SWAP1 PUSH2 0x7F4 JUMP JUMPDEST SWAP1 SWAP2 SSTORE POP POP PUSH1 0x1 DUP2 ADD SLOAD PUSH1 0x2 DUP3 ADD SLOAD PUSH1 0x40 MLOAD PUSH1 0x1 PUSH1 0x1 PUSH1 0x80 SHL SUB SWAP1 SWAP2 AND DUP2 MSTORE PUSH1 0x1 PUSH1 0x1 PUSH1 0xA0 SHL SUB SWAP1 SWAP2 AND SWAP1 DUP4 SWAP1 PUSH32 0x21D71DB5BE59BB9FA133895586B7404307DD33FB93B16DB09DC6F1D9D7D231B0 SWAP1 PUSH1 0x20 ADD PUSH2 0x2C1 JUMP JUMPDEST PUSH1 0x3 DUP1 SLOAD SWAP1 PUSH0 PUSH2 0x5F1 DUP4 PUSH2 0x80D JUMP JUMPDEST SWAP1 SWAP2 SSTORE POP POP PUSH1 0x40 DUP1 MLOAD PUSH1 0xC0 DUP2 ADD DUP3 MSTORE CALLER DUP1 DUP3 MSTORE PUSH1 0x1 PUSH1 0x1 PUSH1 0xA0 SHL SUB DUP5 DUP2 AND PUSH1 0x20 DUP1 DUP6 ADD DUP3 DUP2 MSTORE PUSH1 0x1 PUSH1 0x1 PUSH1 0x80 SHL SUB CALLVALUE DUP2 DUP2 AND DUP9 DUP11 ADD SWAP1 DUP2 MSTORE PUSH1 0x3 DUP1 SLOAD PUSH8 0xFFFFFFFFFFFFFFFF DUP1 DUP3 AND PUSH1 0x60 DUP14 ADD SWAP1 DUP2 MSTORE PUSH0 PUSH1 0x80 DUP15 ADD DUP2 DUP2 MSTORE PUSH1 0xA0 DUP16 ADD DUP3 DUP2 MSTORE SWAP5 DUP3 MSTORE SWAP10 DUP2 SWAP1 MSTORE DUP15 SWAP1 KECCAK256 SWAP13 MLOAD DUP14 SLOAD SWAP1 DUP13 AND PUSH1 0x1 PUSH1 0x1 PUSH1 0xA0 SHL SUB NOT SWAP2 DUP3 AND OR DUP15 SSTORE SWAP8 MLOAD PUSH1 0x1 DUP15 ADD DUP1 SLOAD SWAP2 SWAP1 SWAP13 AND SWAP9 AND SWAP8 SWAP1 SWAP8 OR SWAP1 SWAP10 SSTORE SWAP2 MLOAD PUSH1 0x2 SWAP1 SWAP11 ADD DUP1 SLOAD SWAP6 MLOAD SWAP7 MLOAD SWAP3 MLOAD ISZERO ISZERO PUSH1 0x1 PUSH1 0xC8 SHL MUL PUSH1 0xFF PUSH1 0xC8 SHL NOT SWAP4 ISZERO ISZERO PUSH1 0x1 PUSH1 0xC0 SHL MUL SWAP4 SWAP1 SWAP4 AND PUSH2 0xFFFF PUSH1 0xC0 SHL NOT SWAP8 SWAP1 SWAP10 AND PUSH1 0x1 PUSH1 0x80 SHL MUL PUSH1 0x1 PUSH1 0x1 PUSH1 0xC0 SHL SUB NOT SWAP1 SWAP7 AND SWAP11 SWAP1 SWAP5 AND SWAP10 SWAP1 SWAP10 OR SWAP4 SWAP1 SWAP4 OR SWAP4 SWAP1 SWAP4 AND SWAP5 SWAP1 SWAP5 OR OR SWAP1 SWAP3 SSTORE SWAP3 SLOAD SWAP4 MLOAD SWAP3 SWAP4 SWAP2 SWAP3 PUSH32 0x9405AD0A6208539879349284D71265479B1623846F70303DA1F9890D6E8C10A7 SWAP2 PUSH2 0x71A SWAP2 SWAP1 DUP2 MSTORE PUSH1 0x20 ADD SWAP1 JUMP JUMPDEST PUSH1 0x40 MLOAD DUP1 SWAP2 SUB SWAP1 LOG4 POP JUMP JUMPDEST PUSH0 PUSH1 0x20 DUP3 DUP5 SUB SLT ISZERO PUSH2 0x735 JUMPI PUSH0 PUSH0 REVERT JUMPDEST POP CALLDATALOAD SWAP2 SWAP1 POP JUMP JUMPDEST PUSH0 PUSH0 PUSH0 PUSH1 0x40 DUP5 DUP7 SUB SLT ISZERO PUSH2 0x74E JUMPI PUSH0 PUSH0 REVERT JUMPDEST DUP4 CALLDATALOAD SWAP3 POP PUSH1 0x20 DUP5 ADD CALLDATALOAD PUSH8 0xFFFFFFFFFFFFFFFF DUP2 GT ISZERO PUSH2 0x76B JUMPI PUSH0 PUSH0 REVERT JUMPDEST DUP5 ADD PUSH1 0x1F DUP2 ADD DUP7 SGT PUSH2 0x77B JUMPI PUSH0 PUSH0 REVERT JUMPDEST DUP1 CALLDATALOAD PUSH8 0xFFFFFFFFFFFFFFFF DUP2 GT ISZERO PUSH2 0x791 JUMPI PUSH0 PUSH0 REVERT JUMPDEST DUP7 PUSH1 0x20 DUP3 DUP5 ADD ADD GT ISZERO PUSH2 0x7A2 JUMPI PUSH0 PUSH0 REVERT JUMPDEST SWAP4 SWAP7 PUSH1 0x20 SWAP2 SWAP1 SWAP2 ADD SWAP6 POP SWAP3 SWAP4 POP POP POP JUMP JUMPDEST PUSH0 PUSH1 0x20 DUP3 DUP5 SUB SLT ISZERO PUSH2 0x7C3 JUMPI PUSH0 PUSH0 REVERT JUMPDEST DUP2 CALLDATALOAD PUSH1 0x1 PUSH1 0x1 PUSH1 0xA0 SHL SUB DUP2 AND DUP2 EQ PUSH2 0x7D9 JUMPI PUSH0 PUSH0 REVERT JUMPDEST SWAP4 SWAP3 POP POP POP JUMP JUMPDEST PUSH4 0x4E487B71 PUSH1 0xE0 SHL PUSH0 MSTORE PUSH1 0x11 PUSH1 0x4 MSTORE PUSH1 0x24 PUSH0 REVERT JUMPDEST DUP1 DUP3 ADD DUP1 DUP3 GT ISZERO PUSH2 0x807 JUMPI PUSH2 0x807 PUSH2 0x7E0 JUMP JUMPDEST SWAP3 SWAP2 POP POP JUMP JUMPDEST PUSH0 PUSH1 0x1 DUP3 ADD PUSH2 0x81E JUMPI PUSH2 0x81E PUSH2 0x7E0 JUMP JUMPDEST POP PUSH1 0x1 ADD SWAP1 JUMP JUMPDEST PUSH4 0x4E487B71 PUSH1 0xE0 SHL PUSH0 MSTORE PUSH1 0x41 PUSH1 0x4 MSTORE PUSH1 0x24 PUSH0 REVERT JUMPDEST PUSH1 0x1 DUP2 DUP2 SHR SWAP1 DUP3 AND DUP1 PUSH2 0x84D JUMPI PUSH1 0x7F DUP3 AND SWAP2 POP JUMPDEST PUSH1 0x20 DUP3 LT DUP2 SUB PUSH2 0x86B JUMPI PUSH4 0x4E487B71 PUSH1 0xE0 SHL PUSH0 MSTORE PUSH1 0x22 PUSH1 0x4 MSTORE PUSH1 0x24 PUSH0 REVERT JUMPDEST POP SWAP2 SWAP1 POP JUMP JUMPDEST PUSH1 0x1F DUP3 GT ISZERO PUSH2 0x8B8 JUMPI DUP1 PUSH0 MSTORE PUSH1 0x20 PUSH0 KECCAK256 PUSH1 0x1F DUP5 ADD PUSH1 0x5 SHR DUP2 ADD PUSH1 0x20 DUP6 LT ISZERO PUSH2 0x896 JUMPI POP DUP1 JUMPDEST PUSH1 0x1F DUP5 ADD PUSH1 0x5 SHR DUP3 ADD SWAP2 POP JUMPDEST DUP2 DUP2 LT ISZERO PUSH2 0x8B5 JUMPI PUSH0 DUP2 SSTORE PUSH1 0x1 ADD PUSH2 0x8A2 JUMP JUMPDEST POP POP JUMPDEST POP POP POP JUMP JUMPDEST DUP2 MLOAD PUSH8 0xFFFFFFFFFFFFFFFF DUP2 GT ISZERO PUSH2 0x8D7 JUMPI PUSH2 0x8D7 PUSH2 0x825 JUMP JUMPDEST PUSH2 0x8EB DUP2 PUSH2 0x8E5 DUP5 SLOAD PUSH2 0x839 JUMP JUMPDEST DUP5 PUSH2 0x871 JUMP JUMPDEST PUSH1 0x20 PUSH1 0x1F DUP3 GT PUSH1 0x1 DUP2 EQ PUSH2 0x91D JUMPI PUSH0 DUP4 ISZERO PUSH2 0x906 JUMPI POP DUP5 DUP3 ADD MLOAD JUMPDEST PUSH0 NOT PUSH1 0x3 DUP6 SWAP1 SHL SHR NOT AND PUSH1 0x1 DUP5 SWAP1 SHL OR DUP5 SSTORE PUSH2 0x8B5 JUMP JUMPDEST PUSH0 DUP5 DUP2 MSTORE PUSH1 0x20 DUP2 KECCAK256 PUSH1 0x1F NOT DUP6 AND SWAP2 JUMPDEST DUP3 DUP2 LT ISZERO PUSH2 0x94C JUMPI DUP8 DUP6 ADD MLOAD DUP3 SSTORE PUSH1 0x20 SWAP5 DUP6 ADD SWAP5 PUSH1 0x1 SWAP1 SWAP3 ADD SWAP2 ADD PUSH2 0x92C JUMP JUMPDEST POP DUP5 DUP3 LT ISZERO PUSH2 0x969 JUMPI DUP7 DUP5 ADD MLOAD PUSH0 NOT PUSH1 0x3 DUP8 SWAP1 SHL PUSH1 0xF8 AND SHR NOT AND DUP2 SSTORE JUMPDEST POP POP POP POP PUSH1 0x1 SWAP1 DUP2 SHL ADD SWAP1 SSTORE POP JUMP INVALID LOG2 PUSH5 0x6970667358 0x22 SLT KECCAK256 DUP12 EXTCODECOPY RETURN PUSH26 0x315D49716F352AE1C08F510C56493056B30656BF6606C5CDBAD4 EXTSTATICCALL 0xB5 PUSH5 0x736F6C6343 STOP ADDMOD 0x1E STOP CALLER "
				},
				"gasEstimates": {
					"creation": {
						"codeDepositCost": "495600",
						"executionCost": "528",
						"totalCost": "496128"
					},
					"external": {
						"createEscrow(address)": "104216",
						"createMilestone(uint256,string)": "infinite",
						"escrowCounter()": "2282",
						"milestoneCounter()": "2348",
						"pendingWithdrawals(address)": "2491",
						"refundEscrow(uint256)": "61449",
						"releasePayment(uint256)": "61538",
						"withdraw()": "infinite"
					}
				},
				"methodIdentifiers": {
					"createEscrow(address)": "f6a8419e",
					"createMilestone(uint256,string)": "44d0be64",
					"escrowCounter()": "c7ceafea",
					"milestoneCounter()": "f6baaec7",
					"pendingWithdrawals(address)": "f3f43703",
					"refundEscrow(uint256)": "356f9dfd",
					"releasePayment(uint256)": "88685cd9",
					"withdraw()": "3ccfd60b"
				}
			},
			"storageLayout": {
				"storage": [
					{
						"astId": 28,
						"contract": "Payment module optimzed.sol:PaymentModule",
						"label": "escrows",
						"offset": 0,
						"slot": "0",
						"type": "t_mapping(t_uint256,t_struct(Escrow)14_storage)"
					},
					{
						"astId": 33,
						"contract": "Payment module optimzed.sol:PaymentModule",
						"label": "milestones",
						"offset": 0,
						"slot": "1",
						"type": "t_mapping(t_uint256,t_struct(Milestone)23_storage)"
					},
					{
						"astId": 37,
						"contract": "Payment module optimzed.sol:PaymentModule",
						"label": "pendingWithdrawals",
						"offset": 0,
						"slot": "2",
						"type": "t_mapping(t_address,t_uint256)"
					},
					{
						"astId": 39,
						"contract": "Payment module optimzed.sol:PaymentModule",
						"label": "escrowCounter",
						"offset": 0,
						"slot": "3",
						"type": "t_uint256"
					},
					{
						"astId": 41,
						"contract": "Payment module optimzed.sol:PaymentModule",
						"label": "milestoneCounter",
						"offset": 0,
						"slot": "4",
						"type": "t_uint256"
					}
				],
				"types": {
					"t_address": {
						"encoding": "inplace",
						"label": "address",
						"numberOfBytes": "20"
					},
					"t_bool": {
						"encoding": "inplace",
						"label": "bool",
						"numberOfBytes": "1"
					},
					"t_mapping(t_address,t_uint256)": {
						"encoding": "mapping",
						"key": "t_address",
						"label": "mapping(address => uint256)",
						"numberOfBytes": "32",
						"value": "t_uint256"
					},
					"t_mapping(t_uint256,t_struct(Escrow)14_storage)": {
						"encoding": "mapping",
						"key": "t_uint256",
						"label": "mapping(uint256 => struct PaymentModule.Escrow)",
						"numberOfBytes": "32",
						"value": "t_struct(Escrow)14_storage"
					},
					"t_mapping(t_uint256,t_struct(Milestone)23_storage)": {
						"encoding": "mapping",
						"key": "t_uint256",
						"label": "mapping(uint256 => struct PaymentModule.Milestone)",
						"numberOfBytes": "32",
						"value": "t_struct(Milestone)23_storage"
					},
					"t_string_storage": {
						"encoding": "bytes",
						"label": "string",
						"numberOfBytes": "32"
					},
					"t_struct(Escrow)14_storage": {
						"encoding": "inplace",
						"label": "struct PaymentModule.Escrow",
						"members": [
							{
								"astId": 3,
								"contract": "Payment module optimzed.sol:PaymentModule",
								"label": "payer",
								"offset": 0,
								"slot": "0",
								"type": "t_address"
							},
							{
								"astId": 5,
								"contract": "Payment module optimzed.sol:PaymentModule",
								"label": "payee",
								"offset": 0,
								"slot": "1",
								"type": "t_address"
							},
							{
								"astId": 7,
								"contract": "Payment module optimzed.sol:PaymentModule",
								"label": "amount",
								"offset": 0,
								"slot": "2",
								"type": "t_uint128"
							},
							{
								"astId": 9,
								"contract": "Payment module optimzed.sol:PaymentModule",
								"label": "escrowId",
								"offset": 16,
								"slot": "2",
								"type": "t_uint64"
							},
							{
								"astId": 11,
								"contract": "Payment module optimzed.sol:PaymentModule",
								"label": "released",
								"offset": 24,
								"slot": "2",
								"type": "t_bool"
							},
							{
								"astId": 13,
								"contract": "Payment module optimzed.sol:PaymentModule",
								"label": "refunded",
								"offset": 25,
								"slot": "2",
								"type": "t_bool"
							}
						],
						"numberOfBytes": "96"
					},
					"t_struct(Milestone)23_storage": {
						"encoding": "inplace",
						"label": "struct PaymentModule.Milestone",
						"members": [
							{
								"astId": 16,
								"contract": "Payment module optimzed.sol:PaymentModule",
								"label": "milestoneId",
								"offset": 0,
								"slot": "0",
								"type": "t_uint64"
							},
							{
								"astId": 18,
								"contract": "Payment module optimzed.sol:PaymentModule",
								"label": "escrowId",
								"offset": 8,
								"slot": "0",
								"type": "t_uint64"
							},
							{
								"astId": 20,
								"contract": "Payment module optimzed.sol:PaymentModule",
								"label": "completed",
								"offset": 16,
								"slot": "0",
								"type": "t_bool"
							},
							{
								"astId": 22,
								"contract": "Payment module optimzed.sol:PaymentModule",
								"label": "description",
								"offset": 0,
								"slot": "1",
								"type": "t_string_storage"
							}
						],
						"numberOfBytes": "64"
					},
					"t_uint128": {
						"encoding": "inplace",
						"label": "uint128",
						"numberOfBytes": "16"
					},
					"t_uint256": {
						"encoding": "inplace",
						"label": "uint256",
						"numberOfBytes": "32"
					},
					"t_uint64": {
						"encoding": "inplace",
						"label": "uint64",
						"numberOfBytes": "8"
					}
				}
			},
			"userdoc": {
				"kind": "user",
				"methods": {},
				"version": 1
			}
		}
	}
}