{
	"unoptimized material supply contract.sol": {
		"MaterialSupply": {
			"abi": [
				{
					"inputs": [
						{
							"internalType": "string",
							"name": "_name",
							"type": "string"
						},
						{
							"internalType": "uint256",
							"name": "_quantity",
							"type": "uint256"
						}
					],
					"name": "addMaterial",
					"outputs": [],
					"stateMutability": "nonpayable",
					"type": "function"
				},
				{
					"inputs": [
						{
							"internalType": "uint256",
							"name": "_materialId",
							"type": "uint256"
						}
					],
					"name": "deliverMaterial",
					"outputs": [],
					"stateMutability": "nonpayable",
					"type": "function"
				},
				{
					"inputs": [
						{
							"internalType": "uint256",
							"name": "_materialId",
							"type": "uint256"
						}
					],
					"name": "findMaterial",
					"outputs": [
						{
							"components": [
								{
									"internalType": "uint256",
									"name": "materialId",
									"type": "uint256"
								},
								{
									"internalType": "string",
									"name": "name",
									"type": "string"
								},
								{
									"internalType": "uint256",
									"name": "quantity",
									"type": "uint256"
								},
								{
									"internalType": "address",
									"name": "supplier",
									"type": "address"
								},
								{
									"internalType": "bool",
									"name": "delivered",
									"type": "bool"
								}
							],
							"internalType": "struct MaterialSupply.Material",
							"name": "",
							"type": "tuple"
						}
					],
					"stateMutability": "view",
					"type": "function"
				},
				{
					"inputs": [],
					"name": "materialCounter",
					"outputs": [
						{
							"internalType": "uint256",
							"name": "",
							"type": "uint256"
						}
					],
					"stateMutability": "view",
					"type": "function"
				},
				{
					"inputs": [
						{
							"internalType": "uint256",
							"name": "",
							"type": "uint256"
						}
					],
					"name": "materials",
					"outputs": [
						{
							"internalType": "uint256",
							"name": "materialId",
							"type": "uint256"
						},
						{
							"internalType": "string",
							"name": "name",
							"type": "string"
						},
						{
							"internalType": "uint256",
							"name": "quantity",
							"type": "uint256"
						},
						{
							"internalType": "address",
							"name": "supplier",
							"type": "address"
						},
						{
							"internalType": "bool",
							"name": "delivered",
							"type": "bool"
						}
					],
					"stateMutability": "view",
					"type": "function"
				},
				{
					"inputs": [
						{
							"internalType": "string",
							"name": "_name",
							"type": "string"
						}
					],
					"name": "registerSupplier",
					"outputs": [],
					"stateMutability": "nonpayable",
					"type": "function"
				},
				{
					"inputs": [
						{
							"internalType": "uint256",
							"name": "",
							"type": "uint256"
						}
					],
					"name": "suppliers",
					"outputs": [
						{
							"internalType": "address",
							"name": "supplierAddress",
							"type": "address"
						},
						{
							"internalType": "string",
							"name": "name",
							"type": "string"
						},
						{
							"internalType": "bool",
							"name": "isRegistered",
							"type": "bool"
						}
					],
					"stateMutability": "view",
					"type": "function"
				}
			],
			"devdoc": {
				"kind": "dev",
				"methods": {},
				"version": 1
			},
			"evm": {
				"assembly": "    /* \"unoptimized material supply contract.sol\":61:1472  contract MaterialSupply {... */\n  mstore(0x40, 0x80)\n  callvalue\n  dup1\n  iszero\n  tag_1\n  jumpi\n  revert(0x00, 0x00)\ntag_1:\n  pop\n  dataSize(sub_0)\n  dup1\n  dataOffset(sub_0)\n  0x00\n  codecopy\n  0x00\n  return\nstop\n\nsub_0: assembly {\n        /* \"unoptimized material supply contract.sol\":61:1472  contract MaterialSupply {... */\n      mstore(0x40, 0x80)\n      callvalue\n      dup1\n      iszero\n      tag_1\n      jumpi\n      revert(0x00, 0x00)\n    tag_1:\n      pop\n      jumpi(tag_2, lt(calldatasize, 0x04))\n      shr(0xe0, calldataload(0x00))\n      dup1\n      0x83e32b3f\n      gt\n      tag_10\n      jumpi\n      dup1\n      0x83e32b3f\n      eq\n      tag_6\n      jumpi\n      dup1\n      0xaad7fb3c\n      eq\n      tag_7\n      jumpi\n      dup1\n      0xc8e7060c\n      eq\n      tag_8\n      jumpi\n      dup1\n      0xcea23121\n      eq\n      tag_9\n      jumpi\n      revert(0x00, 0x00)\n    tag_10:\n      dup1\n      0x32e3c0db\n      eq\n      tag_3\n      jumpi\n      dup1\n      0x7a8e8526\n      eq\n      tag_4\n      jumpi\n      dup1\n      0x7fe03487\n      eq\n      tag_5\n      jumpi\n    tag_2:\n      revert(0x00, 0x00)\n        /* \"unoptimized material supply contract.sol\":658:851  function addMaterial(string memory _name, uint256 _quantity) public {... */\n    tag_3:\n      tag_11\n      tag_12\n      calldatasize\n      0x04\n      tag_13\n      jump\t// in\n    tag_12:\n      tag_14\n      jump\t// in\n    tag_11:\n      stop\n        /* \"unoptimized material supply contract.sol\":406:433  Material[] public materials */\n    tag_4:\n      tag_15\n      tag_16\n      calldatasize\n      0x04\n      tag_17\n      jump\t// in\n    tag_16:\n      tag_18\n      jump\t// in\n    tag_15:\n      mload(0x40)\n      tag_19\n      swap6\n      swap5\n      swap4\n      swap3\n      swap2\n      swap1\n      tag_20\n      jump\t// in\n    tag_19:\n      mload(0x40)\n      dup1\n      swap2\n      sub\n      swap1\n      return\n        /* \"unoptimized material supply contract.sol\":884:1133  function deliverMaterial(uint256 _materialId) public {... */\n    tag_5:\n      tag_11\n      tag_22\n      calldatasize\n      0x04\n      tag_17\n      jump\t// in\n    tag_22:\n      tag_23\n      jump\t// in\n        /* \"unoptimized material supply contract.sol\":442:472  uint256 public materialCounter */\n    tag_6:\n      tag_24\n      sload(0x02)\n      dup2\n      jump\n    tag_24:\n      mload(0x40)\n        /* \"#utility.yul\":2537:2562   */\n      swap1\n      dup2\n      mstore\n        /* \"#utility.yul\":2525:2527   */\n      0x20\n        /* \"#utility.yul\":2510:2528   */\n      add\n        /* \"unoptimized material supply contract.sol\":442:472  uint256 public materialCounter */\n      tag_19\n        /* \"#utility.yul\":2391:2568   */\n      jump\n        /* \"unoptimized material supply contract.sol\":507:629  function registerSupplier(string memory _name) public {... */\n    tag_7:\n      tag_11\n      tag_29\n      calldatasize\n      0x04\n      tag_30\n      jump\t// in\n    tag_29:\n      tag_31\n      jump\t// in\n        /* \"unoptimized material supply contract.sol\":1163:1469  function findMaterial(uint256 _materialId) public view returns (Material memory) {... */\n    tag_8:\n      tag_32\n      tag_33\n      calldatasize\n      0x04\n      tag_17\n      jump\t// in\n    tag_33:\n      tag_34\n      jump\t// in\n    tag_32:\n      mload(0x40)\n      tag_19\n      swap2\n      swap1\n      tag_36\n      jump\t// in\n        /* \"unoptimized material supply contract.sol\":372:399  Supplier[] public suppliers */\n    tag_9:\n      tag_37\n      tag_38\n      calldatasize\n      0x04\n      tag_17\n      jump\t// in\n    tag_38:\n      tag_39\n      jump\t// in\n    tag_37:\n      mload(0x40)\n      tag_19\n      swap4\n      swap3\n      swap2\n      swap1\n      tag_41\n      jump\t// in\n        /* \"unoptimized material supply contract.sol\":658:851  function addMaterial(string memory _name, uint256 _quantity) public {... */\n    tag_14:\n        /* \"unoptimized material supply contract.sol\":737:752  materialCounter */\n      0x02\n        /* \"unoptimized material supply contract.sol\":737:754  materialCounter++ */\n      dup1\n      sload\n      swap1\n        /* \"unoptimized material supply contract.sol\":737:752  materialCounter */\n      0x00\n        /* \"unoptimized material supply contract.sol\":737:754  materialCounter++ */\n      tag_43\n      dup4\n      tag_44\n      jump\t// in\n    tag_43:\n      swap1\n      swap2\n      sstore\n      pop\n      pop\n        /* \"unoptimized material supply contract.sol\":780:842  Material(materialCounter, _name, _quantity, msg.sender, false) */\n      0x40\n      dup1\n      mload\n      0xa0\n      dup2\n      add\n      dup3\n      mstore\n        /* \"unoptimized material supply contract.sol\":789:804  materialCounter */\n      sload(0x02)\n        /* \"unoptimized material supply contract.sol\":780:842  Material(materialCounter, _name, _quantity, msg.sender, false) */\n      dup2\n      mstore\n      0x20\n      dup2\n      add\n      dup5\n      dup2\n      mstore\n      swap2\n      dup2\n      add\n      dup4\n      swap1\n      mstore\n        /* \"unoptimized material supply contract.sol\":824:834  msg.sender */\n      caller\n        /* \"unoptimized material supply contract.sol\":780:842  Material(materialCounter, _name, _quantity, msg.sender, false) */\n      0x60\n      dup3\n      add\n      mstore\n      0x00\n      0x80\n      dup3\n      add\n      dup2\n      swap1\n      mstore\n        /* \"unoptimized material supply contract.sol\":765:774  materials */\n      0x01\n        /* \"unoptimized material supply contract.sol\":765:843  materials.push(Material(materialCounter, _name, _quantity, msg.sender, false)) */\n      dup1\n      sload\n      dup1\n      dup3\n      add\n      dup3\n      sstore\n      swap2\n      mstore\n      dup2\n      mload\n      0x04\n      swap1\n      swap2\n      mul\n      0xb10e2d527612073b26eecdfd717e6a320cf44b4afac2b0732d9fcbe2b7fa0cf6\n      dup2\n      add\n      swap2\n      dup3\n      sstore\n      swap3\n      mload\n        /* \"unoptimized material supply contract.sol\":780:842  Material(materialCounter, _name, _quantity, msg.sender, false) */\n      swap2\n      swap3\n        /* \"unoptimized material supply contract.sol\":765:843  materials.push(Material(materialCounter, _name, _quantity, msg.sender, false)) */\n      swap1\n      swap2\n      0xb10e2d527612073b26eecdfd717e6a320cf44b4afac2b0732d9fcbe2b7fa0cf7\n      swap1\n      swap2\n      add\n      swap1\n      tag_46\n      swap1\n      dup3\n      tag_47\n      jump\t// in\n    tag_46:\n      pop\n      0x40\n      dup3\n      add\n      mload\n      0x02\n      dup3\n      add\n      sstore\n      0x60\n      dup3\n      add\n      mload\n      0x03\n      swap1\n      swap2\n      add\n      dup1\n      sload\n      0x80\n      swap1\n      swap4\n      add\n      mload\n      iszero\n      iszero\n      shl(0xa0, 0x01)\n      mul\n      not(sub(shl(0xa8, 0x01), 0x01))\n      swap1\n      swap4\n      and\n      sub(shl(0xa0, 0x01), 0x01)\n      swap1\n      swap3\n      and\n      swap2\n      swap1\n      swap2\n      or\n      swap2\n      swap1\n      swap2\n      or\n      swap1\n      sstore\n      pop\n      pop\n        /* \"unoptimized material supply contract.sol\":658:851  function addMaterial(string memory _name, uint256 _quantity) public {... */\n      jump\t// out\n        /* \"unoptimized material supply contract.sol\":406:433  Material[] public materials */\n    tag_18:\n      0x01\n      dup2\n      dup2\n      sload\n      dup2\n      lt\n      tag_48\n      jumpi\n      0x00\n      dup1\n      revert\n    tag_48:\n      0x00\n      swap2\n      dup3\n      mstore\n      0x20\n      swap1\n      swap2\n      keccak256\n      0x04\n      swap1\n      swap2\n      mul\n      add\n      dup1\n      sload\n      0x01\n      dup3\n      add\n      dup1\n      sload\n      swap2\n      swap4\n      pop\n      swap1\n      tag_50\n      swap1\n      tag_51\n      jump\t// in\n    tag_50:\n      dup1\n      0x1f\n      add\n      0x20\n      dup1\n      swap2\n      div\n      mul\n      0x20\n      add\n      mload(0x40)\n      swap1\n      dup2\n      add\n      0x40\n      mstore\n      dup1\n      swap3\n      swap2\n      swap1\n      dup2\n      dup2\n      mstore\n      0x20\n      add\n      dup3\n      dup1\n      sload\n      tag_52\n      swap1\n      tag_51\n      jump\t// in\n    tag_52:\n      dup1\n      iszero\n      tag_53\n      jumpi\n      dup1\n      0x1f\n      lt\n      tag_54\n      jumpi\n      0x0100\n      dup1\n      dup4\n      sload\n      div\n      mul\n      dup4\n      mstore\n      swap2\n      0x20\n      add\n      swap2\n      jump(tag_53)\n    tag_54:\n      dup3\n      add\n      swap2\n      swap1\n      0x00\n      mstore\n      keccak256(0x00, 0x20)\n      swap1\n    tag_55:\n      dup2\n      sload\n      dup2\n      mstore\n      swap1\n      0x01\n      add\n      swap1\n      0x20\n      add\n      dup1\n      dup4\n      gt\n      tag_55\n      jumpi\n      dup3\n      swap1\n      sub\n      0x1f\n      and\n      dup3\n      add\n      swap2\n    tag_53:\n      pop\n      pop\n      pop\n      pop\n      0x02\n      dup4\n      add\n      sload\n      0x03\n      swap1\n      swap4\n      add\n      sload\n      swap2\n      swap3\n      swap2\n      sub(shl(0xa0, 0x01), 0x01)\n      dup2\n      and\n      swap2\n      pop\n      shl(0xa0, 0x01)\n      swap1\n      div\n      0xff\n      and\n      dup6\n      jump\t// out\n        /* \"unoptimized material supply contract.sol\":884:1133  function deliverMaterial(uint256 _materialId) public {... */\n    tag_23:\n        /* \"unoptimized material supply contract.sol\":953:959  uint i */\n      0x00\n        /* \"unoptimized material supply contract.sol\":948:1126  for (uint i = 0; i < materials.length; i++) {... */\n    tag_57:\n        /* \"unoptimized material supply contract.sol\":969:978  materials */\n      0x01\n        /* \"unoptimized material supply contract.sol\":969:985  materials.length */\n      sload\n        /* \"unoptimized material supply contract.sol\":965:985  i < materials.length */\n      dup2\n      lt\n        /* \"unoptimized material supply contract.sol\":948:1126  for (uint i = 0; i < materials.length; i++) {... */\n      iszero\n      tag_58\n      jumpi\n        /* \"unoptimized material supply contract.sol\":1038:1049  _materialId */\n      dup2\n        /* \"unoptimized material supply contract.sol\":1011:1020  materials */\n      0x01\n        /* \"unoptimized material supply contract.sol\":1021:1022  i */\n      dup3\n        /* \"unoptimized material supply contract.sol\":1011:1023  materials[i] */\n      dup2\n      sload\n      dup2\n      lt\n      tag_61\n      jumpi\n      tag_61\n      tag_62\n      jump\t// in\n    tag_61:\n      swap1\n      0x00\n      mstore\n      keccak256(0x00, 0x20)\n      swap1\n      0x04\n      mul\n      add\n        /* \"unoptimized material supply contract.sol\":1011:1034  materials[i].materialId */\n      0x00\n      add\n      sload\n        /* \"unoptimized material supply contract.sol\":1011:1049  materials[i].materialId == _materialId */\n      sub\n        /* \"unoptimized material supply contract.sol\":1007:1115  if (materials[i].materialId == _materialId) {... */\n      tag_64\n      jumpi\n        /* \"unoptimized material supply contract.sol\":1095:1099  true */\n      0x01\n        /* \"unoptimized material supply contract.sol\":1070:1079  materials */\n      dup1\n        /* \"unoptimized material supply contract.sol\":1080:1081  i */\n      dup3\n        /* \"unoptimized material supply contract.sol\":1070:1082  materials[i] */\n      dup2\n      sload\n      dup2\n      lt\n      tag_66\n      jumpi\n      tag_66\n      tag_62\n      jump\t// in\n    tag_66:\n      swap1\n      0x00\n      mstore\n      keccak256(0x00, 0x20)\n      swap1\n      0x04\n      mul\n      add\n        /* \"unoptimized material supply contract.sol\":1070:1092  materials[i].delivered */\n      0x03\n      add\n      0x14\n        /* \"unoptimized material supply contract.sol\":1070:1099  materials[i].delivered = true */\n      0x0100\n      exp\n      dup2\n      sload\n      dup2\n      0xff\n      mul\n      not\n      and\n      swap1\n      dup4\n      iszero\n      iszero\n      mul\n      or\n      swap1\n      sstore\n      pop\n        /* \"unoptimized material supply contract.sol\":1007:1115  if (materials[i].materialId == _materialId) {... */\n    tag_64:\n        /* \"unoptimized material supply contract.sol\":987:990  i++ */\n      0x01\n      add\n        /* \"unoptimized material supply contract.sol\":948:1126  for (uint i = 0; i < materials.length; i++) {... */\n      jump(tag_57)\n    tag_58:\n      pop\n        /* \"unoptimized material supply contract.sol\":884:1133  function deliverMaterial(uint256 _materialId) public {... */\n      pop\n      jump\t// out\n        /* \"unoptimized material supply contract.sol\":507:629  function registerSupplier(string memory _name) public {... */\n    tag_31:\n        /* \"unoptimized material supply contract.sol\":587:620  Supplier(msg.sender, _name, true) */\n      0x40\n      dup1\n      mload\n      0x60\n      dup2\n      add\n      dup3\n      mstore\n        /* \"unoptimized material supply contract.sol\":596:606  msg.sender */\n      caller\n        /* \"unoptimized material supply contract.sol\":587:620  Supplier(msg.sender, _name, true) */\n      dup2\n      mstore\n      0x20\n      dup2\n      add\n      dup4\n      dup2\n      mstore\n        /* \"unoptimized material supply contract.sol\":615:619  true */\n      0x01\n        /* \"unoptimized material supply contract.sol\":587:620  Supplier(msg.sender, _name, true) */\n      swap3\n      dup3\n      add\n      dup4\n      swap1\n      mstore\n      0x00\n        /* \"unoptimized material supply contract.sol\":572:621  suppliers.push(Supplier(msg.sender, _name, true)) */\n      dup1\n      sload\n      swap4\n      dup5\n      add\n      dup2\n      sstore\n      dup1\n      mstore\n      dup2\n      mload\n      0x290decd9548b62a8d60345a988386fc84ba6bc95484008f6362f93160ef3e563\n      0x03\n      swap1\n      swap5\n      mul\n      swap4\n      dup5\n      add\n      dup1\n      sload\n      not(sub(shl(0xa0, 0x01), 0x01))\n      and\n      sub(shl(0xa0, 0x01), 0x01)\n      swap1\n      swap3\n      and\n      swap2\n      swap1\n      swap2\n      or\n      dup2\n      sstore\n      swap1\n      mload\n        /* \"unoptimized material supply contract.sol\":587:620  Supplier(msg.sender, _name, true) */\n      swap2\n      swap3\n        /* \"unoptimized material supply contract.sol\":572:621  suppliers.push(Supplier(msg.sender, _name, true)) */\n      swap1\n      swap2\n      0x290decd9548b62a8d60345a988386fc84ba6bc95484008f6362f93160ef3e564\n      swap1\n      swap2\n      add\n      swap1\n      tag_70\n      swap1\n      dup3\n      tag_47\n      jump\t// in\n    tag_70:\n      pop\n      0x40\n      swap2\n      swap1\n      swap2\n      add\n      mload\n      0x02\n      swap1\n      swap2\n      add\n      dup1\n      sload\n      not(0xff)\n      and\n      swap2\n      iszero\n      iszero\n      swap2\n      swap1\n      swap2\n      or\n      swap1\n      sstore\n      pop\n        /* \"unoptimized material supply contract.sol\":507:629  function registerSupplier(string memory _name) public {... */\n      jump\t// out\n        /* \"unoptimized material supply contract.sol\":1163:1469  function findMaterial(uint256 _materialId) public view returns (Material memory) {... */\n    tag_34:\n        /* \"unoptimized material supply contract.sol\":1227:1242  Material memory */\n      tag_71\n      mload(0x40)\n      dup1\n      0xa0\n      add\n      0x40\n      mstore\n      dup1\n      0x00\n      dup2\n      mstore\n      0x20\n      add\n      0x60\n      dup2\n      mstore\n      0x20\n      add\n      0x00\n      dup2\n      mstore\n      0x20\n      add\n      and(sub(shl(0xa0, 0x01), 0x01), 0x00)\n      dup2\n      mstore\n      0x20\n      add\n      iszero(iszero(0x00))\n      dup2\n      mstore\n      pop\n      swap1\n      jump\n    tag_71:\n        /* \"unoptimized material supply contract.sol\":1260:1266  uint i */\n      0x00\n        /* \"unoptimized material supply contract.sol\":1255:1423  for (uint i = 0; i < materials.length; i++) {... */\n    tag_74:\n        /* \"unoptimized material supply contract.sol\":1276:1285  materials */\n      0x01\n        /* \"unoptimized material supply contract.sol\":1276:1292  materials.length */\n      sload\n        /* \"unoptimized material supply contract.sol\":1272:1292  i < materials.length */\n      dup2\n      lt\n        /* \"unoptimized material supply contract.sol\":1255:1423  for (uint i = 0; i < materials.length; i++) {... */\n      iszero\n      tag_75\n      jumpi\n        /* \"unoptimized material supply contract.sol\":1345:1356  _materialId */\n      dup3\n        /* \"unoptimized material supply contract.sol\":1318:1327  materials */\n      0x01\n        /* \"unoptimized material supply contract.sol\":1328:1329  i */\n      dup3\n        /* \"unoptimized material supply contract.sol\":1318:1330  materials[i] */\n      dup2\n      sload\n      dup2\n      lt\n      tag_78\n      jumpi\n      tag_78\n      tag_62\n      jump\t// in\n    tag_78:\n      swap1\n      0x00\n      mstore\n      keccak256(0x00, 0x20)\n      swap1\n      0x04\n      mul\n      add\n        /* \"unoptimized material supply contract.sol\":1318:1341  materials[i].materialId */\n      0x00\n      add\n      sload\n        /* \"unoptimized material supply contract.sol\":1318:1356  materials[i].materialId == _materialId */\n      sub\n        /* \"unoptimized material supply contract.sol\":1314:1412  if (materials[i].materialId == _materialId) {... */\n      tag_80\n      jumpi\n        /* \"unoptimized material supply contract.sol\":1384:1393  materials */\n      0x01\n        /* \"unoptimized material supply contract.sol\":1394:1395  i */\n      dup2\n        /* \"unoptimized material supply contract.sol\":1384:1396  materials[i] */\n      dup2\n      sload\n      dup2\n      lt\n      tag_82\n      jumpi\n      tag_82\n      tag_62\n      jump\t// in\n    tag_82:\n      swap1\n      0x00\n      mstore\n      keccak256(0x00, 0x20)\n      swap1\n      0x04\n      mul\n      add\n        /* \"unoptimized material supply contract.sol\":1377:1396  return materials[i] */\n      mload(0x40)\n      dup1\n      0xa0\n      add\n      0x40\n      mstore\n      swap1\n      dup2\n      0x00\n      dup3\n      add\n      sload\n      dup2\n      mstore\n      0x20\n      add\n      0x01\n      dup3\n      add\n      dup1\n      sload\n      tag_84\n      swap1\n      tag_51\n      jump\t// in\n    tag_84:\n      dup1\n      0x1f\n      add\n      0x20\n      dup1\n      swap2\n      div\n      mul\n      0x20\n      add\n      mload(0x40)\n      swap1\n      dup2\n      add\n      0x40\n      mstore\n      dup1\n      swap3\n      swap2\n      swap1\n      dup2\n      dup2\n      mstore\n      0x20\n      add\n      dup3\n      dup1\n      sload\n      tag_85\n      swap1\n      tag_51\n      jump\t// in\n    tag_85:\n      dup1\n      iszero\n      tag_86\n      jumpi\n      dup1\n      0x1f\n      lt\n      tag_87\n      jumpi\n      0x0100\n      dup1\n      dup4\n      sload\n      div\n      mul\n      dup4\n      mstore\n      swap2\n      0x20\n      add\n      swap2\n      jump(tag_86)\n    tag_87:\n      dup3\n      add\n      swap2\n      swap1\n      0x00\n      mstore\n      keccak256(0x00, 0x20)\n      swap1\n    tag_88:\n      dup2\n      sload\n      dup2\n      mstore\n      swap1\n      0x01\n      add\n      swap1\n      0x20\n      add\n      dup1\n      dup4\n      gt\n      tag_88\n      jumpi\n      dup3\n      swap1\n      sub\n      0x1f\n      and\n      dup3\n      add\n      swap2\n    tag_86:\n      pop\n      pop\n      pop\n      swap2\n      dup4\n      mstore\n      pop\n      pop\n      0x02\n      dup3\n      add\n      sload\n      0x20\n      dup3\n      add\n      mstore\n      0x03\n      swap1\n      swap2\n      add\n      sload\n      sub(shl(0xa0, 0x01), 0x01)\n      dup2\n      and\n      0x40\n      dup4\n      add\n      mstore\n      shl(0xa0, 0x01)\n      swap1\n      div\n      0xff\n      and\n      iszero\n      iszero\n      0x60\n      swap1\n      swap2\n      add\n      mstore\n      swap4\n      swap3\n      pop\n      pop\n      pop\n        /* \"unoptimized material supply contract.sol\":1163:1469  function findMaterial(uint256 _materialId) public view returns (Material memory) {... */\n      jump\t// out\n        /* \"unoptimized material supply contract.sol\":1314:1412  if (materials[i].materialId == _materialId) {... */\n    tag_80:\n        /* \"unoptimized material supply contract.sol\":1294:1297  i++ */\n      0x01\n      add\n        /* \"unoptimized material supply contract.sol\":1255:1423  for (uint i = 0; i < materials.length; i++) {... */\n      jump(tag_74)\n    tag_75:\n      pop\n        /* \"unoptimized material supply contract.sol\":1433:1461  revert(\"Material not found\") */\n      mload(0x40)\n      shl(0xe5, 0x461bcd)\n      dup2\n      mstore\n        /* \"#utility.yul\":7037:7039   */\n      0x20\n        /* \"unoptimized material supply contract.sol\":1433:1461  revert(\"Material not found\") */\n      0x04\n      dup3\n      add\n        /* \"#utility.yul\":7019:7040   */\n      mstore\n        /* \"#utility.yul\":7076:7078   */\n      0x12\n        /* \"#utility.yul\":7056:7074   */\n      0x24\n      dup3\n      add\n        /* \"#utility.yul\":7049:7079   */\n      mstore\n      shl(0x72, 0x13585d195c9a585b081b9bdd08199bdd5b99)\n        /* \"#utility.yul\":7095:7113   */\n      0x44\n      dup3\n      add\n        /* \"#utility.yul\":7088:7136   */\n      mstore\n        /* \"#utility.yul\":7153:7171   */\n      0x64\n      add\n        /* \"unoptimized material supply contract.sol\":1433:1461  revert(\"Material not found\") */\n      mload(0x40)\n      dup1\n      swap2\n      sub\n      swap1\n      revert\n        /* \"unoptimized material supply contract.sol\":372:399  Supplier[] public suppliers */\n    tag_39:\n      0x00\n      dup2\n      dup2\n      sload\n      dup2\n      lt\n      tag_91\n      jumpi\n      0x00\n      dup1\n      revert\n    tag_91:\n      0x00\n      swap2\n      dup3\n      mstore\n      0x20\n      swap1\n      swap2\n      keccak256\n      0x03\n      swap1\n      swap2\n      mul\n      add\n      dup1\n      sload\n      0x01\n      dup3\n      add\n      dup1\n      sload\n      sub(shl(0xa0, 0x01), 0x01)\n      swap1\n      swap3\n      and\n      swap4\n      pop\n      swap1\n      tag_93\n      swap1\n      tag_51\n      jump\t// in\n    tag_93:\n      dup1\n      0x1f\n      add\n      0x20\n      dup1\n      swap2\n      div\n      mul\n      0x20\n      add\n      mload(0x40)\n      swap1\n      dup2\n      add\n      0x40\n      mstore\n      dup1\n      swap3\n      swap2\n      swap1\n      dup2\n      dup2\n      mstore\n      0x20\n      add\n      dup3\n      dup1\n      sload\n      tag_94\n      swap1\n      tag_51\n      jump\t// in\n    tag_94:\n      dup1\n      iszero\n      tag_95\n      jumpi\n      dup1\n      0x1f\n      lt\n      tag_96\n      jumpi\n      0x0100\n      dup1\n      dup4\n      sload\n      div\n      mul\n      dup4\n      mstore\n      swap2\n      0x20\n      add\n      swap2\n      jump(tag_95)\n    tag_96:\n      dup3\n      add\n      swap2\n      swap1\n      0x00\n      mstore\n      keccak256(0x00, 0x20)\n      swap1\n    tag_97:\n      dup2\n      sload\n      dup2\n      mstore\n      swap1\n      0x01\n      add\n      swap1\n      0x20\n      add\n      dup1\n      dup4\n      gt\n      tag_97\n      jumpi\n      dup3\n      swap1\n      sub\n      0x1f\n      and\n      dup3\n      add\n      swap2\n    tag_95:\n      pop\n      pop\n      pop\n      0x02\n      swap1\n      swap4\n      add\n      sload\n      swap2\n      swap3\n      pop\n      pop\n      0xff\n      and\n      dup4\n      jump\t// out\n        /* \"#utility.yul\":14:141   */\n    tag_98:\n        /* \"#utility.yul\":75:85   */\n      0x4e487b71\n        /* \"#utility.yul\":70:73   */\n      0xe0\n        /* \"#utility.yul\":66:86   */\n      shl\n        /* \"#utility.yul\":63:64   */\n      0x00\n        /* \"#utility.yul\":56:87   */\n      mstore\n        /* \"#utility.yul\":106:110   */\n      0x41\n        /* \"#utility.yul\":103:104   */\n      0x04\n        /* \"#utility.yul\":96:111   */\n      mstore\n        /* \"#utility.yul\":130:134   */\n      0x24\n        /* \"#utility.yul\":127:128   */\n      0x00\n        /* \"#utility.yul\":120:135   */\n      revert\n        /* \"#utility.yul\":146:872   */\n    tag_99:\n        /* \"#utility.yul\":189:194   */\n      0x00\n        /* \"#utility.yul\":242:245   */\n      dup3\n        /* \"#utility.yul\":235:239   */\n      0x1f\n        /* \"#utility.yul\":227:233   */\n      dup4\n        /* \"#utility.yul\":223:240   */\n      add\n        /* \"#utility.yul\":219:246   */\n      slt\n        /* \"#utility.yul\":209:264   */\n      tag_107\n      jumpi\n        /* \"#utility.yul\":260:261   */\n      0x00\n        /* \"#utility.yul\":257:258   */\n      0x00\n        /* \"#utility.yul\":250:262   */\n      revert\n        /* \"#utility.yul\":209:264   */\n    tag_107:\n        /* \"#utility.yul\":300:306   */\n      dup2\n        /* \"#utility.yul\":287:307   */\n      calldataload\n        /* \"#utility.yul\":330:348   */\n      0xffffffffffffffff\n        /* \"#utility.yul\":322:328   */\n      dup2\n        /* \"#utility.yul\":319:349   */\n      gt\n        /* \"#utility.yul\":316:372   */\n      iszero\n      tag_109\n      jumpi\n        /* \"#utility.yul\":352:370   */\n      tag_109\n      tag_98\n      jump\t// in\n    tag_109:\n        /* \"#utility.yul\":401:403   */\n      0x40\n        /* \"#utility.yul\":395:404   */\n      mload\n        /* \"#utility.yul\":493:495   */\n      0x1f\n        /* \"#utility.yul\":455:472   */\n      dup3\n      add\n      not(0x1f)\n        /* \"#utility.yul\":451:482   */\n      swap1\n      dup2\n      and\n        /* \"#utility.yul\":484:486   */\n      0x3f\n        /* \"#utility.yul\":447:487   */\n      add\n        /* \"#utility.yul\":443:497   */\n      and\n        /* \"#utility.yul\":431:498   */\n      dup2\n      add\n        /* \"#utility.yul\":528:546   */\n      0xffffffffffffffff\n        /* \"#utility.yul\":513:547   */\n      dup2\n      gt\n        /* \"#utility.yul\":549:571   */\n      dup3\n      dup3\n      lt\n        /* \"#utility.yul\":510:572   */\n      or\n        /* \"#utility.yul\":507:595   */\n      iszero\n      tag_111\n      jumpi\n        /* \"#utility.yul\":575:593   */\n      tag_111\n      tag_98\n      jump\t// in\n    tag_111:\n        /* \"#utility.yul\":611:613   */\n      0x40\n        /* \"#utility.yul\":604:626   */\n      mstore\n        /* \"#utility.yul\":635:657   */\n      dup2\n      dup2\n      mstore\n        /* \"#utility.yul\":676:695   */\n      dup4\n      dup3\n      add\n        /* \"#utility.yul\":697:701   */\n      0x20\n        /* \"#utility.yul\":672:702   */\n      add\n        /* \"#utility.yul\":669:708   */\n      dup6\n      lt\n        /* \"#utility.yul\":666:725   */\n      iszero\n      tag_112\n      jumpi\n        /* \"#utility.yul\":721:722   */\n      0x00\n        /* \"#utility.yul\":718:719   */\n      0x00\n        /* \"#utility.yul\":711:723   */\n      revert\n        /* \"#utility.yul\":666:725   */\n    tag_112:\n        /* \"#utility.yul\":785:791   */\n      dup2\n        /* \"#utility.yul\":778:782   */\n      0x20\n        /* \"#utility.yul\":770:776   */\n      dup6\n        /* \"#utility.yul\":766:783   */\n      add\n        /* \"#utility.yul\":759:763   */\n      0x20\n        /* \"#utility.yul\":751:757   */\n      dup4\n        /* \"#utility.yul\":747:764   */\n      add\n        /* \"#utility.yul\":734:792   */\n      calldatacopy\n        /* \"#utility.yul\":840:841   */\n      0x00\n        /* \"#utility.yul\":812:831   */\n      swap2\n      dup2\n      add\n        /* \"#utility.yul\":833:837   */\n      0x20\n        /* \"#utility.yul\":808:838   */\n      add\n        /* \"#utility.yul\":801:842   */\n      swap2\n      swap1\n      swap2\n      mstore\n        /* \"#utility.yul\":816:822   */\n      swap4\n        /* \"#utility.yul\":146:872   */\n      swap3\n      pop\n      pop\n      pop\n      jump\t// out\n        /* \"#utility.yul\":877:1313   */\n    tag_13:\n        /* \"#utility.yul\":955:961   */\n      0x00\n        /* \"#utility.yul\":963:969   */\n      0x00\n        /* \"#utility.yul\":1016:1018   */\n      0x40\n        /* \"#utility.yul\":1004:1013   */\n      dup4\n        /* \"#utility.yul\":995:1002   */\n      dup6\n        /* \"#utility.yul\":991:1014   */\n      sub\n        /* \"#utility.yul\":987:1019   */\n      slt\n        /* \"#utility.yul\":984:1036   */\n      iszero\n      tag_114\n      jumpi\n        /* \"#utility.yul\":1032:1033   */\n      0x00\n        /* \"#utility.yul\":1029:1030   */\n      0x00\n        /* \"#utility.yul\":1022:1034   */\n      revert\n        /* \"#utility.yul\":984:1036   */\n    tag_114:\n        /* \"#utility.yul\":1072:1081   */\n      dup3\n        /* \"#utility.yul\":1059:1082   */\n      calldataload\n        /* \"#utility.yul\":1105:1123   */\n      0xffffffffffffffff\n        /* \"#utility.yul\":1097:1103   */\n      dup2\n        /* \"#utility.yul\":1094:1124   */\n      gt\n        /* \"#utility.yul\":1091:1141   */\n      iszero\n      tag_115\n      jumpi\n        /* \"#utility.yul\":1137:1138   */\n      0x00\n        /* \"#utility.yul\":1134:1135   */\n      0x00\n        /* \"#utility.yul\":1127:1139   */\n      revert\n        /* \"#utility.yul\":1091:1141   */\n    tag_115:\n        /* \"#utility.yul\":1160:1210   */\n      tag_116\n        /* \"#utility.yul\":1202:1209   */\n      dup6\n        /* \"#utility.yul\":1193:1199   */\n      dup3\n        /* \"#utility.yul\":1182:1191   */\n      dup7\n        /* \"#utility.yul\":1178:1200   */\n      add\n        /* \"#utility.yul\":1160:1210   */\n      tag_99\n      jump\t// in\n    tag_116:\n        /* \"#utility.yul\":1150:1210   */\n      swap6\n        /* \"#utility.yul\":1279:1281   */\n      0x20\n        /* \"#utility.yul\":1264:1282   */\n      swap5\n      swap1\n      swap5\n      add\n        /* \"#utility.yul\":1251:1283   */\n      calldataload\n      swap5\n      pop\n      pop\n      pop\n      pop\n        /* \"#utility.yul\":877:1313   */\n      jump\t// out\n        /* \"#utility.yul\":1318:1544   */\n    tag_17:\n        /* \"#utility.yul\":1377:1383   */\n      0x00\n        /* \"#utility.yul\":1430:1432   */\n      0x20\n        /* \"#utility.yul\":1418:1427   */\n      dup3\n        /* \"#utility.yul\":1409:1416   */\n      dup5\n        /* \"#utility.yul\":1405:1428   */\n      sub\n        /* \"#utility.yul\":1401:1433   */\n      slt\n        /* \"#utility.yul\":1398:1450   */\n      iszero\n      tag_118\n      jumpi\n        /* \"#utility.yul\":1446:1447   */\n      0x00\n        /* \"#utility.yul\":1443:1444   */\n      0x00\n        /* \"#utility.yul\":1436:1448   */\n      revert\n        /* \"#utility.yul\":1398:1450   */\n    tag_118:\n      pop\n        /* \"#utility.yul\":1491:1514   */\n      calldataload\n      swap2\n        /* \"#utility.yul\":1318:1544   */\n      swap1\n      pop\n      jump\t// out\n        /* \"#utility.yul\":1549:1838   */\n    tag_100:\n        /* \"#utility.yul\":1591:1594   */\n      0x00\n        /* \"#utility.yul\":1629:1634   */\n      dup2\n        /* \"#utility.yul\":1623:1635   */\n      mload\n        /* \"#utility.yul\":1656:1662   */\n      dup1\n        /* \"#utility.yul\":1651:1654   */\n      dup5\n        /* \"#utility.yul\":1644:1663   */\n      mstore\n        /* \"#utility.yul\":1712:1718   */\n      dup1\n        /* \"#utility.yul\":1705:1709   */\n      0x20\n        /* \"#utility.yul\":1698:1703   */\n      dup5\n        /* \"#utility.yul\":1694:1710   */\n      add\n        /* \"#utility.yul\":1687:1691   */\n      0x20\n        /* \"#utility.yul\":1682:1685   */\n      dup7\n        /* \"#utility.yul\":1678:1692   */\n      add\n        /* \"#utility.yul\":1672:1719   */\n      mcopy\n        /* \"#utility.yul\":1764:1765   */\n      0x00\n        /* \"#utility.yul\":1757:1761   */\n      0x20\n        /* \"#utility.yul\":1748:1754   */\n      dup3\n        /* \"#utility.yul\":1743:1746   */\n      dup7\n        /* \"#utility.yul\":1739:1755   */\n      add\n        /* \"#utility.yul\":1735:1762   */\n      add\n        /* \"#utility.yul\":1728:1766   */\n      mstore\n        /* \"#utility.yul\":1827:1831   */\n      0x20\n        /* \"#utility.yul\":1820:1822   */\n      0x1f\n        /* \"#utility.yul\":1816:1823   */\n      not\n        /* \"#utility.yul\":1811:1813   */\n      0x1f\n        /* \"#utility.yul\":1803:1809   */\n      dup4\n        /* \"#utility.yul\":1799:1814   */\n      add\n        /* \"#utility.yul\":1795:1824   */\n      and\n        /* \"#utility.yul\":1790:1793   */\n      dup6\n        /* \"#utility.yul\":1786:1825   */\n      add\n        /* \"#utility.yul\":1782:1832   */\n      add\n        /* \"#utility.yul\":1775:1832   */\n      swap2\n      pop\n      pop\n        /* \"#utility.yul\":1549:1838   */\n      swap3\n      swap2\n      pop\n      pop\n      jump\t// out\n        /* \"#utility.yul\":1843:2386   */\n    tag_20:\n        /* \"#utility.yul\":2098:2104   */\n      dup6\n        /* \"#utility.yul\":2087:2096   */\n      dup2\n        /* \"#utility.yul\":2080:2105   */\n      mstore\n        /* \"#utility.yul\":2141:2144   */\n      0xa0\n        /* \"#utility.yul\":2136:2138   */\n      0x20\n        /* \"#utility.yul\":2125:2134   */\n      dup3\n        /* \"#utility.yul\":2121:2139   */\n      add\n        /* \"#utility.yul\":2114:2145   */\n      mstore\n        /* \"#utility.yul\":2061:2065   */\n      0x00\n        /* \"#utility.yul\":2162:2208   */\n      tag_121\n        /* \"#utility.yul\":2203:2206   */\n      0xa0\n        /* \"#utility.yul\":2192:2201   */\n      dup4\n        /* \"#utility.yul\":2188:2207   */\n      add\n        /* \"#utility.yul\":2180:2186   */\n      dup8\n        /* \"#utility.yul\":2162:2208   */\n      tag_100\n      jump\t// in\n    tag_121:\n        /* \"#utility.yul\":2239:2241   */\n      0x40\n        /* \"#utility.yul\":2224:2242   */\n      dup4\n      add\n        /* \"#utility.yul\":2217:2251   */\n      swap6\n      swap1\n      swap6\n      mstore\n      pop\n      sub(shl(0xa0, 0x01), 0x01)\n        /* \"#utility.yul\":2287:2319   */\n      swap3\n      swap1\n      swap3\n      and\n        /* \"#utility.yul\":2282:2284   */\n      0x60\n        /* \"#utility.yul\":2267:2285   */\n      dup4\n      add\n        /* \"#utility.yul\":2260:2320   */\n      mstore\n        /* \"#utility.yul\":2364:2378   */\n      iszero\n        /* \"#utility.yul\":2357:2379   */\n      iszero\n        /* \"#utility.yul\":2351:2354   */\n      0x80\n        /* \"#utility.yul\":2336:2355   */\n      swap1\n      swap2\n      add\n        /* \"#utility.yul\":2329:2380   */\n      mstore\n        /* \"#utility.yul\":2154:2208   */\n      swap3\n        /* \"#utility.yul\":1843:2386   */\n      swap2\n      pop\n      pop\n      jump\t// out\n        /* \"#utility.yul\":2573:2895   */\n    tag_30:\n        /* \"#utility.yul\":2642:2648   */\n      0x00\n        /* \"#utility.yul\":2695:2697   */\n      0x20\n        /* \"#utility.yul\":2683:2692   */\n      dup3\n        /* \"#utility.yul\":2674:2681   */\n      dup5\n        /* \"#utility.yul\":2670:2693   */\n      sub\n        /* \"#utility.yul\":2666:2698   */\n      slt\n        /* \"#utility.yul\":2663:2715   */\n      iszero\n      tag_124\n      jumpi\n        /* \"#utility.yul\":2711:2712   */\n      0x00\n        /* \"#utility.yul\":2708:2709   */\n      0x00\n        /* \"#utility.yul\":2701:2713   */\n      revert\n        /* \"#utility.yul\":2663:2715   */\n    tag_124:\n        /* \"#utility.yul\":2751:2760   */\n      dup2\n        /* \"#utility.yul\":2738:2761   */\n      calldataload\n        /* \"#utility.yul\":2784:2802   */\n      0xffffffffffffffff\n        /* \"#utility.yul\":2776:2782   */\n      dup2\n        /* \"#utility.yul\":2773:2803   */\n      gt\n        /* \"#utility.yul\":2770:2820   */\n      iszero\n      tag_125\n      jumpi\n        /* \"#utility.yul\":2816:2817   */\n      0x00\n        /* \"#utility.yul\":2813:2814   */\n      0x00\n        /* \"#utility.yul\":2806:2818   */\n      revert\n        /* \"#utility.yul\":2770:2820   */\n    tag_125:\n        /* \"#utility.yul\":2839:2889   */\n      tag_126\n        /* \"#utility.yul\":2881:2888   */\n      dup5\n        /* \"#utility.yul\":2872:2878   */\n      dup3\n        /* \"#utility.yul\":2861:2870   */\n      dup6\n        /* \"#utility.yul\":2857:2879   */\n      add\n        /* \"#utility.yul\":2839:2889   */\n      tag_99\n      jump\t// in\n    tag_126:\n        /* \"#utility.yul\":2829:2889   */\n      swap5\n        /* \"#utility.yul\":2573:2895   */\n      swap4\n      pop\n      pop\n      pop\n      pop\n      jump\t// out\n        /* \"#utility.yul\":2900:3549   */\n    tag_36:\n        /* \"#utility.yul\":3077:3079   */\n      0x20\n        /* \"#utility.yul\":3066:3075   */\n      dup2\n        /* \"#utility.yul\":3059:3080   */\n      mstore\n        /* \"#utility.yul\":3122:3128   */\n      dup2\n        /* \"#utility.yul\":3116:3129   */\n      mload\n        /* \"#utility.yul\":3111:3113   */\n      0x20\n        /* \"#utility.yul\":3100:3109   */\n      dup3\n        /* \"#utility.yul\":3096:3114   */\n      add\n        /* \"#utility.yul\":3089:3130   */\n      mstore\n        /* \"#utility.yul\":3040:3044   */\n      0x00\n        /* \"#utility.yul\":3177:3179   */\n      0x20\n        /* \"#utility.yul\":3169:3175   */\n      dup4\n        /* \"#utility.yul\":3165:3180   */\n      add\n        /* \"#utility.yul\":3159:3181   */\n      mload\n        /* \"#utility.yul\":3217:3221   */\n      0xa0\n        /* \"#utility.yul\":3212:3214   */\n      0x40\n        /* \"#utility.yul\":3201:3210   */\n      dup5\n        /* \"#utility.yul\":3197:3215   */\n      add\n        /* \"#utility.yul\":3190:3222   */\n      mstore\n        /* \"#utility.yul\":3245:3297   */\n      tag_128\n        /* \"#utility.yul\":3292:3295   */\n      0xc0\n        /* \"#utility.yul\":3281:3290   */\n      dup5\n        /* \"#utility.yul\":3277:3296   */\n      add\n        /* \"#utility.yul\":3263:3275   */\n      dup3\n        /* \"#utility.yul\":3245:3297   */\n      tag_100\n      jump\t// in\n    tag_128:\n        /* \"#utility.yul\":3231:3297   */\n      swap1\n      pop\n        /* \"#utility.yul\":3351:3353   */\n      0x40\n        /* \"#utility.yul\":3343:3349   */\n      dup5\n        /* \"#utility.yul\":3339:3354   */\n      add\n        /* \"#utility.yul\":3333:3355   */\n      mload\n        /* \"#utility.yul\":3328:3330   */\n      0x60\n        /* \"#utility.yul\":3317:3326   */\n      dup5\n        /* \"#utility.yul\":3313:3331   */\n      add\n        /* \"#utility.yul\":3306:3356   */\n      mstore\n        /* \"#utility.yul\":3438:3439   */\n      0x01\n        /* \"#utility.yul\":3434:3435   */\n      dup1\n        /* \"#utility.yul\":3429:3432   */\n      0xa0\n        /* \"#utility.yul\":3425:3436   */\n      shl\n        /* \"#utility.yul\":3421:3440   */\n      sub\n        /* \"#utility.yul\":3415:3417   */\n      0x60\n        /* \"#utility.yul\":3407:3413   */\n      dup6\n        /* \"#utility.yul\":3403:3418   */\n      add\n        /* \"#utility.yul\":3397:3419   */\n      mload\n        /* \"#utility.yul\":3393:3441   */\n      and\n        /* \"#utility.yul\":3387:3390   */\n      0x80\n        /* \"#utility.yul\":3376:3385   */\n      dup5\n        /* \"#utility.yul\":3372:3391   */\n      add\n        /* \"#utility.yul\":3365:3442   */\n      mstore\n        /* \"#utility.yul\":3512:3515   */\n      0x80\n        /* \"#utility.yul\":3504:3510   */\n      dup5\n        /* \"#utility.yul\":3500:3516   */\n      add\n        /* \"#utility.yul\":3494:3517   */\n      mload\n        /* \"#utility.yul\":3487:3518   */\n      iszero\n        /* \"#utility.yul\":3480:3519   */\n      iszero\n        /* \"#utility.yul\":3473:3477   */\n      0xa0\n        /* \"#utility.yul\":3462:3471   */\n      dup5\n        /* \"#utility.yul\":3458:3478   */\n      add\n        /* \"#utility.yul\":3451:3520   */\n      mstore\n        /* \"#utility.yul\":3537:3543   */\n      dup1\n        /* \"#utility.yul\":3529:3543   */\n      swap2\n      pop\n      pop\n        /* \"#utility.yul\":2900:3549   */\n      swap3\n      swap2\n      pop\n      pop\n      jump\t// out\n        /* \"#utility.yul\":3554:3952   */\n    tag_41:\n      sub(shl(0xa0, 0x01), 0x01)\n        /* \"#utility.yul\":3753:3785   */\n      dup5\n      and\n        /* \"#utility.yul\":3735:3786   */\n      dup2\n      mstore\n        /* \"#utility.yul\":3822:3824   */\n      0x60\n        /* \"#utility.yul\":3817:3819   */\n      0x20\n        /* \"#utility.yul\":3802:3820   */\n      dup3\n      add\n        /* \"#utility.yul\":3795:3825   */\n      dup2\n      swap1\n      mstore\n      0x00\n      swap1\n        /* \"#utility.yul\":3842:3887   */\n      tag_130\n      swap1\n        /* \"#utility.yul\":3868:3886   */\n      dup4\n      add\n        /* \"#utility.yul\":3860:3866   */\n      dup6\n        /* \"#utility.yul\":3842:3887   */\n      tag_100\n      jump\t// in\n    tag_130:\n        /* \"#utility.yul\":3834:3887   */\n      swap1\n      pop\n        /* \"#utility.yul\":3937:3943   */\n      dup3\n        /* \"#utility.yul\":3930:3944   */\n      iszero\n        /* \"#utility.yul\":3923:3945   */\n      iszero\n        /* \"#utility.yul\":3918:3920   */\n      0x40\n        /* \"#utility.yul\":3907:3916   */\n      dup4\n        /* \"#utility.yul\":3903:3921   */\n      add\n        /* \"#utility.yul\":3896:3946   */\n      mstore\n        /* \"#utility.yul\":3554:3952   */\n      swap5\n      swap4\n      pop\n      pop\n      pop\n      pop\n      jump\t// out\n        /* \"#utility.yul\":3957:4189   */\n    tag_44:\n        /* \"#utility.yul\":3996:3999   */\n      0x00\n        /* \"#utility.yul\":4017:4034   */\n      0x01\n      dup3\n      add\n        /* \"#utility.yul\":4014:4154   */\n      tag_132\n      jumpi\n        /* \"#utility.yul\":4076:4086   */\n      0x4e487b71\n        /* \"#utility.yul\":4071:4074   */\n      0xe0\n        /* \"#utility.yul\":4067:4087   */\n      shl\n        /* \"#utility.yul\":4064:4065   */\n      0x00\n        /* \"#utility.yul\":4057:4088   */\n      mstore\n        /* \"#utility.yul\":4111:4115   */\n      0x11\n        /* \"#utility.yul\":4108:4109   */\n      0x04\n        /* \"#utility.yul\":4101:4116   */\n      mstore\n        /* \"#utility.yul\":4139:4143   */\n      0x24\n        /* \"#utility.yul\":4136:4137   */\n      0x00\n        /* \"#utility.yul\":4129:4144   */\n      revert\n        /* \"#utility.yul\":4014:4154   */\n    tag_132:\n      pop\n        /* \"#utility.yul\":4181:4182   */\n      0x01\n        /* \"#utility.yul\":4170:4183   */\n      add\n      swap1\n        /* \"#utility.yul\":3957:4189   */\n      jump\t// out\n        /* \"#utility.yul\":4194:4574   */\n    tag_51:\n        /* \"#utility.yul\":4273:4274   */\n      0x01\n        /* \"#utility.yul\":4269:4281   */\n      dup2\n      dup2\n      shr\n      swap1\n        /* \"#utility.yul\":4316:4328   */\n      dup3\n      and\n      dup1\n        /* \"#utility.yul\":4337:4398   */\n      tag_134\n      jumpi\n        /* \"#utility.yul\":4391:4395   */\n      0x7f\n        /* \"#utility.yul\":4383:4389   */\n      dup3\n        /* \"#utility.yul\":4379:4396   */\n      and\n        /* \"#utility.yul\":4369:4396   */\n      swap2\n      pop\n        /* \"#utility.yul\":4337:4398   */\n    tag_134:\n        /* \"#utility.yul\":4444:4446   */\n      0x20\n        /* \"#utility.yul\":4436:4442   */\n      dup3\n        /* \"#utility.yul\":4433:4447   */\n      lt\n        /* \"#utility.yul\":4413:4431   */\n      dup2\n        /* \"#utility.yul\":4410:4448   */\n      sub\n        /* \"#utility.yul\":4407:4568   */\n      tag_135\n      jumpi\n        /* \"#utility.yul\":4490:4500   */\n      0x4e487b71\n        /* \"#utility.yul\":4485:4488   */\n      0xe0\n        /* \"#utility.yul\":4481:4501   */\n      shl\n        /* \"#utility.yul\":4478:4479   */\n      0x00\n        /* \"#utility.yul\":4471:4502   */\n      mstore\n        /* \"#utility.yul\":4525:4529   */\n      0x22\n        /* \"#utility.yul\":4522:4523   */\n      0x04\n        /* \"#utility.yul\":4515:4530   */\n      mstore\n        /* \"#utility.yul\":4553:4557   */\n      0x24\n        /* \"#utility.yul\":4550:4551   */\n      0x00\n        /* \"#utility.yul\":4543:4558   */\n      revert\n        /* \"#utility.yul\":4407:4568   */\n    tag_135:\n      pop\n        /* \"#utility.yul\":4194:4574   */\n      swap2\n      swap1\n      pop\n      jump\t// out\n        /* \"#utility.yul\":4705:5223   */\n    tag_102:\n        /* \"#utility.yul\":4807:4809   */\n      0x1f\n        /* \"#utility.yul\":4802:4805   */\n      dup3\n        /* \"#utility.yul\":4799:4810   */\n      gt\n        /* \"#utility.yul\":4796:5217   */\n      iszero\n      tag_138\n      jumpi\n        /* \"#utility.yul\":4843:4848   */\n      dup1\n        /* \"#utility.yul\":4840:4841   */\n      0x00\n        /* \"#utility.yul\":4833:4849   */\n      mstore\n        /* \"#utility.yul\":4887:4891   */\n      0x20\n        /* \"#utility.yul\":4884:4885   */\n      0x00\n        /* \"#utility.yul\":4874:4892   */\n      keccak256\n        /* \"#utility.yul\":4957:4959   */\n      0x1f\n        /* \"#utility.yul\":4945:4955   */\n      dup5\n        /* \"#utility.yul\":4941:4960   */\n      add\n        /* \"#utility.yul\":4938:4939   */\n      0x05\n        /* \"#utility.yul\":4934:4961   */\n      shr\n        /* \"#utility.yul\":4928:4932   */\n      dup2\n        /* \"#utility.yul\":4924:4962   */\n      add\n        /* \"#utility.yul\":4993:4997   */\n      0x20\n        /* \"#utility.yul\":4981:4991   */\n      dup6\n        /* \"#utility.yul\":4978:4998   */\n      lt\n        /* \"#utility.yul\":4975:5022   */\n      iszero\n      tag_139\n      jumpi\n      pop\n        /* \"#utility.yul\":5016:5020   */\n      dup1\n        /* \"#utility.yul\":4975:5022   */\n    tag_139:\n        /* \"#utility.yul\":5071:5073   */\n      0x1f\n        /* \"#utility.yul\":5066:5069   */\n      dup5\n        /* \"#utility.yul\":5062:5074   */\n      add\n        /* \"#utility.yul\":5059:5060   */\n      0x05\n        /* \"#utility.yul\":5055:5075   */\n      shr\n        /* \"#utility.yul\":5049:5053   */\n      dup3\n        /* \"#utility.yul\":5045:5076   */\n      add\n        /* \"#utility.yul\":5035:5076   */\n      swap2\n      pop\n        /* \"#utility.yul\":5126:5207   */\n    tag_140:\n        /* \"#utility.yul\":5144:5146   */\n      dup2\n        /* \"#utility.yul\":5137:5142   */\n      dup2\n        /* \"#utility.yul\":5134:5147   */\n      lt\n        /* \"#utility.yul\":5126:5207   */\n      iszero\n      tag_142\n      jumpi\n        /* \"#utility.yul\":5203:5204   */\n      0x00\n        /* \"#utility.yul\":5189:5205   */\n      dup2\n      sstore\n        /* \"#utility.yul\":5170:5171   */\n      0x01\n        /* \"#utility.yul\":5159:5172   */\n      add\n        /* \"#utility.yul\":5126:5207   */\n      jump(tag_140)\n    tag_142:\n        /* \"#utility.yul\":5130:5133   */\n      pop\n      pop\n        /* \"#utility.yul\":4796:5217   */\n    tag_138:\n        /* \"#utility.yul\":4705:5223   */\n      pop\n      pop\n      pop\n      jump\t// out\n        /* \"#utility.yul\":5399:6698   */\n    tag_47:\n        /* \"#utility.yul\":5525:5528   */\n      dup2\n        /* \"#utility.yul\":5519:5529   */\n      mload\n        /* \"#utility.yul\":5552:5570   */\n      0xffffffffffffffff\n        /* \"#utility.yul\":5544:5550   */\n      dup2\n        /* \"#utility.yul\":5541:5571   */\n      gt\n        /* \"#utility.yul\":5538:5594   */\n      iszero\n      tag_146\n      jumpi\n        /* \"#utility.yul\":5574:5592   */\n      tag_146\n      tag_98\n      jump\t// in\n    tag_146:\n        /* \"#utility.yul\":5603:5700   */\n      tag_147\n        /* \"#utility.yul\":5693:5699   */\n      dup2\n        /* \"#utility.yul\":5653:5691   */\n      tag_148\n        /* \"#utility.yul\":5685:5689   */\n      dup5\n        /* \"#utility.yul\":5679:5690   */\n      sload\n        /* \"#utility.yul\":5653:5691   */\n      tag_51\n      jump\t// in\n    tag_148:\n        /* \"#utility.yul\":5647:5651   */\n      dup5\n        /* \"#utility.yul\":5603:5700   */\n      tag_102\n      jump\t// in\n    tag_147:\n        /* \"#utility.yul\":5749:5753   */\n      0x20\n        /* \"#utility.yul\":5780:5782   */\n      0x1f\n        /* \"#utility.yul\":5769:5783   */\n      dup3\n      gt\n        /* \"#utility.yul\":5797:5798   */\n      0x01\n        /* \"#utility.yul\":5792:6441   */\n      dup2\n      eq\n      tag_150\n      jumpi\n        /* \"#utility.yul\":6485:6486   */\n      0x00\n        /* \"#utility.yul\":6502:6508   */\n      dup4\n        /* \"#utility.yul\":6499:6588   */\n      iszero\n      tag_151\n      jumpi\n      pop\n        /* \"#utility.yul\":6554:6573   */\n      dup5\n      dup3\n      add\n        /* \"#utility.yul\":6548:6574   */\n      mload\n        /* \"#utility.yul\":6499:6588   */\n    tag_151:\n      not(0x00)\n        /* \"#utility.yul\":5356:5357   */\n      0x03\n        /* \"#utility.yul\":5352:5363   */\n      dup6\n      swap1\n      shl\n        /* \"#utility.yul\":5348:5372   */\n      shr\n        /* \"#utility.yul\":5344:5373   */\n      not\n        /* \"#utility.yul\":5334:5374   */\n      and\n        /* \"#utility.yul\":5380:5381   */\n      0x01\n        /* \"#utility.yul\":5376:5387   */\n      dup5\n      swap1\n      shl\n        /* \"#utility.yul\":5331:5388   */\n      or\n        /* \"#utility.yul\":6601:6682   */\n      dup5\n      sstore\n        /* \"#utility.yul\":5762:6692   */\n      jump(tag_142)\n        /* \"#utility.yul\":5792:6441   */\n    tag_150:\n        /* \"#utility.yul\":4652:4653   */\n      0x00\n        /* \"#utility.yul\":4645:4659   */\n      dup5\n      dup2\n      mstore\n        /* \"#utility.yul\":4689:4693   */\n      0x20\n        /* \"#utility.yul\":4676:4694   */\n      dup2\n      keccak256\n      not(0x1f)\n        /* \"#utility.yul\":5828:5848   */\n      dup6\n      and\n      swap2\n        /* \"#utility.yul\":5946:6168   */\n    tag_154:\n        /* \"#utility.yul\":5960:5967   */\n      dup3\n        /* \"#utility.yul\":5957:5958   */\n      dup2\n        /* \"#utility.yul\":5954:5968   */\n      lt\n        /* \"#utility.yul\":5946:6168   */\n      iszero\n      tag_156\n      jumpi\n        /* \"#utility.yul\":6042:6061   */\n      dup8\n      dup6\n      add\n        /* \"#utility.yul\":6036:6062   */\n      mload\n        /* \"#utility.yul\":6021:6063   */\n      dup3\n      sstore\n        /* \"#utility.yul\":6149:6153   */\n      0x20\n        /* \"#utility.yul\":6134:6154   */\n      swap5\n      dup6\n      add\n      swap5\n        /* \"#utility.yul\":6102:6103   */\n      0x01\n        /* \"#utility.yul\":6090:6104   */\n      swap1\n      swap3\n      add\n      swap2\n        /* \"#utility.yul\":5976:5988   */\n      add\n        /* \"#utility.yul\":5946:6168   */\n      jump(tag_154)\n    tag_156:\n        /* \"#utility.yul\":5950:5953   */\n      pop\n        /* \"#utility.yul\":6196:6202   */\n      dup5\n        /* \"#utility.yul\":6187:6194   */\n      dup3\n        /* \"#utility.yul\":6184:6203   */\n      lt\n        /* \"#utility.yul\":6181:6382   */\n      iszero\n      tag_157\n      jumpi\n        /* \"#utility.yul\":6257:6276   */\n      dup7\n      dup5\n      add\n        /* \"#utility.yul\":6251:6277   */\n      mload\n      not(0x00)\n        /* \"#utility.yul\":6340:6341   */\n      0x03\n        /* \"#utility.yul\":6336:6350   */\n      dup8\n      swap1\n      shl\n        /* \"#utility.yul\":6352:6355   */\n      0xf8\n        /* \"#utility.yul\":6332:6356   */\n      and\n        /* \"#utility.yul\":6328:6365   */\n      shr\n        /* \"#utility.yul\":6324:6366   */\n      not\n        /* \"#utility.yul\":6309:6367   */\n      and\n        /* \"#utility.yul\":6294:6368   */\n      dup2\n      sstore\n        /* \"#utility.yul\":6181:6382   */\n    tag_157:\n      pop\n      pop\n      pop\n      pop\n        /* \"#utility.yul\":6428:6429   */\n      0x01\n        /* \"#utility.yul\":6412:6426   */\n      swap1\n      dup2\n      shl\n        /* \"#utility.yul\":6408:6430   */\n      add\n        /* \"#utility.yul\":6395:6431   */\n      swap1\n      sstore\n      pop\n        /* \"#utility.yul\":5399:6698   */\n      jump\t// out\n        /* \"#utility.yul\":6703:6830   */\n    tag_62:\n        /* \"#utility.yul\":6764:6774   */\n      0x4e487b71\n        /* \"#utility.yul\":6759:6762   */\n      0xe0\n        /* \"#utility.yul\":6755:6775   */\n      shl\n        /* \"#utility.yul\":6752:6753   */\n      0x00\n        /* \"#utility.yul\":6745:6776   */\n      mstore\n        /* \"#utility.yul\":6795:6799   */\n      0x32\n        /* \"#utility.yul\":6792:6793   */\n      0x04\n        /* \"#utility.yul\":6785:6800   */\n      mstore\n        /* \"#utility.yul\":6819:6823   */\n      0x24\n        /* \"#utility.yul\":6816:6817   */\n      0x00\n        /* \"#utility.yul\":6809:6824   */\n      revert\n\n    auxdata: 0xa26469706673582212201d63ef7d4a9105ad4ab26f31703f7f85cf5f3b6bae4f8a3f58294bee782ec64b64736f6c634300081e0033\n}\n",
				"bytecode": {
					"linkReferences": {},
					"object": "6080604052348015600e575f5ffd5b50610a988061001c5f395ff3fe608060405234801561000f575f5ffd5b506004361061007a575f3560e01c806383e32b3f1161005857806383e32b3f146100d3578063aad7fb3c146100ea578063c8e7060c146100fd578063cea231211461011d575f5ffd5b806332e3c0db1461007e5780637a8e8526146100935780637fe03487146100c0575b5f5ffd5b61009161008c36600461075c565b61013f565b005b6100a66100a136600461079e565b610234565b6040516100b79594939291906107e3565b60405180910390f35b6100916100ce36600461079e565b610309565b6100dc60025481565b6040519081526020016100b7565b6100916100f8366004610823565b610384565b61011061010b36600461079e565b610446565b6040516100b7919061085d565b61013061012b36600461079e565b6105f7565b6040516100b7939291906108b6565b60028054905f61014e836108eb565b90915550506040805160a0810182526002548152602081018481529181018390523360608201525f608082018190526001805480820182559152815160049091027fb10e2d527612073b26eecdfd717e6a320cf44b4afac2b0732d9fcbe2b7fa0cf681019182559251919290917fb10e2d527612073b26eecdfd717e6a320cf44b4afac2b0732d9fcbe2b7fa0cf7909101906101ea9082610993565b50604082015160028201556060820151600390910180546080909301511515600160a01b026001600160a81b03199093166001600160a01b03909216919091179190911790555050565b60018181548110610243575f80fd5b5f91825260209091206004909102018054600182018054919350906102679061090f565b80601f01602080910402602001604051908101604052809291908181526020018280546102939061090f565b80156102de5780601f106102b5576101008083540402835291602001916102de565b820191905f5260205f20905b8154815290600101906020018083116102c157829003601f168201915b5050505060028301546003909301549192916001600160a01b0381169150600160a01b900460ff1685565b5f5b60015481101561038057816001828154811061032957610329610a4e565b905f5260205f2090600402015f01540361037857600180828154811061035157610351610a4e565b905f5260205f20906004020160030160146101000a81548160ff0219169083151502179055505b60010161030b565b5050565b604080516060810182523381526020810183815260019282018390525f80549384018155805281517f290decd9548b62a8d60345a988386fc84ba6bc95484008f6362f93160ef3e563600390940293840180546001600160a01b0319166001600160a01b039092169190911781559051919290917f290decd9548b62a8d60345a988386fc84ba6bc95484008f6362f93160ef3e564909101906104279082610993565b50604091909101516002909101805460ff191691151591909117905550565b61047f6040518060a001604052805f8152602001606081526020015f81526020015f6001600160a01b031681526020015f151581525090565b5f5b6001548110156105b557826001828154811061049f5761049f610a4e565b905f5260205f2090600402015f0154036105ad57600181815481106104c6576104c6610a4e565b905f5260205f2090600402016040518060a00160405290815f82015481526020016001820180546104f69061090f565b80601f01602080910402602001604051908101604052809291908181526020018280546105229061090f565b801561056d5780601f106105445761010080835404028352916020019161056d565b820191905f5260205f20905b81548152906001019060200180831161055057829003601f168201915b5050509183525050600282015460208201526003909101546001600160a01b0381166040830152600160a01b900460ff1615156060909101529392505050565b600101610481565b5060405162461bcd60e51b815260206004820152601260248201527113585d195c9a585b081b9bdd08199bdd5b9960721b604482015260640160405180910390fd5b5f8181548110610605575f80fd5b5f918252602090912060039091020180546001820180546001600160a01b039092169350906106339061090f565b80601f016020809104026020016040519081016040528092919081815260200182805461065f9061090f565b80156106aa5780601f10610681576101008083540402835291602001916106aa565b820191905f5260205f20905b81548152906001019060200180831161068d57829003601f168201915b5050506002909301549192505060ff1683565b634e487b7160e01b5f52604160045260245ffd5b5f82601f8301126106e0575f5ffd5b813567ffffffffffffffff8111156106fa576106fa6106bd565b604051601f8201601f19908116603f0116810167ffffffffffffffff81118282101715610729576107296106bd565b604052818152838201602001851015610740575f5ffd5b816020850160208301375f918101602001919091529392505050565b5f5f6040838503121561076d575f5ffd5b823567ffffffffffffffff811115610783575f5ffd5b61078f858286016106d1565b95602094909401359450505050565b5f602082840312156107ae575f5ffd5b5035919050565b5f81518084528060208401602086015e5f602082860101526020601f19601f83011685010191505092915050565b85815260a060208201525f6107fb60a08301876107b5565b6040830195909552506001600160a01b03929092166060830152151560809091015292915050565b5f60208284031215610833575f5ffd5b813567ffffffffffffffff811115610849575f5ffd5b610855848285016106d1565b949350505050565b60208152815160208201525f602083015160a0604084015261088260c08401826107b5565b90506040840151606084015260018060a01b0360608501511660808401526080840151151560a08401528091505092915050565b6001600160a01b03841681526060602082018190525f906108d9908301856107b5565b90508215156040830152949350505050565b5f6001820161090857634e487b7160e01b5f52601160045260245ffd5b5060010190565b600181811c9082168061092357607f821691505b60208210810361094157634e487b7160e01b5f52602260045260245ffd5b50919050565b601f82111561098e57805f5260205f20601f840160051c8101602085101561096c5750805b601f840160051c820191505b8181101561098b575f8155600101610978565b50505b505050565b815167ffffffffffffffff8111156109ad576109ad6106bd565b6109c1816109bb845461090f565b84610947565b6020601f8211600181146109f3575f83156109dc5750848201515b5f19600385901b1c1916600184901b17845561098b565b5f84815260208120601f198516915b82811015610a225787850151825560209485019460019092019101610a02565b5084821015610a3f57868401515f19600387901b60f8161c191681555b50505050600190811b01905550565b634e487b7160e01b5f52603260045260245ffdfea26469706673582212201d63ef7d4a9105ad4ab26f31703f7f85cf5f3b6bae4f8a3f58294bee782ec64b64736f6c634300081e0033",
					"opcodes": "PUSH1 0x80 PUSH1 0x40 MSTORE CALLVALUE DUP1 ISZERO PUSH1 0xE JUMPI PUSH0 PUSH0 REVERT JUMPDEST POP PUSH2 0xA98 DUP1 PUSH2 0x1C PUSH0 CODECOPY PUSH0 RETURN INVALID PUSH1 0x80 PUSH1 0x40 MSTORE CALLVALUE DUP1 ISZERO PUSH2 0xF JUMPI PUSH0 PUSH0 REVERT JUMPDEST POP PUSH1 0x4 CALLDATASIZE LT PUSH2 0x7A JUMPI PUSH0 CALLDATALOAD PUSH1 0xE0 SHR DUP1 PUSH4 0x83E32B3F GT PUSH2 0x58 JUMPI DUP1 PUSH4 0x83E32B3F EQ PUSH2 0xD3 JUMPI DUP1 PUSH4 0xAAD7FB3C EQ PUSH2 0xEA JUMPI DUP1 PUSH4 0xC8E7060C EQ PUSH2 0xFD JUMPI DUP1 PUSH4 0xCEA23121 EQ PUSH2 0x11D JUMPI PUSH0 PUSH0 REVERT JUMPDEST DUP1 PUSH4 0x32E3C0DB EQ PUSH2 0x7E JUMPI DUP1 PUSH4 0x7A8E8526 EQ PUSH2 0x93 JUMPI DUP1 PUSH4 0x7FE03487 EQ PUSH2 0xC0 JUMPI JUMPDEST PUSH0 PUSH0 REVERT JUMPDEST PUSH2 0x91 PUSH2 0x8C CALLDATASIZE PUSH1 0x4 PUSH2 0x75C JUMP JUMPDEST PUSH2 0x13F JUMP JUMPDEST STOP JUMPDEST PUSH2 0xA6 PUSH2 0xA1 CALLDATASIZE PUSH1 0x4 PUSH2 0x79E JUMP JUMPDEST PUSH2 0x234 JUMP JUMPDEST PUSH1 0x40 MLOAD PUSH2 0xB7 SWAP6 SWAP5 SWAP4 SWAP3 SWAP2 SWAP1 PUSH2 0x7E3 JUMP JUMPDEST PUSH1 0x40 MLOAD DUP1 SWAP2 SUB SWAP1 RETURN JUMPDEST PUSH2 0x91 PUSH2 0xCE CALLDATASIZE PUSH1 0x4 PUSH2 0x79E JUMP JUMPDEST PUSH2 0x309 JUMP JUMPDEST PUSH2 0xDC PUSH1 0x2 SLOAD DUP2 JUMP JUMPDEST PUSH1 0x40 MLOAD SWAP1 DUP2 MSTORE PUSH1 0x20 ADD PUSH2 0xB7 JUMP JUMPDEST PUSH2 0x91 PUSH2 0xF8 CALLDATASIZE PUSH1 0x4 PUSH2 0x823 JUMP JUMPDEST PUSH2 0x384 JUMP JUMPDEST PUSH2 0x110 PUSH2 0x10B CALLDATASIZE PUSH1 0x4 PUSH2 0x79E JUMP JUMPDEST PUSH2 0x446 JUMP JUMPDEST PUSH1 0x40 MLOAD PUSH2 0xB7 SWAP2 SWAP1 PUSH2 0x85D JUMP JUMPDEST PUSH2 0x130 PUSH2 0x12B CALLDATASIZE PUSH1 0x4 PUSH2 0x79E JUMP JUMPDEST PUSH2 0x5F7 JUMP JUMPDEST PUSH1 0x40 MLOAD PUSH2 0xB7 SWAP4 SWAP3 SWAP2 SWAP1 PUSH2 0x8B6 JUMP JUMPDEST PUSH1 0x2 DUP1 SLOAD SWAP1 PUSH0 PUSH2 0x14E DUP4 PUSH2 0x8EB JUMP JUMPDEST SWAP1 SWAP2 SSTORE POP POP PUSH1 0x40 DUP1 MLOAD PUSH1 0xA0 DUP2 ADD DUP3 MSTORE PUSH1 0x2 SLOAD DUP2 MSTORE PUSH1 0x20 DUP2 ADD DUP5 DUP2 MSTORE SWAP2 DUP2 ADD DUP4 SWAP1 MSTORE CALLER PUSH1 0x60 DUP3 ADD MSTORE PUSH0 PUSH1 0x80 DUP3 ADD DUP2 SWAP1 MSTORE PUSH1 0x1 DUP1 SLOAD DUP1 DUP3 ADD DUP3 SSTORE SWAP2 MSTORE DUP2 MLOAD PUSH1 0x4 SWAP1 SWAP2 MUL PUSH32 0xB10E2D527612073B26EECDFD717E6A320CF44B4AFAC2B0732D9FCBE2B7FA0CF6 DUP2 ADD SWAP2 DUP3 SSTORE SWAP3 MLOAD SWAP2 SWAP3 SWAP1 SWAP2 PUSH32 0xB10E2D527612073B26EECDFD717E6A320CF44B4AFAC2B0732D9FCBE2B7FA0CF7 SWAP1 SWAP2 ADD SWAP1 PUSH2 0x1EA SWAP1 DUP3 PUSH2 0x993 JUMP JUMPDEST POP PUSH1 0x40 DUP3 ADD MLOAD PUSH1 0x2 DUP3 ADD SSTORE PUSH1 0x60 DUP3 ADD MLOAD PUSH1 0x3 SWAP1 SWAP2 ADD DUP1 SLOAD PUSH1 0x80 SWAP1 SWAP4 ADD MLOAD ISZERO ISZERO PUSH1 0x1 PUSH1 0xA0 SHL MUL PUSH1 0x1 PUSH1 0x1 PUSH1 0xA8 SHL SUB NOT SWAP1 SWAP4 AND PUSH1 0x1 PUSH1 0x1 PUSH1 0xA0 SHL SUB SWAP1 SWAP3 AND SWAP2 SWAP1 SWAP2 OR SWAP2 SWAP1 SWAP2 OR SWAP1 SSTORE POP POP JUMP JUMPDEST PUSH1 0x1 DUP2 DUP2 SLOAD DUP2 LT PUSH2 0x243 JUMPI PUSH0 DUP1 REVERT JUMPDEST PUSH0 SWAP2 DUP3 MSTORE PUSH1 0x20 SWAP1 SWAP2 KECCAK256 PUSH1 0x4 SWAP1 SWAP2 MUL ADD DUP1 SLOAD PUSH1 0x1 DUP3 ADD DUP1 SLOAD SWAP2 SWAP4 POP SWAP1 PUSH2 0x267 SWAP1 PUSH2 0x90F JUMP JUMPDEST DUP1 PUSH1 0x1F ADD PUSH1 0x20 DUP1 SWAP2 DIV MUL PUSH1 0x20 ADD PUSH1 0x40 MLOAD SWAP1 DUP2 ADD PUSH1 0x40 MSTORE DUP1 SWAP3 SWAP2 SWAP1 DUP2 DUP2 MSTORE PUSH1 0x20 ADD DUP3 DUP1 SLOAD PUSH2 0x293 SWAP1 PUSH2 0x90F JUMP JUMPDEST DUP1 ISZERO PUSH2 0x2DE JUMPI DUP1 PUSH1 0x1F LT PUSH2 0x2B5 JUMPI PUSH2 0x100 DUP1 DUP4 SLOAD DIV MUL DUP4 MSTORE SWAP2 PUSH1 0x20 ADD SWAP2 PUSH2 0x2DE JUMP JUMPDEST DUP3 ADD SWAP2 SWAP1 PUSH0 MSTORE PUSH1 0x20 PUSH0 KECCAK256 SWAP1 JUMPDEST DUP2 SLOAD DUP2 MSTORE SWAP1 PUSH1 0x1 ADD SWAP1 PUSH1 0x20 ADD DUP1 DUP4 GT PUSH2 0x2C1 JUMPI DUP3 SWAP1 SUB PUSH1 0x1F AND DUP3 ADD SWAP2 JUMPDEST POP POP POP POP PUSH1 0x2 DUP4 ADD SLOAD PUSH1 0x3 SWAP1 SWAP4 ADD SLOAD SWAP2 SWAP3 SWAP2 PUSH1 0x1 PUSH1 0x1 PUSH1 0xA0 SHL SUB DUP2 AND SWAP2 POP PUSH1 0x1 PUSH1 0xA0 SHL SWAP1 DIV PUSH1 0xFF AND DUP6 JUMP JUMPDEST PUSH0 JUMPDEST PUSH1 0x1 SLOAD DUP2 LT ISZERO PUSH2 0x380 JUMPI DUP2 PUSH1 0x1 DUP3 DUP2 SLOAD DUP2 LT PUSH2 0x329 JUMPI PUSH2 0x329 PUSH2 0xA4E JUMP JUMPDEST SWAP1 PUSH0 MSTORE PUSH1 0x20 PUSH0 KECCAK256 SWAP1 PUSH1 0x4 MUL ADD PUSH0 ADD SLOAD SUB PUSH2 0x378 JUMPI PUSH1 0x1 DUP1 DUP3 DUP2 SLOAD DUP2 LT PUSH2 0x351 JUMPI PUSH2 0x351 PUSH2 0xA4E JUMP JUMPDEST SWAP1 PUSH0 MSTORE PUSH1 0x20 PUSH0 KECCAK256 SWAP1 PUSH1 0x4 MUL ADD PUSH1 0x3 ADD PUSH1 0x14 PUSH2 0x100 EXP DUP2 SLOAD DUP2 PUSH1 0xFF MUL NOT AND SWAP1 DUP4 ISZERO ISZERO MUL OR SWAP1 SSTORE POP JUMPDEST PUSH1 0x1 ADD PUSH2 0x30B JUMP JUMPDEST POP POP JUMP JUMPDEST PUSH1 0x40 DUP1 MLOAD PUSH1 0x60 DUP2 ADD DUP3 MSTORE CALLER DUP2 MSTORE PUSH1 0x20 DUP2 ADD DUP4 DUP2 MSTORE PUSH1 0x1 SWAP3 DUP3 ADD DUP4 SWAP1 MSTORE PUSH0 DUP1 SLOAD SWAP4 DUP5 ADD DUP2 SSTORE DUP1 MSTORE DUP2 MLOAD PUSH32 0x290DECD9548B62A8D60345A988386FC84BA6BC95484008F6362F93160EF3E563 PUSH1 0x3 SWAP1 SWAP5 MUL SWAP4 DUP5 ADD DUP1 SLOAD PUSH1 0x1 PUSH1 0x1 PUSH1 0xA0 SHL SUB NOT AND PUSH1 0x1 PUSH1 0x1 PUSH1 0xA0 SHL SUB SWAP1 SWAP3 AND SWAP2 SWAP1 SWAP2 OR DUP2 SSTORE SWAP1 MLOAD SWAP2 SWAP3 SWAP1 SWAP2 PUSH32 0x290DECD9548B62A8D60345A988386FC84BA6BC95484008F6362F93160EF3E564 SWAP1 SWAP2 ADD SWAP1 PUSH2 0x427 SWAP1 DUP3 PUSH2 0x993 JUMP JUMPDEST POP PUSH1 0x40 SWAP2 SWAP1 SWAP2 ADD MLOAD PUSH1 0x2 SWAP1 SWAP2 ADD DUP1 SLOAD PUSH1 0xFF NOT AND SWAP2 ISZERO ISZERO SWAP2 SWAP1 SWAP2 OR SWAP1 SSTORE POP JUMP JUMPDEST PUSH2 0x47F PUSH1 0x40 MLOAD DUP1 PUSH1 0xA0 ADD PUSH1 0x40 MSTORE DUP1 PUSH0 DUP2 MSTORE PUSH1 0x20 ADD PUSH1 0x60 DUP2 MSTORE PUSH1 0x20 ADD PUSH0 DUP2 MSTORE PUSH1 0x20 ADD PUSH0 PUSH1 0x1 PUSH1 0x1 PUSH1 0xA0 SHL SUB AND DUP2 MSTORE PUSH1 0x20 ADD PUSH0 ISZERO ISZERO DUP2 MSTORE POP SWAP1 JUMP JUMPDEST PUSH0 JUMPDEST PUSH1 0x1 SLOAD DUP2 LT ISZERO PUSH2 0x5B5 JUMPI DUP3 PUSH1 0x1 DUP3 DUP2 SLOAD DUP2 LT PUSH2 0x49F JUMPI PUSH2 0x49F PUSH2 0xA4E JUMP JUMPDEST SWAP1 PUSH0 MSTORE PUSH1 0x20 PUSH0 KECCAK256 SWAP1 PUSH1 0x4 MUL ADD PUSH0 ADD SLOAD SUB PUSH2 0x5AD JUMPI PUSH1 0x1 DUP2 DUP2 SLOAD DUP2 LT PUSH2 0x4C6 JUMPI PUSH2 0x4C6 PUSH2 0xA4E JUMP JUMPDEST SWAP1 PUSH0 MSTORE PUSH1 0x20 PUSH0 KECCAK256 SWAP1 PUSH1 0x4 MUL ADD PUSH1 0x40 MLOAD DUP1 PUSH1 0xA0 ADD PUSH1 0x40 MSTORE SWAP1 DUP2 PUSH0 DUP3 ADD SLOAD DUP2 MSTORE PUSH1 0x20 ADD PUSH1 0x1 DUP3 ADD DUP1 SLOAD PUSH2 0x4F6 SWAP1 PUSH2 0x90F JUMP JUMPDEST DUP1 PUSH1 0x1F ADD PUSH1 0x20 DUP1 SWAP2 DIV MUL PUSH1 0x20 ADD PUSH1 0x40 MLOAD SWAP1 DUP2 ADD PUSH1 0x40 MSTORE DUP1 SWAP3 SWAP2 SWAP1 DUP2 DUP2 MSTORE PUSH1 0x20 ADD DUP3 DUP1 SLOAD PUSH2 0x522 SWAP1 PUSH2 0x90F JUMP JUMPDEST DUP1 ISZERO PUSH2 0x56D JUMPI DUP1 PUSH1 0x1F LT PUSH2 0x544 JUMPI PUSH2 0x100 DUP1 DUP4 SLOAD DIV MUL DUP4 MSTORE SWAP2 PUSH1 0x20 ADD SWAP2 PUSH2 0x56D JUMP JUMPDEST DUP3 ADD SWAP2 SWAP1 PUSH0 MSTORE PUSH1 0x20 PUSH0 KECCAK256 SWAP1 JUMPDEST DUP2 SLOAD DUP2 MSTORE SWAP1 PUSH1 0x1 ADD SWAP1 PUSH1 0x20 ADD DUP1 DUP4 GT PUSH2 0x550 JUMPI DUP3 SWAP1 SUB PUSH1 0x1F AND DUP3 ADD SWAP2 JUMPDEST POP POP POP SWAP2 DUP4 MSTORE POP POP PUSH1 0x2 DUP3 ADD SLOAD PUSH1 0x20 DUP3 ADD MSTORE PUSH1 0x3 SWAP1 SWAP2 ADD SLOAD PUSH1 0x1 PUSH1 0x1 PUSH1 0xA0 SHL SUB DUP2 AND PUSH1 0x40 DUP4 ADD MSTORE PUSH1 0x1 PUSH1 0xA0 SHL SWAP1 DIV PUSH1 0xFF AND ISZERO ISZERO PUSH1 0x60 SWAP1 SWAP2 ADD MSTORE SWAP4 SWAP3 POP POP POP JUMP JUMPDEST PUSH1 0x1 ADD PUSH2 0x481 JUMP JUMPDEST POP PUSH1 0x40 MLOAD PUSH3 0x461BCD PUSH1 0xE5 SHL DUP2 MSTORE PUSH1 0x20 PUSH1 0x4 DUP3 ADD MSTORE PUSH1 0x12 PUSH1 0x24 DUP3 ADD MSTORE PUSH18 0x13585D195C9A585B081B9BDD08199BDD5B99 PUSH1 0x72 SHL PUSH1 0x44 DUP3 ADD MSTORE PUSH1 0x64 ADD PUSH1 0x40 MLOAD DUP1 SWAP2 SUB SWAP1 REVERT JUMPDEST PUSH0 DUP2 DUP2 SLOAD DUP2 LT PUSH2 0x605 JUMPI PUSH0 DUP1 REVERT JUMPDEST PUSH0 SWAP2 DUP3 MSTORE PUSH1 0x20 SWAP1 SWAP2 KECCAK256 PUSH1 0x3 SWAP1 SWAP2 MUL ADD DUP1 SLOAD PUSH1 0x1 DUP3 ADD DUP1 SLOAD PUSH1 0x1 PUSH1 0x1 PUSH1 0xA0 SHL SUB SWAP1 SWAP3 AND SWAP4 POP SWAP1 PUSH2 0x633 SWAP1 PUSH2 0x90F JUMP JUMPDEST DUP1 PUSH1 0x1F ADD PUSH1 0x20 DUP1 SWAP2 DIV MUL PUSH1 0x20 ADD PUSH1 0x40 MLOAD SWAP1 DUP2 ADD PUSH1 0x40 MSTORE DUP1 SWAP3 SWAP2 SWAP1 DUP2 DUP2 MSTORE PUSH1 0x20 ADD DUP3 DUP1 SLOAD PUSH2 0x65F SWAP1 PUSH2 0x90F JUMP JUMPDEST DUP1 ISZERO PUSH2 0x6AA JUMPI DUP1 PUSH1 0x1F LT PUSH2 0x681 JUMPI PUSH2 0x100 DUP1 DUP4 SLOAD DIV MUL DUP4 MSTORE SWAP2 PUSH1 0x20 ADD SWAP2 PUSH2 0x6AA JUMP JUMPDEST DUP3 ADD SWAP2 SWAP1 PUSH0 MSTORE PUSH1 0x20 PUSH0 KECCAK256 SWAP1 JUMPDEST DUP2 SLOAD DUP2 MSTORE SWAP1 PUSH1 0x1 ADD SWAP1 PUSH1 0x20 ADD DUP1 DUP4 GT PUSH2 0x68D JUMPI DUP3 SWAP1 SUB PUSH1 0x1F AND DUP3 ADD SWAP2 JUMPDEST POP POP POP PUSH1 0x2 SWAP1 SWAP4 ADD SLOAD SWAP2 SWAP3 POP POP PUSH1 0xFF AND DUP4 JUMP JUMPDEST PUSH4 0x4E487B71 PUSH1 0xE0 SHL PUSH0 MSTORE PUSH1 0x41 PUSH1 0x4 MSTORE PUSH1 0x24 PUSH0 REVERT JUMPDEST PUSH0 DUP3 PUSH1 0x1F DUP4 ADD SLT PUSH2 0x6E0 JUMPI PUSH0 PUSH0 REVERT JUMPDEST DUP2 CALLDATALOAD PUSH8 0xFFFFFFFFFFFFFFFF DUP2 GT ISZERO PUSH2 0x6FA JUMPI PUSH2 0x6FA PUSH2 0x6BD JUMP JUMPDEST PUSH1 0x40 MLOAD PUSH1 0x1F DUP3 ADD PUSH1 0x1F NOT SWAP1 DUP2 AND PUSH1 0x3F ADD AND DUP2 ADD PUSH8 0xFFFFFFFFFFFFFFFF DUP2 GT DUP3 DUP3 LT OR ISZERO PUSH2 0x729 JUMPI PUSH2 0x729 PUSH2 0x6BD JUMP JUMPDEST PUSH1 0x40 MSTORE DUP2 DUP2 MSTORE DUP4 DUP3 ADD PUSH1 0x20 ADD DUP6 LT ISZERO PUSH2 0x740 JUMPI PUSH0 PUSH0 REVERT JUMPDEST DUP2 PUSH1 0x20 DUP6 ADD PUSH1 0x20 DUP4 ADD CALLDATACOPY PUSH0 SWAP2 DUP2 ADD PUSH1 0x20 ADD SWAP2 SWAP1 SWAP2 MSTORE SWAP4 SWAP3 POP POP POP JUMP JUMPDEST PUSH0 PUSH0 PUSH1 0x40 DUP4 DUP6 SUB SLT ISZERO PUSH2 0x76D JUMPI PUSH0 PUSH0 REVERT JUMPDEST DUP3 CALLDATALOAD PUSH8 0xFFFFFFFFFFFFFFFF DUP2 GT ISZERO PUSH2 0x783 JUMPI PUSH0 PUSH0 REVERT JUMPDEST PUSH2 0x78F DUP6 DUP3 DUP7 ADD PUSH2 0x6D1 JUMP JUMPDEST SWAP6 PUSH1 0x20 SWAP5 SWAP1 SWAP5 ADD CALLDATALOAD SWAP5 POP POP POP POP JUMP JUMPDEST PUSH0 PUSH1 0x20 DUP3 DUP5 SUB SLT ISZERO PUSH2 0x7AE JUMPI PUSH0 PUSH0 REVERT JUMPDEST POP CALLDATALOAD SWAP2 SWAP1 POP JUMP JUMPDEST PUSH0 DUP2 MLOAD DUP1 DUP5 MSTORE DUP1 PUSH1 0x20 DUP5 ADD PUSH1 0x20 DUP7 ADD MCOPY PUSH0 PUSH1 0x20 DUP3 DUP7 ADD ADD MSTORE PUSH1 0x20 PUSH1 0x1F NOT PUSH1 0x1F DUP4 ADD AND DUP6 ADD ADD SWAP2 POP POP SWAP3 SWAP2 POP POP JUMP JUMPDEST DUP6 DUP2 MSTORE PUSH1 0xA0 PUSH1 0x20 DUP3 ADD MSTORE PUSH0 PUSH2 0x7FB PUSH1 0xA0 DUP4 ADD DUP8 PUSH2 0x7B5 JUMP JUMPDEST PUSH1 0x40 DUP4 ADD SWAP6 SWAP1 SWAP6 MSTORE POP PUSH1 0x1 PUSH1 0x1 PUSH1 0xA0 SHL SUB SWAP3 SWAP1 SWAP3 AND PUSH1 0x60 DUP4 ADD MSTORE ISZERO ISZERO PUSH1 0x80 SWAP1 SWAP2 ADD MSTORE SWAP3 SWAP2 POP POP JUMP JUMPDEST PUSH0 PUSH1 0x20 DUP3 DUP5 SUB SLT ISZERO PUSH2 0x833 JUMPI PUSH0 PUSH0 REVERT JUMPDEST DUP2 CALLDATALOAD PUSH8 0xFFFFFFFFFFFFFFFF DUP2 GT ISZERO PUSH2 0x849 JUMPI PUSH0 PUSH0 REVERT JUMPDEST PUSH2 0x855 DUP5 DUP3 DUP6 ADD PUSH2 0x6D1 JUMP JUMPDEST SWAP5 SWAP4 POP POP POP POP JUMP JUMPDEST PUSH1 0x20 DUP2 MSTORE DUP2 MLOAD PUSH1 0x20 DUP3 ADD MSTORE PUSH0 PUSH1 0x20 DUP4 ADD MLOAD PUSH1 0xA0 PUSH1 0x40 DUP5 ADD MSTORE PUSH2 0x882 PUSH1 0xC0 DUP5 ADD DUP3 PUSH2 0x7B5 JUMP JUMPDEST SWAP1 POP PUSH1 0x40 DUP5 ADD MLOAD PUSH1 0x60 DUP5 ADD MSTORE PUSH1 0x1 DUP1 PUSH1 0xA0 SHL SUB PUSH1 0x60 DUP6 ADD MLOAD AND PUSH1 0x80 DUP5 ADD MSTORE PUSH1 0x80 DUP5 ADD MLOAD ISZERO ISZERO PUSH1 0xA0 DUP5 ADD MSTORE DUP1 SWAP2 POP POP SWAP3 SWAP2 POP POP JUMP JUMPDEST PUSH1 0x1 PUSH1 0x1 PUSH1 0xA0 SHL SUB DUP5 AND DUP2 MSTORE PUSH1 0x60 PUSH1 0x20 DUP3 ADD DUP2 SWAP1 MSTORE PUSH0 SWAP1 PUSH2 0x8D9 SWAP1 DUP4 ADD DUP6 PUSH2 0x7B5 JUMP JUMPDEST SWAP1 POP DUP3 ISZERO ISZERO PUSH1 0x40 DUP4 ADD MSTORE SWAP5 SWAP4 POP POP POP POP JUMP JUMPDEST PUSH0 PUSH1 0x1 DUP3 ADD PUSH2 0x908 JUMPI PUSH4 0x4E487B71 PUSH1 0xE0 SHL PUSH0 MSTORE PUSH1 0x11 PUSH1 0x4 MSTORE PUSH1 0x24 PUSH0 REVERT JUMPDEST POP PUSH1 0x1 ADD SWAP1 JUMP JUMPDEST PUSH1 0x1 DUP2 DUP2 SHR SWAP1 DUP3 AND DUP1 PUSH2 0x923 JUMPI PUSH1 0x7F DUP3 AND SWAP2 POP JUMPDEST PUSH1 0x20 DUP3 LT DUP2 SUB PUSH2 0x941 JUMPI PUSH4 0x4E487B71 PUSH1 0xE0 SHL PUSH0 MSTORE PUSH1 0x22 PUSH1 0x4 MSTORE PUSH1 0x24 PUSH0 REVERT JUMPDEST POP SWAP2 SWAP1 POP JUMP JUMPDEST PUSH1 0x1F DUP3 GT ISZERO PUSH2 0x98E JUMPI DUP1 PUSH0 MSTORE PUSH1 0x20 PUSH0 KECCAK256 PUSH1 0x1F DUP5 ADD PUSH1 0x5 SHR DUP2 ADD PUSH1 0x20 DUP6 LT ISZERO PUSH2 0x96C JUMPI POP DUP1 JUMPDEST PUSH1 0x1F DUP5 ADD PUSH1 0x5 SHR DUP3 ADD SWAP2 POP JUMPDEST DUP2 DUP2 LT ISZERO PUSH2 0x98B JUMPI PUSH0 DUP2 SSTORE PUSH1 0x1 ADD PUSH2 0x978 JUMP JUMPDEST POP POP JUMPDEST POP POP POP JUMP JUMPDEST DUP2 MLOAD PUSH8 0xFFFFFFFFFFFFFFFF DUP2 GT ISZERO PUSH2 0x9AD JUMPI PUSH2 0x9AD PUSH2 0x6BD JUMP JUMPDEST PUSH2 0x9C1 DUP2 PUSH2 0x9BB DUP5 SLOAD PUSH2 0x90F JUMP JUMPDEST DUP5 PUSH2 0x947 JUMP JUMPDEST PUSH1 0x20 PUSH1 0x1F DUP3 GT PUSH1 0x1 DUP2 EQ PUSH2 0x9F3 JUMPI PUSH0 DUP4 ISZERO PUSH2 0x9DC JUMPI POP DUP5 DUP3 ADD MLOAD JUMPDEST PUSH0 NOT PUSH1 0x3 DUP6 SWAP1 SHL SHR NOT AND PUSH1 0x1 DUP5 SWAP1 SHL OR DUP5 SSTORE PUSH2 0x98B JUMP JUMPDEST PUSH0 DUP5 DUP2 MSTORE PUSH1 0x20 DUP2 KECCAK256 PUSH1 0x1F NOT DUP6 AND SWAP2 JUMPDEST DUP3 DUP2 LT ISZERO PUSH2 0xA22 JUMPI DUP8 DUP6 ADD MLOAD DUP3 SSTORE PUSH1 0x20 SWAP5 DUP6 ADD SWAP5 PUSH1 0x1 SWAP1 SWAP3 ADD SWAP2 ADD PUSH2 0xA02 JUMP JUMPDEST POP DUP5 DUP3 LT ISZERO PUSH2 0xA3F JUMPI DUP7 DUP5 ADD MLOAD PUSH0 NOT PUSH1 0x3 DUP8 SWAP1 SHL PUSH1 0xF8 AND SHR NOT AND DUP2 SSTORE JUMPDEST POP POP POP POP PUSH1 0x1 SWAP1 DUP2 SHL ADD SWAP1 SSTORE POP JUMP JUMPDEST PUSH4 0x4E487B71 PUSH1 0xE0 SHL PUSH0 MSTORE PUSH1 0x32 PUSH1 0x4 MSTORE PUSH1 0x24 PUSH0 REVERT INVALID LOG2 PUSH5 0x6970667358 0x22 SLT KECCAK256 SAR PUSH4 0xEF7D4A91 SDIV 0xAD BLOBBASEFEE 0xB2 PUSH16 0x31703F7F85CF5F3B6BAE4F8A3F58294B RETURNCONTRACT 0x78 0x2E 0xC6 0x4B PUSH5 0x736F6C6343 STOP ADDMOD 0x1E STOP CALLER "
				},
				"gasEstimates": {
					"creation": {
						"codeDepositCost": "542400",
						"executionCost": "573",
						"totalCost": "542973"
					},
					"external": {
						"addMaterial(string,uint256)": "infinite",
						"deliverMaterial(uint256)": "infinite",
						"findMaterial(uint256)": "infinite",
						"materialCounter()": "2294",
						"materials(uint256)": "infinite",
						"registerSupplier(string)": "infinite",
						"suppliers(uint256)": "infinite"
					}
				},
				"methodIdentifiers": {
					"addMaterial(string,uint256)": "32e3c0db",
					"deliverMaterial(uint256)": "7fe03487",
					"findMaterial(uint256)": "c8e7060c",
					"materialCounter()": "83e32b3f",
					"materials(uint256)": "7a8e8526",
					"registerSupplier(string)": "aad7fb3c",
					"suppliers(uint256)": "cea23121"
				}
			},
			"storageLayout": {
				"storage": [
					{
						"astId": 23,
						"contract": "unoptimized material supply contract.sol:MaterialSupply",
						"label": "suppliers",
						"offset": 0,
						"slot": "0",
						"type": "t_array(t_struct(Supplier)8_storage)dyn_storage"
					},
					{
						"astId": 27,
						"contract": "unoptimized material supply contract.sol:MaterialSupply",
						"label": "materials",
						"offset": 0,
						"slot": "1",
						"type": "t_array(t_struct(Material)19_storage)dyn_storage"
					},
					{
						"astId": 29,
						"contract": "unoptimized material supply contract.sol:MaterialSupply",
						"label": "materialCounter",
						"offset": 0,
						"slot": "2",
						"type": "t_uint256"
					}
				],
				"types": {
					"t_address": {
						"encoding": "inplace",
						"label": "address",
						"numberOfBytes": "20"
					},
					"t_array(t_struct(Material)19_storage)dyn_storage": {
						"base": "t_struct(Material)19_storage",
						"encoding": "dynamic_array",
						"label": "struct MaterialSupply.Material[]",
						"numberOfBytes": "32"
					},
					"t_array(t_struct(Supplier)8_storage)dyn_storage": {
						"base": "t_struct(Supplier)8_storage",
						"encoding": "dynamic_array",
						"label": "struct MaterialSupply.Supplier[]",
						"numberOfBytes": "32"
					},
					"t_bool": {
						"encoding": "inplace",
						"label": "bool",
						"numberOfBytes": "1"
					},
					"t_string_storage": {
						"encoding": "bytes",
						"label": "string",
						"numberOfBytes": "32"
					},
					"t_struct(Material)19_storage": {
						"encoding": "inplace",
						"label": "struct MaterialSupply.Material",
						"members": [
							{
								"astId": 10,
								"contract": "unoptimized material supply contract.sol:MaterialSupply",
								"label": "materialId",
								"offset": 0,
								"slot": "0",
								"type": "t_uint256"
							},
							{
								"astId": 12,
								"contract": "unoptimized material supply contract.sol:MaterialSupply",
								"label": "name",
								"offset": 0,
								"slot": "1",
								"type": "t_string_storage"
							},
							{
								"astId": 14,
								"contract": "unoptimized material supply contract.sol:MaterialSupply",
								"label": "quantity",
								"offset": 0,
								"slot": "2",
								"type": "t_uint256"
							},
							{
								"astId": 16,
								"contract": "unoptimized material supply contract.sol:MaterialSupply",
								"label": "supplier",
								"offset": 0,
								"slot": "3",
								"type": "t_address"
							},
							{
								"astId": 18,
								"contract": "unoptimized material supply contract.sol:MaterialSupply",
								"label": "delivered",
								"offset": 20,
								"slot": "3",
								"type": "t_bool"
							}
						],
						"numberOfBytes": "128"
					},
					"t_struct(Supplier)8_storage": {
						"encoding": "inplace",
						"label": "struct MaterialSupply.Supplier",
						"members": [
							{
								"astId": 3,
								"contract": "unoptimized material supply contract.sol:MaterialSupply",
								"label": "supplierAddress",
								"offset": 0,
								"slot": "0",
								"type": "t_address"
							},
							{
								"astId": 5,
								"contract": "unoptimized material supply contract.sol:MaterialSupply",
								"label": "name",
								"offset": 0,
								"slot": "1",
								"type": "t_string_storage"
							},
							{
								"astId": 7,
								"contract": "unoptimized material supply contract.sol:MaterialSupply",
								"label": "isRegistered",
								"offset": 0,
								"slot": "2",
								"type": "t_bool"
							}
						],
						"numberOfBytes": "96"
					},
					"t_uint256": {
						"encoding": "inplace",
						"label": "uint256",
						"numberOfBytes": "32"
					}
				}
			},
			"userdoc": {
				"kind": "user",
				"methods": {},
				"version": 1
			}
		}
	}
}