{
	"unoptimized pharmaceutical supplychain.sol": {
		"PharmaceuticalSupplyChain": {
			"abi": [
				{
					"inputs": [
						{
							"internalType": "string",
							"name": "_name",
							"type": "string"
						}
					],
					"name": "addMedicine",
					"outputs": [],
					"stateMutability": "nonpayable",
					"type": "function"
				},
				{
					"inputs": [
						{
							"internalType": "uint256",
							"name": "_id",
							"type": "uint256"
						},
						{
							"internalType": "address",
							"name": "_dist",
							"type": "address"
						}
					],
					"name": "approveDistributor",
					"outputs": [],
					"stateMutability": "nonpayable",
					"type": "function"
				},
				{
					"inputs": [
						{
							"internalType": "uint256",
							"name": "_id",
							"type": "uint256"
						}
					],
					"name": "approveMedicine",
					"outputs": [],
					"stateMutability": "nonpayable",
					"type": "function"
				},
				{
					"inputs": [
						{
							"internalType": "uint256",
							"name": "",
							"type": "uint256"
						}
					],
					"name": "companies",
					"outputs": [
						{
							"internalType": "address",
							"name": "companyAddress",
							"type": "address"
						},
						{
							"internalType": "string",
							"name": "name",
							"type": "string"
						},
						{
							"internalType": "bool",
							"name": "approved",
							"type": "bool"
						},
						{
							"internalType": "uint256",
							"name": "createdAt",
							"type": "uint256"
						}
					],
					"stateMutability": "view",
					"type": "function"
				},
				{
					"inputs": [
						{
							"internalType": "uint256",
							"name": "",
							"type": "uint256"
						}
					],
					"name": "companyAddresses",
					"outputs": [
						{
							"internalType": "address",
							"name": "",
							"type": "address"
						}
					],
					"stateMutability": "view",
					"type": "function"
				},
				{
					"inputs": [
						{
							"internalType": "uint256",
							"name": "_id",
							"type": "uint256"
						}
					],
					"name": "dispatchMedicine",
					"outputs": [],
					"stateMutability": "nonpayable",
					"type": "function"
				},
				{
					"inputs": [],
					"name": "medicineCounter",
					"outputs": [
						{
							"internalType": "uint256",
							"name": "",
							"type": "uint256"
						}
					],
					"stateMutability": "view",
					"type": "function"
				},
				{
					"inputs": [
						{
							"internalType": "uint256",
							"name": "",
							"type": "uint256"
						}
					],
					"name": "medicineIds",
					"outputs": [
						{
							"internalType": "uint256",
							"name": "",
							"type": "uint256"
						}
					],
					"stateMutability": "view",
					"type": "function"
				},
				{
					"inputs": [
						{
							"internalType": "uint256",
							"name": "",
							"type": "uint256"
						}
					],
					"name": "medicines",
					"outputs": [
						{
							"internalType": "uint256",
							"name": "medicineId",
							"type": "uint256"
						},
						{
							"internalType": "string",
							"name": "name",
							"type": "string"
						},
						{
							"internalType": "address",
							"name": "manufacturer",
							"type": "address"
						},
						{
							"internalType": "bool",
							"name": "approved",
							"type": "bool"
						},
						{
							"internalType": "address",
							"name": "distributor",
							"type": "address"
						},
						{
							"internalType": "address",
							"name": "owner",
							"type": "address"
						},
						{
							"internalType": "uint256",
							"name": "createdAt",
							"type": "uint256"
						},
						{
							"internalType": "uint256",
							"name": "updatedAt",
							"type": "uint256"
						}
					],
					"stateMutability": "view",
					"type": "function"
				},
				{
					"inputs": [
						{
							"internalType": "string",
							"name": "_name",
							"type": "string"
						}
					],
					"name": "registerCompany",
					"outputs": [],
					"stateMutability": "nonpayable",
					"type": "function"
				},
				{
					"inputs": [
						{
							"internalType": "uint256",
							"name": "_id",
							"type": "uint256"
						}
					],
					"name": "removeDistributor",
					"outputs": [],
					"stateMutability": "nonpayable",
					"type": "function"
				},
				{
					"inputs": [
						{
							"internalType": "uint256",
							"name": "_id",
							"type": "uint256"
						},
						{
							"internalType": "address",
							"name": "_newOwner",
							"type": "address"
						}
					],
					"name": "transferOwnership",
					"outputs": [],
					"stateMutability": "nonpayable",
					"type": "function"
				}
			],
			"devdoc": {
				"kind": "dev",
				"methods": {},
				"version": 1
			},
			"evm": {
				"assembly": "    /* \"unoptimized pharmaceutical supplychain.sol\":61:4665  contract PharmaceuticalSupplyChain {... */\n  mstore(0x40, 0x80)\n  callvalue\n  dup1\n  iszero\n  tag_1\n  jumpi\n  revert(0x00, 0x00)\ntag_1:\n  pop\n  dataSize(sub_0)\n  dup1\n  dataOffset(sub_0)\n  0x00\n  codecopy\n  0x00\n  return\nstop\n\nsub_0: assembly {\n        /* \"unoptimized pharmaceutical supplychain.sol\":61:4665  contract PharmaceuticalSupplyChain {... */\n      mstore(0x40, 0x80)\n      callvalue\n      dup1\n      iszero\n      tag_1\n      jumpi\n      revert(0x00, 0x00)\n    tag_1:\n      pop\n      jumpi(tag_2, lt(calldatasize, 0x04))\n      shr(0xe0, calldataload(0x00))\n      dup1\n      0xa5d7cedd\n      gt\n      tag_15\n      jumpi\n      dup1\n      0xa5d7cedd\n      eq\n      tag_9\n      jumpi\n      dup1\n      0xac859a4b\n      eq\n      tag_10\n      jumpi\n      dup1\n      0xaca9daa3\n      eq\n      tag_11\n      jumpi\n      dup1\n      0xbfc6e00a\n      eq\n      tag_12\n      jumpi\n      dup1\n      0xc85e766d\n      eq\n      tag_13\n      jumpi\n      dup1\n      0xf3e00839\n      eq\n      tag_14\n      jumpi\n      jump(tag_2)\n    tag_15:\n      dup1\n      0x544194\n      eq\n      tag_3\n      jumpi\n      dup1\n      0x2813d19d\n      eq\n      tag_4\n      jumpi\n      dup1\n      0x29507f73\n      eq\n      tag_5\n      jumpi\n      dup1\n      0x60234f10\n      eq\n      tag_6\n      jumpi\n      dup1\n      0x7fd6a66b\n      eq\n      tag_7\n      jumpi\n      dup1\n      0x99687845\n      eq\n      tag_8\n      jumpi\n    tag_2:\n      revert(0x00, 0x00)\n        /* \"unoptimized pharmaceutical supplychain.sol\":920:1377  function registerCompany(string memory _name) public {... */\n    tag_3:\n      tag_16\n      0x04\n      dup1\n      calldatasize\n      sub\n      dup2\n      add\n      swap1\n      tag_17\n      swap2\n      swap1\n      tag_18\n      jump\t// in\n    tag_17:\n      tag_19\n      jump\t// in\n    tag_16:\n      stop\n        /* \"unoptimized pharmaceutical supplychain.sol\":637:663  Company[] public companies */\n    tag_4:\n      tag_20\n      0x04\n      dup1\n      calldatasize\n      sub\n      dup2\n      add\n      swap1\n      tag_21\n      swap2\n      swap1\n      tag_22\n      jump\t// in\n    tag_21:\n      tag_23\n      jump\t// in\n    tag_20:\n      mload(0x40)\n      tag_24\n      swap5\n      swap4\n      swap3\n      swap2\n      swap1\n      tag_25\n      jump\t// in\n    tag_24:\n      mload(0x40)\n      dup1\n      swap2\n      sub\n      swap1\n      return\n        /* \"unoptimized pharmaceutical supplychain.sol\":4183:4662  function transferOwnership(uint256 _id, address _newOwner) public {... */\n    tag_5:\n      tag_26\n      0x04\n      dup1\n      calldatasize\n      sub\n      dup2\n      add\n      swap1\n      tag_27\n      swap2\n      swap1\n      tag_28\n      jump\t// in\n    tag_27:\n      tag_29\n      jump\t// in\n    tag_26:\n      stop\n        /* \"unoptimized pharmaceutical supplychain.sol\":1406:2015  function addMedicine(string memory _name) public {... */\n    tag_6:\n      tag_30\n      0x04\n      dup1\n      calldatasize\n      sub\n      dup2\n      add\n      swap1\n      tag_31\n      swap2\n      swap1\n      tag_18\n      jump\t// in\n    tag_31:\n      tag_32\n      jump\t// in\n    tag_30:\n      stop\n        /* \"unoptimized pharmaceutical supplychain.sol\":2049:2561  function approveMedicine(uint256 _id) public {... */\n    tag_7:\n      tag_33\n      0x04\n      dup1\n      calldatasize\n      sub\n      dup2\n      add\n      swap1\n      tag_34\n      swap2\n      swap1\n      tag_22\n      jump\t// in\n    tag_34:\n      tag_35\n      jump\t// in\n    tag_33:\n      stop\n        /* \"unoptimized pharmaceutical supplychain.sol\":814:847  address[] public companyAddresses */\n    tag_8:\n      tag_36\n      0x04\n      dup1\n      calldatasize\n      sub\n      dup2\n      add\n      swap1\n      tag_37\n      swap2\n      swap1\n      tag_22\n      jump\t// in\n    tag_37:\n      tag_38\n      jump\t// in\n    tag_36:\n      mload(0x40)\n      tag_39\n      swap2\n      swap1\n      tag_40\n      jump\t// in\n    tag_39:\n      mload(0x40)\n      dup1\n      swap2\n      sub\n      swap1\n      return\n        /* \"unoptimized pharmaceutical supplychain.sol\":779:807  uint256[] public medicineIds */\n    tag_9:\n      tag_41\n      0x04\n      dup1\n      calldatasize\n      sub\n      dup2\n      add\n      swap1\n      tag_42\n      swap2\n      swap1\n      tag_22\n      jump\t// in\n    tag_42:\n      tag_43\n      jump\t// in\n    tag_41:\n      mload(0x40)\n      tag_44\n      swap2\n      swap1\n      tag_45\n      jump\t// in\n    tag_44:\n      mload(0x40)\n      dup1\n      swap2\n      sub\n      swap1\n      return\n        /* \"unoptimized pharmaceutical supplychain.sol\":856:886  uint256 public medicineCounter */\n    tag_10:\n      tag_46\n      tag_47\n      jump\t// in\n    tag_46:\n      mload(0x40)\n      tag_48\n      swap2\n      swap1\n      tag_45\n      jump\t// in\n    tag_48:\n      mload(0x40)\n      dup1\n      swap2\n      sub\n      swap1\n      return\n        /* \"unoptimized pharmaceutical supplychain.sol\":3735:4148  function removeDistributor(uint256 _id) public {... */\n    tag_11:\n      tag_49\n      0x04\n      dup1\n      calldatasize\n      sub\n      dup2\n      add\n      swap1\n      tag_50\n      swap2\n      swap1\n      tag_22\n      jump\t// in\n    tag_50:\n      tag_51\n      jump\t// in\n    tag_49:\n      stop\n        /* \"unoptimized pharmaceutical supplychain.sol\":2598:3095  function approveDistributor(uint256 _id, address _dist) public {... */\n    tag_12:\n      tag_52\n      0x04\n      dup1\n      calldatasize\n      sub\n      dup2\n      add\n      swap1\n      tag_53\n      swap2\n      swap1\n      tag_28\n      jump\t// in\n    tag_53:\n      tag_54\n      jump\t// in\n    tag_52:\n      stop\n        /* \"unoptimized pharmaceutical supplychain.sol\":670:697  Medicine[] public medicines */\n    tag_13:\n      tag_55\n      0x04\n      dup1\n      calldatasize\n      sub\n      dup2\n      add\n      swap1\n      tag_56\n      swap2\n      swap1\n      tag_22\n      jump\t// in\n    tag_56:\n      tag_57\n      jump\t// in\n    tag_55:\n      mload(0x40)\n      tag_58\n      swap9\n      swap8\n      swap7\n      swap6\n      swap5\n      swap4\n      swap3\n      swap2\n      swap1\n      tag_59\n      jump\t// in\n    tag_58:\n      mload(0x40)\n      dup1\n      swap2\n      sub\n      swap1\n      return\n        /* \"unoptimized pharmaceutical supplychain.sol\":3129:3700  function dispatchMedicine(uint256 _id) public {... */\n    tag_14:\n      tag_60\n      0x04\n      dup1\n      calldatasize\n      sub\n      dup2\n      add\n      swap1\n      tag_61\n      swap2\n      swap1\n      tag_22\n      jump\t// in\n    tag_61:\n      tag_62\n      jump\t// in\n    tag_60:\n      stop\n        /* \"unoptimized pharmaceutical supplychain.sol\":920:1377  function registerCompany(string memory _name) public {... */\n    tag_19:\n        /* \"unoptimized pharmaceutical supplychain.sol\":1028:1042  address sender */\n      0x00\n        /* \"unoptimized pharmaceutical supplychain.sol\":1045:1055  msg.sender */\n      caller\n        /* \"unoptimized pharmaceutical supplychain.sol\":1028:1055  address sender = msg.sender */\n      swap1\n      pop\n        /* \"unoptimized pharmaceutical supplychain.sol\":1066:1088  string memory tempName */\n      0x00\n        /* \"unoptimized pharmaceutical supplychain.sol\":1091:1096  _name */\n      dup3\n        /* \"unoptimized pharmaceutical supplychain.sol\":1066:1096  string memory tempName = _name */\n      swap1\n      pop\n        /* \"unoptimized pharmaceutical supplychain.sol\":1109:1134  Company memory newCompany */\n      0x00\n        /* \"unoptimized pharmaceutical supplychain.sol\":1137:1249  Company(... */\n      mload(0x40)\n      dup1\n      0x80\n      add\n      0x40\n      mstore\n      dup1\n        /* \"unoptimized pharmaceutical supplychain.sol\":1159:1165  sender */\n      dup5\n        /* \"unoptimized pharmaceutical supplychain.sol\":1137:1249  Company(... */\n      0xffffffffffffffffffffffffffffffffffffffff\n      and\n      dup2\n      mstore\n      0x20\n      add\n        /* \"unoptimized pharmaceutical supplychain.sol\":1180:1188  tempName */\n      dup4\n        /* \"unoptimized pharmaceutical supplychain.sol\":1137:1249  Company(... */\n      dup2\n      mstore\n      0x20\n      add\n        /* \"unoptimized pharmaceutical supplychain.sol\":1203:1208  false */\n      0x00\n        /* \"unoptimized pharmaceutical supplychain.sol\":1137:1249  Company(... */\n      iszero\n      iszero\n      dup2\n      mstore\n      0x20\n      add\n        /* \"unoptimized pharmaceutical supplychain.sol\":1223:1238  block.timestamp */\n      timestamp\n        /* \"unoptimized pharmaceutical supplychain.sol\":1137:1249  Company(... */\n      dup2\n      mstore\n      pop\n        /* \"unoptimized pharmaceutical supplychain.sol\":1109:1249  Company memory newCompany = Company(... */\n      swap1\n      pop\n        /* \"unoptimized pharmaceutical supplychain.sol\":1262:1271  companies */\n      0x00\n        /* \"unoptimized pharmaceutical supplychain.sol\":1277:1287  newCompany */\n      dup2\n        /* \"unoptimized pharmaceutical supplychain.sol\":1262:1288  companies.push(newCompany) */\n      swap1\n      dup1\n      0x01\n      dup2\n      sload\n      add\n      dup1\n      dup3\n      sstore\n      dup1\n      swap2\n      pop\n      pop\n      0x01\n      swap1\n      sub\n      swap1\n      0x00\n      mstore\n      keccak256(0x00, 0x20)\n      swap1\n      0x04\n      mul\n      add\n      0x00\n      swap1\n      swap2\n      swap1\n      swap2\n      swap1\n      swap2\n      pop\n      0x00\n      dup3\n      add\n      mload\n      dup2\n      0x00\n      add\n      exp(0x0100, 0x00)\n      dup2\n      sload\n      dup2\n      0xffffffffffffffffffffffffffffffffffffffff\n      mul\n      not\n      and\n      swap1\n      dup4\n      0xffffffffffffffffffffffffffffffffffffffff\n      and\n      mul\n      or\n      swap1\n      sstore\n      pop\n      0x20\n      dup3\n      add\n      mload\n      dup2\n      0x01\n      add\n      swap1\n      dup2\n      tag_65\n      swap2\n      swap1\n      tag_66\n      jump\t// in\n    tag_65:\n      pop\n      0x40\n      dup3\n      add\n      mload\n      dup2\n      0x02\n      add\n      exp(0x0100, 0x00)\n      dup2\n      sload\n      dup2\n      0xff\n      mul\n      not\n      and\n      swap1\n      dup4\n      iszero\n      iszero\n      mul\n      or\n      swap1\n      sstore\n      pop\n      0x60\n      dup3\n      add\n      mload\n      dup2\n      0x03\n      add\n      sstore\n      pop\n      pop\n        /* \"unoptimized pharmaceutical supplychain.sol\":1340:1356  companyAddresses */\n      0x03\n        /* \"unoptimized pharmaceutical supplychain.sol\":1362:1368  sender */\n      dup4\n        /* \"unoptimized pharmaceutical supplychain.sol\":1340:1369  companyAddresses.push(sender) */\n      swap1\n      dup1\n      0x01\n      dup2\n      sload\n      add\n      dup1\n      dup3\n      sstore\n      dup1\n      swap2\n      pop\n      pop\n      0x01\n      swap1\n      sub\n      swap1\n      0x00\n      mstore\n      keccak256(0x00, 0x20)\n      add\n      0x00\n      swap1\n      swap2\n      swap1\n      swap2\n      swap1\n      swap2\n      0x0100\n      exp\n      dup2\n      sload\n      dup2\n      0xffffffffffffffffffffffffffffffffffffffff\n      mul\n      not\n      and\n      swap1\n      dup4\n      0xffffffffffffffffffffffffffffffffffffffff\n      and\n      mul\n      or\n      swap1\n      sstore\n      pop\n        /* \"unoptimized pharmaceutical supplychain.sol\":973:1377  {... */\n      pop\n      pop\n      pop\n        /* \"unoptimized pharmaceutical supplychain.sol\":920:1377  function registerCompany(string memory _name) public {... */\n      pop\n      jump\t// out\n        /* \"unoptimized pharmaceutical supplychain.sol\":637:663  Company[] public companies */\n    tag_23:\n      0x00\n      dup2\n      dup2\n      sload\n      dup2\n      lt\n      tag_68\n      jumpi\n      0x00\n      dup1\n      revert\n    tag_68:\n      swap1\n      0x00\n      mstore\n      keccak256(0x00, 0x20)\n      swap1\n      0x04\n      mul\n      add\n      0x00\n      swap2\n      pop\n      swap1\n      pop\n      dup1\n      0x00\n      add\n      0x00\n      swap1\n      sload\n      swap1\n      0x0100\n      exp\n      swap1\n      div\n      0xffffffffffffffffffffffffffffffffffffffff\n      and\n      swap1\n      dup1\n      0x01\n      add\n      dup1\n      sload\n      tag_70\n      swap1\n      tag_71\n      jump\t// in\n    tag_70:\n      dup1\n      0x1f\n      add\n      0x20\n      dup1\n      swap2\n      div\n      mul\n      0x20\n      add\n      mload(0x40)\n      swap1\n      dup2\n      add\n      0x40\n      mstore\n      dup1\n      swap3\n      swap2\n      swap1\n      dup2\n      dup2\n      mstore\n      0x20\n      add\n      dup3\n      dup1\n      sload\n      tag_72\n      swap1\n      tag_71\n      jump\t// in\n    tag_72:\n      dup1\n      iszero\n      tag_73\n      jumpi\n      dup1\n      0x1f\n      lt\n      tag_74\n      jumpi\n      0x0100\n      dup1\n      dup4\n      sload\n      div\n      mul\n      dup4\n      mstore\n      swap2\n      0x20\n      add\n      swap2\n      jump(tag_73)\n    tag_74:\n      dup3\n      add\n      swap2\n      swap1\n      0x00\n      mstore\n      keccak256(0x00, 0x20)\n      swap1\n    tag_75:\n      dup2\n      sload\n      dup2\n      mstore\n      swap1\n      0x01\n      add\n      swap1\n      0x20\n      add\n      dup1\n      dup4\n      gt\n      tag_75\n      jumpi\n      dup3\n      swap1\n      sub\n      0x1f\n      and\n      dup3\n      add\n      swap2\n    tag_73:\n      pop\n      pop\n      pop\n      pop\n      pop\n      swap1\n      dup1\n      0x02\n      add\n      0x00\n      swap1\n      sload\n      swap1\n      0x0100\n      exp\n      swap1\n      div\n      0xff\n      and\n      swap1\n      dup1\n      0x03\n      add\n      sload\n      swap1\n      pop\n      dup5\n      jump\t// out\n        /* \"unoptimized pharmaceutical supplychain.sol\":4183:4662  function transferOwnership(uint256 _id, address _newOwner) public {... */\n    tag_29:\n        /* \"unoptimized pharmaceutical supplychain.sol\":4262:4285  address newOwnerAddress */\n      0x00\n        /* \"unoptimized pharmaceutical supplychain.sol\":4288:4297  _newOwner */\n      dup2\n        /* \"unoptimized pharmaceutical supplychain.sol\":4262:4297  address newOwnerAddress = _newOwner */\n      swap1\n      pop\n        /* \"unoptimized pharmaceutical supplychain.sol\":4315:4324  uint256 i */\n      0x00\n        /* \"unoptimized pharmaceutical supplychain.sol\":4327:4328  0 */\n      0x00\n        /* \"unoptimized pharmaceutical supplychain.sol\":4315:4328  uint256 i = 0 */\n      swap1\n      pop\n        /* \"unoptimized pharmaceutical supplychain.sol\":4310:4655  for (uint256 i = 0; i < medicines.length; i++) {... */\n    tag_77:\n        /* \"unoptimized pharmaceutical supplychain.sol\":4334:4343  medicines */\n      0x01\n        /* \"unoptimized pharmaceutical supplychain.sol\":4334:4350  medicines.length */\n      dup1\n      sload\n      swap1\n      pop\n        /* \"unoptimized pharmaceutical supplychain.sol\":4330:4331  i */\n      dup2\n        /* \"unoptimized pharmaceutical supplychain.sol\":4330:4350  i < medicines.length */\n      lt\n        /* \"unoptimized pharmaceutical supplychain.sol\":4310:4655  for (uint256 i = 0; i < medicines.length; i++) {... */\n      iszero\n      tag_78\n      jumpi\n        /* \"unoptimized pharmaceutical supplychain.sol\":4374:4394  Medicine storage med */\n      0x00\n        /* \"unoptimized pharmaceutical supplychain.sol\":4397:4406  medicines */\n      0x01\n        /* \"unoptimized pharmaceutical supplychain.sol\":4407:4408  i */\n      dup3\n        /* \"unoptimized pharmaceutical supplychain.sol\":4397:4409  medicines[i] */\n      dup2\n      sload\n      dup2\n      lt\n      tag_80\n      jumpi\n      tag_81\n      tag_82\n      jump\t// in\n    tag_81:\n    tag_80:\n      swap1\n      0x00\n      mstore\n      keccak256(0x00, 0x20)\n      swap1\n      0x07\n      mul\n      add\n        /* \"unoptimized pharmaceutical supplychain.sol\":4374:4409  Medicine storage med = medicines[i] */\n      swap1\n      pop\n        /* \"unoptimized pharmaceutical supplychain.sol\":4448:4451  _id */\n      dup5\n        /* \"unoptimized pharmaceutical supplychain.sol\":4430:4433  med */\n      dup2\n        /* \"unoptimized pharmaceutical supplychain.sol\":4430:4444  med.medicineId */\n      0x00\n      add\n      sload\n        /* \"unoptimized pharmaceutical supplychain.sol\":4430:4451  med.medicineId == _id */\n      sub\n        /* \"unoptimized pharmaceutical supplychain.sol\":4426:4644  if (med.medicineId == _id) {... */\n      tag_84\n      jumpi\n        /* \"unoptimized pharmaceutical supplychain.sol\":4486:4501  newOwnerAddress */\n      dup3\n        /* \"unoptimized pharmaceutical supplychain.sol\":4474:4477  med */\n      dup2\n        /* \"unoptimized pharmaceutical supplychain.sol\":4474:4483  med.owner */\n      0x04\n      add\n      0x00\n        /* \"unoptimized pharmaceutical supplychain.sol\":4474:4501  med.owner = newOwnerAddress */\n      0x0100\n      exp\n      dup2\n      sload\n      dup2\n      0xffffffffffffffffffffffffffffffffffffffff\n      mul\n      not\n      and\n      swap1\n      dup4\n      0xffffffffffffffffffffffffffffffffffffffff\n      and\n      mul\n      or\n      swap1\n      sstore\n      pop\n        /* \"unoptimized pharmaceutical supplychain.sol\":4574:4589  block.timestamp */\n      timestamp\n        /* \"unoptimized pharmaceutical supplychain.sol\":4558:4561  med */\n      dup2\n        /* \"unoptimized pharmaceutical supplychain.sol\":4558:4571  med.updatedAt */\n      0x06\n      add\n        /* \"unoptimized pharmaceutical supplychain.sol\":4558:4589  med.updatedAt = block.timestamp */\n      dup2\n      swap1\n      sstore\n      pop\n        /* \"unoptimized pharmaceutical supplychain.sol\":4625:4628  med */\n      dup1\n        /* \"unoptimized pharmaceutical supplychain.sol\":4610:4619  medicines */\n      0x01\n        /* \"unoptimized pharmaceutical supplychain.sol\":4620:4621  i */\n      dup4\n        /* \"unoptimized pharmaceutical supplychain.sol\":4610:4622  medicines[i] */\n      dup2\n      sload\n      dup2\n      lt\n      tag_85\n      jumpi\n      tag_86\n      tag_82\n      jump\t// in\n    tag_86:\n    tag_85:\n      swap1\n      0x00\n      mstore\n      keccak256(0x00, 0x20)\n      swap1\n      0x07\n      mul\n      add\n        /* \"unoptimized pharmaceutical supplychain.sol\":4610:4628  medicines[i] = med */\n      0x00\n      dup3\n      add\n      sload\n      dup2\n      0x00\n      add\n      sstore\n      0x01\n      dup3\n      add\n      dup2\n      0x01\n      add\n      swap1\n      dup2\n      tag_88\n      swap2\n      swap1\n      tag_89\n      jump\t// in\n    tag_88:\n      pop\n      0x02\n      dup3\n      add\n      0x00\n      swap1\n      sload\n      swap1\n      0x0100\n      exp\n      swap1\n      div\n      0xffffffffffffffffffffffffffffffffffffffff\n      and\n      dup2\n      0x02\n      add\n      exp(0x0100, 0x00)\n      dup2\n      sload\n      dup2\n      0xffffffffffffffffffffffffffffffffffffffff\n      mul\n      not\n      and\n      swap1\n      dup4\n      0xffffffffffffffffffffffffffffffffffffffff\n      and\n      mul\n      or\n      swap1\n      sstore\n      pop\n      0x02\n      dup3\n      add\n      0x14\n      swap1\n      sload\n      swap1\n      0x0100\n      exp\n      swap1\n      div\n      0xff\n      and\n      dup2\n      0x02\n      add\n      exp(0x0100, 0x14)\n      dup2\n      sload\n      dup2\n      0xff\n      mul\n      not\n      and\n      swap1\n      dup4\n      iszero\n      iszero\n      mul\n      or\n      swap1\n      sstore\n      pop\n      0x03\n      dup3\n      add\n      0x00\n      swap1\n      sload\n      swap1\n      0x0100\n      exp\n      swap1\n      div\n      0xffffffffffffffffffffffffffffffffffffffff\n      and\n      dup2\n      0x03\n      add\n      exp(0x0100, 0x00)\n      dup2\n      sload\n      dup2\n      0xffffffffffffffffffffffffffffffffffffffff\n      mul\n      not\n      and\n      swap1\n      dup4\n      0xffffffffffffffffffffffffffffffffffffffff\n      and\n      mul\n      or\n      swap1\n      sstore\n      pop\n      0x04\n      dup3\n      add\n      0x00\n      swap1\n      sload\n      swap1\n      0x0100\n      exp\n      swap1\n      div\n      0xffffffffffffffffffffffffffffffffffffffff\n      and\n      dup2\n      0x04\n      add\n      exp(0x0100, 0x00)\n      dup2\n      sload\n      dup2\n      0xffffffffffffffffffffffffffffffffffffffff\n      mul\n      not\n      and\n      swap1\n      dup4\n      0xffffffffffffffffffffffffffffffffffffffff\n      and\n      mul\n      or\n      swap1\n      sstore\n      pop\n      0x05\n      dup3\n      add\n      sload\n      dup2\n      0x05\n      add\n      sstore\n      0x06\n      dup3\n      add\n      sload\n      dup2\n      0x06\n      add\n      sstore\n      swap1\n      pop\n      pop\n        /* \"unoptimized pharmaceutical supplychain.sol\":4426:4644  if (med.medicineId == _id) {... */\n    tag_84:\n        /* \"unoptimized pharmaceutical supplychain.sol\":4357:4655  {... */\n      pop\n        /* \"unoptimized pharmaceutical supplychain.sol\":4352:4355  i++ */\n      dup1\n      dup1\n      0x01\n      add\n      swap2\n      pop\n      pop\n        /* \"unoptimized pharmaceutical supplychain.sol\":4310:4655  for (uint256 i = 0; i < medicines.length; i++) {... */\n      jump(tag_77)\n    tag_78:\n      pop\n        /* \"unoptimized pharmaceutical supplychain.sol\":4249:4662  {... */\n      pop\n        /* \"unoptimized pharmaceutical supplychain.sol\":4183:4662  function transferOwnership(uint256 _id, address _newOwner) public {... */\n      pop\n      pop\n      jump\t// out\n        /* \"unoptimized pharmaceutical supplychain.sol\":1406:2015  function addMedicine(string memory _name) public {... */\n    tag_32:\n        /* \"unoptimized pharmaceutical supplychain.sol\":1563:1564  1 */\n      0x01\n        /* \"unoptimized pharmaceutical supplychain.sol\":1545:1560  medicineCounter */\n      sload(0x04)\n        /* \"unoptimized pharmaceutical supplychain.sol\":1545:1564  medicineCounter + 1 */\n      tag_91\n      swap2\n      swap1\n      tag_92\n      jump\t// in\n    tag_91:\n        /* \"unoptimized pharmaceutical supplychain.sol\":1527:1542  medicineCounter */\n      0x04\n        /* \"unoptimized pharmaceutical supplychain.sol\":1527:1564  medicineCounter = medicineCounter + 1 */\n      dup2\n      swap1\n      sstore\n      pop\n        /* \"unoptimized pharmaceutical supplychain.sol\":1577:1590  uint256 newId */\n      0x00\n        /* \"unoptimized pharmaceutical supplychain.sol\":1593:1608  medicineCounter */\n      sload(0x04)\n        /* \"unoptimized pharmaceutical supplychain.sol\":1577:1608  uint256 newId = medicineCounter */\n      swap1\n      pop\n        /* \"unoptimized pharmaceutical supplychain.sol\":1619:1633  address sender */\n      0x00\n        /* \"unoptimized pharmaceutical supplychain.sol\":1636:1646  msg.sender */\n      caller\n        /* \"unoptimized pharmaceutical supplychain.sol\":1619:1646  address sender = msg.sender */\n      swap1\n      pop\n        /* \"unoptimized pharmaceutical supplychain.sol\":1659:1686  Medicine memory newMedicine */\n      0x00\n        /* \"unoptimized pharmaceutical supplychain.sol\":1689:1895  Medicine(... */\n      mload(0x40)\n      dup1\n      0x0100\n      add\n      0x40\n      mstore\n      dup1\n        /* \"unoptimized pharmaceutical supplychain.sol\":1712:1717  newId */\n      dup5\n        /* \"unoptimized pharmaceutical supplychain.sol\":1689:1895  Medicine(... */\n      dup2\n      mstore\n      0x20\n      add\n        /* \"unoptimized pharmaceutical supplychain.sol\":1732:1737  _name */\n      dup6\n        /* \"unoptimized pharmaceutical supplychain.sol\":1689:1895  Medicine(... */\n      dup2\n      mstore\n      0x20\n      add\n        /* \"unoptimized pharmaceutical supplychain.sol\":1752:1758  sender */\n      dup4\n        /* \"unoptimized pharmaceutical supplychain.sol\":1689:1895  Medicine(... */\n      0xffffffffffffffffffffffffffffffffffffffff\n      and\n      dup2\n      mstore\n      0x20\n      add\n        /* \"unoptimized pharmaceutical supplychain.sol\":1773:1778  false */\n      0x00\n        /* \"unoptimized pharmaceutical supplychain.sol\":1689:1895  Medicine(... */\n      iszero\n      iszero\n      dup2\n      mstore\n      0x20\n      add\n        /* \"unoptimized pharmaceutical supplychain.sol\":1801:1802  0 */\n      0x00\n        /* \"unoptimized pharmaceutical supplychain.sol\":1689:1895  Medicine(... */\n      0xffffffffffffffffffffffffffffffffffffffff\n      and\n      dup2\n      mstore\n      0x20\n      add\n        /* \"unoptimized pharmaceutical supplychain.sol\":1818:1824  sender */\n      dup4\n        /* \"unoptimized pharmaceutical supplychain.sol\":1689:1895  Medicine(... */\n      0xffffffffffffffffffffffffffffffffffffffff\n      and\n      dup2\n      mstore\n      0x20\n      add\n        /* \"unoptimized pharmaceutical supplychain.sol\":1839:1854  block.timestamp */\n      timestamp\n        /* \"unoptimized pharmaceutical supplychain.sol\":1689:1895  Medicine(... */\n      dup2\n      mstore\n      0x20\n      add\n        /* \"unoptimized pharmaceutical supplychain.sol\":1869:1884  block.timestamp */\n      timestamp\n        /* \"unoptimized pharmaceutical supplychain.sol\":1689:1895  Medicine(... */\n      dup2\n      mstore\n      pop\n        /* \"unoptimized pharmaceutical supplychain.sol\":1659:1895  Medicine memory newMedicine = Medicine(... */\n      swap1\n      pop\n        /* \"unoptimized pharmaceutical supplychain.sol\":1908:1917  medicines */\n      0x01\n        /* \"unoptimized pharmaceutical supplychain.sol\":1923:1934  newMedicine */\n      dup2\n        /* \"unoptimized pharmaceutical supplychain.sol\":1908:1935  medicines.push(newMedicine) */\n      swap1\n      dup1\n      0x01\n      dup2\n      sload\n      add\n      dup1\n      dup3\n      sstore\n      dup1\n      swap2\n      pop\n      pop\n      0x01\n      swap1\n      sub\n      swap1\n      0x00\n      mstore\n      keccak256(0x00, 0x20)\n      swap1\n      0x07\n      mul\n      add\n      0x00\n      swap1\n      swap2\n      swap1\n      swap2\n      swap1\n      swap2\n      pop\n      0x00\n      dup3\n      add\n      mload\n      dup2\n      0x00\n      add\n      sstore\n      0x20\n      dup3\n      add\n      mload\n      dup2\n      0x01\n      add\n      swap1\n      dup2\n      tag_94\n      swap2\n      swap1\n      tag_66\n      jump\t// in\n    tag_94:\n      pop\n      0x40\n      dup3\n      add\n      mload\n      dup2\n      0x02\n      add\n      exp(0x0100, 0x00)\n      dup2\n      sload\n      dup2\n      0xffffffffffffffffffffffffffffffffffffffff\n      mul\n      not\n      and\n      swap1\n      dup4\n      0xffffffffffffffffffffffffffffffffffffffff\n      and\n      mul\n      or\n      swap1\n      sstore\n      pop\n      0x60\n      dup3\n      add\n      mload\n      dup2\n      0x02\n      add\n      exp(0x0100, 0x14)\n      dup2\n      sload\n      dup2\n      0xff\n      mul\n      not\n      and\n      swap1\n      dup4\n      iszero\n      iszero\n      mul\n      or\n      swap1\n      sstore\n      pop\n      0x80\n      dup3\n      add\n      mload\n      dup2\n      0x03\n      add\n      exp(0x0100, 0x00)\n      dup2\n      sload\n      dup2\n      0xffffffffffffffffffffffffffffffffffffffff\n      mul\n      not\n      and\n      swap1\n      dup4\n      0xffffffffffffffffffffffffffffffffffffffff\n      and\n      mul\n      or\n      swap1\n      sstore\n      pop\n      0xa0\n      dup3\n      add\n      mload\n      dup2\n      0x04\n      add\n      exp(0x0100, 0x00)\n      dup2\n      sload\n      dup2\n      0xffffffffffffffffffffffffffffffffffffffff\n      mul\n      not\n      and\n      swap1\n      dup4\n      0xffffffffffffffffffffffffffffffffffffffff\n      and\n      mul\n      or\n      swap1\n      sstore\n      pop\n      0xc0\n      dup3\n      add\n      mload\n      dup2\n      0x05\n      add\n      sstore\n      0xe0\n      dup3\n      add\n      mload\n      dup2\n      0x06\n      add\n      sstore\n      pop\n      pop\n        /* \"unoptimized pharmaceutical supplychain.sol\":1984:1995  medicineIds */\n      0x02\n        /* \"unoptimized pharmaceutical supplychain.sol\":2001:2006  newId */\n      dup4\n        /* \"unoptimized pharmaceutical supplychain.sol\":1984:2007  medicineIds.push(newId) */\n      swap1\n      dup1\n      0x01\n      dup2\n      sload\n      add\n      dup1\n      dup3\n      sstore\n      dup1\n      swap2\n      pop\n      pop\n      0x01\n      swap1\n      sub\n      swap1\n      0x00\n      mstore\n      keccak256(0x00, 0x20)\n      add\n      0x00\n      swap1\n      swap2\n      swap1\n      swap2\n      swap1\n      swap2\n      pop\n      sstore\n        /* \"unoptimized pharmaceutical supplychain.sol\":1455:2015  {... */\n      pop\n      pop\n      pop\n        /* \"unoptimized pharmaceutical supplychain.sol\":1406:2015  function addMedicine(string memory _name) public {... */\n      pop\n      jump\t// out\n        /* \"unoptimized pharmaceutical supplychain.sol\":2049:2561  function approveMedicine(uint256 _id) public {... */\n    tag_35:\n        /* \"unoptimized pharmaceutical supplychain.sol\":2170:2179  uint256 i */\n      0x00\n        /* \"unoptimized pharmaceutical supplychain.sol\":2182:2183  0 */\n      0x00\n        /* \"unoptimized pharmaceutical supplychain.sol\":2170:2183  uint256 i = 0 */\n      swap1\n      pop\n        /* \"unoptimized pharmaceutical supplychain.sol\":2165:2554  for (uint256 i = 0; i < medicines.length; i++) {... */\n    tag_97:\n        /* \"unoptimized pharmaceutical supplychain.sol\":2189:2198  medicines */\n      0x01\n        /* \"unoptimized pharmaceutical supplychain.sol\":2189:2205  medicines.length */\n      dup1\n      sload\n      swap1\n      pop\n        /* \"unoptimized pharmaceutical supplychain.sol\":2185:2186  i */\n      dup2\n        /* \"unoptimized pharmaceutical supplychain.sol\":2185:2205  i < medicines.length */\n      lt\n        /* \"unoptimized pharmaceutical supplychain.sol\":2165:2554  for (uint256 i = 0; i < medicines.length; i++) {... */\n      iszero\n      tag_98\n      jumpi\n        /* \"unoptimized pharmaceutical supplychain.sol\":2229:2249  Medicine storage med */\n      0x00\n        /* \"unoptimized pharmaceutical supplychain.sol\":2252:2261  medicines */\n      0x01\n        /* \"unoptimized pharmaceutical supplychain.sol\":2262:2263  i */\n      dup3\n        /* \"unoptimized pharmaceutical supplychain.sol\":2252:2264  medicines[i] */\n      dup2\n      sload\n      dup2\n      lt\n      tag_100\n      jumpi\n      tag_101\n      tag_82\n      jump\t// in\n    tag_101:\n    tag_100:\n      swap1\n      0x00\n      mstore\n      keccak256(0x00, 0x20)\n      swap1\n      0x07\n      mul\n      add\n        /* \"unoptimized pharmaceutical supplychain.sol\":2229:2264  Medicine storage med = medicines[i] */\n      swap1\n      pop\n        /* \"unoptimized pharmaceutical supplychain.sol\":2303:2306  _id */\n      dup3\n        /* \"unoptimized pharmaceutical supplychain.sol\":2285:2288  med */\n      dup2\n        /* \"unoptimized pharmaceutical supplychain.sol\":2285:2299  med.medicineId */\n      0x00\n      add\n      sload\n        /* \"unoptimized pharmaceutical supplychain.sol\":2285:2306  med.medicineId == _id */\n      sub\n        /* \"unoptimized pharmaceutical supplychain.sol\":2281:2543  if (med.medicineId == _id) {... */\n      tag_103\n      jumpi\n        /* \"unoptimized pharmaceutical supplychain.sol\":2381:2385  true */\n      0x01\n        /* \"unoptimized pharmaceutical supplychain.sol\":2366:2369  med */\n      dup2\n        /* \"unoptimized pharmaceutical supplychain.sol\":2366:2378  med.approved */\n      0x02\n      add\n      0x14\n        /* \"unoptimized pharmaceutical supplychain.sol\":2366:2385  med.approved = true */\n      0x0100\n      exp\n      dup2\n      sload\n      dup2\n      0xff\n      mul\n      not\n      and\n      swap1\n      dup4\n      iszero\n      iszero\n      mul\n      or\n      swap1\n      sstore\n      pop\n        /* \"unoptimized pharmaceutical supplychain.sol\":2420:2435  block.timestamp */\n      timestamp\n        /* \"unoptimized pharmaceutical supplychain.sol\":2404:2407  med */\n      dup2\n        /* \"unoptimized pharmaceutical supplychain.sol\":2404:2417  med.updatedAt */\n      0x06\n      add\n        /* \"unoptimized pharmaceutical supplychain.sol\":2404:2435  med.updatedAt = block.timestamp */\n      dup2\n      swap1\n      sstore\n      pop\n        /* \"unoptimized pharmaceutical supplychain.sol\":2524:2527  med */\n      dup1\n        /* \"unoptimized pharmaceutical supplychain.sol\":2509:2518  medicines */\n      0x01\n        /* \"unoptimized pharmaceutical supplychain.sol\":2519:2520  i */\n      dup4\n        /* \"unoptimized pharmaceutical supplychain.sol\":2509:2521  medicines[i] */\n      dup2\n      sload\n      dup2\n      lt\n      tag_104\n      jumpi\n      tag_105\n      tag_82\n      jump\t// in\n    tag_105:\n    tag_104:\n      swap1\n      0x00\n      mstore\n      keccak256(0x00, 0x20)\n      swap1\n      0x07\n      mul\n      add\n        /* \"unoptimized pharmaceutical supplychain.sol\":2509:2527  medicines[i] = med */\n      0x00\n      dup3\n      add\n      sload\n      dup2\n      0x00\n      add\n      sstore\n      0x01\n      dup3\n      add\n      dup2\n      0x01\n      add\n      swap1\n      dup2\n      tag_107\n      swap2\n      swap1\n      tag_89\n      jump\t// in\n    tag_107:\n      pop\n      0x02\n      dup3\n      add\n      0x00\n      swap1\n      sload\n      swap1\n      0x0100\n      exp\n      swap1\n      div\n      0xffffffffffffffffffffffffffffffffffffffff\n      and\n      dup2\n      0x02\n      add\n      exp(0x0100, 0x00)\n      dup2\n      sload\n      dup2\n      0xffffffffffffffffffffffffffffffffffffffff\n      mul\n      not\n      and\n      swap1\n      dup4\n      0xffffffffffffffffffffffffffffffffffffffff\n      and\n      mul\n      or\n      swap1\n      sstore\n      pop\n      0x02\n      dup3\n      add\n      0x14\n      swap1\n      sload\n      swap1\n      0x0100\n      exp\n      swap1\n      div\n      0xff\n      and\n      dup2\n      0x02\n      add\n      exp(0x0100, 0x14)\n      dup2\n      sload\n      dup2\n      0xff\n      mul\n      not\n      and\n      swap1\n      dup4\n      iszero\n      iszero\n      mul\n      or\n      swap1\n      sstore\n      pop\n      0x03\n      dup3\n      add\n      0x00\n      swap1\n      sload\n      swap1\n      0x0100\n      exp\n      swap1\n      div\n      0xffffffffffffffffffffffffffffffffffffffff\n      and\n      dup2\n      0x03\n      add\n      exp(0x0100, 0x00)\n      dup2\n      sload\n      dup2\n      0xffffffffffffffffffffffffffffffffffffffff\n      mul\n      not\n      and\n      swap1\n      dup4\n      0xffffffffffffffffffffffffffffffffffffffff\n      and\n      mul\n      or\n      swap1\n      sstore\n      pop\n      0x04\n      dup3\n      add\n      0x00\n      swap1\n      sload\n      swap1\n      0x0100\n      exp\n      swap1\n      div\n      0xffffffffffffffffffffffffffffffffffffffff\n      and\n      dup2\n      0x04\n      add\n      exp(0x0100, 0x00)\n      dup2\n      sload\n      dup2\n      0xffffffffffffffffffffffffffffffffffffffff\n      mul\n      not\n      and\n      swap1\n      dup4\n      0xffffffffffffffffffffffffffffffffffffffff\n      and\n      mul\n      or\n      swap1\n      sstore\n      pop\n      0x05\n      dup3\n      add\n      sload\n      dup2\n      0x05\n      add\n      sstore\n      0x06\n      dup3\n      add\n      sload\n      dup2\n      0x06\n      add\n      sstore\n      swap1\n      pop\n      pop\n        /* \"unoptimized pharmaceutical supplychain.sol\":2281:2543  if (med.medicineId == _id) {... */\n    tag_103:\n        /* \"unoptimized pharmaceutical supplychain.sol\":2212:2554  {... */\n      pop\n        /* \"unoptimized pharmaceutical supplychain.sol\":2207:2210  i++ */\n      dup1\n      dup1\n      0x01\n      add\n      swap2\n      pop\n      pop\n        /* \"unoptimized pharmaceutical supplychain.sol\":2165:2554  for (uint256 i = 0; i < medicines.length; i++) {... */\n      jump(tag_97)\n    tag_98:\n      pop\n        /* \"unoptimized pharmaceutical supplychain.sol\":2049:2561  function approveMedicine(uint256 _id) public {... */\n      pop\n      jump\t// out\n        /* \"unoptimized pharmaceutical supplychain.sol\":814:847  address[] public companyAddresses */\n    tag_38:\n      0x03\n      dup2\n      dup2\n      sload\n      dup2\n      lt\n      tag_108\n      jumpi\n      0x00\n      dup1\n      revert\n    tag_108:\n      swap1\n      0x00\n      mstore\n      keccak256(0x00, 0x20)\n      add\n      0x00\n      swap2\n      pop\n      sload\n      swap1\n      0x0100\n      exp\n      swap1\n      div\n      0xffffffffffffffffffffffffffffffffffffffff\n      and\n      dup2\n      jump\t// out\n        /* \"unoptimized pharmaceutical supplychain.sol\":779:807  uint256[] public medicineIds */\n    tag_43:\n      0x02\n      dup2\n      dup2\n      sload\n      dup2\n      lt\n      tag_110\n      jumpi\n      0x00\n      dup1\n      revert\n    tag_110:\n      swap1\n      0x00\n      mstore\n      keccak256(0x00, 0x20)\n      add\n      0x00\n      swap2\n      pop\n      swap1\n      pop\n      sload\n      dup2\n      jump\t// out\n        /* \"unoptimized pharmaceutical supplychain.sol\":856:886  uint256 public medicineCounter */\n    tag_47:\n      sload(0x04)\n      dup2\n      jump\t// out\n        /* \"unoptimized pharmaceutical supplychain.sol\":3735:4148  function removeDistributor(uint256 _id) public {... */\n    tag_51:\n        /* \"unoptimized pharmaceutical supplychain.sol\":3800:3809  uint256 i */\n      0x00\n        /* \"unoptimized pharmaceutical supplychain.sol\":3812:3813  0 */\n      0x00\n        /* \"unoptimized pharmaceutical supplychain.sol\":3800:3813  uint256 i = 0 */\n      swap1\n      pop\n        /* \"unoptimized pharmaceutical supplychain.sol\":3795:4141  for (uint256 i = 0; i < medicines.length; i++) {... */\n    tag_113:\n        /* \"unoptimized pharmaceutical supplychain.sol\":3819:3828  medicines */\n      0x01\n        /* \"unoptimized pharmaceutical supplychain.sol\":3819:3835  medicines.length */\n      dup1\n      sload\n      swap1\n      pop\n        /* \"unoptimized pharmaceutical supplychain.sol\":3815:3816  i */\n      dup2\n        /* \"unoptimized pharmaceutical supplychain.sol\":3815:3835  i < medicines.length */\n      lt\n        /* \"unoptimized pharmaceutical supplychain.sol\":3795:4141  for (uint256 i = 0; i < medicines.length; i++) {... */\n      iszero\n      tag_114\n      jumpi\n        /* \"unoptimized pharmaceutical supplychain.sol\":3859:3879  Medicine storage med */\n      0x00\n        /* \"unoptimized pharmaceutical supplychain.sol\":3882:3891  medicines */\n      0x01\n        /* \"unoptimized pharmaceutical supplychain.sol\":3892:3893  i */\n      dup3\n        /* \"unoptimized pharmaceutical supplychain.sol\":3882:3894  medicines[i] */\n      dup2\n      sload\n      dup2\n      lt\n      tag_116\n      jumpi\n      tag_117\n      tag_82\n      jump\t// in\n    tag_117:\n    tag_116:\n      swap1\n      0x00\n      mstore\n      keccak256(0x00, 0x20)\n      swap1\n      0x07\n      mul\n      add\n        /* \"unoptimized pharmaceutical supplychain.sol\":3859:3894  Medicine storage med = medicines[i] */\n      swap1\n      pop\n        /* \"unoptimized pharmaceutical supplychain.sol\":3933:3936  _id */\n      dup3\n        /* \"unoptimized pharmaceutical supplychain.sol\":3915:3918  med */\n      dup2\n        /* \"unoptimized pharmaceutical supplychain.sol\":3915:3929  med.medicineId */\n      0x00\n      add\n      sload\n        /* \"unoptimized pharmaceutical supplychain.sol\":3915:3936  med.medicineId == _id */\n      sub\n        /* \"unoptimized pharmaceutical supplychain.sol\":3911:4130  if (med.medicineId == _id) {... */\n      tag_119\n      jumpi\n        /* \"unoptimized pharmaceutical supplychain.sol\":3985:3986  0 */\n      0x00\n        /* \"unoptimized pharmaceutical supplychain.sol\":3959:3962  med */\n      dup2\n        /* \"unoptimized pharmaceutical supplychain.sol\":3959:3974  med.distributor */\n      0x03\n      add\n      0x00\n        /* \"unoptimized pharmaceutical supplychain.sol\":3959:3987  med.distributor = address(0) */\n      0x0100\n      exp\n      dup2\n      sload\n      dup2\n      0xffffffffffffffffffffffffffffffffffffffff\n      mul\n      not\n      and\n      swap1\n      dup4\n      0xffffffffffffffffffffffffffffffffffffffff\n      and\n      mul\n      or\n      swap1\n      sstore\n      pop\n        /* \"unoptimized pharmaceutical supplychain.sol\":4060:4075  block.timestamp */\n      timestamp\n        /* \"unoptimized pharmaceutical supplychain.sol\":4044:4047  med */\n      dup2\n        /* \"unoptimized pharmaceutical supplychain.sol\":4044:4057  med.updatedAt */\n      0x06\n      add\n        /* \"unoptimized pharmaceutical supplychain.sol\":4044:4075  med.updatedAt = block.timestamp */\n      dup2\n      swap1\n      sstore\n      pop\n        /* \"unoptimized pharmaceutical supplychain.sol\":4111:4114  med */\n      dup1\n        /* \"unoptimized pharmaceutical supplychain.sol\":4096:4105  medicines */\n      0x01\n        /* \"unoptimized pharmaceutical supplychain.sol\":4106:4107  i */\n      dup4\n        /* \"unoptimized pharmaceutical supplychain.sol\":4096:4108  medicines[i] */\n      dup2\n      sload\n      dup2\n      lt\n      tag_120\n      jumpi\n      tag_121\n      tag_82\n      jump\t// in\n    tag_121:\n    tag_120:\n      swap1\n      0x00\n      mstore\n      keccak256(0x00, 0x20)\n      swap1\n      0x07\n      mul\n      add\n        /* \"unoptimized pharmaceutical supplychain.sol\":4096:4114  medicines[i] = med */\n      0x00\n      dup3\n      add\n      sload\n      dup2\n      0x00\n      add\n      sstore\n      0x01\n      dup3\n      add\n      dup2\n      0x01\n      add\n      swap1\n      dup2\n      tag_123\n      swap2\n      swap1\n      tag_89\n      jump\t// in\n    tag_123:\n      pop\n      0x02\n      dup3\n      add\n      0x00\n      swap1\n      sload\n      swap1\n      0x0100\n      exp\n      swap1\n      div\n      0xffffffffffffffffffffffffffffffffffffffff\n      and\n      dup2\n      0x02\n      add\n      exp(0x0100, 0x00)\n      dup2\n      sload\n      dup2\n      0xffffffffffffffffffffffffffffffffffffffff\n      mul\n      not\n      and\n      swap1\n      dup4\n      0xffffffffffffffffffffffffffffffffffffffff\n      and\n      mul\n      or\n      swap1\n      sstore\n      pop\n      0x02\n      dup3\n      add\n      0x14\n      swap1\n      sload\n      swap1\n      0x0100\n      exp\n      swap1\n      div\n      0xff\n      and\n      dup2\n      0x02\n      add\n      exp(0x0100, 0x14)\n      dup2\n      sload\n      dup2\n      0xff\n      mul\n      not\n      and\n      swap1\n      dup4\n      iszero\n      iszero\n      mul\n      or\n      swap1\n      sstore\n      pop\n      0x03\n      dup3\n      add\n      0x00\n      swap1\n      sload\n      swap1\n      0x0100\n      exp\n      swap1\n      div\n      0xffffffffffffffffffffffffffffffffffffffff\n      and\n      dup2\n      0x03\n      add\n      exp(0x0100, 0x00)\n      dup2\n      sload\n      dup2\n      0xffffffffffffffffffffffffffffffffffffffff\n      mul\n      not\n      and\n      swap1\n      dup4\n      0xffffffffffffffffffffffffffffffffffffffff\n      and\n      mul\n      or\n      swap1\n      sstore\n      pop\n      0x04\n      dup3\n      add\n      0x00\n      swap1\n      sload\n      swap1\n      0x0100\n      exp\n      swap1\n      div\n      0xffffffffffffffffffffffffffffffffffffffff\n      and\n      dup2\n      0x04\n      add\n      exp(0x0100, 0x00)\n      dup2\n      sload\n      dup2\n      0xffffffffffffffffffffffffffffffffffffffff\n      mul\n      not\n      and\n      swap1\n      dup4\n      0xffffffffffffffffffffffffffffffffffffffff\n      and\n      mul\n      or\n      swap1\n      sstore\n      pop\n      0x05\n      dup3\n      add\n      sload\n      dup2\n      0x05\n      add\n      sstore\n      0x06\n      dup3\n      add\n      sload\n      dup2\n      0x06\n      add\n      sstore\n      swap1\n      pop\n      pop\n        /* \"unoptimized pharmaceutical supplychain.sol\":3911:4130  if (med.medicineId == _id) {... */\n    tag_119:\n        /* \"unoptimized pharmaceutical supplychain.sol\":3842:4141  {... */\n      pop\n        /* \"unoptimized pharmaceutical supplychain.sol\":3837:3840  i++ */\n      dup1\n      dup1\n      0x01\n      add\n      swap2\n      pop\n      pop\n        /* \"unoptimized pharmaceutical supplychain.sol\":3795:4141  for (uint256 i = 0; i < medicines.length; i++) {... */\n      jump(tag_113)\n    tag_114:\n      pop\n        /* \"unoptimized pharmaceutical supplychain.sol\":3735:4148  function removeDistributor(uint256 _id) public {... */\n      pop\n      jump\t// out\n        /* \"unoptimized pharmaceutical supplychain.sol\":2598:3095  function approveDistributor(uint256 _id, address _dist) public {... */\n    tag_54:\n        /* \"unoptimized pharmaceutical supplychain.sol\":2674:2700  address distributorAddress */\n      0x00\n        /* \"unoptimized pharmaceutical supplychain.sol\":2703:2708  _dist */\n      dup2\n        /* \"unoptimized pharmaceutical supplychain.sol\":2674:2708  address distributorAddress = _dist */\n      swap1\n      pop\n        /* \"unoptimized pharmaceutical supplychain.sol\":2726:2735  uint256 i */\n      0x00\n        /* \"unoptimized pharmaceutical supplychain.sol\":2738:2739  0 */\n      0x00\n        /* \"unoptimized pharmaceutical supplychain.sol\":2726:2739  uint256 i = 0 */\n      swap1\n      pop\n        /* \"unoptimized pharmaceutical supplychain.sol\":2721:3088  for (uint256 i = 0; i < medicines.length; i++) {... */\n    tag_125:\n        /* \"unoptimized pharmaceutical supplychain.sol\":2745:2754  medicines */\n      0x01\n        /* \"unoptimized pharmaceutical supplychain.sol\":2745:2761  medicines.length */\n      dup1\n      sload\n      swap1\n      pop\n        /* \"unoptimized pharmaceutical supplychain.sol\":2741:2742  i */\n      dup2\n        /* \"unoptimized pharmaceutical supplychain.sol\":2741:2761  i < medicines.length */\n      lt\n        /* \"unoptimized pharmaceutical supplychain.sol\":2721:3088  for (uint256 i = 0; i < medicines.length; i++) {... */\n      iszero\n      tag_126\n      jumpi\n        /* \"unoptimized pharmaceutical supplychain.sol\":2816:2819  _id */\n      dup4\n        /* \"unoptimized pharmaceutical supplychain.sol\":2789:2798  medicines */\n      0x01\n        /* \"unoptimized pharmaceutical supplychain.sol\":2799:2800  i */\n      dup3\n        /* \"unoptimized pharmaceutical supplychain.sol\":2789:2801  medicines[i] */\n      dup2\n      sload\n      dup2\n      lt\n      tag_128\n      jumpi\n      tag_129\n      tag_82\n      jump\t// in\n    tag_129:\n    tag_128:\n      swap1\n      0x00\n      mstore\n      keccak256(0x00, 0x20)\n      swap1\n      0x07\n      mul\n      add\n        /* \"unoptimized pharmaceutical supplychain.sol\":2789:2812  medicines[i].medicineId */\n      0x00\n      add\n      sload\n        /* \"unoptimized pharmaceutical supplychain.sol\":2789:2819  medicines[i].medicineId == _id */\n      sub\n        /* \"unoptimized pharmaceutical supplychain.sol\":2785:3077  if (medicines[i].medicineId == _id) {... */\n      tag_131\n      jumpi\n        /* \"unoptimized pharmaceutical supplychain.sol\":2842:2862  Medicine storage med */\n      0x00\n        /* \"unoptimized pharmaceutical supplychain.sol\":2865:2874  medicines */\n      0x01\n        /* \"unoptimized pharmaceutical supplychain.sol\":2875:2876  i */\n      dup3\n        /* \"unoptimized pharmaceutical supplychain.sol\":2865:2877  medicines[i] */\n      dup2\n      sload\n      dup2\n      lt\n      tag_132\n      jumpi\n      tag_133\n      tag_82\n      jump\t// in\n    tag_133:\n    tag_132:\n      swap1\n      0x00\n      mstore\n      keccak256(0x00, 0x20)\n      swap1\n      0x07\n      mul\n      add\n        /* \"unoptimized pharmaceutical supplychain.sol\":2842:2877  Medicine storage med = medicines[i] */\n      swap1\n      pop\n        /* \"unoptimized pharmaceutical supplychain.sol\":2916:2934  distributorAddress */\n      dup3\n        /* \"unoptimized pharmaceutical supplychain.sol\":2898:2901  med */\n      dup2\n        /* \"unoptimized pharmaceutical supplychain.sol\":2898:2913  med.distributor */\n      0x03\n      add\n      0x00\n        /* \"unoptimized pharmaceutical supplychain.sol\":2898:2934  med.distributor = distributorAddress */\n      0x0100\n      exp\n      dup2\n      sload\n      dup2\n      0xffffffffffffffffffffffffffffffffffffffff\n      mul\n      not\n      and\n      swap1\n      dup4\n      0xffffffffffffffffffffffffffffffffffffffff\n      and\n      mul\n      or\n      swap1\n      sstore\n      pop\n        /* \"unoptimized pharmaceutical supplychain.sol\":3007:3022  block.timestamp */\n      timestamp\n        /* \"unoptimized pharmaceutical supplychain.sol\":2991:2994  med */\n      dup2\n        /* \"unoptimized pharmaceutical supplychain.sol\":2991:3004  med.updatedAt */\n      0x06\n      add\n        /* \"unoptimized pharmaceutical supplychain.sol\":2991:3022  med.updatedAt = block.timestamp */\n      dup2\n      swap1\n      sstore\n      pop\n        /* \"unoptimized pharmaceutical supplychain.sol\":3058:3061  med */\n      dup1\n        /* \"unoptimized pharmaceutical supplychain.sol\":3043:3052  medicines */\n      0x01\n        /* \"unoptimized pharmaceutical supplychain.sol\":3053:3054  i */\n      dup4\n        /* \"unoptimized pharmaceutical supplychain.sol\":3043:3055  medicines[i] */\n      dup2\n      sload\n      dup2\n      lt\n      tag_135\n      jumpi\n      tag_136\n      tag_82\n      jump\t// in\n    tag_136:\n    tag_135:\n      swap1\n      0x00\n      mstore\n      keccak256(0x00, 0x20)\n      swap1\n      0x07\n      mul\n      add\n        /* \"unoptimized pharmaceutical supplychain.sol\":3043:3061  medicines[i] = med */\n      0x00\n      dup3\n      add\n      sload\n      dup2\n      0x00\n      add\n      sstore\n      0x01\n      dup3\n      add\n      dup2\n      0x01\n      add\n      swap1\n      dup2\n      tag_138\n      swap2\n      swap1\n      tag_89\n      jump\t// in\n    tag_138:\n      pop\n      0x02\n      dup3\n      add\n      0x00\n      swap1\n      sload\n      swap1\n      0x0100\n      exp\n      swap1\n      div\n      0xffffffffffffffffffffffffffffffffffffffff\n      and\n      dup2\n      0x02\n      add\n      exp(0x0100, 0x00)\n      dup2\n      sload\n      dup2\n      0xffffffffffffffffffffffffffffffffffffffff\n      mul\n      not\n      and\n      swap1\n      dup4\n      0xffffffffffffffffffffffffffffffffffffffff\n      and\n      mul\n      or\n      swap1\n      sstore\n      pop\n      0x02\n      dup3\n      add\n      0x14\n      swap1\n      sload\n      swap1\n      0x0100\n      exp\n      swap1\n      div\n      0xff\n      and\n      dup2\n      0x02\n      add\n      exp(0x0100, 0x14)\n      dup2\n      sload\n      dup2\n      0xff\n      mul\n      not\n      and\n      swap1\n      dup4\n      iszero\n      iszero\n      mul\n      or\n      swap1\n      sstore\n      pop\n      0x03\n      dup3\n      add\n      0x00\n      swap1\n      sload\n      swap1\n      0x0100\n      exp\n      swap1\n      div\n      0xffffffffffffffffffffffffffffffffffffffff\n      and\n      dup2\n      0x03\n      add\n      exp(0x0100, 0x00)\n      dup2\n      sload\n      dup2\n      0xffffffffffffffffffffffffffffffffffffffff\n      mul\n      not\n      and\n      swap1\n      dup4\n      0xffffffffffffffffffffffffffffffffffffffff\n      and\n      mul\n      or\n      swap1\n      sstore\n      pop\n      0x04\n      dup3\n      add\n      0x00\n      swap1\n      sload\n      swap1\n      0x0100\n      exp\n      swap1\n      div\n      0xffffffffffffffffffffffffffffffffffffffff\n      and\n      dup2\n      0x04\n      add\n      exp(0x0100, 0x00)\n      dup2\n      sload\n      dup2\n      0xffffffffffffffffffffffffffffffffffffffff\n      mul\n      not\n      and\n      swap1\n      dup4\n      0xffffffffffffffffffffffffffffffffffffffff\n      and\n      mul\n      or\n      swap1\n      sstore\n      pop\n      0x05\n      dup3\n      add\n      sload\n      dup2\n      0x05\n      add\n      sstore\n      0x06\n      dup3\n      add\n      sload\n      dup2\n      0x06\n      add\n      sstore\n      swap1\n      pop\n      pop\n        /* \"unoptimized pharmaceutical supplychain.sol\":2821:3077  {... */\n      pop\n        /* \"unoptimized pharmaceutical supplychain.sol\":2785:3077  if (medicines[i].medicineId == _id) {... */\n    tag_131:\n        /* \"unoptimized pharmaceutical supplychain.sol\":2763:2766  i++ */\n      dup1\n      dup1\n      0x01\n      add\n      swap2\n      pop\n      pop\n        /* \"unoptimized pharmaceutical supplychain.sol\":2721:3088  for (uint256 i = 0; i < medicines.length; i++) {... */\n      jump(tag_125)\n    tag_126:\n      pop\n        /* \"unoptimized pharmaceutical supplychain.sol\":2661:3095  {... */\n      pop\n        /* \"unoptimized pharmaceutical supplychain.sol\":2598:3095  function approveDistributor(uint256 _id, address _dist) public {... */\n      pop\n      pop\n      jump\t// out\n        /* \"unoptimized pharmaceutical supplychain.sol\":670:697  Medicine[] public medicines */\n    tag_57:\n      0x01\n      dup2\n      dup2\n      sload\n      dup2\n      lt\n      tag_139\n      jumpi\n      0x00\n      dup1\n      revert\n    tag_139:\n      swap1\n      0x00\n      mstore\n      keccak256(0x00, 0x20)\n      swap1\n      0x07\n      mul\n      add\n      0x00\n      swap2\n      pop\n      swap1\n      pop\n      dup1\n      0x00\n      add\n      sload\n      swap1\n      dup1\n      0x01\n      add\n      dup1\n      sload\n      tag_141\n      swap1\n      tag_71\n      jump\t// in\n    tag_141:\n      dup1\n      0x1f\n      add\n      0x20\n      dup1\n      swap2\n      div\n      mul\n      0x20\n      add\n      mload(0x40)\n      swap1\n      dup2\n      add\n      0x40\n      mstore\n      dup1\n      swap3\n      swap2\n      swap1\n      dup2\n      dup2\n      mstore\n      0x20\n      add\n      dup3\n      dup1\n      sload\n      tag_142\n      swap1\n      tag_71\n      jump\t// in\n    tag_142:\n      dup1\n      iszero\n      tag_143\n      jumpi\n      dup1\n      0x1f\n      lt\n      tag_144\n      jumpi\n      0x0100\n      dup1\n      dup4\n      sload\n      div\n      mul\n      dup4\n      mstore\n      swap2\n      0x20\n      add\n      swap2\n      jump(tag_143)\n    tag_144:\n      dup3\n      add\n      swap2\n      swap1\n      0x00\n      mstore\n      keccak256(0x00, 0x20)\n      swap1\n    tag_145:\n      dup2\n      sload\n      dup2\n      mstore\n      swap1\n      0x01\n      add\n      swap1\n      0x20\n      add\n      dup1\n      dup4\n      gt\n      tag_145\n      jumpi\n      dup3\n      swap1\n      sub\n      0x1f\n      and\n      dup3\n      add\n      swap2\n    tag_143:\n      pop\n      pop\n      pop\n      pop\n      pop\n      swap1\n      dup1\n      0x02\n      add\n      0x00\n      swap1\n      sload\n      swap1\n      0x0100\n      exp\n      swap1\n      div\n      0xffffffffffffffffffffffffffffffffffffffff\n      and\n      swap1\n      dup1\n      0x02\n      add\n      0x14\n      swap1\n      sload\n      swap1\n      0x0100\n      exp\n      swap1\n      div\n      0xff\n      and\n      swap1\n      dup1\n      0x03\n      add\n      0x00\n      swap1\n      sload\n      swap1\n      0x0100\n      exp\n      swap1\n      div\n      0xffffffffffffffffffffffffffffffffffffffff\n      and\n      swap1\n      dup1\n      0x04\n      add\n      0x00\n      swap1\n      sload\n      swap1\n      0x0100\n      exp\n      swap1\n      div\n      0xffffffffffffffffffffffffffffffffffffffff\n      and\n      swap1\n      dup1\n      0x05\n      add\n      sload\n      swap1\n      dup1\n      0x06\n      add\n      sload\n      swap1\n      pop\n      dup9\n      jump\t// out\n        /* \"unoptimized pharmaceutical supplychain.sol\":3129:3700  function dispatchMedicine(uint256 _id) public {... */\n    tag_62:\n        /* \"unoptimized pharmaceutical supplychain.sol\":3193:3202  uint256 i */\n      0x00\n        /* \"unoptimized pharmaceutical supplychain.sol\":3205:3206  0 */\n      0x00\n        /* \"unoptimized pharmaceutical supplychain.sol\":3193:3206  uint256 i = 0 */\n      swap1\n      pop\n        /* \"unoptimized pharmaceutical supplychain.sol\":3188:3693  for (uint256 i = 0; i < medicines.length; i++) {... */\n    tag_147:\n        /* \"unoptimized pharmaceutical supplychain.sol\":3212:3221  medicines */\n      0x01\n        /* \"unoptimized pharmaceutical supplychain.sol\":3212:3228  medicines.length */\n      dup1\n      sload\n      swap1\n      pop\n        /* \"unoptimized pharmaceutical supplychain.sol\":3208:3209  i */\n      dup2\n        /* \"unoptimized pharmaceutical supplychain.sol\":3208:3228  i < medicines.length */\n      lt\n        /* \"unoptimized pharmaceutical supplychain.sol\":3188:3693  for (uint256 i = 0; i < medicines.length; i++) {... */\n      iszero\n      tag_148\n      jumpi\n        /* \"unoptimized pharmaceutical supplychain.sol\":3252:3272  Medicine storage med */\n      0x00\n        /* \"unoptimized pharmaceutical supplychain.sol\":3275:3284  medicines */\n      0x01\n        /* \"unoptimized pharmaceutical supplychain.sol\":3285:3286  i */\n      dup3\n        /* \"unoptimized pharmaceutical supplychain.sol\":3275:3287  medicines[i] */\n      dup2\n      sload\n      dup2\n      lt\n      tag_150\n      jumpi\n      tag_151\n      tag_82\n      jump\t// in\n    tag_151:\n    tag_150:\n      swap1\n      0x00\n      mstore\n      keccak256(0x00, 0x20)\n      swap1\n      0x07\n      mul\n      add\n        /* \"unoptimized pharmaceutical supplychain.sol\":3252:3287  Medicine storage med = medicines[i] */\n      swap1\n      pop\n        /* \"unoptimized pharmaceutical supplychain.sol\":3326:3329  _id */\n      dup3\n        /* \"unoptimized pharmaceutical supplychain.sol\":3308:3311  med */\n      dup2\n        /* \"unoptimized pharmaceutical supplychain.sol\":3308:3322  med.medicineId */\n      0x00\n      add\n      sload\n        /* \"unoptimized pharmaceutical supplychain.sol\":3308:3329  med.medicineId == _id */\n      sub\n        /* \"unoptimized pharmaceutical supplychain.sol\":3304:3682  if (med.medicineId == _id) {... */\n      tag_153\n      jumpi\n        /* \"unoptimized pharmaceutical supplychain.sol\":3352:3378  address distributorAddress */\n      0x00\n        /* \"unoptimized pharmaceutical supplychain.sol\":3381:3384  med */\n      dup2\n        /* \"unoptimized pharmaceutical supplychain.sol\":3381:3396  med.distributor */\n      0x03\n      add\n      0x00\n      swap1\n      sload\n      swap1\n      0x0100\n      exp\n      swap1\n      div\n      0xffffffffffffffffffffffffffffffffffffffff\n      and\n        /* \"unoptimized pharmaceutical supplychain.sol\":3352:3396  address distributorAddress = med.distributor */\n      swap1\n      pop\n        /* \"unoptimized pharmaceutical supplychain.sol\":3491:3492  0 */\n      0x00\n        /* \"unoptimized pharmaceutical supplychain.sol\":3461:3493  distributorAddress != address(0) */\n      0xffffffffffffffffffffffffffffffffffffffff\n      and\n        /* \"unoptimized pharmaceutical supplychain.sol\":3461:3479  distributorAddress */\n      dup2\n        /* \"unoptimized pharmaceutical supplychain.sol\":3461:3493  distributorAddress != address(0) */\n      0xffffffffffffffffffffffffffffffffffffffff\n      and\n      eq\n        /* \"unoptimized pharmaceutical supplychain.sol\":3457:3667  if (distributorAddress != address(0)) {... */\n      tag_154\n      jumpi\n        /* \"unoptimized pharmaceutical supplychain.sol\":3532:3550  distributorAddress */\n      dup1\n        /* \"unoptimized pharmaceutical supplychain.sol\":3520:3523  med */\n      dup3\n        /* \"unoptimized pharmaceutical supplychain.sol\":3520:3529  med.owner */\n      0x04\n      add\n      0x00\n        /* \"unoptimized pharmaceutical supplychain.sol\":3520:3550  med.owner = distributorAddress */\n      0x0100\n      exp\n      dup2\n      sload\n      dup2\n      0xffffffffffffffffffffffffffffffffffffffff\n      mul\n      not\n      and\n      swap1\n      dup4\n      0xffffffffffffffffffffffffffffffffffffffff\n      and\n      mul\n      or\n      swap1\n      sstore\n      pop\n        /* \"unoptimized pharmaceutical supplychain.sol\":3589:3604  block.timestamp */\n      timestamp\n        /* \"unoptimized pharmaceutical supplychain.sol\":3573:3576  med */\n      dup3\n        /* \"unoptimized pharmaceutical supplychain.sol\":3573:3586  med.updatedAt */\n      0x06\n      add\n        /* \"unoptimized pharmaceutical supplychain.sol\":3573:3604  med.updatedAt = block.timestamp */\n      dup2\n      swap1\n      sstore\n      pop\n        /* \"unoptimized pharmaceutical supplychain.sol\":3644:3647  med */\n      dup2\n        /* \"unoptimized pharmaceutical supplychain.sol\":3629:3638  medicines */\n      0x01\n        /* \"unoptimized pharmaceutical supplychain.sol\":3639:3640  i */\n      dup5\n        /* \"unoptimized pharmaceutical supplychain.sol\":3629:3641  medicines[i] */\n      dup2\n      sload\n      dup2\n      lt\n      tag_155\n      jumpi\n      tag_156\n      tag_82\n      jump\t// in\n    tag_156:\n    tag_155:\n      swap1\n      0x00\n      mstore\n      keccak256(0x00, 0x20)\n      swap1\n      0x07\n      mul\n      add\n        /* \"unoptimized pharmaceutical supplychain.sol\":3629:3647  medicines[i] = med */\n      0x00\n      dup3\n      add\n      sload\n      dup2\n      0x00\n      add\n      sstore\n      0x01\n      dup3\n      add\n      dup2\n      0x01\n      add\n      swap1\n      dup2\n      tag_158\n      swap2\n      swap1\n      tag_89\n      jump\t// in\n    tag_158:\n      pop\n      0x02\n      dup3\n      add\n      0x00\n      swap1\n      sload\n      swap1\n      0x0100\n      exp\n      swap1\n      div\n      0xffffffffffffffffffffffffffffffffffffffff\n      and\n      dup2\n      0x02\n      add\n      exp(0x0100, 0x00)\n      dup2\n      sload\n      dup2\n      0xffffffffffffffffffffffffffffffffffffffff\n      mul\n      not\n      and\n      swap1\n      dup4\n      0xffffffffffffffffffffffffffffffffffffffff\n      and\n      mul\n      or\n      swap1\n      sstore\n      pop\n      0x02\n      dup3\n      add\n      0x14\n      swap1\n      sload\n      swap1\n      0x0100\n      exp\n      swap1\n      div\n      0xff\n      and\n      dup2\n      0x02\n      add\n      exp(0x0100, 0x14)\n      dup2\n      sload\n      dup2\n      0xff\n      mul\n      not\n      and\n      swap1\n      dup4\n      iszero\n      iszero\n      mul\n      or\n      swap1\n      sstore\n      pop\n      0x03\n      dup3\n      add\n      0x00\n      swap1\n      sload\n      swap1\n      0x0100\n      exp\n      swap1\n      div\n      0xffffffffffffffffffffffffffffffffffffffff\n      and\n      dup2\n      0x03\n      add\n      exp(0x0100, 0x00)\n      dup2\n      sload\n      dup2\n      0xffffffffffffffffffffffffffffffffffffffff\n      mul\n      not\n      and\n      swap1\n      dup4\n      0xffffffffffffffffffffffffffffffffffffffff\n      and\n      mul\n      or\n      swap1\n      sstore\n      pop\n      0x04\n      dup3\n      add\n      0x00\n      swap1\n      sload\n      swap1\n      0x0100\n      exp\n      swap1\n      div\n      0xffffffffffffffffffffffffffffffffffffffff\n      and\n      dup2\n      0x04\n      add\n      exp(0x0100, 0x00)\n      dup2\n      sload\n      dup2\n      0xffffffffffffffffffffffffffffffffffffffff\n      mul\n      not\n      and\n      swap1\n      dup4\n      0xffffffffffffffffffffffffffffffffffffffff\n      and\n      mul\n      or\n      swap1\n      sstore\n      pop\n      0x05\n      dup3\n      add\n      sload\n      dup2\n      0x05\n      add\n      sstore\n      0x06\n      dup3\n      add\n      sload\n      dup2\n      0x06\n      add\n      sstore\n      swap1\n      pop\n      pop\n        /* \"unoptimized pharmaceutical supplychain.sol\":3457:3667  if (distributorAddress != address(0)) {... */\n    tag_154:\n        /* \"unoptimized pharmaceutical supplychain.sol\":3331:3682  {... */\n      pop\n        /* \"unoptimized pharmaceutical supplychain.sol\":3304:3682  if (med.medicineId == _id) {... */\n    tag_153:\n        /* \"unoptimized pharmaceutical supplychain.sol\":3235:3693  {... */\n      pop\n        /* \"unoptimized pharmaceutical supplychain.sol\":3230:3233  i++ */\n      dup1\n      dup1\n      0x01\n      add\n      swap2\n      pop\n      pop\n        /* \"unoptimized pharmaceutical supplychain.sol\":3188:3693  for (uint256 i = 0; i < medicines.length; i++) {... */\n      jump(tag_147)\n    tag_148:\n      pop\n        /* \"unoptimized pharmaceutical supplychain.sol\":3129:3700  function dispatchMedicine(uint256 _id) public {... */\n      pop\n      jump\t// out\n        /* \"#utility.yul\":7:82   */\n    tag_159:\n        /* \"#utility.yul\":40:46   */\n      0x00\n        /* \"#utility.yul\":73:75   */\n      0x40\n        /* \"#utility.yul\":67:76   */\n      mload\n        /* \"#utility.yul\":57:76   */\n      swap1\n      pop\n        /* \"#utility.yul\":7:82   */\n      swap1\n      jump\t// out\n        /* \"#utility.yul\":88:205   */\n    tag_160:\n        /* \"#utility.yul\":197:198   */\n      0x00\n        /* \"#utility.yul\":194:195   */\n      0x00\n        /* \"#utility.yul\":187:199   */\n      revert\n        /* \"#utility.yul\":211:328   */\n    tag_161:\n        /* \"#utility.yul\":320:321   */\n      0x00\n        /* \"#utility.yul\":317:318   */\n      0x00\n        /* \"#utility.yul\":310:322   */\n      revert\n        /* \"#utility.yul\":334:451   */\n    tag_162:\n        /* \"#utility.yul\":443:444   */\n      0x00\n        /* \"#utility.yul\":440:441   */\n      0x00\n        /* \"#utility.yul\":433:445   */\n      revert\n        /* \"#utility.yul\":457:574   */\n    tag_163:\n        /* \"#utility.yul\":566:567   */\n      0x00\n        /* \"#utility.yul\":563:564   */\n      0x00\n        /* \"#utility.yul\":556:568   */\n      revert\n        /* \"#utility.yul\":580:682   */\n    tag_164:\n        /* \"#utility.yul\":621:627   */\n      0x00\n        /* \"#utility.yul\":672:674   */\n      0x1f\n        /* \"#utility.yul\":668:675   */\n      not\n        /* \"#utility.yul\":663:665   */\n      0x1f\n        /* \"#utility.yul\":656:661   */\n      dup4\n        /* \"#utility.yul\":652:666   */\n      add\n        /* \"#utility.yul\":648:676   */\n      and\n        /* \"#utility.yul\":638:676   */\n      swap1\n      pop\n        /* \"#utility.yul\":580:682   */\n      swap2\n      swap1\n      pop\n      jump\t// out\n        /* \"#utility.yul\":688:868   */\n    tag_165:\n        /* \"#utility.yul\":736:813   */\n      0x4e487b7100000000000000000000000000000000000000000000000000000000\n        /* \"#utility.yul\":733:734   */\n      0x00\n        /* \"#utility.yul\":726:814   */\n      mstore\n        /* \"#utility.yul\":833:837   */\n      0x41\n        /* \"#utility.yul\":830:831   */\n      0x04\n        /* \"#utility.yul\":823:838   */\n      mstore\n        /* \"#utility.yul\":857:861   */\n      0x24\n        /* \"#utility.yul\":854:855   */\n      0x00\n        /* \"#utility.yul\":847:862   */\n      revert\n        /* \"#utility.yul\":874:1155   */\n    tag_166:\n        /* \"#utility.yul\":957:984   */\n      tag_214\n        /* \"#utility.yul\":979:983   */\n      dup3\n        /* \"#utility.yul\":957:984   */\n      tag_164\n      jump\t// in\n    tag_214:\n        /* \"#utility.yul\":949:955   */\n      dup2\n        /* \"#utility.yul\":945:985   */\n      add\n        /* \"#utility.yul\":1087:1093   */\n      dup2\n        /* \"#utility.yul\":1075:1085   */\n      dup2\n        /* \"#utility.yul\":1072:1094   */\n      lt\n        /* \"#utility.yul\":1051:1069   */\n      0xffffffffffffffff\n        /* \"#utility.yul\":1039:1049   */\n      dup3\n        /* \"#utility.yul\":1036:1070   */\n      gt\n        /* \"#utility.yul\":1033:1095   */\n      or\n        /* \"#utility.yul\":1030:1118   */\n      iszero\n      tag_215\n      jumpi\n        /* \"#utility.yul\":1098:1116   */\n      tag_216\n      tag_165\n      jump\t// in\n    tag_216:\n        /* \"#utility.yul\":1030:1118   */\n    tag_215:\n        /* \"#utility.yul\":1138:1148   */\n      dup1\n        /* \"#utility.yul\":1134:1136   */\n      0x40\n        /* \"#utility.yul\":1127:1149   */\n      mstore\n        /* \"#utility.yul\":917:1155   */\n      pop\n        /* \"#utility.yul\":874:1155   */\n      pop\n      pop\n      jump\t// out\n        /* \"#utility.yul\":1161:1290   */\n    tag_167:\n        /* \"#utility.yul\":1195:1201   */\n      0x00\n        /* \"#utility.yul\":1222:1242   */\n      tag_218\n      tag_159\n      jump\t// in\n    tag_218:\n        /* \"#utility.yul\":1212:1242   */\n      swap1\n      pop\n        /* \"#utility.yul\":1251:1284   */\n      tag_219\n        /* \"#utility.yul\":1279:1283   */\n      dup3\n        /* \"#utility.yul\":1271:1277   */\n      dup3\n        /* \"#utility.yul\":1251:1284   */\n      tag_166\n      jump\t// in\n    tag_219:\n        /* \"#utility.yul\":1161:1290   */\n      swap2\n      swap1\n      pop\n      jump\t// out\n        /* \"#utility.yul\":1296:1604   */\n    tag_168:\n        /* \"#utility.yul\":1358:1362   */\n      0x00\n        /* \"#utility.yul\":1448:1466   */\n      0xffffffffffffffff\n        /* \"#utility.yul\":1440:1446   */\n      dup3\n        /* \"#utility.yul\":1437:1467   */\n      gt\n        /* \"#utility.yul\":1434:1490   */\n      iszero\n      tag_221\n      jumpi\n        /* \"#utility.yul\":1470:1488   */\n      tag_222\n      tag_165\n      jump\t// in\n    tag_222:\n        /* \"#utility.yul\":1434:1490   */\n    tag_221:\n        /* \"#utility.yul\":1508:1537   */\n      tag_223\n        /* \"#utility.yul\":1530:1536   */\n      dup3\n        /* \"#utility.yul\":1508:1537   */\n      tag_164\n      jump\t// in\n    tag_223:\n        /* \"#utility.yul\":1500:1537   */\n      swap1\n      pop\n        /* \"#utility.yul\":1592:1596   */\n      0x20\n        /* \"#utility.yul\":1586:1590   */\n      dup2\n        /* \"#utility.yul\":1582:1597   */\n      add\n        /* \"#utility.yul\":1574:1597   */\n      swap1\n      pop\n        /* \"#utility.yul\":1296:1604   */\n      swap2\n      swap1\n      pop\n      jump\t// out\n        /* \"#utility.yul\":1610:1758   */\n    tag_169:\n        /* \"#utility.yul\":1708:1714   */\n      dup3\n        /* \"#utility.yul\":1703:1706   */\n      dup2\n        /* \"#utility.yul\":1698:1701   */\n      dup4\n        /* \"#utility.yul\":1685:1715   */\n      calldatacopy\n        /* \"#utility.yul\":1749:1750   */\n      0x00\n        /* \"#utility.yul\":1740:1746   */\n      dup4\n        /* \"#utility.yul\":1735:1738   */\n      dup4\n        /* \"#utility.yul\":1731:1747   */\n      add\n        /* \"#utility.yul\":1724:1751   */\n      mstore\n        /* \"#utility.yul\":1610:1758   */\n      pop\n      pop\n      pop\n      jump\t// out\n        /* \"#utility.yul\":1764:2189   */\n    tag_170:\n        /* \"#utility.yul\":1842:1847   */\n      0x00\n        /* \"#utility.yul\":1867:1933   */\n      tag_226\n        /* \"#utility.yul\":1883:1932   */\n      tag_227\n        /* \"#utility.yul\":1925:1931   */\n      dup5\n        /* \"#utility.yul\":1883:1932   */\n      tag_168\n      jump\t// in\n    tag_227:\n        /* \"#utility.yul\":1867:1933   */\n      tag_167\n      jump\t// in\n    tag_226:\n        /* \"#utility.yul\":1858:1933   */\n      swap1\n      pop\n        /* \"#utility.yul\":1956:1962   */\n      dup3\n        /* \"#utility.yul\":1949:1954   */\n      dup2\n        /* \"#utility.yul\":1942:1963   */\n      mstore\n        /* \"#utility.yul\":1994:1998   */\n      0x20\n        /* \"#utility.yul\":1987:1992   */\n      dup2\n        /* \"#utility.yul\":1983:1999   */\n      add\n        /* \"#utility.yul\":2032:2035   */\n      dup5\n        /* \"#utility.yul\":2023:2029   */\n      dup5\n        /* \"#utility.yul\":2018:2021   */\n      dup5\n        /* \"#utility.yul\":2014:2030   */\n      add\n        /* \"#utility.yul\":2011:2036   */\n      gt\n        /* \"#utility.yul\":2008:2120   */\n      iszero\n      tag_228\n      jumpi\n        /* \"#utility.yul\":2039:2118   */\n      tag_229\n      tag_163\n      jump\t// in\n    tag_229:\n        /* \"#utility.yul\":2008:2120   */\n    tag_228:\n        /* \"#utility.yul\":2129:2183   */\n      tag_230\n        /* \"#utility.yul\":2176:2182   */\n      dup5\n        /* \"#utility.yul\":2171:2174   */\n      dup3\n        /* \"#utility.yul\":2166:2169   */\n      dup6\n        /* \"#utility.yul\":2129:2183   */\n      tag_169\n      jump\t// in\n    tag_230:\n        /* \"#utility.yul\":1848:2189   */\n      pop\n        /* \"#utility.yul\":1764:2189   */\n      swap4\n      swap3\n      pop\n      pop\n      pop\n      jump\t// out\n        /* \"#utility.yul\":2209:2549   */\n    tag_171:\n        /* \"#utility.yul\":2265:2270   */\n      0x00\n        /* \"#utility.yul\":2314:2317   */\n      dup3\n        /* \"#utility.yul\":2307:2311   */\n      0x1f\n        /* \"#utility.yul\":2299:2305   */\n      dup4\n        /* \"#utility.yul\":2295:2312   */\n      add\n        /* \"#utility.yul\":2291:2318   */\n      slt\n        /* \"#utility.yul\":2281:2403   */\n      tag_232\n      jumpi\n        /* \"#utility.yul\":2322:2401   */\n      tag_233\n      tag_162\n      jump\t// in\n    tag_233:\n        /* \"#utility.yul\":2281:2403   */\n    tag_232:\n        /* \"#utility.yul\":2439:2445   */\n      dup2\n        /* \"#utility.yul\":2426:2446   */\n      calldataload\n        /* \"#utility.yul\":2464:2543   */\n      tag_234\n        /* \"#utility.yul\":2539:2542   */\n      dup5\n        /* \"#utility.yul\":2531:2537   */\n      dup3\n        /* \"#utility.yul\":2524:2528   */\n      0x20\n        /* \"#utility.yul\":2516:2522   */\n      dup7\n        /* \"#utility.yul\":2512:2529   */\n      add\n        /* \"#utility.yul\":2464:2543   */\n      tag_170\n      jump\t// in\n    tag_234:\n        /* \"#utility.yul\":2455:2543   */\n      swap2\n      pop\n        /* \"#utility.yul\":2271:2549   */\n      pop\n        /* \"#utility.yul\":2209:2549   */\n      swap3\n      swap2\n      pop\n      pop\n      jump\t// out\n        /* \"#utility.yul\":2555:3064   */\n    tag_18:\n        /* \"#utility.yul\":2624:2630   */\n      0x00\n        /* \"#utility.yul\":2673:2675   */\n      0x20\n        /* \"#utility.yul\":2661:2670   */\n      dup3\n        /* \"#utility.yul\":2652:2659   */\n      dup5\n        /* \"#utility.yul\":2648:2671   */\n      sub\n        /* \"#utility.yul\":2644:2676   */\n      slt\n        /* \"#utility.yul\":2641:2760   */\n      iszero\n      tag_236\n      jumpi\n        /* \"#utility.yul\":2679:2758   */\n      tag_237\n      tag_160\n      jump\t// in\n    tag_237:\n        /* \"#utility.yul\":2641:2760   */\n    tag_236:\n        /* \"#utility.yul\":2827:2828   */\n      0x00\n        /* \"#utility.yul\":2816:2825   */\n      dup3\n        /* \"#utility.yul\":2812:2829   */\n      add\n        /* \"#utility.yul\":2799:2830   */\n      calldataload\n        /* \"#utility.yul\":2857:2875   */\n      0xffffffffffffffff\n        /* \"#utility.yul\":2849:2855   */\n      dup2\n        /* \"#utility.yul\":2846:2876   */\n      gt\n        /* \"#utility.yul\":2843:2960   */\n      iszero\n      tag_238\n      jumpi\n        /* \"#utility.yul\":2879:2958   */\n      tag_239\n      tag_161\n      jump\t// in\n    tag_239:\n        /* \"#utility.yul\":2843:2960   */\n    tag_238:\n        /* \"#utility.yul\":2984:3047   */\n      tag_240\n        /* \"#utility.yul\":3039:3046   */\n      dup5\n        /* \"#utility.yul\":3030:3036   */\n      dup3\n        /* \"#utility.yul\":3019:3028   */\n      dup6\n        /* \"#utility.yul\":3015:3037   */\n      add\n        /* \"#utility.yul\":2984:3047   */\n      tag_171\n      jump\t// in\n    tag_240:\n        /* \"#utility.yul\":2974:3047   */\n      swap2\n      pop\n        /* \"#utility.yul\":2770:3057   */\n      pop\n        /* \"#utility.yul\":2555:3064   */\n      swap3\n      swap2\n      pop\n      pop\n      jump\t// out\n        /* \"#utility.yul\":3070:3147   */\n    tag_172:\n        /* \"#utility.yul\":3107:3114   */\n      0x00\n        /* \"#utility.yul\":3136:3141   */\n      dup2\n        /* \"#utility.yul\":3125:3141   */\n      swap1\n      pop\n        /* \"#utility.yul\":3070:3147   */\n      swap2\n      swap1\n      pop\n      jump\t// out\n        /* \"#utility.yul\":3153:3275   */\n    tag_173:\n        /* \"#utility.yul\":3226:3250   */\n      tag_243\n        /* \"#utility.yul\":3244:3249   */\n      dup2\n        /* \"#utility.yul\":3226:3250   */\n      tag_172\n      jump\t// in\n    tag_243:\n        /* \"#utility.yul\":3219:3224   */\n      dup2\n        /* \"#utility.yul\":3216:3251   */\n      eq\n        /* \"#utility.yul\":3206:3269   */\n      tag_244\n      jumpi\n        /* \"#utility.yul\":3265:3266   */\n      0x00\n        /* \"#utility.yul\":3262:3263   */\n      0x00\n        /* \"#utility.yul\":3255:3267   */\n      revert\n        /* \"#utility.yul\":3206:3269   */\n    tag_244:\n        /* \"#utility.yul\":3153:3275   */\n      pop\n      jump\t// out\n        /* \"#utility.yul\":3281:3420   */\n    tag_174:\n        /* \"#utility.yul\":3327:3332   */\n      0x00\n        /* \"#utility.yul\":3365:3371   */\n      dup2\n        /* \"#utility.yul\":3352:3372   */\n      calldataload\n        /* \"#utility.yul\":3343:3372   */\n      swap1\n      pop\n        /* \"#utility.yul\":3381:3414   */\n      tag_246\n        /* \"#utility.yul\":3408:3413   */\n      dup2\n        /* \"#utility.yul\":3381:3414   */\n      tag_173\n      jump\t// in\n    tag_246:\n        /* \"#utility.yul\":3281:3420   */\n      swap3\n      swap2\n      pop\n      pop\n      jump\t// out\n        /* \"#utility.yul\":3426:3755   */\n    tag_22:\n        /* \"#utility.yul\":3485:3491   */\n      0x00\n        /* \"#utility.yul\":3534:3536   */\n      0x20\n        /* \"#utility.yul\":3522:3531   */\n      dup3\n        /* \"#utility.yul\":3513:3520   */\n      dup5\n        /* \"#utility.yul\":3509:3532   */\n      sub\n        /* \"#utility.yul\":3505:3537   */\n      slt\n        /* \"#utility.yul\":3502:3621   */\n      iszero\n      tag_248\n      jumpi\n        /* \"#utility.yul\":3540:3619   */\n      tag_249\n      tag_160\n      jump\t// in\n    tag_249:\n        /* \"#utility.yul\":3502:3621   */\n    tag_248:\n        /* \"#utility.yul\":3660:3661   */\n      0x00\n        /* \"#utility.yul\":3685:3738   */\n      tag_250\n        /* \"#utility.yul\":3730:3737   */\n      dup5\n        /* \"#utility.yul\":3721:3727   */\n      dup3\n        /* \"#utility.yul\":3710:3719   */\n      dup6\n        /* \"#utility.yul\":3706:3728   */\n      add\n        /* \"#utility.yul\":3685:3738   */\n      tag_174\n      jump\t// in\n    tag_250:\n        /* \"#utility.yul\":3675:3738   */\n      swap2\n      pop\n        /* \"#utility.yul\":3631:3748   */\n      pop\n        /* \"#utility.yul\":3426:3755   */\n      swap3\n      swap2\n      pop\n      pop\n      jump\t// out\n        /* \"#utility.yul\":3761:3887   */\n    tag_175:\n        /* \"#utility.yul\":3798:3805   */\n      0x00\n        /* \"#utility.yul\":3838:3880   */\n      0xffffffffffffffffffffffffffffffffffffffff\n        /* \"#utility.yul\":3831:3836   */\n      dup3\n        /* \"#utility.yul\":3827:3881   */\n      and\n        /* \"#utility.yul\":3816:3881   */\n      swap1\n      pop\n        /* \"#utility.yul\":3761:3887   */\n      swap2\n      swap1\n      pop\n      jump\t// out\n        /* \"#utility.yul\":3893:3989   */\n    tag_176:\n        /* \"#utility.yul\":3930:3937   */\n      0x00\n        /* \"#utility.yul\":3959:3983   */\n      tag_253\n        /* \"#utility.yul\":3977:3982   */\n      dup3\n        /* \"#utility.yul\":3959:3983   */\n      tag_175\n      jump\t// in\n    tag_253:\n        /* \"#utility.yul\":3948:3983   */\n      swap1\n      pop\n        /* \"#utility.yul\":3893:3989   */\n      swap2\n      swap1\n      pop\n      jump\t// out\n        /* \"#utility.yul\":3995:4113   */\n    tag_177:\n        /* \"#utility.yul\":4082:4106   */\n      tag_255\n        /* \"#utility.yul\":4100:4105   */\n      dup2\n        /* \"#utility.yul\":4082:4106   */\n      tag_176\n      jump\t// in\n    tag_255:\n        /* \"#utility.yul\":4077:4080   */\n      dup3\n        /* \"#utility.yul\":4070:4107   */\n      mstore\n        /* \"#utility.yul\":3995:4113   */\n      pop\n      pop\n      jump\t// out\n        /* \"#utility.yul\":4119:4218   */\n    tag_178:\n        /* \"#utility.yul\":4171:4177   */\n      0x00\n        /* \"#utility.yul\":4205:4210   */\n      dup2\n        /* \"#utility.yul\":4199:4211   */\n      mload\n        /* \"#utility.yul\":4189:4211   */\n      swap1\n      pop\n        /* \"#utility.yul\":4119:4218   */\n      swap2\n      swap1\n      pop\n      jump\t// out\n        /* \"#utility.yul\":4224:4393   */\n    tag_179:\n        /* \"#utility.yul\":4308:4319   */\n      0x00\n        /* \"#utility.yul\":4342:4348   */\n      dup3\n        /* \"#utility.yul\":4337:4340   */\n      dup3\n        /* \"#utility.yul\":4330:4349   */\n      mstore\n        /* \"#utility.yul\":4382:4386   */\n      0x20\n        /* \"#utility.yul\":4377:4380   */\n      dup3\n        /* \"#utility.yul\":4373:4387   */\n      add\n        /* \"#utility.yul\":4358:4387   */\n      swap1\n      pop\n        /* \"#utility.yul\":4224:4393   */\n      swap3\n      swap2\n      pop\n      pop\n      jump\t// out\n        /* \"#utility.yul\":4399:4538   */\n    tag_180:\n        /* \"#utility.yul\":4488:4494   */\n      dup3\n        /* \"#utility.yul\":4483:4486   */\n      dup2\n        /* \"#utility.yul\":4478:4481   */\n      dup4\n        /* \"#utility.yul\":4472:4495   */\n      mcopy\n        /* \"#utility.yul\":4529:4530   */\n      0x00\n        /* \"#utility.yul\":4520:4526   */\n      dup4\n        /* \"#utility.yul\":4515:4518   */\n      dup4\n        /* \"#utility.yul\":4511:4527   */\n      add\n        /* \"#utility.yul\":4504:4531   */\n      mstore\n        /* \"#utility.yul\":4399:4538   */\n      pop\n      pop\n      pop\n      jump\t// out\n        /* \"#utility.yul\":4544:4921   */\n    tag_181:\n        /* \"#utility.yul\":4632:4635   */\n      0x00\n        /* \"#utility.yul\":4660:4699   */\n      tag_260\n        /* \"#utility.yul\":4693:4698   */\n      dup3\n        /* \"#utility.yul\":4660:4699   */\n      tag_178\n      jump\t// in\n    tag_260:\n        /* \"#utility.yul\":4715:4786   */\n      tag_261\n        /* \"#utility.yul\":4779:4785   */\n      dup2\n        /* \"#utility.yul\":4774:4777   */\n      dup6\n        /* \"#utility.yul\":4715:4786   */\n      tag_179\n      jump\t// in\n    tag_261:\n        /* \"#utility.yul\":4708:4786   */\n      swap4\n      pop\n        /* \"#utility.yul\":4795:4860   */\n      tag_262\n        /* \"#utility.yul\":4853:4859   */\n      dup2\n        /* \"#utility.yul\":4848:4851   */\n      dup6\n        /* \"#utility.yul\":4841:4845   */\n      0x20\n        /* \"#utility.yul\":4834:4839   */\n      dup7\n        /* \"#utility.yul\":4830:4846   */\n      add\n        /* \"#utility.yul\":4795:4860   */\n      tag_180\n      jump\t// in\n    tag_262:\n        /* \"#utility.yul\":4885:4914   */\n      tag_263\n        /* \"#utility.yul\":4907:4913   */\n      dup2\n        /* \"#utility.yul\":4885:4914   */\n      tag_164\n      jump\t// in\n    tag_263:\n        /* \"#utility.yul\":4880:4883   */\n      dup5\n        /* \"#utility.yul\":4876:4915   */\n      add\n        /* \"#utility.yul\":4869:4915   */\n      swap2\n      pop\n        /* \"#utility.yul\":4636:4921   */\n      pop\n        /* \"#utility.yul\":4544:4921   */\n      swap3\n      swap2\n      pop\n      pop\n      jump\t// out\n        /* \"#utility.yul\":4927:5017   */\n    tag_182:\n        /* \"#utility.yul\":4961:4968   */\n      0x00\n        /* \"#utility.yul\":5004:5009   */\n      dup2\n        /* \"#utility.yul\":4997:5010   */\n      iszero\n        /* \"#utility.yul\":4990:5011   */\n      iszero\n        /* \"#utility.yul\":4979:5011   */\n      swap1\n      pop\n        /* \"#utility.yul\":4927:5017   */\n      swap2\n      swap1\n      pop\n      jump\t// out\n        /* \"#utility.yul\":5023:5132   */\n    tag_183:\n        /* \"#utility.yul\":5104:5125   */\n      tag_266\n        /* \"#utility.yul\":5119:5124   */\n      dup2\n        /* \"#utility.yul\":5104:5125   */\n      tag_182\n      jump\t// in\n    tag_266:\n        /* \"#utility.yul\":5099:5102   */\n      dup3\n        /* \"#utility.yul\":5092:5126   */\n      mstore\n        /* \"#utility.yul\":5023:5132   */\n      pop\n      pop\n      jump\t// out\n        /* \"#utility.yul\":5138:5256   */\n    tag_184:\n        /* \"#utility.yul\":5225:5249   */\n      tag_268\n        /* \"#utility.yul\":5243:5248   */\n      dup2\n        /* \"#utility.yul\":5225:5249   */\n      tag_172\n      jump\t// in\n    tag_268:\n        /* \"#utility.yul\":5220:5223   */\n      dup3\n        /* \"#utility.yul\":5213:5250   */\n      mstore\n        /* \"#utility.yul\":5138:5256   */\n      pop\n      pop\n      jump\t// out\n        /* \"#utility.yul\":5262:5894   */\n    tag_25:\n        /* \"#utility.yul\":5453:5457   */\n      0x00\n        /* \"#utility.yul\":5491:5494   */\n      0x80\n        /* \"#utility.yul\":5480:5489   */\n      dup3\n        /* \"#utility.yul\":5476:5495   */\n      add\n        /* \"#utility.yul\":5468:5495   */\n      swap1\n      pop\n        /* \"#utility.yul\":5505:5576   */\n      tag_270\n        /* \"#utility.yul\":5573:5574   */\n      0x00\n        /* \"#utility.yul\":5562:5571   */\n      dup4\n        /* \"#utility.yul\":5558:5575   */\n      add\n        /* \"#utility.yul\":5549:5555   */\n      dup8\n        /* \"#utility.yul\":5505:5576   */\n      tag_177\n      jump\t// in\n    tag_270:\n        /* \"#utility.yul\":5623:5632   */\n      dup2\n        /* \"#utility.yul\":5617:5621   */\n      dup2\n        /* \"#utility.yul\":5613:5633   */\n      sub\n        /* \"#utility.yul\":5608:5610   */\n      0x20\n        /* \"#utility.yul\":5597:5606   */\n      dup4\n        /* \"#utility.yul\":5593:5611   */\n      add\n        /* \"#utility.yul\":5586:5634   */\n      mstore\n        /* \"#utility.yul\":5651:5729   */\n      tag_271\n        /* \"#utility.yul\":5724:5728   */\n      dup2\n        /* \"#utility.yul\":5715:5721   */\n      dup7\n        /* \"#utility.yul\":5651:5729   */\n      tag_181\n      jump\t// in\n    tag_271:\n        /* \"#utility.yul\":5643:5729   */\n      swap1\n      pop\n        /* \"#utility.yul\":5739:5805   */\n      tag_272\n        /* \"#utility.yul\":5801:5803   */\n      0x40\n        /* \"#utility.yul\":5790:5799   */\n      dup4\n        /* \"#utility.yul\":5786:5804   */\n      add\n        /* \"#utility.yul\":5777:5783   */\n      dup6\n        /* \"#utility.yul\":5739:5805   */\n      tag_183\n      jump\t// in\n    tag_272:\n        /* \"#utility.yul\":5815:5887   */\n      tag_273\n        /* \"#utility.yul\":5883:5885   */\n      0x60\n        /* \"#utility.yul\":5872:5881   */\n      dup4\n        /* \"#utility.yul\":5868:5886   */\n      add\n        /* \"#utility.yul\":5859:5865   */\n      dup5\n        /* \"#utility.yul\":5815:5887   */\n      tag_184\n      jump\t// in\n    tag_273:\n        /* \"#utility.yul\":5262:5894   */\n      swap6\n      swap5\n      pop\n      pop\n      pop\n      pop\n      pop\n      jump\t// out\n        /* \"#utility.yul\":5900:6022   */\n    tag_185:\n        /* \"#utility.yul\":5973:5997   */\n      tag_275\n        /* \"#utility.yul\":5991:5996   */\n      dup2\n        /* \"#utility.yul\":5973:5997   */\n      tag_176\n      jump\t// in\n    tag_275:\n        /* \"#utility.yul\":5966:5971   */\n      dup2\n        /* \"#utility.yul\":5963:5998   */\n      eq\n        /* \"#utility.yul\":5953:6016   */\n      tag_276\n      jumpi\n        /* \"#utility.yul\":6012:6013   */\n      0x00\n        /* \"#utility.yul\":6009:6010   */\n      0x00\n        /* \"#utility.yul\":6002:6014   */\n      revert\n        /* \"#utility.yul\":5953:6016   */\n    tag_276:\n        /* \"#utility.yul\":5900:6022   */\n      pop\n      jump\t// out\n        /* \"#utility.yul\":6028:6167   */\n    tag_186:\n        /* \"#utility.yul\":6074:6079   */\n      0x00\n        /* \"#utility.yul\":6112:6118   */\n      dup2\n        /* \"#utility.yul\":6099:6119   */\n      calldataload\n        /* \"#utility.yul\":6090:6119   */\n      swap1\n      pop\n        /* \"#utility.yul\":6128:6161   */\n      tag_278\n        /* \"#utility.yul\":6155:6160   */\n      dup2\n        /* \"#utility.yul\":6128:6161   */\n      tag_185\n      jump\t// in\n    tag_278:\n        /* \"#utility.yul\":6028:6167   */\n      swap3\n      swap2\n      pop\n      pop\n      jump\t// out\n        /* \"#utility.yul\":6173:6647   */\n    tag_28:\n        /* \"#utility.yul\":6241:6247   */\n      0x00\n        /* \"#utility.yul\":6249:6255   */\n      0x00\n        /* \"#utility.yul\":6298:6300   */\n      0x40\n        /* \"#utility.yul\":6286:6295   */\n      dup4\n        /* \"#utility.yul\":6277:6284   */\n      dup6\n        /* \"#utility.yul\":6273:6296   */\n      sub\n        /* \"#utility.yul\":6269:6301   */\n      slt\n        /* \"#utility.yul\":6266:6385   */\n      iszero\n      tag_280\n      jumpi\n        /* \"#utility.yul\":6304:6383   */\n      tag_281\n      tag_160\n      jump\t// in\n    tag_281:\n        /* \"#utility.yul\":6266:6385   */\n    tag_280:\n        /* \"#utility.yul\":6424:6425   */\n      0x00\n        /* \"#utility.yul\":6449:6502   */\n      tag_282\n        /* \"#utility.yul\":6494:6501   */\n      dup6\n        /* \"#utility.yul\":6485:6491   */\n      dup3\n        /* \"#utility.yul\":6474:6483   */\n      dup7\n        /* \"#utility.yul\":6470:6492   */\n      add\n        /* \"#utility.yul\":6449:6502   */\n      tag_174\n      jump\t// in\n    tag_282:\n        /* \"#utility.yul\":6439:6502   */\n      swap3\n      pop\n        /* \"#utility.yul\":6395:6512   */\n      pop\n        /* \"#utility.yul\":6551:6553   */\n      0x20\n        /* \"#utility.yul\":6577:6630   */\n      tag_283\n        /* \"#utility.yul\":6622:6629   */\n      dup6\n        /* \"#utility.yul\":6613:6619   */\n      dup3\n        /* \"#utility.yul\":6602:6611   */\n      dup7\n        /* \"#utility.yul\":6598:6620   */\n      add\n        /* \"#utility.yul\":6577:6630   */\n      tag_186\n      jump\t// in\n    tag_283:\n        /* \"#utility.yul\":6567:6630   */\n      swap2\n      pop\n        /* \"#utility.yul\":6522:6640   */\n      pop\n        /* \"#utility.yul\":6173:6647   */\n      swap3\n      pop\n      swap3\n      swap1\n      pop\n      jump\t// out\n        /* \"#utility.yul\":6653:6875   */\n    tag_40:\n        /* \"#utility.yul\":6746:6750   */\n      0x00\n        /* \"#utility.yul\":6784:6786   */\n      0x20\n        /* \"#utility.yul\":6773:6782   */\n      dup3\n        /* \"#utility.yul\":6769:6787   */\n      add\n        /* \"#utility.yul\":6761:6787   */\n      swap1\n      pop\n        /* \"#utility.yul\":6797:6868   */\n      tag_285\n        /* \"#utility.yul\":6865:6866   */\n      0x00\n        /* \"#utility.yul\":6854:6863   */\n      dup4\n        /* \"#utility.yul\":6850:6867   */\n      add\n        /* \"#utility.yul\":6841:6847   */\n      dup5\n        /* \"#utility.yul\":6797:6868   */\n      tag_177\n      jump\t// in\n    tag_285:\n        /* \"#utility.yul\":6653:6875   */\n      swap3\n      swap2\n      pop\n      pop\n      jump\t// out\n        /* \"#utility.yul\":6881:7103   */\n    tag_45:\n        /* \"#utility.yul\":6974:6978   */\n      0x00\n        /* \"#utility.yul\":7012:7014   */\n      0x20\n        /* \"#utility.yul\":7001:7010   */\n      dup3\n        /* \"#utility.yul\":6997:7015   */\n      add\n        /* \"#utility.yul\":6989:7015   */\n      swap1\n      pop\n        /* \"#utility.yul\":7025:7096   */\n      tag_287\n        /* \"#utility.yul\":7093:7094   */\n      0x00\n        /* \"#utility.yul\":7082:7091   */\n      dup4\n        /* \"#utility.yul\":7078:7095   */\n      add\n        /* \"#utility.yul\":7069:7075   */\n      dup5\n        /* \"#utility.yul\":7025:7096   */\n      tag_184\n      jump\t// in\n    tag_287:\n        /* \"#utility.yul\":6881:7103   */\n      swap3\n      swap2\n      pop\n      pop\n      jump\t// out\n        /* \"#utility.yul\":7109:8185   */\n    tag_59:\n        /* \"#utility.yul\":7412:7416   */\n      0x00\n        /* \"#utility.yul\":7450:7453   */\n      0x0100\n        /* \"#utility.yul\":7439:7448   */\n      dup3\n        /* \"#utility.yul\":7435:7454   */\n      add\n        /* \"#utility.yul\":7427:7454   */\n      swap1\n      pop\n        /* \"#utility.yul\":7464:7535   */\n      tag_289\n        /* \"#utility.yul\":7532:7533   */\n      0x00\n        /* \"#utility.yul\":7521:7530   */\n      dup4\n        /* \"#utility.yul\":7517:7534   */\n      add\n        /* \"#utility.yul\":7508:7514   */\n      dup12\n        /* \"#utility.yul\":7464:7535   */\n      tag_184\n      jump\t// in\n    tag_289:\n        /* \"#utility.yul\":7582:7591   */\n      dup2\n        /* \"#utility.yul\":7576:7580   */\n      dup2\n        /* \"#utility.yul\":7572:7592   */\n      sub\n        /* \"#utility.yul\":7567:7569   */\n      0x20\n        /* \"#utility.yul\":7556:7565   */\n      dup4\n        /* \"#utility.yul\":7552:7570   */\n      add\n        /* \"#utility.yul\":7545:7593   */\n      mstore\n        /* \"#utility.yul\":7610:7688   */\n      tag_290\n        /* \"#utility.yul\":7683:7687   */\n      dup2\n        /* \"#utility.yul\":7674:7680   */\n      dup11\n        /* \"#utility.yul\":7610:7688   */\n      tag_181\n      jump\t// in\n    tag_290:\n        /* \"#utility.yul\":7602:7688   */\n      swap1\n      pop\n        /* \"#utility.yul\":7698:7770   */\n      tag_291\n        /* \"#utility.yul\":7766:7768   */\n      0x40\n        /* \"#utility.yul\":7755:7764   */\n      dup4\n        /* \"#utility.yul\":7751:7769   */\n      add\n        /* \"#utility.yul\":7742:7748   */\n      dup10\n        /* \"#utility.yul\":7698:7770   */\n      tag_177\n      jump\t// in\n    tag_291:\n        /* \"#utility.yul\":7780:7846   */\n      tag_292\n        /* \"#utility.yul\":7842:7844   */\n      0x60\n        /* \"#utility.yul\":7831:7840   */\n      dup4\n        /* \"#utility.yul\":7827:7845   */\n      add\n        /* \"#utility.yul\":7818:7824   */\n      dup9\n        /* \"#utility.yul\":7780:7846   */\n      tag_183\n      jump\t// in\n    tag_292:\n        /* \"#utility.yul\":7856:7929   */\n      tag_293\n        /* \"#utility.yul\":7924:7927   */\n      0x80\n        /* \"#utility.yul\":7913:7922   */\n      dup4\n        /* \"#utility.yul\":7909:7928   */\n      add\n        /* \"#utility.yul\":7900:7906   */\n      dup8\n        /* \"#utility.yul\":7856:7929   */\n      tag_177\n      jump\t// in\n    tag_293:\n        /* \"#utility.yul\":7939:8012   */\n      tag_294\n        /* \"#utility.yul\":8007:8010   */\n      0xa0\n        /* \"#utility.yul\":7996:8005   */\n      dup4\n        /* \"#utility.yul\":7992:8011   */\n      add\n        /* \"#utility.yul\":7983:7989   */\n      dup7\n        /* \"#utility.yul\":7939:8012   */\n      tag_177\n      jump\t// in\n    tag_294:\n        /* \"#utility.yul\":8022:8095   */\n      tag_295\n        /* \"#utility.yul\":8090:8093   */\n      0xc0\n        /* \"#utility.yul\":8079:8088   */\n      dup4\n        /* \"#utility.yul\":8075:8094   */\n      add\n        /* \"#utility.yul\":8066:8072   */\n      dup6\n        /* \"#utility.yul\":8022:8095   */\n      tag_184\n      jump\t// in\n    tag_295:\n        /* \"#utility.yul\":8105:8178   */\n      tag_296\n        /* \"#utility.yul\":8173:8176   */\n      0xe0\n        /* \"#utility.yul\":8162:8171   */\n      dup4\n        /* \"#utility.yul\":8158:8177   */\n      add\n        /* \"#utility.yul\":8149:8155   */\n      dup5\n        /* \"#utility.yul\":8105:8178   */\n      tag_184\n      jump\t// in\n    tag_296:\n        /* \"#utility.yul\":7109:8185   */\n      swap10\n      swap9\n      pop\n      pop\n      pop\n      pop\n      pop\n      pop\n      pop\n      pop\n      pop\n      jump\t// out\n        /* \"#utility.yul\":8191:8371   */\n    tag_187:\n        /* \"#utility.yul\":8239:8316   */\n      0x4e487b7100000000000000000000000000000000000000000000000000000000\n        /* \"#utility.yul\":8236:8237   */\n      0x00\n        /* \"#utility.yul\":8229:8317   */\n      mstore\n        /* \"#utility.yul\":8336:8340   */\n      0x22\n        /* \"#utility.yul\":8333:8334   */\n      0x04\n        /* \"#utility.yul\":8326:8341   */\n      mstore\n        /* \"#utility.yul\":8360:8364   */\n      0x24\n        /* \"#utility.yul\":8357:8358   */\n      0x00\n        /* \"#utility.yul\":8350:8365   */\n      revert\n        /* \"#utility.yul\":8377:8697   */\n    tag_71:\n        /* \"#utility.yul\":8421:8427   */\n      0x00\n        /* \"#utility.yul\":8458:8459   */\n      0x02\n        /* \"#utility.yul\":8452:8456   */\n      dup3\n        /* \"#utility.yul\":8448:8460   */\n      div\n        /* \"#utility.yul\":8438:8460   */\n      swap1\n      pop\n        /* \"#utility.yul\":8505:8506   */\n      0x01\n        /* \"#utility.yul\":8499:8503   */\n      dup3\n        /* \"#utility.yul\":8495:8507   */\n      and\n        /* \"#utility.yul\":8526:8544   */\n      dup1\n        /* \"#utility.yul\":8516:8597   */\n      tag_299\n      jumpi\n        /* \"#utility.yul\":8582:8586   */\n      0x7f\n        /* \"#utility.yul\":8574:8580   */\n      dup3\n        /* \"#utility.yul\":8570:8587   */\n      and\n        /* \"#utility.yul\":8560:8587   */\n      swap2\n      pop\n        /* \"#utility.yul\":8516:8597   */\n    tag_299:\n        /* \"#utility.yul\":8644:8646   */\n      0x20\n        /* \"#utility.yul\":8636:8642   */\n      dup3\n        /* \"#utility.yul\":8633:8647   */\n      lt\n        /* \"#utility.yul\":8613:8631   */\n      dup2\n        /* \"#utility.yul\":8610:8648   */\n      sub\n        /* \"#utility.yul\":8607:8691   */\n      tag_300\n      jumpi\n        /* \"#utility.yul\":8663:8681   */\n      tag_301\n      tag_187\n      jump\t// in\n    tag_301:\n        /* \"#utility.yul\":8607:8691   */\n    tag_300:\n        /* \"#utility.yul\":8428:8697   */\n      pop\n        /* \"#utility.yul\":8377:8697   */\n      swap2\n      swap1\n      pop\n      jump\t// out\n        /* \"#utility.yul\":8703:8844   */\n    tag_188:\n        /* \"#utility.yul\":8752:8756   */\n      0x00\n        /* \"#utility.yul\":8775:8778   */\n      dup2\n        /* \"#utility.yul\":8767:8778   */\n      swap1\n      pop\n        /* \"#utility.yul\":8798:8801   */\n      dup2\n        /* \"#utility.yul\":8795:8796   */\n      0x00\n        /* \"#utility.yul\":8788:8802   */\n      mstore\n        /* \"#utility.yul\":8832:8836   */\n      0x20\n        /* \"#utility.yul\":8829:8830   */\n      0x00\n        /* \"#utility.yul\":8819:8837   */\n      keccak256\n        /* \"#utility.yul\":8811:8837   */\n      swap1\n      pop\n        /* \"#utility.yul\":8703:8844   */\n      swap2\n      swap1\n      pop\n      jump\t// out\n        /* \"#utility.yul\":8850:8943   */\n    tag_189:\n        /* \"#utility.yul\":8887:8893   */\n      0x00\n        /* \"#utility.yul\":8934:8936   */\n      0x20\n        /* \"#utility.yul\":8929:8931   */\n      0x1f\n        /* \"#utility.yul\":8922:8927   */\n      dup4\n        /* \"#utility.yul\":8918:8932   */\n      add\n        /* \"#utility.yul\":8914:8937   */\n      div\n        /* \"#utility.yul\":8904:8937   */\n      swap1\n      pop\n        /* \"#utility.yul\":8850:8943   */\n      swap2\n      swap1\n      pop\n      jump\t// out\n        /* \"#utility.yul\":8949:9056   */\n    tag_190:\n        /* \"#utility.yul\":8993:9001   */\n      0x00\n        /* \"#utility.yul\":9043:9048   */\n      dup3\n        /* \"#utility.yul\":9037:9041   */\n      dup3\n        /* \"#utility.yul\":9033:9049   */\n      shl\n        /* \"#utility.yul\":9012:9049   */\n      swap1\n      pop\n        /* \"#utility.yul\":8949:9056   */\n      swap3\n      swap2\n      pop\n      pop\n      jump\t// out\n        /* \"#utility.yul\":9062:9455   */\n    tag_191:\n        /* \"#utility.yul\":9131:9137   */\n      0x00\n        /* \"#utility.yul\":9181:9182   */\n      0x08\n        /* \"#utility.yul\":9169:9179   */\n      dup4\n        /* \"#utility.yul\":9165:9183   */\n      mul\n        /* \"#utility.yul\":9204:9301   */\n      tag_306\n        /* \"#utility.yul\":9234:9300   */\n      0xffffffffffffffffffffffffffffffffffffffffffffffffffffffffffffffff\n        /* \"#utility.yul\":9223:9232   */\n      dup3\n        /* \"#utility.yul\":9204:9301   */\n      tag_190\n      jump\t// in\n    tag_306:\n        /* \"#utility.yul\":9322:9361   */\n      tag_307\n        /* \"#utility.yul\":9352:9360   */\n      dup7\n        /* \"#utility.yul\":9341:9350   */\n      dup4\n        /* \"#utility.yul\":9322:9361   */\n      tag_190\n      jump\t// in\n    tag_307:\n        /* \"#utility.yul\":9310:9361   */\n      swap6\n      pop\n        /* \"#utility.yul\":9394:9398   */\n      dup1\n        /* \"#utility.yul\":9390:9399   */\n      not\n        /* \"#utility.yul\":9383:9388   */\n      dup5\n        /* \"#utility.yul\":9379:9400   */\n      and\n        /* \"#utility.yul\":9370:9400   */\n      swap4\n      pop\n        /* \"#utility.yul\":9443:9447   */\n      dup1\n        /* \"#utility.yul\":9433:9441   */\n      dup7\n        /* \"#utility.yul\":9429:9448   */\n      and\n        /* \"#utility.yul\":9422:9427   */\n      dup5\n        /* \"#utility.yul\":9419:9449   */\n      or\n        /* \"#utility.yul\":9409:9449   */\n      swap3\n      pop\n        /* \"#utility.yul\":9138:9455   */\n      pop\n      pop\n        /* \"#utility.yul\":9062:9455   */\n      swap4\n      swap3\n      pop\n      pop\n      pop\n      jump\t// out\n        /* \"#utility.yul\":9461:9521   */\n    tag_192:\n        /* \"#utility.yul\":9489:9492   */\n      0x00\n        /* \"#utility.yul\":9510:9515   */\n      dup2\n        /* \"#utility.yul\":9503:9515   */\n      swap1\n      pop\n        /* \"#utility.yul\":9461:9521   */\n      swap2\n      swap1\n      pop\n      jump\t// out\n        /* \"#utility.yul\":9527:9669   */\n    tag_193:\n        /* \"#utility.yul\":9577:9586   */\n      0x00\n        /* \"#utility.yul\":9610:9663   */\n      tag_310\n        /* \"#utility.yul\":9628:9662   */\n      tag_311\n        /* \"#utility.yul\":9637:9661   */\n      tag_312\n        /* \"#utility.yul\":9655:9660   */\n      dup5\n        /* \"#utility.yul\":9637:9661   */\n      tag_172\n      jump\t// in\n    tag_312:\n        /* \"#utility.yul\":9628:9662   */\n      tag_192\n      jump\t// in\n    tag_311:\n        /* \"#utility.yul\":9610:9663   */\n      tag_172\n      jump\t// in\n    tag_310:\n        /* \"#utility.yul\":9597:9663   */\n      swap1\n      pop\n        /* \"#utility.yul\":9527:9669   */\n      swap2\n      swap1\n      pop\n      jump\t// out\n        /* \"#utility.yul\":9675:9750   */\n    tag_194:\n        /* \"#utility.yul\":9718:9721   */\n      0x00\n        /* \"#utility.yul\":9739:9744   */\n      dup2\n        /* \"#utility.yul\":9732:9744   */\n      swap1\n      pop\n        /* \"#utility.yul\":9675:9750   */\n      swap2\n      swap1\n      pop\n      jump\t// out\n        /* \"#utility.yul\":9756:10025   */\n    tag_195:\n        /* \"#utility.yul\":9866:9905   */\n      tag_315\n        /* \"#utility.yul\":9897:9904   */\n      dup4\n        /* \"#utility.yul\":9866:9905   */\n      tag_193\n      jump\t// in\n    tag_315:\n        /* \"#utility.yul\":9927:10018   */\n      tag_316\n        /* \"#utility.yul\":9976:10017   */\n      tag_317\n        /* \"#utility.yul\":10000:10016   */\n      dup3\n        /* \"#utility.yul\":9976:10017   */\n      tag_194\n      jump\t// in\n    tag_317:\n        /* \"#utility.yul\":9968:9974   */\n      dup5\n        /* \"#utility.yul\":9961:9965   */\n      dup5\n        /* \"#utility.yul\":9955:9966   */\n      sload\n        /* \"#utility.yul\":9927:10018   */\n      tag_191\n      jump\t// in\n    tag_316:\n        /* \"#utility.yul\":9921:9925   */\n      dup3\n        /* \"#utility.yul\":9914:10019   */\n      sstore\n        /* \"#utility.yul\":9832:10025   */\n      pop\n        /* \"#utility.yul\":9756:10025   */\n      pop\n      pop\n      pop\n      jump\t// out\n        /* \"#utility.yul\":10031:10104   */\n    tag_196:\n        /* \"#utility.yul\":10076:10079   */\n      0x00\n        /* \"#utility.yul\":10097:10098   */\n      0x00\n        /* \"#utility.yul\":10090:10098   */\n      swap1\n      pop\n        /* \"#utility.yul\":10031:10104   */\n      swap1\n      jump\t// out\n        /* \"#utility.yul\":10110:10299   */\n    tag_197:\n        /* \"#utility.yul\":10187:10219   */\n      tag_320\n      tag_196\n      jump\t// in\n    tag_320:\n        /* \"#utility.yul\":10228:10293   */\n      tag_321\n        /* \"#utility.yul\":10286:10292   */\n      dup2\n        /* \"#utility.yul\":10278:10284   */\n      dup5\n        /* \"#utility.yul\":10272:10276   */\n      dup5\n        /* \"#utility.yul\":10228:10293   */\n      tag_195\n      jump\t// in\n    tag_321:\n        /* \"#utility.yul\":10163:10299   */\n      pop\n        /* \"#utility.yul\":10110:10299   */\n      pop\n      pop\n      jump\t// out\n        /* \"#utility.yul\":10305:10491   */\n    tag_198:\n        /* \"#utility.yul\":10365:10485   */\n    tag_323:\n        /* \"#utility.yul\":10382:10385   */\n      dup2\n        /* \"#utility.yul\":10375:10380   */\n      dup2\n        /* \"#utility.yul\":10372:10386   */\n      lt\n        /* \"#utility.yul\":10365:10485   */\n      iszero\n      tag_325\n      jumpi\n        /* \"#utility.yul\":10436:10475   */\n      tag_326\n        /* \"#utility.yul\":10473:10474   */\n      0x00\n        /* \"#utility.yul\":10466:10471   */\n      dup3\n        /* \"#utility.yul\":10436:10475   */\n      tag_197\n      jump\t// in\n    tag_326:\n        /* \"#utility.yul\":10409:10410   */\n      0x01\n        /* \"#utility.yul\":10402:10407   */\n      dup2\n        /* \"#utility.yul\":10398:10411   */\n      add\n        /* \"#utility.yul\":10389:10411   */\n      swap1\n      pop\n        /* \"#utility.yul\":10365:10485   */\n      jump(tag_323)\n    tag_325:\n        /* \"#utility.yul\":10305:10491   */\n      pop\n      pop\n      jump\t// out\n        /* \"#utility.yul\":10497:11040   */\n    tag_199:\n        /* \"#utility.yul\":10598:10600   */\n      0x1f\n        /* \"#utility.yul\":10593:10596   */\n      dup3\n        /* \"#utility.yul\":10590:10601   */\n      gt\n        /* \"#utility.yul\":10587:11033   */\n      iszero\n      tag_328\n      jumpi\n        /* \"#utility.yul\":10632:10670   */\n      tag_329\n        /* \"#utility.yul\":10664:10669   */\n      dup2\n        /* \"#utility.yul\":10632:10670   */\n      tag_188\n      jump\t// in\n    tag_329:\n        /* \"#utility.yul\":10716:10745   */\n      tag_330\n        /* \"#utility.yul\":10734:10744   */\n      dup5\n        /* \"#utility.yul\":10716:10745   */\n      tag_189\n      jump\t// in\n    tag_330:\n        /* \"#utility.yul\":10706:10714   */\n      dup2\n        /* \"#utility.yul\":10702:10746   */\n      add\n        /* \"#utility.yul\":10899:10901   */\n      0x20\n        /* \"#utility.yul\":10887:10897   */\n      dup6\n        /* \"#utility.yul\":10884:10902   */\n      lt\n        /* \"#utility.yul\":10881:10930   */\n      iszero\n      tag_331\n      jumpi\n        /* \"#utility.yul\":10920:10928   */\n      dup2\n        /* \"#utility.yul\":10905:10928   */\n      swap1\n      pop\n        /* \"#utility.yul\":10881:10930   */\n    tag_331:\n        /* \"#utility.yul\":10943:11023   */\n      tag_332\n        /* \"#utility.yul\":10999:11021   */\n      tag_333\n        /* \"#utility.yul\":11017:11020   */\n      dup6\n        /* \"#utility.yul\":10999:11021   */\n      tag_189\n      jump\t// in\n    tag_333:\n        /* \"#utility.yul\":10989:10997   */\n      dup4\n        /* \"#utility.yul\":10985:11022   */\n      add\n        /* \"#utility.yul\":10972:10983   */\n      dup3\n        /* \"#utility.yul\":10943:11023   */\n      tag_198\n      jump\t// in\n    tag_332:\n        /* \"#utility.yul\":10602:11033   */\n      pop\n      pop\n        /* \"#utility.yul\":10587:11033   */\n    tag_328:\n        /* \"#utility.yul\":10497:11040   */\n      pop\n      pop\n      pop\n      jump\t// out\n        /* \"#utility.yul\":11046:11163   */\n    tag_200:\n        /* \"#utility.yul\":11100:11108   */\n      0x00\n        /* \"#utility.yul\":11150:11155   */\n      dup3\n        /* \"#utility.yul\":11144:11148   */\n      dup3\n        /* \"#utility.yul\":11140:11156   */\n      shr\n        /* \"#utility.yul\":11119:11156   */\n      swap1\n      pop\n        /* \"#utility.yul\":11046:11163   */\n      swap3\n      swap2\n      pop\n      pop\n      jump\t// out\n        /* \"#utility.yul\":11169:11338   */\n    tag_201:\n        /* \"#utility.yul\":11213:11219   */\n      0x00\n        /* \"#utility.yul\":11246:11297   */\n      tag_336\n        /* \"#utility.yul\":11294:11295   */\n      0x00\n        /* \"#utility.yul\":11290:11296   */\n      not\n        /* \"#utility.yul\":11282:11287   */\n      dup5\n        /* \"#utility.yul\":11279:11280   */\n      0x08\n        /* \"#utility.yul\":11275:11288   */\n      mul\n        /* \"#utility.yul\":11246:11297   */\n      tag_200\n      jump\t// in\n    tag_336:\n        /* \"#utility.yul\":11242:11298   */\n      not\n        /* \"#utility.yul\":11327:11331   */\n      dup1\n        /* \"#utility.yul\":11321:11325   */\n      dup4\n        /* \"#utility.yul\":11317:11332   */\n      and\n        /* \"#utility.yul\":11307:11332   */\n      swap2\n      pop\n        /* \"#utility.yul\":11220:11338   */\n      pop\n        /* \"#utility.yul\":11169:11338   */\n      swap3\n      swap2\n      pop\n      pop\n      jump\t// out\n        /* \"#utility.yul\":11343:11638   */\n    tag_202:\n        /* \"#utility.yul\":11419:11423   */\n      0x00\n        /* \"#utility.yul\":11565:11594   */\n      tag_338\n        /* \"#utility.yul\":11590:11593   */\n      dup4\n        /* \"#utility.yul\":11584:11588   */\n      dup4\n        /* \"#utility.yul\":11565:11594   */\n      tag_201\n      jump\t// in\n    tag_338:\n        /* \"#utility.yul\":11557:11594   */\n      swap2\n      pop\n        /* \"#utility.yul\":11627:11630   */\n      dup3\n        /* \"#utility.yul\":11624:11625   */\n      0x02\n        /* \"#utility.yul\":11620:11631   */\n      mul\n        /* \"#utility.yul\":11614:11618   */\n      dup3\n        /* \"#utility.yul\":11611:11632   */\n      or\n        /* \"#utility.yul\":11603:11632   */\n      swap1\n      pop\n        /* \"#utility.yul\":11343:11638   */\n      swap3\n      swap2\n      pop\n      pop\n      jump\t// out\n        /* \"#utility.yul\":11643:13038   */\n    tag_66:\n        /* \"#utility.yul\":11760:11797   */\n      tag_340\n        /* \"#utility.yul\":11793:11796   */\n      dup3\n        /* \"#utility.yul\":11760:11797   */\n      tag_178\n      jump\t// in\n    tag_340:\n        /* \"#utility.yul\":11862:11880   */\n      0xffffffffffffffff\n        /* \"#utility.yul\":11854:11860   */\n      dup2\n        /* \"#utility.yul\":11851:11881   */\n      gt\n        /* \"#utility.yul\":11848:11904   */\n      iszero\n      tag_341\n      jumpi\n        /* \"#utility.yul\":11884:11902   */\n      tag_342\n      tag_165\n      jump\t// in\n    tag_342:\n        /* \"#utility.yul\":11848:11904   */\n    tag_341:\n        /* \"#utility.yul\":11928:11966   */\n      tag_343\n        /* \"#utility.yul\":11960:11964   */\n      dup3\n        /* \"#utility.yul\":11954:11965   */\n      sload\n        /* \"#utility.yul\":11928:11966   */\n      tag_71\n      jump\t// in\n    tag_343:\n        /* \"#utility.yul\":12013:12080   */\n      tag_344\n        /* \"#utility.yul\":12073:12079   */\n      dup3\n        /* \"#utility.yul\":12065:12071   */\n      dup3\n        /* \"#utility.yul\":12059:12063   */\n      dup6\n        /* \"#utility.yul\":12013:12080   */\n      tag_199\n      jump\t// in\n    tag_344:\n        /* \"#utility.yul\":12107:12108   */\n      0x00\n        /* \"#utility.yul\":12131:12135   */\n      0x20\n        /* \"#utility.yul\":12118:12135   */\n      swap1\n      pop\n        /* \"#utility.yul\":12163:12165   */\n      0x1f\n        /* \"#utility.yul\":12155:12161   */\n      dup4\n        /* \"#utility.yul\":12152:12166   */\n      gt\n        /* \"#utility.yul\":12180:12181   */\n      0x01\n        /* \"#utility.yul\":12175:12793   */\n      dup2\n      eq\n      tag_346\n      jumpi\n        /* \"#utility.yul\":12837:12838   */\n      0x00\n        /* \"#utility.yul\":12854:12860   */\n      dup5\n        /* \"#utility.yul\":12851:12928   */\n      iszero\n      tag_347\n      jumpi\n        /* \"#utility.yul\":12903:12912   */\n      dup3\n        /* \"#utility.yul\":12898:12901   */\n      dup8\n        /* \"#utility.yul\":12894:12913   */\n      add\n        /* \"#utility.yul\":12888:12914   */\n      mload\n        /* \"#utility.yul\":12879:12914   */\n      swap1\n      pop\n        /* \"#utility.yul\":12851:12928   */\n    tag_347:\n        /* \"#utility.yul\":12954:13021   */\n      tag_348\n        /* \"#utility.yul\":13014:13020   */\n      dup6\n        /* \"#utility.yul\":13007:13012   */\n      dup3\n        /* \"#utility.yul\":12954:13021   */\n      tag_202\n      jump\t// in\n    tag_348:\n        /* \"#utility.yul\":12948:12952   */\n      dup7\n        /* \"#utility.yul\":12941:13022   */\n      sstore\n        /* \"#utility.yul\":12810:13032   */\n      pop\n        /* \"#utility.yul\":12145:13032   */\n      jump(tag_345)\n        /* \"#utility.yul\":12175:12793   */\n    tag_346:\n        /* \"#utility.yul\":12227:12231   */\n      0x1f\n        /* \"#utility.yul\":12223:12232   */\n      not\n        /* \"#utility.yul\":12215:12221   */\n      dup5\n        /* \"#utility.yul\":12211:12233   */\n      and\n        /* \"#utility.yul\":12261:12298   */\n      tag_349\n        /* \"#utility.yul\":12293:12297   */\n      dup7\n        /* \"#utility.yul\":12261:12298   */\n      tag_188\n      jump\t// in\n    tag_349:\n        /* \"#utility.yul\":12320:12321   */\n      0x00\n        /* \"#utility.yul\":12334:12542   */\n    tag_350:\n        /* \"#utility.yul\":12348:12355   */\n      dup3\n        /* \"#utility.yul\":12345:12346   */\n      dup2\n        /* \"#utility.yul\":12342:12356   */\n      lt\n        /* \"#utility.yul\":12334:12542   */\n      iszero\n      tag_352\n      jumpi\n        /* \"#utility.yul\":12427:12436   */\n      dup5\n        /* \"#utility.yul\":12422:12425   */\n      dup10\n        /* \"#utility.yul\":12418:12437   */\n      add\n        /* \"#utility.yul\":12412:12438   */\n      mload\n        /* \"#utility.yul\":12404:12410   */\n      dup3\n        /* \"#utility.yul\":12397:12439   */\n      sstore\n        /* \"#utility.yul\":12478:12479   */\n      0x01\n        /* \"#utility.yul\":12470:12476   */\n      dup3\n        /* \"#utility.yul\":12466:12480   */\n      add\n        /* \"#utility.yul\":12456:12480   */\n      swap2\n      pop\n        /* \"#utility.yul\":12525:12527   */\n      0x20\n        /* \"#utility.yul\":12514:12523   */\n      dup6\n        /* \"#utility.yul\":12510:12528   */\n      add\n        /* \"#utility.yul\":12497:12528   */\n      swap5\n      pop\n        /* \"#utility.yul\":12371:12375   */\n      0x20\n        /* \"#utility.yul\":12368:12369   */\n      dup2\n        /* \"#utility.yul\":12364:12376   */\n      add\n        /* \"#utility.yul\":12359:12376   */\n      swap1\n      pop\n        /* \"#utility.yul\":12334:12542   */\n      jump(tag_350)\n    tag_352:\n        /* \"#utility.yul\":12570:12576   */\n      dup7\n        /* \"#utility.yul\":12561:12568   */\n      dup4\n        /* \"#utility.yul\":12558:12577   */\n      lt\n        /* \"#utility.yul\":12555:12734   */\n      iszero\n      tag_353\n      jumpi\n        /* \"#utility.yul\":12628:12637   */\n      dup5\n        /* \"#utility.yul\":12623:12626   */\n      dup10\n        /* \"#utility.yul\":12619:12638   */\n      add\n        /* \"#utility.yul\":12613:12639   */\n      mload\n        /* \"#utility.yul\":12671:12719   */\n      tag_354\n        /* \"#utility.yul\":12713:12717   */\n      0x1f\n        /* \"#utility.yul\":12705:12711   */\n      dup10\n        /* \"#utility.yul\":12701:12718   */\n      and\n        /* \"#utility.yul\":12690:12699   */\n      dup3\n        /* \"#utility.yul\":12671:12719   */\n      tag_201\n      jump\t// in\n    tag_354:\n        /* \"#utility.yul\":12663:12669   */\n      dup4\n        /* \"#utility.yul\":12656:12720   */\n      sstore\n        /* \"#utility.yul\":12578:12734   */\n      pop\n        /* \"#utility.yul\":12555:12734   */\n    tag_353:\n        /* \"#utility.yul\":12780:12781   */\n      0x01\n        /* \"#utility.yul\":12776:12777   */\n      0x02\n        /* \"#utility.yul\":12768:12774   */\n      dup9\n        /* \"#utility.yul\":12764:12778   */\n      mul\n        /* \"#utility.yul\":12760:12782   */\n      add\n        /* \"#utility.yul\":12754:12758   */\n      dup9\n        /* \"#utility.yul\":12747:12783   */\n      sstore\n        /* \"#utility.yul\":12182:12793   */\n      pop\n      pop\n      pop\n        /* \"#utility.yul\":12145:13032   */\n    tag_345:\n      pop\n        /* \"#utility.yul\":11735:13038   */\n      pop\n      pop\n      pop\n        /* \"#utility.yul\":11643:13038   */\n      pop\n      pop\n      jump\t// out\n        /* \"#utility.yul\":13044:13224   */\n    tag_82:\n        /* \"#utility.yul\":13092:13169   */\n      0x4e487b7100000000000000000000000000000000000000000000000000000000\n        /* \"#utility.yul\":13089:13090   */\n      0x00\n        /* \"#utility.yul\":13082:13170   */\n      mstore\n        /* \"#utility.yul\":13189:13193   */\n      0x32\n        /* \"#utility.yul\":13186:13187   */\n      0x04\n        /* \"#utility.yul\":13179:13194   */\n      mstore\n        /* \"#utility.yul\":13213:13217   */\n      0x24\n        /* \"#utility.yul\":13210:13211   */\n      0x00\n        /* \"#utility.yul\":13203:13218   */\n      revert\n        /* \"#utility.yul\":13230:13379   */\n    tag_203:\n        /* \"#utility.yul\":13279:13285   */\n      0x00\n        /* \"#utility.yul\":13313:13318   */\n      dup2\n        /* \"#utility.yul\":13307:13319   */\n      sload\n        /* \"#utility.yul\":13297:13319   */\n      swap1\n      pop\n        /* \"#utility.yul\":13339:13372   */\n      tag_357\n        /* \"#utility.yul\":13365:13371   */\n      dup2\n        /* \"#utility.yul\":13339:13372   */\n      tag_71\n      jump\t// in\n    tag_357:\n        /* \"#utility.yul\":13329:13372   */\n      swap1\n      pop\n        /* \"#utility.yul\":13230:13379   */\n      swap2\n      swap1\n      pop\n      jump\t// out\n        /* \"#utility.yul\":13385:14836   */\n    tag_89:\n        /* \"#utility.yul\":13496:13499   */\n      dup2\n        /* \"#utility.yul\":13490:13494   */\n      dup2\n        /* \"#utility.yul\":13487:13500   */\n      sub\n        /* \"#utility.yul\":13484:13510   */\n      tag_359\n      jumpi\n        /* \"#utility.yul\":13503:13508   */\n      pop\n      pop\n      jump(tag_358)\n        /* \"#utility.yul\":13484:13510   */\n    tag_359:\n        /* \"#utility.yul\":13534:13568   */\n      tag_360\n        /* \"#utility.yul\":13564:13567   */\n      dup3\n        /* \"#utility.yul\":13534:13568   */\n      tag_203\n      jump\t// in\n    tag_360:\n        /* \"#utility.yul\":13633:13651   */\n      0xffffffffffffffff\n        /* \"#utility.yul\":13625:13631   */\n      dup2\n        /* \"#utility.yul\":13622:13652   */\n      gt\n        /* \"#utility.yul\":13619:13675   */\n      iszero\n      tag_361\n      jumpi\n        /* \"#utility.yul\":13655:13673   */\n      tag_362\n      tag_165\n      jump\t// in\n    tag_362:\n        /* \"#utility.yul\":13619:13675   */\n    tag_361:\n        /* \"#utility.yul\":13699:13737   */\n      tag_363\n        /* \"#utility.yul\":13731:13735   */\n      dup3\n        /* \"#utility.yul\":13725:13736   */\n      sload\n        /* \"#utility.yul\":13699:13737   */\n      tag_71\n      jump\t// in\n    tag_363:\n        /* \"#utility.yul\":13784:13851   */\n      tag_364\n        /* \"#utility.yul\":13844:13850   */\n      dup3\n        /* \"#utility.yul\":13836:13842   */\n      dup3\n        /* \"#utility.yul\":13830:13834   */\n      dup6\n        /* \"#utility.yul\":13784:13851   */\n      tag_199\n      jump\t// in\n    tag_364:\n        /* \"#utility.yul\":13878:13879   */\n      0x00\n        /* \"#utility.yul\":13907:13909   */\n      0x1f\n        /* \"#utility.yul\":13899:13905   */\n      dup4\n        /* \"#utility.yul\":13896:13910   */\n      gt\n        /* \"#utility.yul\":13924:13925   */\n      0x01\n        /* \"#utility.yul\":13919:14591   */\n      dup2\n      eq\n      tag_366\n      jumpi\n        /* \"#utility.yul\":14635:14636   */\n      0x00\n        /* \"#utility.yul\":14652:14658   */\n      dup5\n        /* \"#utility.yul\":14649:14726   */\n      iszero\n      tag_367\n      jumpi\n        /* \"#utility.yul\":14701:14710   */\n      dup3\n        /* \"#utility.yul\":14696:14699   */\n      dup8\n        /* \"#utility.yul\":14692:14711   */\n      add\n        /* \"#utility.yul\":14686:14712   */\n      sload\n        /* \"#utility.yul\":14677:14712   */\n      swap1\n      pop\n        /* \"#utility.yul\":14649:14726   */\n    tag_367:\n        /* \"#utility.yul\":14752:14819   */\n      tag_368\n        /* \"#utility.yul\":14812:14818   */\n      dup6\n        /* \"#utility.yul\":14805:14810   */\n      dup3\n        /* \"#utility.yul\":14752:14819   */\n      tag_202\n      jump\t// in\n    tag_368:\n        /* \"#utility.yul\":14746:14750   */\n      dup7\n        /* \"#utility.yul\":14739:14820   */\n      sstore\n        /* \"#utility.yul\":14608:14830   */\n      pop\n        /* \"#utility.yul\":13889:14830   */\n      jump(tag_365)\n        /* \"#utility.yul\":13919:14591   */\n    tag_366:\n        /* \"#utility.yul\":13971:13975   */\n      0x1f\n        /* \"#utility.yul\":13967:13976   */\n      not\n        /* \"#utility.yul\":13959:13965   */\n      dup5\n        /* \"#utility.yul\":13955:13977   */\n      and\n        /* \"#utility.yul\":13997:14033   */\n      tag_369\n        /* \"#utility.yul\":14029:14032   */\n      dup8\n        /* \"#utility.yul\":13997:14033   */\n      tag_188\n      jump\t// in\n    tag_369:\n        /* \"#utility.yul\":13990:14033   */\n      swap7\n      pop\n        /* \"#utility.yul\":14060:14097   */\n      tag_370\n        /* \"#utility.yul\":14092:14096   */\n      dup7\n        /* \"#utility.yul\":14060:14097   */\n      tag_188\n      jump\t// in\n    tag_370:\n        /* \"#utility.yul\":14119:14120   */\n      0x00\n        /* \"#utility.yul\":14133:14340   */\n    tag_371:\n        /* \"#utility.yul\":14147:14154   */\n      dup3\n        /* \"#utility.yul\":14144:14145   */\n      dup2\n        /* \"#utility.yul\":14141:14155   */\n      lt\n        /* \"#utility.yul\":14133:14340   */\n      iszero\n      tag_373\n      jumpi\n        /* \"#utility.yul\":14226:14235   */\n      dup5\n        /* \"#utility.yul\":14221:14224   */\n      dup10\n        /* \"#utility.yul\":14217:14236   */\n      add\n        /* \"#utility.yul\":14211:14237   */\n      sload\n        /* \"#utility.yul\":14203:14209   */\n      dup3\n        /* \"#utility.yul\":14196:14238   */\n      sstore\n        /* \"#utility.yul\":14277:14278   */\n      0x01\n        /* \"#utility.yul\":14269:14275   */\n      dup3\n        /* \"#utility.yul\":14265:14279   */\n      add\n        /* \"#utility.yul\":14255:14279   */\n      swap2\n      pop\n        /* \"#utility.yul\":14324:14325   */\n      0x01\n        /* \"#utility.yul\":14313:14322   */\n      dup6\n        /* \"#utility.yul\":14309:14326   */\n      add\n        /* \"#utility.yul\":14296:14326   */\n      swap5\n      pop\n        /* \"#utility.yul\":14170:14174   */\n      0x20\n        /* \"#utility.yul\":14167:14168   */\n      dup2\n        /* \"#utility.yul\":14163:14175   */\n      add\n        /* \"#utility.yul\":14158:14175   */\n      swap1\n      pop\n        /* \"#utility.yul\":14133:14340   */\n      jump(tag_371)\n    tag_373:\n        /* \"#utility.yul\":14368:14374   */\n      dup7\n        /* \"#utility.yul\":14359:14366   */\n      dup4\n        /* \"#utility.yul\":14356:14375   */\n      lt\n        /* \"#utility.yul\":14353:14532   */\n      iszero\n      tag_374\n      jumpi\n        /* \"#utility.yul\":14426:14435   */\n      dup5\n        /* \"#utility.yul\":14421:14424   */\n      dup10\n        /* \"#utility.yul\":14417:14436   */\n      add\n        /* \"#utility.yul\":14411:14437   */\n      sload\n        /* \"#utility.yul\":14469:14517   */\n      tag_375\n        /* \"#utility.yul\":14511:14515   */\n      0x1f\n        /* \"#utility.yul\":14503:14509   */\n      dup10\n        /* \"#utility.yul\":14499:14516   */\n      and\n        /* \"#utility.yul\":14488:14497   */\n      dup3\n        /* \"#utility.yul\":14469:14517   */\n      tag_201\n      jump\t// in\n    tag_375:\n        /* \"#utility.yul\":14461:14467   */\n      dup4\n        /* \"#utility.yul\":14454:14518   */\n      sstore\n        /* \"#utility.yul\":14376:14532   */\n      pop\n        /* \"#utility.yul\":14353:14532   */\n    tag_374:\n        /* \"#utility.yul\":14578:14579   */\n      0x01\n        /* \"#utility.yul\":14574:14575   */\n      0x02\n        /* \"#utility.yul\":14566:14572   */\n      dup9\n        /* \"#utility.yul\":14562:14576   */\n      mul\n        /* \"#utility.yul\":14558:14580   */\n      add\n        /* \"#utility.yul\":14552:14556   */\n      dup9\n        /* \"#utility.yul\":14545:14581   */\n      sstore\n        /* \"#utility.yul\":13926:14591   */\n      pop\n      pop\n      pop\n        /* \"#utility.yul\":13889:14830   */\n    tag_365:\n      pop\n        /* \"#utility.yul\":13474:14836   */\n      pop\n      pop\n      pop\n        /* \"#utility.yul\":13385:14836   */\n      pop\n      pop\n    tag_358:\n      jump\t// out\n        /* \"#utility.yul\":14842:15022   */\n    tag_204:\n        /* \"#utility.yul\":14890:14967   */\n      0x4e487b7100000000000000000000000000000000000000000000000000000000\n        /* \"#utility.yul\":14887:14888   */\n      0x00\n        /* \"#utility.yul\":14880:14968   */\n      mstore\n        /* \"#utility.yul\":14987:14991   */\n      0x11\n        /* \"#utility.yul\":14984:14985   */\n      0x04\n        /* \"#utility.yul\":14977:14992   */\n      mstore\n        /* \"#utility.yul\":15011:15015   */\n      0x24\n        /* \"#utility.yul\":15008:15009   */\n      0x00\n        /* \"#utility.yul\":15001:15016   */\n      revert\n        /* \"#utility.yul\":15028:15219   */\n    tag_92:\n        /* \"#utility.yul\":15068:15071   */\n      0x00\n        /* \"#utility.yul\":15087:15107   */\n      tag_378\n        /* \"#utility.yul\":15105:15106   */\n      dup3\n        /* \"#utility.yul\":15087:15107   */\n      tag_172\n      jump\t// in\n    tag_378:\n        /* \"#utility.yul\":15082:15107   */\n      swap2\n      pop\n        /* \"#utility.yul\":15121:15141   */\n      tag_379\n        /* \"#utility.yul\":15139:15140   */\n      dup4\n        /* \"#utility.yul\":15121:15141   */\n      tag_172\n      jump\t// in\n    tag_379:\n        /* \"#utility.yul\":15116:15141   */\n      swap3\n      pop\n        /* \"#utility.yul\":15164:15165   */\n      dup3\n        /* \"#utility.yul\":15161:15162   */\n      dup3\n        /* \"#utility.yul\":15157:15166   */\n      add\n        /* \"#utility.yul\":15150:15166   */\n      swap1\n      pop\n        /* \"#utility.yul\":15185:15188   */\n      dup1\n        /* \"#utility.yul\":15182:15183   */\n      dup3\n        /* \"#utility.yul\":15179:15189   */\n      gt\n        /* \"#utility.yul\":15176:15212   */\n      iszero\n      tag_380\n      jumpi\n        /* \"#utility.yul\":15192:15210   */\n      tag_381\n      tag_204\n      jump\t// in\n    tag_381:\n        /* \"#utility.yul\":15176:15212   */\n    tag_380:\n        /* \"#utility.yul\":15028:15219   */\n      swap3\n      swap2\n      pop\n      pop\n      jump\t// out\n\n    auxdata: 0xa26469706673582212207ea626947cbff72ec98d5020667440fcecc0f77a7d9bbce0cd53b78f1b9bcb9664736f6c634300081e0033\n}\n",
				"bytecode": {
					"linkReferences": {},
					"object": "6080604052348015600e575f5ffd5b50611cf48061001c5f395ff3fe608060405234801561000f575f5ffd5b50600436106100b1575f3560e01c8063a5d7cedd1161006f578063a5d7cedd14610188578063ac859a4b146101b8578063aca9daa3146101d6578063bfc6e00a146101f2578063c85e766d1461020e578063f3e0083914610245576100b1565b8062544194146100b55780632813d19d146100d157806329507f731461010457806360234f10146101205780637fd6a66b1461013c5780639968784514610158575b5f5ffd5b6100cf60048036038101906100ca9190611597565b610261565b005b6100eb60048036038101906100e69190611611565b6103b8565b6040516100fb9493929190611704565b60405180910390f35b61011e60048036038101906101199190611778565b6104a3565b005b61013a60048036038101906101359190611597565b6106f7565b005b61015660048036038101906101519190611611565b610912565b005b610172600480360381019061016d9190611611565b610b3b565b60405161017f91906117b6565b60405180910390f35b6101a2600480360381019061019d9190611611565b610b76565b6040516101af91906117cf565b60405180910390f35b6101c0610b96565b6040516101cd91906117cf565b60405180910390f35b6101f060048036038101906101eb9190611611565b610b9c565b005b61020c60048036038101906102079190611778565b610dea565b005b61022860048036038101906102239190611611565b61105d565b60405161023c9897969594939291906117e8565b60405180910390f35b61025f600480360381019061025a9190611611565b6111a0565b005b5f3390505f8290505f60405180608001604052808473ffffffffffffffffffffffffffffffffffffffff1681526020018381526020015f151581526020014281525090505f81908060018154018082558091505060019003905f5260205f2090600402015f909190919091505f820151815f015f6101000a81548173ffffffffffffffffffffffffffffffffffffffff021916908373ffffffffffffffffffffffffffffffffffffffff16021790555060208201518160010190816103269190611a68565b506040820151816002015f6101000a81548160ff021916908315150217905550606082015181600301555050600383908060018154018082558091505060019003905f5260205f20015f9091909190916101000a81548173ffffffffffffffffffffffffffffffffffffffff021916908373ffffffffffffffffffffffffffffffffffffffff16021790555050505050565b5f81815481106103c6575f80fd5b905f5260205f2090600402015f91509050805f015f9054906101000a900473ffffffffffffffffffffffffffffffffffffffff169080600101805461040a90611898565b80601f016020809104026020016040519081016040528092919081815260200182805461043690611898565b80156104815780601f1061045857610100808354040283529160200191610481565b820191905f5260205f20905b81548152906001019060200180831161046457829003601f168201915b505050505090806002015f9054906101000a900460ff16908060030154905084565b5f8190505f5f90505b6001805490508110156106f1575f600182815481106104ce576104cd611b37565b5b905f5260205f209060070201905084815f0154036106e35782816004015f6101000a81548173ffffffffffffffffffffffffffffffffffffffff021916908373ffffffffffffffffffffffffffffffffffffffff160217905550428160060181905550806001838154811061054657610545611b37565b5b905f5260205f2090600702015f820154815f01556001820181600101908161056e9190611b79565b50600282015f9054906101000a900473ffffffffffffffffffffffffffffffffffffffff16816002015f6101000a81548173ffffffffffffffffffffffffffffffffffffffff021916908373ffffffffffffffffffffffffffffffffffffffff1602179055506002820160149054906101000a900460ff168160020160146101000a81548160ff021916908315150217905550600382015f9054906101000a900473ffffffffffffffffffffffffffffffffffffffff16816003015f6101000a81548173ffffffffffffffffffffffffffffffffffffffff021916908373ffffffffffffffffffffffffffffffffffffffff160217905550600482015f9054906101000a900473ffffffffffffffffffffffffffffffffffffffff16816004015f6101000a81548173ffffffffffffffffffffffffffffffffffffffff021916908373ffffffffffffffffffffffffffffffffffffffff16021790555060058201548160050155600682015481600601559050505b5080806001019150506104ac565b50505050565b60016004546107069190611c8b565b6004819055505f60045490505f3390505f6040518061010001604052808481526020018581526020018373ffffffffffffffffffffffffffffffffffffffff1681526020015f151581526020015f73ffffffffffffffffffffffffffffffffffffffff1681526020018373ffffffffffffffffffffffffffffffffffffffff168152602001428152602001428152509050600181908060018154018082558091505060019003905f5260205f2090600702015f909190919091505f820151815f015560208201518160010190816107dd9190611a68565b506040820151816002015f6101000a81548173ffffffffffffffffffffffffffffffffffffffff021916908373ffffffffffffffffffffffffffffffffffffffff16021790555060608201518160020160146101000a81548160ff0219169083151502179055506080820151816003015f6101000a81548173ffffffffffffffffffffffffffffffffffffffff021916908373ffffffffffffffffffffffffffffffffffffffff16021790555060a0820151816004015f6101000a81548173ffffffffffffffffffffffffffffffffffffffff021916908373ffffffffffffffffffffffffffffffffffffffff16021790555060c0820151816005015560e082015181600601555050600283908060018154018082558091505060019003905f5260205f20015f909190919091505550505050565b5f5f90505b600180549050811015610b37575f6001828154811061093957610938611b37565b5b905f5260205f209060070201905082815f015403610b295760018160020160146101000a81548160ff021916908315150217905550428160060181905550806001838154811061098c5761098b611b37565b5b905f5260205f2090600702015f820154815f0155600182018160010190816109b49190611b79565b50600282015f9054906101000a900473ffffffffffffffffffffffffffffffffffffffff16816002015f6101000a81548173ffffffffffffffffffffffffffffffffffffffff021916908373ffffffffffffffffffffffffffffffffffffffff1602179055506002820160149054906101000a900460ff168160020160146101000a81548160ff021916908315150217905550600382015f9054906101000a900473ffffffffffffffffffffffffffffffffffffffff16816003015f6101000a81548173ffffffffffffffffffffffffffffffffffffffff021916908373ffffffffffffffffffffffffffffffffffffffff160217905550600482015f9054906101000a900473ffffffffffffffffffffffffffffffffffffffff16816004015f6101000a81548173ffffffffffffffffffffffffffffffffffffffff021916908373ffffffffffffffffffffffffffffffffffffffff16021790555060058201548160050155600682015481600601559050505b508080600101915050610917565b5050565b60038181548110610b4a575f80fd5b905f5260205f20015f915054906101000a900473ffffffffffffffffffffffffffffffffffffffff1681565b60028181548110610b85575f80fd5b905f5260205f20015f915090505481565b60045481565b5f5f90505b600180549050811015610de6575f60018281548110610bc357610bc2611b37565b5b905f5260205f209060070201905082815f015403610dd8575f816003015f6101000a81548173ffffffffffffffffffffffffffffffffffffffff021916908373ffffffffffffffffffffffffffffffffffffffff1602179055504281600601819055508060018381548110610c3b57610c3a611b37565b5b905f5260205f2090600702015f820154815f015560018201816001019081610c639190611b79565b50600282015f9054906101000a900473ffffffffffffffffffffffffffffffffffffffff16816002015f6101000a81548173ffffffffffffffffffffffffffffffffffffffff021916908373ffffffffffffffffffffffffffffffffffffffff1602179055506002820160149054906101000a900460ff168160020160146101000a81548160ff021916908315150217905550600382015f9054906101000a900473ffffffffffffffffffffffffffffffffffffffff16816003015f6101000a81548173ffffffffffffffffffffffffffffffffffffffff021916908373ffffffffffffffffffffffffffffffffffffffff160217905550600482015f9054906101000a900473ffffffffffffffffffffffffffffffffffffffff16816004015f6101000a81548173ffffffffffffffffffffffffffffffffffffffff021916908373ffffffffffffffffffffffffffffffffffffffff16021790555060058201548160050155600682015481600601559050505b508080600101915050610ba1565b5050565b5f8190505f5f90505b600180549050811015611057578360018281548110610e1557610e14611b37565b5b905f5260205f2090600702015f01540361104a575f60018281548110610e3e57610e3d611b37565b5b905f5260205f209060070201905082816003015f6101000a81548173ffffffffffffffffffffffffffffffffffffffff021916908373ffffffffffffffffffffffffffffffffffffffff1602179055504281600601819055508060018381548110610eac57610eab611b37565b5b905f5260205f2090600702015f820154815f015560018201816001019081610ed49190611b79565b50600282015f9054906101000a900473ffffffffffffffffffffffffffffffffffffffff16816002015f6101000a81548173ffffffffffffffffffffffffffffffffffffffff021916908373ffffffffffffffffffffffffffffffffffffffff1602179055506002820160149054906101000a900460ff168160020160146101000a81548160ff021916908315150217905550600382015f9054906101000a900473ffffffffffffffffffffffffffffffffffffffff16816003015f6101000a81548173ffffffffffffffffffffffffffffffffffffffff021916908373ffffffffffffffffffffffffffffffffffffffff160217905550600482015f9054906101000a900473ffffffffffffffffffffffffffffffffffffffff16816004015f6101000a81548173ffffffffffffffffffffffffffffffffffffffff021916908373ffffffffffffffffffffffffffffffffffffffff1602179055506005820154816005015560068201548160060155905050505b8080600101915050610df3565b50505050565b6001818154811061106c575f80fd5b905f5260205f2090600702015f91509050805f01549080600101805461109190611898565b80601f01602080910402602001604051908101604052809291908181526020018280546110bd90611898565b80156111085780601f106110df57610100808354040283529160200191611108565b820191905f5260205f20905b8154815290600101906020018083116110eb57829003601f168201915b505050505090806002015f9054906101000a900473ffffffffffffffffffffffffffffffffffffffff16908060020160149054906101000a900460ff1690806003015f9054906101000a900473ffffffffffffffffffffffffffffffffffffffff1690806004015f9054906101000a900473ffffffffffffffffffffffffffffffffffffffff16908060050154908060060154905088565b5f5f90505b600180549050811015611446575f600182815481106111c7576111c6611b37565b5b905f5260205f209060070201905082815f015403611438575f816003015f9054906101000a900473ffffffffffffffffffffffffffffffffffffffff1690505f73ffffffffffffffffffffffffffffffffffffffff168173ffffffffffffffffffffffffffffffffffffffff16146114365780826004015f6101000a81548173ffffffffffffffffffffffffffffffffffffffff021916908373ffffffffffffffffffffffffffffffffffffffff160217905550428260060181905550816001848154811061129957611298611b37565b5b905f5260205f2090600702015f820154815f0155600182018160010190816112c19190611b79565b50600282015f9054906101000a900473ffffffffffffffffffffffffffffffffffffffff16816002015f6101000a81548173ffffffffffffffffffffffffffffffffffffffff021916908373ffffffffffffffffffffffffffffffffffffffff1602179055506002820160149054906101000a900460ff168160020160146101000a81548160ff021916908315150217905550600382015f9054906101000a900473ffffffffffffffffffffffffffffffffffffffff16816003015f6101000a81548173ffffffffffffffffffffffffffffffffffffffff021916908373ffffffffffffffffffffffffffffffffffffffff160217905550600482015f9054906101000a900473ffffffffffffffffffffffffffffffffffffffff16816004015f6101000a81548173ffffffffffffffffffffffffffffffffffffffff021916908373ffffffffffffffffffffffffffffffffffffffff16021790555060058201548160050155600682015481600601559050505b505b5080806001019150506111a5565b5050565b5f604051905090565b5f5ffd5b5f5ffd5b5f5ffd5b5f5ffd5b5f601f19601f8301169050919050565b7f4e487b71000000000000000000000000000000000000000000000000000000005f52604160045260245ffd5b6114a982611463565b810181811067ffffffffffffffff821117156114c8576114c7611473565b5b80604052505050565b5f6114da61144a565b90506114e682826114a0565b919050565b5f67ffffffffffffffff82111561150557611504611473565b5b61150e82611463565b9050602081019050919050565b828183375f83830152505050565b5f61153b611536846114eb565b6114d1565b9050828152602081018484840111156115575761155661145f565b5b61156284828561151b565b509392505050565b5f82601f83011261157e5761157d61145b565b5b813561158e848260208601611529565b91505092915050565b5f602082840312156115ac576115ab611453565b5b5f82013567ffffffffffffffff8111156115c9576115c8611457565b5b6115d58482850161156a565b91505092915050565b5f819050919050565b6115f0816115de565b81146115fa575f5ffd5b50565b5f8135905061160b816115e7565b92915050565b5f6020828403121561162657611625611453565b5b5f611633848285016115fd565b91505092915050565b5f73ffffffffffffffffffffffffffffffffffffffff82169050919050565b5f6116658261163c565b9050919050565b6116758161165b565b82525050565b5f81519050919050565b5f82825260208201905092915050565b8281835e5f83830152505050565b5f6116ad8261167b565b6116b78185611685565b93506116c7818560208601611695565b6116d081611463565b840191505092915050565b5f8115159050919050565b6116ef816116db565b82525050565b6116fe816115de565b82525050565b5f6080820190506117175f83018761166c565b818103602083015261172981866116a3565b905061173860408301856116e6565b61174560608301846116f5565b95945050505050565b6117578161165b565b8114611761575f5ffd5b50565b5f813590506117728161174e565b92915050565b5f5f6040838503121561178e5761178d611453565b5b5f61179b858286016115fd565b92505060206117ac85828601611764565b9150509250929050565b5f6020820190506117c95f83018461166c565b92915050565b5f6020820190506117e25f8301846116f5565b92915050565b5f610100820190506117fc5f83018b6116f5565b818103602083015261180e818a6116a3565b905061181d604083018961166c565b61182a60608301886116e6565b611837608083018761166c565b61184460a083018661166c565b61185160c08301856116f5565b61185e60e08301846116f5565b9998505050505050505050565b7f4e487b71000000000000000000000000000000000000000000000000000000005f52602260045260245ffd5b5f60028204905060018216806118af57607f821691505b6020821081036118c2576118c161186b565b5b50919050565b5f819050815f5260205f209050919050565b5f6020601f8301049050919050565b5f82821b905092915050565b5f600883026119247fffffffffffffffffffffffffffffffffffffffffffffffffffffffffffffffff826118e9565b61192e86836118e9565b95508019841693508086168417925050509392505050565b5f819050919050565b5f61196961196461195f846115de565b611946565b6115de565b9050919050565b5f819050919050565b6119828361194f565b61199661198e82611970565b8484546118f5565b825550505050565b5f5f905090565b6119ad61199e565b6119b8818484611979565b505050565b5b818110156119db576119d05f826119a5565b6001810190506119be565b5050565b601f821115611a20576119f1816118c8565b6119fa846118da565b81016020851015611a09578190505b611a1d611a15856118da565b8301826119bd565b50505b505050565b5f82821c905092915050565b5f611a405f1984600802611a25565b1980831691505092915050565b5f611a588383611a31565b9150826002028217905092915050565b611a718261167b565b67ffffffffffffffff811115611a8a57611a89611473565b5b611a948254611898565b611a9f8282856119df565b5f60209050601f831160018114611ad0575f8415611abe578287015190505b611ac88582611a4d565b865550611b2f565b601f198416611ade866118c8565b5f5b82811015611b0557848901518255600182019150602085019450602081019050611ae0565b86831015611b225784890151611b1e601f891682611a31565b8355505b6001600288020188555050505b505050505050565b7f4e487b71000000000000000000000000000000000000000000000000000000005f52603260045260245ffd5b5f81549050611b7281611898565b9050919050565b818103611b87575050611c5c565b611b9082611b64565b67ffffffffffffffff811115611ba957611ba8611473565b5b611bb38254611898565b611bbe8282856119df565b5f601f831160018114611beb575f8415611bd9578287015490505b611be38582611a4d565b865550611c55565b601f198416611bf9876118c8565b9650611c04866118c8565b5f5b82811015611c2b57848901548255600182019150600185019450602081019050611c06565b86831015611c485784890154611c44601f891682611a31565b8355505b6001600288020188555050505b5050505050505b565b7f4e487b71000000000000000000000000000000000000000000000000000000005f52601160045260245ffd5b5f611c95826115de565b9150611ca0836115de565b9250828201905080821115611cb857611cb7611c5e565b5b9291505056fea26469706673582212207ea626947cbff72ec98d5020667440fcecc0f77a7d9bbce0cd53b78f1b9bcb9664736f6c634300081e0033",
					"opcodes": "PUSH1 0x80 PUSH1 0x40 MSTORE CALLVALUE DUP1 ISZERO PUSH1 0xE JUMPI PUSH0 PUSH0 REVERT JUMPDEST POP PUSH2 0x1CF4 DUP1 PUSH2 0x1C PUSH0 CODECOPY PUSH0 RETURN INVALID PUSH1 0x80 PUSH1 0x40 MSTORE CALLVALUE DUP1 ISZERO PUSH2 0xF JUMPI PUSH0 PUSH0 REVERT JUMPDEST POP PUSH1 0x4 CALLDATASIZE LT PUSH2 0xB1 JUMPI PUSH0 CALLDATALOAD PUSH1 0xE0 SHR DUP1 PUSH4 0xA5D7CEDD GT PUSH2 0x6F JUMPI DUP1 PUSH4 0xA5D7CEDD EQ PUSH2 0x188 JUMPI DUP1 PUSH4 0xAC859A4B EQ PUSH2 0x1B8 JUMPI DUP1 PUSH4 0xACA9DAA3 EQ PUSH2 0x1D6 JUMPI DUP1 PUSH4 0xBFC6E00A EQ PUSH2 0x1F2 JUMPI DUP1 PUSH4 0xC85E766D EQ PUSH2 0x20E JUMPI DUP1 PUSH4 0xF3E00839 EQ PUSH2 0x245 JUMPI PUSH2 0xB1 JUMP JUMPDEST DUP1 PUSH3 0x544194 EQ PUSH2 0xB5 JUMPI DUP1 PUSH4 0x2813D19D EQ PUSH2 0xD1 JUMPI DUP1 PUSH4 0x29507F73 EQ PUSH2 0x104 JUMPI DUP1 PUSH4 0x60234F10 EQ PUSH2 0x120 JUMPI DUP1 PUSH4 0x7FD6A66B EQ PUSH2 0x13C JUMPI DUP1 PUSH4 0x99687845 EQ PUSH2 0x158 JUMPI JUMPDEST PUSH0 PUSH0 REVERT JUMPDEST PUSH2 0xCF PUSH1 0x4 DUP1 CALLDATASIZE SUB DUP2 ADD SWAP1 PUSH2 0xCA SWAP2 SWAP1 PUSH2 0x1597 JUMP JUMPDEST PUSH2 0x261 JUMP JUMPDEST STOP JUMPDEST PUSH2 0xEB PUSH1 0x4 DUP1 CALLDATASIZE SUB DUP2 ADD SWAP1 PUSH2 0xE6 SWAP2 SWAP1 PUSH2 0x1611 JUMP JUMPDEST PUSH2 0x3B8 JUMP JUMPDEST PUSH1 0x40 MLOAD PUSH2 0xFB SWAP5 SWAP4 SWAP3 SWAP2 SWAP1 PUSH2 0x1704 JUMP JUMPDEST PUSH1 0x40 MLOAD DUP1 SWAP2 SUB SWAP1 RETURN JUMPDEST PUSH2 0x11E PUSH1 0x4 DUP1 CALLDATASIZE SUB DUP2 ADD SWAP1 PUSH2 0x119 SWAP2 SWAP1 PUSH2 0x1778 JUMP JUMPDEST PUSH2 0x4A3 JUMP JUMPDEST STOP JUMPDEST PUSH2 0x13A PUSH1 0x4 DUP1 CALLDATASIZE SUB DUP2 ADD SWAP1 PUSH2 0x135 SWAP2 SWAP1 PUSH2 0x1597 JUMP JUMPDEST PUSH2 0x6F7 JUMP JUMPDEST STOP JUMPDEST PUSH2 0x156 PUSH1 0x4 DUP1 CALLDATASIZE SUB DUP2 ADD SWAP1 PUSH2 0x151 SWAP2 SWAP1 PUSH2 0x1611 JUMP JUMPDEST PUSH2 0x912 JUMP JUMPDEST STOP JUMPDEST PUSH2 0x172 PUSH1 0x4 DUP1 CALLDATASIZE SUB DUP2 ADD SWAP1 PUSH2 0x16D SWAP2 SWAP1 PUSH2 0x1611 JUMP JUMPDEST PUSH2 0xB3B JUMP JUMPDEST PUSH1 0x40 MLOAD PUSH2 0x17F SWAP2 SWAP1 PUSH2 0x17B6 JUMP JUMPDEST PUSH1 0x40 MLOAD DUP1 SWAP2 SUB SWAP1 RETURN JUMPDEST PUSH2 0x1A2 PUSH1 0x4 DUP1 CALLDATASIZE SUB DUP2 ADD SWAP1 PUSH2 0x19D SWAP2 SWAP1 PUSH2 0x1611 JUMP JUMPDEST PUSH2 0xB76 JUMP JUMPDEST PUSH1 0x40 MLOAD PUSH2 0x1AF SWAP2 SWAP1 PUSH2 0x17CF JUMP JUMPDEST PUSH1 0x40 MLOAD DUP1 SWAP2 SUB SWAP1 RETURN JUMPDEST PUSH2 0x1C0 PUSH2 0xB96 JUMP JUMPDEST PUSH1 0x40 MLOAD PUSH2 0x1CD SWAP2 SWAP1 PUSH2 0x17CF JUMP JUMPDEST PUSH1 0x40 MLOAD DUP1 SWAP2 SUB SWAP1 RETURN JUMPDEST PUSH2 0x1F0 PUSH1 0x4 DUP1 CALLDATASIZE SUB DUP2 ADD SWAP1 PUSH2 0x1EB SWAP2 SWAP1 PUSH2 0x1611 JUMP JUMPDEST PUSH2 0xB9C JUMP JUMPDEST STOP JUMPDEST PUSH2 0x20C PUSH1 0x4 DUP1 CALLDATASIZE SUB DUP2 ADD SWAP1 PUSH2 0x207 SWAP2 SWAP1 PUSH2 0x1778 JUMP JUMPDEST PUSH2 0xDEA JUMP JUMPDEST STOP JUMPDEST PUSH2 0x228 PUSH1 0x4 DUP1 CALLDATASIZE SUB DUP2 ADD SWAP1 PUSH2 0x223 SWAP2 SWAP1 PUSH2 0x1611 JUMP JUMPDEST PUSH2 0x105D JUMP JUMPDEST PUSH1 0x40 MLOAD PUSH2 0x23C SWAP9 SWAP8 SWAP7 SWAP6 SWAP5 SWAP4 SWAP3 SWAP2 SWAP1 PUSH2 0x17E8 JUMP JUMPDEST PUSH1 0x40 MLOAD DUP1 SWAP2 SUB SWAP1 RETURN JUMPDEST PUSH2 0x25F PUSH1 0x4 DUP1 CALLDATASIZE SUB DUP2 ADD SWAP1 PUSH2 0x25A SWAP2 SWAP1 PUSH2 0x1611 JUMP JUMPDEST PUSH2 0x11A0 JUMP JUMPDEST STOP JUMPDEST PUSH0 CALLER SWAP1 POP PUSH0 DUP3 SWAP1 POP PUSH0 PUSH1 0x40 MLOAD DUP1 PUSH1 0x80 ADD PUSH1 0x40 MSTORE DUP1 DUP5 PUSH20 0xFFFFFFFFFFFFFFFFFFFFFFFFFFFFFFFFFFFFFFFF AND DUP2 MSTORE PUSH1 0x20 ADD DUP4 DUP2 MSTORE PUSH1 0x20 ADD PUSH0 ISZERO ISZERO DUP2 MSTORE PUSH1 0x20 ADD TIMESTAMP DUP2 MSTORE POP SWAP1 POP PUSH0 DUP2 SWAP1 DUP1 PUSH1 0x1 DUP2 SLOAD ADD DUP1 DUP3 SSTORE DUP1 SWAP2 POP POP PUSH1 0x1 SWAP1 SUB SWAP1 PUSH0 MSTORE PUSH1 0x20 PUSH0 KECCAK256 SWAP1 PUSH1 0x4 MUL ADD PUSH0 SWAP1 SWAP2 SWAP1 SWAP2 SWAP1 SWAP2 POP PUSH0 DUP3 ADD MLOAD DUP2 PUSH0 ADD PUSH0 PUSH2 0x100 EXP DUP2 SLOAD DUP2 PUSH20 0xFFFFFFFFFFFFFFFFFFFFFFFFFFFFFFFFFFFFFFFF MUL NOT AND SWAP1 DUP4 PUSH20 0xFFFFFFFFFFFFFFFFFFFFFFFFFFFFFFFFFFFFFFFF AND MUL OR SWAP1 SSTORE POP PUSH1 0x20 DUP3 ADD MLOAD DUP2 PUSH1 0x1 ADD SWAP1 DUP2 PUSH2 0x326 SWAP2 SWAP1 PUSH2 0x1A68 JUMP JUMPDEST POP PUSH1 0x40 DUP3 ADD MLOAD DUP2 PUSH1 0x2 ADD PUSH0 PUSH2 0x100 EXP DUP2 SLOAD DUP2 PUSH1 0xFF MUL NOT AND SWAP1 DUP4 ISZERO ISZERO MUL OR SWAP1 SSTORE POP PUSH1 0x60 DUP3 ADD MLOAD DUP2 PUSH1 0x3 ADD SSTORE POP POP PUSH1 0x3 DUP4 SWAP1 DUP1 PUSH1 0x1 DUP2 SLOAD ADD DUP1 DUP3 SSTORE DUP1 SWAP2 POP POP PUSH1 0x1 SWAP1 SUB SWAP1 PUSH0 MSTORE PUSH1 0x20 PUSH0 KECCAK256 ADD PUSH0 SWAP1 SWAP2 SWAP1 SWAP2 SWAP1 SWAP2 PUSH2 0x100 EXP DUP2 SLOAD DUP2 PUSH20 0xFFFFFFFFFFFFFFFFFFFFFFFFFFFFFFFFFFFFFFFF MUL NOT AND SWAP1 DUP4 PUSH20 0xFFFFFFFFFFFFFFFFFFFFFFFFFFFFFFFFFFFFFFFF AND MUL OR SWAP1 SSTORE POP POP POP POP POP JUMP JUMPDEST PUSH0 DUP2 DUP2 SLOAD DUP2 LT PUSH2 0x3C6 JUMPI PUSH0 DUP1 REVERT JUMPDEST SWAP1 PUSH0 MSTORE PUSH1 0x20 PUSH0 KECCAK256 SWAP1 PUSH1 0x4 MUL ADD PUSH0 SWAP2 POP SWAP1 POP DUP1 PUSH0 ADD PUSH0 SWAP1 SLOAD SWAP1 PUSH2 0x100 EXP SWAP1 DIV PUSH20 0xFFFFFFFFFFFFFFFFFFFFFFFFFFFFFFFFFFFFFFFF AND SWAP1 DUP1 PUSH1 0x1 ADD DUP1 SLOAD PUSH2 0x40A SWAP1 PUSH2 0x1898 JUMP JUMPDEST DUP1 PUSH1 0x1F ADD PUSH1 0x20 DUP1 SWAP2 DIV MUL PUSH1 0x20 ADD PUSH1 0x40 MLOAD SWAP1 DUP2 ADD PUSH1 0x40 MSTORE DUP1 SWAP3 SWAP2 SWAP1 DUP2 DUP2 MSTORE PUSH1 0x20 ADD DUP3 DUP1 SLOAD PUSH2 0x436 SWAP1 PUSH2 0x1898 JUMP JUMPDEST DUP1 ISZERO PUSH2 0x481 JUMPI DUP1 PUSH1 0x1F LT PUSH2 0x458 JUMPI PUSH2 0x100 DUP1 DUP4 SLOAD DIV MUL DUP4 MSTORE SWAP2 PUSH1 0x20 ADD SWAP2 PUSH2 0x481 JUMP JUMPDEST DUP3 ADD SWAP2 SWAP1 PUSH0 MSTORE PUSH1 0x20 PUSH0 KECCAK256 SWAP1 JUMPDEST DUP2 SLOAD DUP2 MSTORE SWAP1 PUSH1 0x1 ADD SWAP1 PUSH1 0x20 ADD DUP1 DUP4 GT PUSH2 0x464 JUMPI DUP3 SWAP1 SUB PUSH1 0x1F AND DUP3 ADD SWAP2 JUMPDEST POP POP POP POP POP SWAP1 DUP1 PUSH1 0x2 ADD PUSH0 SWAP1 SLOAD SWAP1 PUSH2 0x100 EXP SWAP1 DIV PUSH1 0xFF AND SWAP1 DUP1 PUSH1 0x3 ADD SLOAD SWAP1 POP DUP5 JUMP JUMPDEST PUSH0 DUP2 SWAP1 POP PUSH0 PUSH0 SWAP1 POP JUMPDEST PUSH1 0x1 DUP1 SLOAD SWAP1 POP DUP2 LT ISZERO PUSH2 0x6F1 JUMPI PUSH0 PUSH1 0x1 DUP3 DUP2 SLOAD DUP2 LT PUSH2 0x4CE JUMPI PUSH2 0x4CD PUSH2 0x1B37 JUMP JUMPDEST JUMPDEST SWAP1 PUSH0 MSTORE PUSH1 0x20 PUSH0 KECCAK256 SWAP1 PUSH1 0x7 MUL ADD SWAP1 POP DUP5 DUP2 PUSH0 ADD SLOAD SUB PUSH2 0x6E3 JUMPI DUP3 DUP2 PUSH1 0x4 ADD PUSH0 PUSH2 0x100 EXP DUP2 SLOAD DUP2 PUSH20 0xFFFFFFFFFFFFFFFFFFFFFFFFFFFFFFFFFFFFFFFF MUL NOT AND SWAP1 DUP4 PUSH20 0xFFFFFFFFFFFFFFFFFFFFFFFFFFFFFFFFFFFFFFFF AND MUL OR SWAP1 SSTORE POP TIMESTAMP DUP2 PUSH1 0x6 ADD DUP2 SWAP1 SSTORE POP DUP1 PUSH1 0x1 DUP4 DUP2 SLOAD DUP2 LT PUSH2 0x546 JUMPI PUSH2 0x545 PUSH2 0x1B37 JUMP JUMPDEST JUMPDEST SWAP1 PUSH0 MSTORE PUSH1 0x20 PUSH0 KECCAK256 SWAP1 PUSH1 0x7 MUL ADD PUSH0 DUP3 ADD SLOAD DUP2 PUSH0 ADD SSTORE PUSH1 0x1 DUP3 ADD DUP2 PUSH1 0x1 ADD SWAP1 DUP2 PUSH2 0x56E SWAP2 SWAP1 PUSH2 0x1B79 JUMP JUMPDEST POP PUSH1 0x2 DUP3 ADD PUSH0 SWAP1 SLOAD SWAP1 PUSH2 0x100 EXP SWAP1 DIV PUSH20 0xFFFFFFFFFFFFFFFFFFFFFFFFFFFFFFFFFFFFFFFF AND DUP2 PUSH1 0x2 ADD PUSH0 PUSH2 0x100 EXP DUP2 SLOAD DUP2 PUSH20 0xFFFFFFFFFFFFFFFFFFFFFFFFFFFFFFFFFFFFFFFF MUL NOT AND SWAP1 DUP4 PUSH20 0xFFFFFFFFFFFFFFFFFFFFFFFFFFFFFFFFFFFFFFFF AND MUL OR SWAP1 SSTORE POP PUSH1 0x2 DUP3 ADD PUSH1 0x14 SWAP1 SLOAD SWAP1 PUSH2 0x100 EXP SWAP1 DIV PUSH1 0xFF AND DUP2 PUSH1 0x2 ADD PUSH1 0x14 PUSH2 0x100 EXP DUP2 SLOAD DUP2 PUSH1 0xFF MUL NOT AND SWAP1 DUP4 ISZERO ISZERO MUL OR SWAP1 SSTORE POP PUSH1 0x3 DUP3 ADD PUSH0 SWAP1 SLOAD SWAP1 PUSH2 0x100 EXP SWAP1 DIV PUSH20 0xFFFFFFFFFFFFFFFFFFFFFFFFFFFFFFFFFFFFFFFF AND DUP2 PUSH1 0x3 ADD PUSH0 PUSH2 0x100 EXP DUP2 SLOAD DUP2 PUSH20 0xFFFFFFFFFFFFFFFFFFFFFFFFFFFFFFFFFFFFFFFF MUL NOT AND SWAP1 DUP4 PUSH20 0xFFFFFFFFFFFFFFFFFFFFFFFFFFFFFFFFFFFFFFFF AND MUL OR SWAP1 SSTORE POP PUSH1 0x4 DUP3 ADD PUSH0 SWAP1 SLOAD SWAP1 PUSH2 0x100 EXP SWAP1 DIV PUSH20 0xFFFFFFFFFFFFFFFFFFFFFFFFFFFFFFFFFFFFFFFF AND DUP2 PUSH1 0x4 ADD PUSH0 PUSH2 0x100 EXP DUP2 SLOAD DUP2 PUSH20 0xFFFFFFFFFFFFFFFFFFFFFFFFFFFFFFFFFFFFFFFF MUL NOT AND SWAP1 DUP4 PUSH20 0xFFFFFFFFFFFFFFFFFFFFFFFFFFFFFFFFFFFFFFFF AND MUL OR SWAP1 SSTORE POP PUSH1 0x5 DUP3 ADD SLOAD DUP2 PUSH1 0x5 ADD SSTORE PUSH1 0x6 DUP3 ADD SLOAD DUP2 PUSH1 0x6 ADD SSTORE SWAP1 POP POP JUMPDEST POP DUP1 DUP1 PUSH1 0x1 ADD SWAP2 POP POP PUSH2 0x4AC JUMP JUMPDEST POP POP POP POP JUMP JUMPDEST PUSH1 0x1 PUSH1 0x4 SLOAD PUSH2 0x706 SWAP2 SWAP1 PUSH2 0x1C8B JUMP JUMPDEST PUSH1 0x4 DUP2 SWAP1 SSTORE POP PUSH0 PUSH1 0x4 SLOAD SWAP1 POP PUSH0 CALLER SWAP1 POP PUSH0 PUSH1 0x40 MLOAD DUP1 PUSH2 0x100 ADD PUSH1 0x40 MSTORE DUP1 DUP5 DUP2 MSTORE PUSH1 0x20 ADD DUP6 DUP2 MSTORE PUSH1 0x20 ADD DUP4 PUSH20 0xFFFFFFFFFFFFFFFFFFFFFFFFFFFFFFFFFFFFFFFF AND DUP2 MSTORE PUSH1 0x20 ADD PUSH0 ISZERO ISZERO DUP2 MSTORE PUSH1 0x20 ADD PUSH0 PUSH20 0xFFFFFFFFFFFFFFFFFFFFFFFFFFFFFFFFFFFFFFFF AND DUP2 MSTORE PUSH1 0x20 ADD DUP4 PUSH20 0xFFFFFFFFFFFFFFFFFFFFFFFFFFFFFFFFFFFFFFFF AND DUP2 MSTORE PUSH1 0x20 ADD TIMESTAMP DUP2 MSTORE PUSH1 0x20 ADD TIMESTAMP DUP2 MSTORE POP SWAP1 POP PUSH1 0x1 DUP2 SWAP1 DUP1 PUSH1 0x1 DUP2 SLOAD ADD DUP1 DUP3 SSTORE DUP1 SWAP2 POP POP PUSH1 0x1 SWAP1 SUB SWAP1 PUSH0 MSTORE PUSH1 0x20 PUSH0 KECCAK256 SWAP1 PUSH1 0x7 MUL ADD PUSH0 SWAP1 SWAP2 SWAP1 SWAP2 SWAP1 SWAP2 POP PUSH0 DUP3 ADD MLOAD DUP2 PUSH0 ADD SSTORE PUSH1 0x20 DUP3 ADD MLOAD DUP2 PUSH1 0x1 ADD SWAP1 DUP2 PUSH2 0x7DD SWAP2 SWAP1 PUSH2 0x1A68 JUMP JUMPDEST POP PUSH1 0x40 DUP3 ADD MLOAD DUP2 PUSH1 0x2 ADD PUSH0 PUSH2 0x100 EXP DUP2 SLOAD DUP2 PUSH20 0xFFFFFFFFFFFFFFFFFFFFFFFFFFFFFFFFFFFFFFFF MUL NOT AND SWAP1 DUP4 PUSH20 0xFFFFFFFFFFFFFFFFFFFFFFFFFFFFFFFFFFFFFFFF AND MUL OR SWAP1 SSTORE POP PUSH1 0x60 DUP3 ADD MLOAD DUP2 PUSH1 0x2 ADD PUSH1 0x14 PUSH2 0x100 EXP DUP2 SLOAD DUP2 PUSH1 0xFF MUL NOT AND SWAP1 DUP4 ISZERO ISZERO MUL OR SWAP1 SSTORE POP PUSH1 0x80 DUP3 ADD MLOAD DUP2 PUSH1 0x3 ADD PUSH0 PUSH2 0x100 EXP DUP2 SLOAD DUP2 PUSH20 0xFFFFFFFFFFFFFFFFFFFFFFFFFFFFFFFFFFFFFFFF MUL NOT AND SWAP1 DUP4 PUSH20 0xFFFFFFFFFFFFFFFFFFFFFFFFFFFFFFFFFFFFFFFF AND MUL OR SWAP1 SSTORE POP PUSH1 0xA0 DUP3 ADD MLOAD DUP2 PUSH1 0x4 ADD PUSH0 PUSH2 0x100 EXP DUP2 SLOAD DUP2 PUSH20 0xFFFFFFFFFFFFFFFFFFFFFFFFFFFFFFFFFFFFFFFF MUL NOT AND SWAP1 DUP4 PUSH20 0xFFFFFFFFFFFFFFFFFFFFFFFFFFFFFFFFFFFFFFFF AND MUL OR SWAP1 SSTORE POP PUSH1 0xC0 DUP3 ADD MLOAD DUP2 PUSH1 0x5 ADD SSTORE PUSH1 0xE0 DUP3 ADD MLOAD DUP2 PUSH1 0x6 ADD SSTORE POP POP PUSH1 0x2 DUP4 SWAP1 DUP1 PUSH1 0x1 DUP2 SLOAD ADD DUP1 DUP3 SSTORE DUP1 SWAP2 POP POP PUSH1 0x1 SWAP1 SUB SWAP1 PUSH0 MSTORE PUSH1 0x20 PUSH0 KECCAK256 ADD PUSH0 SWAP1 SWAP2 SWAP1 SWAP2 SWAP1 SWAP2 POP SSTORE POP POP POP POP JUMP JUMPDEST PUSH0 PUSH0 SWAP1 POP JUMPDEST PUSH1 0x1 DUP1 SLOAD SWAP1 POP DUP2 LT ISZERO PUSH2 0xB37 JUMPI PUSH0 PUSH1 0x1 DUP3 DUP2 SLOAD DUP2 LT PUSH2 0x939 JUMPI PUSH2 0x938 PUSH2 0x1B37 JUMP JUMPDEST JUMPDEST SWAP1 PUSH0 MSTORE PUSH1 0x20 PUSH0 KECCAK256 SWAP1 PUSH1 0x7 MUL ADD SWAP1 POP DUP3 DUP2 PUSH0 ADD SLOAD SUB PUSH2 0xB29 JUMPI PUSH1 0x1 DUP2 PUSH1 0x2 ADD PUSH1 0x14 PUSH2 0x100 EXP DUP2 SLOAD DUP2 PUSH1 0xFF MUL NOT AND SWAP1 DUP4 ISZERO ISZERO MUL OR SWAP1 SSTORE POP TIMESTAMP DUP2 PUSH1 0x6 ADD DUP2 SWAP1 SSTORE POP DUP1 PUSH1 0x1 DUP4 DUP2 SLOAD DUP2 LT PUSH2 0x98C JUMPI PUSH2 0x98B PUSH2 0x1B37 JUMP JUMPDEST JUMPDEST SWAP1 PUSH0 MSTORE PUSH1 0x20 PUSH0 KECCAK256 SWAP1 PUSH1 0x7 MUL ADD PUSH0 DUP3 ADD SLOAD DUP2 PUSH0 ADD SSTORE PUSH1 0x1 DUP3 ADD DUP2 PUSH1 0x1 ADD SWAP1 DUP2 PUSH2 0x9B4 SWAP2 SWAP1 PUSH2 0x1B79 JUMP JUMPDEST POP PUSH1 0x2 DUP3 ADD PUSH0 SWAP1 SLOAD SWAP1 PUSH2 0x100 EXP SWAP1 DIV PUSH20 0xFFFFFFFFFFFFFFFFFFFFFFFFFFFFFFFFFFFFFFFF AND DUP2 PUSH1 0x2 ADD PUSH0 PUSH2 0x100 EXP DUP2 SLOAD DUP2 PUSH20 0xFFFFFFFFFFFFFFFFFFFFFFFFFFFFFFFFFFFFFFFF MUL NOT AND SWAP1 DUP4 PUSH20 0xFFFFFFFFFFFFFFFFFFFFFFFFFFFFFFFFFFFFFFFF AND MUL OR SWAP1 SSTORE POP PUSH1 0x2 DUP3 ADD PUSH1 0x14 SWAP1 SLOAD SWAP1 PUSH2 0x100 EXP SWAP1 DIV PUSH1 0xFF AND DUP2 PUSH1 0x2 ADD PUSH1 0x14 PUSH2 0x100 EXP DUP2 SLOAD DUP2 PUSH1 0xFF MUL NOT AND SWAP1 DUP4 ISZERO ISZERO MUL OR SWAP1 SSTORE POP PUSH1 0x3 DUP3 ADD PUSH0 SWAP1 SLOAD SWAP1 PUSH2 0x100 EXP SWAP1 DIV PUSH20 0xFFFFFFFFFFFFFFFFFFFFFFFFFFFFFFFFFFFFFFFF AND DUP2 PUSH1 0x3 ADD PUSH0 PUSH2 0x100 EXP DUP2 SLOAD DUP2 PUSH20 0xFFFFFFFFFFFFFFFFFFFFFFFFFFFFFFFFFFFFFFFF MUL NOT AND SWAP1 DUP4 PUSH20 0xFFFFFFFFFFFFFFFFFFFFFFFFFFFFFFFFFFFFFFFF AND MUL OR SWAP1 SSTORE POP PUSH1 0x4 DUP3 ADD PUSH0 SWAP1 SLOAD SWAP1 PUSH2 0x100 EXP SWAP1 DIV PUSH20 0xFFFFFFFFFFFFFFFFFFFFFFFFFFFFFFFFFFFFFFFF AND DUP2 PUSH1 0x4 ADD PUSH0 PUSH2 0x100 EXP DUP2 SLOAD DUP2 PUSH20 0xFFFFFFFFFFFFFFFFFFFFFFFFFFFFFFFFFFFFFFFF MUL NOT AND SWAP1 DUP4 PUSH20 0xFFFFFFFFFFFFFFFFFFFFFFFFFFFFFFFFFFFFFFFF AND MUL OR SWAP1 SSTORE POP PUSH1 0x5 DUP3 ADD SLOAD DUP2 PUSH1 0x5 ADD SSTORE PUSH1 0x6 DUP3 ADD SLOAD DUP2 PUSH1 0x6 ADD SSTORE SWAP1 POP POP JUMPDEST POP DUP1 DUP1 PUSH1 0x1 ADD SWAP2 POP POP PUSH2 0x917 JUMP JUMPDEST POP POP JUMP JUMPDEST PUSH1 0x3 DUP2 DUP2 SLOAD DUP2 LT PUSH2 0xB4A JUMPI PUSH0 DUP1 REVERT JUMPDEST SWAP1 PUSH0 MSTORE PUSH1 0x20 PUSH0 KECCAK256 ADD PUSH0 SWAP2 POP SLOAD SWAP1 PUSH2 0x100 EXP SWAP1 DIV PUSH20 0xFFFFFFFFFFFFFFFFFFFFFFFFFFFFFFFFFFFFFFFF AND DUP2 JUMP JUMPDEST PUSH1 0x2 DUP2 DUP2 SLOAD DUP2 LT PUSH2 0xB85 JUMPI PUSH0 DUP1 REVERT JUMPDEST SWAP1 PUSH0 MSTORE PUSH1 0x20 PUSH0 KECCAK256 ADD PUSH0 SWAP2 POP SWAP1 POP SLOAD DUP2 JUMP JUMPDEST PUSH1 0x4 SLOAD DUP2 JUMP JUMPDEST PUSH0 PUSH0 SWAP1 POP JUMPDEST PUSH1 0x1 DUP1 SLOAD SWAP1 POP DUP2 LT ISZERO PUSH2 0xDE6 JUMPI PUSH0 PUSH1 0x1 DUP3 DUP2 SLOAD DUP2 LT PUSH2 0xBC3 JUMPI PUSH2 0xBC2 PUSH2 0x1B37 JUMP JUMPDEST JUMPDEST SWAP1 PUSH0 MSTORE PUSH1 0x20 PUSH0 KECCAK256 SWAP1 PUSH1 0x7 MUL ADD SWAP1 POP DUP3 DUP2 PUSH0 ADD SLOAD SUB PUSH2 0xDD8 JUMPI PUSH0 DUP2 PUSH1 0x3 ADD PUSH0 PUSH2 0x100 EXP DUP2 SLOAD DUP2 PUSH20 0xFFFFFFFFFFFFFFFFFFFFFFFFFFFFFFFFFFFFFFFF MUL NOT AND SWAP1 DUP4 PUSH20 0xFFFFFFFFFFFFFFFFFFFFFFFFFFFFFFFFFFFFFFFF AND MUL OR SWAP1 SSTORE POP TIMESTAMP DUP2 PUSH1 0x6 ADD DUP2 SWAP1 SSTORE POP DUP1 PUSH1 0x1 DUP4 DUP2 SLOAD DUP2 LT PUSH2 0xC3B JUMPI PUSH2 0xC3A PUSH2 0x1B37 JUMP JUMPDEST JUMPDEST SWAP1 PUSH0 MSTORE PUSH1 0x20 PUSH0 KECCAK256 SWAP1 PUSH1 0x7 MUL ADD PUSH0 DUP3 ADD SLOAD DUP2 PUSH0 ADD SSTORE PUSH1 0x1 DUP3 ADD DUP2 PUSH1 0x1 ADD SWAP1 DUP2 PUSH2 0xC63 SWAP2 SWAP1 PUSH2 0x1B79 JUMP JUMPDEST POP PUSH1 0x2 DUP3 ADD PUSH0 SWAP1 SLOAD SWAP1 PUSH2 0x100 EXP SWAP1 DIV PUSH20 0xFFFFFFFFFFFFFFFFFFFFFFFFFFFFFFFFFFFFFFFF AND DUP2 PUSH1 0x2 ADD PUSH0 PUSH2 0x100 EXP DUP2 SLOAD DUP2 PUSH20 0xFFFFFFFFFFFFFFFFFFFFFFFFFFFFFFFFFFFFFFFF MUL NOT AND SWAP1 DUP4 PUSH20 0xFFFFFFFFFFFFFFFFFFFFFFFFFFFFFFFFFFFFFFFF AND MUL OR SWAP1 SSTORE POP PUSH1 0x2 DUP3 ADD PUSH1 0x14 SWAP1 SLOAD SWAP1 PUSH2 0x100 EXP SWAP1 DIV PUSH1 0xFF AND DUP2 PUSH1 0x2 ADD PUSH1 0x14 PUSH2 0x100 EXP DUP2 SLOAD DUP2 PUSH1 0xFF MUL NOT AND SWAP1 DUP4 ISZERO ISZERO MUL OR SWAP1 SSTORE POP PUSH1 0x3 DUP3 ADD PUSH0 SWAP1 SLOAD SWAP1 PUSH2 0x100 EXP SWAP1 DIV PUSH20 0xFFFFFFFFFFFFFFFFFFFFFFFFFFFFFFFFFFFFFFFF AND DUP2 PUSH1 0x3 ADD PUSH0 PUSH2 0x100 EXP DUP2 SLOAD DUP2 PUSH20 0xFFFFFFFFFFFFFFFFFFFFFFFFFFFFFFFFFFFFFFFF MUL NOT AND SWAP1 DUP4 PUSH20 0xFFFFFFFFFFFFFFFFFFFFFFFFFFFFFFFFFFFFFFFF AND MUL OR SWAP1 SSTORE POP PUSH1 0x4 DUP3 ADD PUSH0 SWAP1 SLOAD SWAP1 PUSH2 0x100 EXP SWAP1 DIV PUSH20 0xFFFFFFFFFFFFFFFFFFFFFFFFFFFFFFFFFFFFFFFF AND DUP2 PUSH1 0x4 ADD PUSH0 PUSH2 0x100 EXP DUP2 SLOAD DUP2 PUSH20 0xFFFFFFFFFFFFFFFFFFFFFFFFFFFFFFFFFFFFFFFF MUL NOT AND SWAP1 DUP4 PUSH20 0xFFFFFFFFFFFFFFFFFFFFFFFFFFFFFFFFFFFFFFFF AND MUL OR SWAP1 SSTORE POP PUSH1 0x5 DUP3 ADD SLOAD DUP2 PUSH1 0x5 ADD SSTORE PUSH1 0x6 DUP3 ADD SLOAD DUP2 PUSH1 0x6 ADD SSTORE SWAP1 POP POP JUMPDEST POP DUP1 DUP1 PUSH1 0x1 ADD SWAP2 POP POP PUSH2 0xBA1 JUMP JUMPDEST POP POP JUMP JUMPDEST PUSH0 DUP2 SWAP1 POP PUSH0 PUSH0 SWAP1 POP JUMPDEST PUSH1 0x1 DUP1 SLOAD SWAP1 POP DUP2 LT ISZERO PUSH2 0x1057 JUMPI DUP4 PUSH1 0x1 DUP3 DUP2 SLOAD DUP2 LT PUSH2 0xE15 JUMPI PUSH2 0xE14 PUSH2 0x1B37 JUMP JUMPDEST JUMPDEST SWAP1 PUSH0 MSTORE PUSH1 0x20 PUSH0 KECCAK256 SWAP1 PUSH1 0x7 MUL ADD PUSH0 ADD SLOAD SUB PUSH2 0x104A JUMPI PUSH0 PUSH1 0x1 DUP3 DUP2 SLOAD DUP2 LT PUSH2 0xE3E JUMPI PUSH2 0xE3D PUSH2 0x1B37 JUMP JUMPDEST JUMPDEST SWAP1 PUSH0 MSTORE PUSH1 0x20 PUSH0 KECCAK256 SWAP1 PUSH1 0x7 MUL ADD SWAP1 POP DUP3 DUP2 PUSH1 0x3 ADD PUSH0 PUSH2 0x100 EXP DUP2 SLOAD DUP2 PUSH20 0xFFFFFFFFFFFFFFFFFFFFFFFFFFFFFFFFFFFFFFFF MUL NOT AND SWAP1 DUP4 PUSH20 0xFFFFFFFFFFFFFFFFFFFFFFFFFFFFFFFFFFFFFFFF AND MUL OR SWAP1 SSTORE POP TIMESTAMP DUP2 PUSH1 0x6 ADD DUP2 SWAP1 SSTORE POP DUP1 PUSH1 0x1 DUP4 DUP2 SLOAD DUP2 LT PUSH2 0xEAC JUMPI PUSH2 0xEAB PUSH2 0x1B37 JUMP JUMPDEST JUMPDEST SWAP1 PUSH0 MSTORE PUSH1 0x20 PUSH0 KECCAK256 SWAP1 PUSH1 0x7 MUL ADD PUSH0 DUP3 ADD SLOAD DUP2 PUSH0 ADD SSTORE PUSH1 0x1 DUP3 ADD DUP2 PUSH1 0x1 ADD SWAP1 DUP2 PUSH2 0xED4 SWAP2 SWAP1 PUSH2 0x1B79 JUMP JUMPDEST POP PUSH1 0x2 DUP3 ADD PUSH0 SWAP1 SLOAD SWAP1 PUSH2 0x100 EXP SWAP1 DIV PUSH20 0xFFFFFFFFFFFFFFFFFFFFFFFFFFFFFFFFFFFFFFFF AND DUP2 PUSH1 0x2 ADD PUSH0 PUSH2 0x100 EXP DUP2 SLOAD DUP2 PUSH20 0xFFFFFFFFFFFFFFFFFFFFFFFFFFFFFFFFFFFFFFFF MUL NOT AND SWAP1 DUP4 PUSH20 0xFFFFFFFFFFFFFFFFFFFFFFFFFFFFFFFFFFFFFFFF AND MUL OR SWAP1 SSTORE POP PUSH1 0x2 DUP3 ADD PUSH1 0x14 SWAP1 SLOAD SWAP1 PUSH2 0x100 EXP SWAP1 DIV PUSH1 0xFF AND DUP2 PUSH1 0x2 ADD PUSH1 0x14 PUSH2 0x100 EXP DUP2 SLOAD DUP2 PUSH1 0xFF MUL NOT AND SWAP1 DUP4 ISZERO ISZERO MUL OR SWAP1 SSTORE POP PUSH1 0x3 DUP3 ADD PUSH0 SWAP1 SLOAD SWAP1 PUSH2 0x100 EXP SWAP1 DIV PUSH20 0xFFFFFFFFFFFFFFFFFFFFFFFFFFFFFFFFFFFFFFFF AND DUP2 PUSH1 0x3 ADD PUSH0 PUSH2 0x100 EXP DUP2 SLOAD DUP2 PUSH20 0xFFFFFFFFFFFFFFFFFFFFFFFFFFFFFFFFFFFFFFFF MUL NOT AND SWAP1 DUP4 PUSH20 0xFFFFFFFFFFFFFFFFFFFFFFFFFFFFFFFFFFFFFFFF AND MUL OR SWAP1 SSTORE POP PUSH1 0x4 DUP3 ADD PUSH0 SWAP1 SLOAD SWAP1 PUSH2 0x100 EXP SWAP1 DIV PUSH20 0xFFFFFFFFFFFFFFFFFFFFFFFFFFFFFFFFFFFFFFFF AND DUP2 PUSH1 0x4 ADD PUSH0 PUSH2 0x100 EXP DUP2 SLOAD DUP2 PUSH20 0xFFFFFFFFFFFFFFFFFFFFFFFFFFFFFFFFFFFFFFFF MUL NOT AND SWAP1 DUP4 PUSH20 0xFFFFFFFFFFFFFFFFFFFFFFFFFFFFFFFFFFFFFFFF AND MUL OR SWAP1 SSTORE POP PUSH1 0x5 DUP3 ADD SLOAD DUP2 PUSH1 0x5 ADD SSTORE PUSH1 0x6 DUP3 ADD SLOAD DUP2 PUSH1 0x6 ADD SSTORE SWAP1 POP POP POP JUMPDEST DUP1 DUP1 PUSH1 0x1 ADD SWAP2 POP POP PUSH2 0xDF3 JUMP JUMPDEST POP POP POP POP JUMP JUMPDEST PUSH1 0x1 DUP2 DUP2 SLOAD DUP2 LT PUSH2 0x106C JUMPI PUSH0 DUP1 REVERT JUMPDEST SWAP1 PUSH0 MSTORE PUSH1 0x20 PUSH0 KECCAK256 SWAP1 PUSH1 0x7 MUL ADD PUSH0 SWAP2 POP SWAP1 POP DUP1 PUSH0 ADD SLOAD SWAP1 DUP1 PUSH1 0x1 ADD DUP1 SLOAD PUSH2 0x1091 SWAP1 PUSH2 0x1898 JUMP JUMPDEST DUP1 PUSH1 0x1F ADD PUSH1 0x20 DUP1 SWAP2 DIV MUL PUSH1 0x20 ADD PUSH1 0x40 MLOAD SWAP1 DUP2 ADD PUSH1 0x40 MSTORE DUP1 SWAP3 SWAP2 SWAP1 DUP2 DUP2 MSTORE PUSH1 0x20 ADD DUP3 DUP1 SLOAD PUSH2 0x10BD SWAP1 PUSH2 0x1898 JUMP JUMPDEST DUP1 ISZERO PUSH2 0x1108 JUMPI DUP1 PUSH1 0x1F LT PUSH2 0x10DF JUMPI PUSH2 0x100 DUP1 DUP4 SLOAD DIV MUL DUP4 MSTORE SWAP2 PUSH1 0x20 ADD SWAP2 PUSH2 0x1108 JUMP JUMPDEST DUP3 ADD SWAP2 SWAP1 PUSH0 MSTORE PUSH1 0x20 PUSH0 KECCAK256 SWAP1 JUMPDEST DUP2 SLOAD DUP2 MSTORE SWAP1 PUSH1 0x1 ADD SWAP1 PUSH1 0x20 ADD DUP1 DUP4 GT PUSH2 0x10EB JUMPI DUP3 SWAP1 SUB PUSH1 0x1F AND DUP3 ADD SWAP2 JUMPDEST POP POP POP POP POP SWAP1 DUP1 PUSH1 0x2 ADD PUSH0 SWAP1 SLOAD SWAP1 PUSH2 0x100 EXP SWAP1 DIV PUSH20 0xFFFFFFFFFFFFFFFFFFFFFFFFFFFFFFFFFFFFFFFF AND SWAP1 DUP1 PUSH1 0x2 ADD PUSH1 0x14 SWAP1 SLOAD SWAP1 PUSH2 0x100 EXP SWAP1 DIV PUSH1 0xFF AND SWAP1 DUP1 PUSH1 0x3 ADD PUSH0 SWAP1 SLOAD SWAP1 PUSH2 0x100 EXP SWAP1 DIV PUSH20 0xFFFFFFFFFFFFFFFFFFFFFFFFFFFFFFFFFFFFFFFF AND SWAP1 DUP1 PUSH1 0x4 ADD PUSH0 SWAP1 SLOAD SWAP1 PUSH2 0x100 EXP SWAP1 DIV PUSH20 0xFFFFFFFFFFFFFFFFFFFFFFFFFFFFFFFFFFFFFFFF AND SWAP1 DUP1 PUSH1 0x5 ADD SLOAD SWAP1 DUP1 PUSH1 0x6 ADD SLOAD SWAP1 POP DUP9 JUMP JUMPDEST PUSH0 PUSH0 SWAP1 POP JUMPDEST PUSH1 0x1 DUP1 SLOAD SWAP1 POP DUP2 LT ISZERO PUSH2 0x1446 JUMPI PUSH0 PUSH1 0x1 DUP3 DUP2 SLOAD DUP2 LT PUSH2 0x11C7 JUMPI PUSH2 0x11C6 PUSH2 0x1B37 JUMP JUMPDEST JUMPDEST SWAP1 PUSH0 MSTORE PUSH1 0x20 PUSH0 KECCAK256 SWAP1 PUSH1 0x7 MUL ADD SWAP1 POP DUP3 DUP2 PUSH0 ADD SLOAD SUB PUSH2 0x1438 JUMPI PUSH0 DUP2 PUSH1 0x3 ADD PUSH0 SWAP1 SLOAD SWAP1 PUSH2 0x100 EXP SWAP1 DIV PUSH20 0xFFFFFFFFFFFFFFFFFFFFFFFFFFFFFFFFFFFFFFFF AND SWAP1 POP PUSH0 PUSH20 0xFFFFFFFFFFFFFFFFFFFFFFFFFFFFFFFFFFFFFFFF AND DUP2 PUSH20 0xFFFFFFFFFFFFFFFFFFFFFFFFFFFFFFFFFFFFFFFF AND EQ PUSH2 0x1436 JUMPI DUP1 DUP3 PUSH1 0x4 ADD PUSH0 PUSH2 0x100 EXP DUP2 SLOAD DUP2 PUSH20 0xFFFFFFFFFFFFFFFFFFFFFFFFFFFFFFFFFFFFFFFF MUL NOT AND SWAP1 DUP4 PUSH20 0xFFFFFFFFFFFFFFFFFFFFFFFFFFFFFFFFFFFFFFFF AND MUL OR SWAP1 SSTORE POP TIMESTAMP DUP3 PUSH1 0x6 ADD DUP2 SWAP1 SSTORE POP DUP2 PUSH1 0x1 DUP5 DUP2 SLOAD DUP2 LT PUSH2 0x1299 JUMPI PUSH2 0x1298 PUSH2 0x1B37 JUMP JUMPDEST JUMPDEST SWAP1 PUSH0 MSTORE PUSH1 0x20 PUSH0 KECCAK256 SWAP1 PUSH1 0x7 MUL ADD PUSH0 DUP3 ADD SLOAD DUP2 PUSH0 ADD SSTORE PUSH1 0x1 DUP3 ADD DUP2 PUSH1 0x1 ADD SWAP1 DUP2 PUSH2 0x12C1 SWAP2 SWAP1 PUSH2 0x1B79 JUMP JUMPDEST POP PUSH1 0x2 DUP3 ADD PUSH0 SWAP1 SLOAD SWAP1 PUSH2 0x100 EXP SWAP1 DIV PUSH20 0xFFFFFFFFFFFFFFFFFFFFFFFFFFFFFFFFFFFFFFFF AND DUP2 PUSH1 0x2 ADD PUSH0 PUSH2 0x100 EXP DUP2 SLOAD DUP2 PUSH20 0xFFFFFFFFFFFFFFFFFFFFFFFFFFFFFFFFFFFFFFFF MUL NOT AND SWAP1 DUP4 PUSH20 0xFFFFFFFFFFFFFFFFFFFFFFFFFFFFFFFFFFFFFFFF AND MUL OR SWAP1 SSTORE POP PUSH1 0x2 DUP3 ADD PUSH1 0x14 SWAP1 SLOAD SWAP1 PUSH2 0x100 EXP SWAP1 DIV PUSH1 0xFF AND DUP2 PUSH1 0x2 ADD PUSH1 0x14 PUSH2 0x100 EXP DUP2 SLOAD DUP2 PUSH1 0xFF MUL NOT AND SWAP1 DUP4 ISZERO ISZERO MUL OR SWAP1 SSTORE POP PUSH1 0x3 DUP3 ADD PUSH0 SWAP1 SLOAD SWAP1 PUSH2 0x100 EXP SWAP1 DIV PUSH20 0xFFFFFFFFFFFFFFFFFFFFFFFFFFFFFFFFFFFFFFFF AND DUP2 PUSH1 0x3 ADD PUSH0 PUSH2 0x100 EXP DUP2 SLOAD DUP2 PUSH20 0xFFFFFFFFFFFFFFFFFFFFFFFFFFFFFFFFFFFFFFFF MUL NOT AND SWAP1 DUP4 PUSH20 0xFFFFFFFFFFFFFFFFFFFFFFFFFFFFFFFFFFFFFFFF AND MUL OR SWAP1 SSTORE POP PUSH1 0x4 DUP3 ADD PUSH0 SWAP1 SLOAD SWAP1 PUSH2 0x100 EXP SWAP1 DIV PUSH20 0xFFFFFFFFFFFFFFFFFFFFFFFFFFFFFFFFFFFFFFFF AND DUP2 PUSH1 0x4 ADD PUSH0 PUSH2 0x100 EXP DUP2 SLOAD DUP2 PUSH20 0xFFFFFFFFFFFFFFFFFFFFFFFFFFFFFFFFFFFFFFFF MUL NOT AND SWAP1 DUP4 PUSH20 0xFFFFFFFFFFFFFFFFFFFFFFFFFFFFFFFFFFFFFFFF AND MUL OR SWAP1 SSTORE POP PUSH1 0x5 DUP3 ADD SLOAD DUP2 PUSH1 0x5 ADD SSTORE PUSH1 0x6 DUP3 ADD SLOAD DUP2 PUSH1 0x6 ADD SSTORE SWAP1 POP POP JUMPDEST POP JUMPDEST POP DUP1 DUP1 PUSH1 0x1 ADD SWAP2 POP POP PUSH2 0x11A5 JUMP JUMPDEST POP POP JUMP JUMPDEST PUSH0 PUSH1 0x40 MLOAD SWAP1 POP SWAP1 JUMP JUMPDEST PUSH0 PUSH0 REVERT JUMPDEST PUSH0 PUSH0 REVERT JUMPDEST PUSH0 PUSH0 REVERT JUMPDEST PUSH0 PUSH0 REVERT JUMPDEST PUSH0 PUSH1 0x1F NOT PUSH1 0x1F DUP4 ADD AND SWAP1 POP SWAP2 SWAP1 POP JUMP JUMPDEST PUSH32 0x4E487B7100000000000000000000000000000000000000000000000000000000 PUSH0 MSTORE PUSH1 0x41 PUSH1 0x4 MSTORE PUSH1 0x24 PUSH0 REVERT JUMPDEST PUSH2 0x14A9 DUP3 PUSH2 0x1463 JUMP JUMPDEST DUP2 ADD DUP2 DUP2 LT PUSH8 0xFFFFFFFFFFFFFFFF DUP3 GT OR ISZERO PUSH2 0x14C8 JUMPI PUSH2 0x14C7 PUSH2 0x1473 JUMP JUMPDEST JUMPDEST DUP1 PUSH1 0x40 MSTORE POP POP POP JUMP JUMPDEST PUSH0 PUSH2 0x14DA PUSH2 0x144A JUMP JUMPDEST SWAP1 POP PUSH2 0x14E6 DUP3 DUP3 PUSH2 0x14A0 JUMP JUMPDEST SWAP2 SWAP1 POP JUMP JUMPDEST PUSH0 PUSH8 0xFFFFFFFFFFFFFFFF DUP3 GT ISZERO PUSH2 0x1505 JUMPI PUSH2 0x1504 PUSH2 0x1473 JUMP JUMPDEST JUMPDEST PUSH2 0x150E DUP3 PUSH2 0x1463 JUMP JUMPDEST SWAP1 POP PUSH1 0x20 DUP2 ADD SWAP1 POP SWAP2 SWAP1 POP JUMP JUMPDEST DUP3 DUP2 DUP4 CALLDATACOPY PUSH0 DUP4 DUP4 ADD MSTORE POP POP POP JUMP JUMPDEST PUSH0 PUSH2 0x153B PUSH2 0x1536 DUP5 PUSH2 0x14EB JUMP JUMPDEST PUSH2 0x14D1 JUMP JUMPDEST SWAP1 POP DUP3 DUP2 MSTORE PUSH1 0x20 DUP2 ADD DUP5 DUP5 DUP5 ADD GT ISZERO PUSH2 0x1557 JUMPI PUSH2 0x1556 PUSH2 0x145F JUMP JUMPDEST JUMPDEST PUSH2 0x1562 DUP5 DUP3 DUP6 PUSH2 0x151B JUMP JUMPDEST POP SWAP4 SWAP3 POP POP POP JUMP JUMPDEST PUSH0 DUP3 PUSH1 0x1F DUP4 ADD SLT PUSH2 0x157E JUMPI PUSH2 0x157D PUSH2 0x145B JUMP JUMPDEST JUMPDEST DUP2 CALLDATALOAD PUSH2 0x158E DUP5 DUP3 PUSH1 0x20 DUP7 ADD PUSH2 0x1529 JUMP JUMPDEST SWAP2 POP POP SWAP3 SWAP2 POP POP JUMP JUMPDEST PUSH0 PUSH1 0x20 DUP3 DUP5 SUB SLT ISZERO PUSH2 0x15AC JUMPI PUSH2 0x15AB PUSH2 0x1453 JUMP JUMPDEST JUMPDEST PUSH0 DUP3 ADD CALLDATALOAD PUSH8 0xFFFFFFFFFFFFFFFF DUP2 GT ISZERO PUSH2 0x15C9 JUMPI PUSH2 0x15C8 PUSH2 0x1457 JUMP JUMPDEST JUMPDEST PUSH2 0x15D5 DUP5 DUP3 DUP6 ADD PUSH2 0x156A JUMP JUMPDEST SWAP2 POP POP SWAP3 SWAP2 POP POP JUMP JUMPDEST PUSH0 DUP2 SWAP1 POP SWAP2 SWAP1 POP JUMP JUMPDEST PUSH2 0x15F0 DUP2 PUSH2 0x15DE JUMP JUMPDEST DUP2 EQ PUSH2 0x15FA JUMPI PUSH0 PUSH0 REVERT JUMPDEST POP JUMP JUMPDEST PUSH0 DUP2 CALLDATALOAD SWAP1 POP PUSH2 0x160B DUP2 PUSH2 0x15E7 JUMP JUMPDEST SWAP3 SWAP2 POP POP JUMP JUMPDEST PUSH0 PUSH1 0x20 DUP3 DUP5 SUB SLT ISZERO PUSH2 0x1626 JUMPI PUSH2 0x1625 PUSH2 0x1453 JUMP JUMPDEST JUMPDEST PUSH0 PUSH2 0x1633 DUP5 DUP3 DUP6 ADD PUSH2 0x15FD JUMP JUMPDEST SWAP2 POP POP SWAP3 SWAP2 POP POP JUMP JUMPDEST PUSH0 PUSH20 0xFFFFFFFFFFFFFFFFFFFFFFFFFFFFFFFFFFFFFFFF DUP3 AND SWAP1 POP SWAP2 SWAP1 POP JUMP JUMPDEST PUSH0 PUSH2 0x1665 DUP3 PUSH2 0x163C JUMP JUMPDEST SWAP1 POP SWAP2 SWAP1 POP JUMP JUMPDEST PUSH2 0x1675 DUP2 PUSH2 0x165B JUMP JUMPDEST DUP3 MSTORE POP POP JUMP JUMPDEST PUSH0 DUP2 MLOAD SWAP1 POP SWAP2 SWAP1 POP JUMP JUMPDEST PUSH0 DUP3 DUP3 MSTORE PUSH1 0x20 DUP3 ADD SWAP1 POP SWAP3 SWAP2 POP POP JUMP JUMPDEST DUP3 DUP2 DUP4 MCOPY PUSH0 DUP4 DUP4 ADD MSTORE POP POP POP JUMP JUMPDEST PUSH0 PUSH2 0x16AD DUP3 PUSH2 0x167B JUMP JUMPDEST PUSH2 0x16B7 DUP2 DUP6 PUSH2 0x1685 JUMP JUMPDEST SWAP4 POP PUSH2 0x16C7 DUP2 DUP6 PUSH1 0x20 DUP7 ADD PUSH2 0x1695 JUMP JUMPDEST PUSH2 0x16D0 DUP2 PUSH2 0x1463 JUMP JUMPDEST DUP5 ADD SWAP2 POP POP SWAP3 SWAP2 POP POP JUMP JUMPDEST PUSH0 DUP2 ISZERO ISZERO SWAP1 POP SWAP2 SWAP1 POP JUMP JUMPDEST PUSH2 0x16EF DUP2 PUSH2 0x16DB JUMP JUMPDEST DUP3 MSTORE POP POP JUMP JUMPDEST PUSH2 0x16FE DUP2 PUSH2 0x15DE JUMP JUMPDEST DUP3 MSTORE POP POP JUMP JUMPDEST PUSH0 PUSH1 0x80 DUP3 ADD SWAP1 POP PUSH2 0x1717 PUSH0 DUP4 ADD DUP8 PUSH2 0x166C JUMP JUMPDEST DUP2 DUP2 SUB PUSH1 0x20 DUP4 ADD MSTORE PUSH2 0x1729 DUP2 DUP7 PUSH2 0x16A3 JUMP JUMPDEST SWAP1 POP PUSH2 0x1738 PUSH1 0x40 DUP4 ADD DUP6 PUSH2 0x16E6 JUMP JUMPDEST PUSH2 0x1745 PUSH1 0x60 DUP4 ADD DUP5 PUSH2 0x16F5 JUMP JUMPDEST SWAP6 SWAP5 POP POP POP POP POP JUMP JUMPDEST PUSH2 0x1757 DUP2 PUSH2 0x165B JUMP JUMPDEST DUP2 EQ PUSH2 0x1761 JUMPI PUSH0 PUSH0 REVERT JUMPDEST POP JUMP JUMPDEST PUSH0 DUP2 CALLDATALOAD SWAP1 POP PUSH2 0x1772 DUP2 PUSH2 0x174E JUMP JUMPDEST SWAP3 SWAP2 POP POP JUMP JUMPDEST PUSH0 PUSH0 PUSH1 0x40 DUP4 DUP6 SUB SLT ISZERO PUSH2 0x178E JUMPI PUSH2 0x178D PUSH2 0x1453 JUMP JUMPDEST JUMPDEST PUSH0 PUSH2 0x179B DUP6 DUP3 DUP7 ADD PUSH2 0x15FD JUMP JUMPDEST SWAP3 POP POP PUSH1 0x20 PUSH2 0x17AC DUP6 DUP3 DUP7 ADD PUSH2 0x1764 JUMP JUMPDEST SWAP2 POP POP SWAP3 POP SWAP3 SWAP1 POP JUMP JUMPDEST PUSH0 PUSH1 0x20 DUP3 ADD SWAP1 POP PUSH2 0x17C9 PUSH0 DUP4 ADD DUP5 PUSH2 0x166C JUMP JUMPDEST SWAP3 SWAP2 POP POP JUMP JUMPDEST PUSH0 PUSH1 0x20 DUP3 ADD SWAP1 POP PUSH2 0x17E2 PUSH0 DUP4 ADD DUP5 PUSH2 0x16F5 JUMP JUMPDEST SWAP3 SWAP2 POP POP JUMP JUMPDEST PUSH0 PUSH2 0x100 DUP3 ADD SWAP1 POP PUSH2 0x17FC PUSH0 DUP4 ADD DUP12 PUSH2 0x16F5 JUMP JUMPDEST DUP2 DUP2 SUB PUSH1 0x20 DUP4 ADD MSTORE PUSH2 0x180E DUP2 DUP11 PUSH2 0x16A3 JUMP JUMPDEST SWAP1 POP PUSH2 0x181D PUSH1 0x40 DUP4 ADD DUP10 PUSH2 0x166C JUMP JUMPDEST PUSH2 0x182A PUSH1 0x60 DUP4 ADD DUP9 PUSH2 0x16E6 JUMP JUMPDEST PUSH2 0x1837 PUSH1 0x80 DUP4 ADD DUP8 PUSH2 0x166C JUMP JUMPDEST PUSH2 0x1844 PUSH1 0xA0 DUP4 ADD DUP7 PUSH2 0x166C JUMP JUMPDEST PUSH2 0x1851 PUSH1 0xC0 DUP4 ADD DUP6 PUSH2 0x16F5 JUMP JUMPDEST PUSH2 0x185E PUSH1 0xE0 DUP4 ADD DUP5 PUSH2 0x16F5 JUMP JUMPDEST SWAP10 SWAP9 POP POP POP POP POP POP POP POP POP JUMP JUMPDEST PUSH32 0x4E487B7100000000000000000000000000000000000000000000000000000000 PUSH0 MSTORE PUSH1 0x22 PUSH1 0x4 MSTORE PUSH1 0x24 PUSH0 REVERT JUMPDEST PUSH0 PUSH1 0x2 DUP3 DIV SWAP1 POP PUSH1 0x1 DUP3 AND DUP1 PUSH2 0x18AF JUMPI PUSH1 0x7F DUP3 AND SWAP2 POP JUMPDEST PUSH1 0x20 DUP3 LT DUP2 SUB PUSH2 0x18C2 JUMPI PUSH2 0x18C1 PUSH2 0x186B JUMP JUMPDEST JUMPDEST POP SWAP2 SWAP1 POP JUMP JUMPDEST PUSH0 DUP2 SWAP1 POP DUP2 PUSH0 MSTORE PUSH1 0x20 PUSH0 KECCAK256 SWAP1 POP SWAP2 SWAP1 POP JUMP JUMPDEST PUSH0 PUSH1 0x20 PUSH1 0x1F DUP4 ADD DIV SWAP1 POP SWAP2 SWAP1 POP JUMP JUMPDEST PUSH0 DUP3 DUP3 SHL SWAP1 POP SWAP3 SWAP2 POP POP JUMP JUMPDEST PUSH0 PUSH1 0x8 DUP4 MUL PUSH2 0x1924 PUSH32 0xFFFFFFFFFFFFFFFFFFFFFFFFFFFFFFFFFFFFFFFFFFFFFFFFFFFFFFFFFFFFFFFF DUP3 PUSH2 0x18E9 JUMP JUMPDEST PUSH2 0x192E DUP7 DUP4 PUSH2 0x18E9 JUMP JUMPDEST SWAP6 POP DUP1 NOT DUP5 AND SWAP4 POP DUP1 DUP7 AND DUP5 OR SWAP3 POP POP POP SWAP4 SWAP3 POP POP POP JUMP JUMPDEST PUSH0 DUP2 SWAP1 POP SWAP2 SWAP1 POP JUMP JUMPDEST PUSH0 PUSH2 0x1969 PUSH2 0x1964 PUSH2 0x195F DUP5 PUSH2 0x15DE JUMP JUMPDEST PUSH2 0x1946 JUMP JUMPDEST PUSH2 0x15DE JUMP JUMPDEST SWAP1 POP SWAP2 SWAP1 POP JUMP JUMPDEST PUSH0 DUP2 SWAP1 POP SWAP2 SWAP1 POP JUMP JUMPDEST PUSH2 0x1982 DUP4 PUSH2 0x194F JUMP JUMPDEST PUSH2 0x1996 PUSH2 0x198E DUP3 PUSH2 0x1970 JUMP JUMPDEST DUP5 DUP5 SLOAD PUSH2 0x18F5 JUMP JUMPDEST DUP3 SSTORE POP POP POP POP JUMP JUMPDEST PUSH0 PUSH0 SWAP1 POP SWAP1 JUMP JUMPDEST PUSH2 0x19AD PUSH2 0x199E JUMP JUMPDEST PUSH2 0x19B8 DUP2 DUP5 DUP5 PUSH2 0x1979 JUMP JUMPDEST POP POP POP JUMP JUMPDEST JUMPDEST DUP2 DUP2 LT ISZERO PUSH2 0x19DB JUMPI PUSH2 0x19D0 PUSH0 DUP3 PUSH2 0x19A5 JUMP JUMPDEST PUSH1 0x1 DUP2 ADD SWAP1 POP PUSH2 0x19BE JUMP JUMPDEST POP POP JUMP JUMPDEST PUSH1 0x1F DUP3 GT ISZERO PUSH2 0x1A20 JUMPI PUSH2 0x19F1 DUP2 PUSH2 0x18C8 JUMP JUMPDEST PUSH2 0x19FA DUP5 PUSH2 0x18DA JUMP JUMPDEST DUP2 ADD PUSH1 0x20 DUP6 LT ISZERO PUSH2 0x1A09 JUMPI DUP2 SWAP1 POP JUMPDEST PUSH2 0x1A1D PUSH2 0x1A15 DUP6 PUSH2 0x18DA JUMP JUMPDEST DUP4 ADD DUP3 PUSH2 0x19BD JUMP JUMPDEST POP POP JUMPDEST POP POP POP JUMP JUMPDEST PUSH0 DUP3 DUP3 SHR SWAP1 POP SWAP3 SWAP2 POP POP JUMP JUMPDEST PUSH0 PUSH2 0x1A40 PUSH0 NOT DUP5 PUSH1 0x8 MUL PUSH2 0x1A25 JUMP JUMPDEST NOT DUP1 DUP4 AND SWAP2 POP POP SWAP3 SWAP2 POP POP JUMP JUMPDEST PUSH0 PUSH2 0x1A58 DUP4 DUP4 PUSH2 0x1A31 JUMP JUMPDEST SWAP2 POP DUP3 PUSH1 0x2 MUL DUP3 OR SWAP1 POP SWAP3 SWAP2 POP POP JUMP JUMPDEST PUSH2 0x1A71 DUP3 PUSH2 0x167B JUMP JUMPDEST PUSH8 0xFFFFFFFFFFFFFFFF DUP2 GT ISZERO PUSH2 0x1A8A JUMPI PUSH2 0x1A89 PUSH2 0x1473 JUMP JUMPDEST JUMPDEST PUSH2 0x1A94 DUP3 SLOAD PUSH2 0x1898 JUMP JUMPDEST PUSH2 0x1A9F DUP3 DUP3 DUP6 PUSH2 0x19DF JUMP JUMPDEST PUSH0 PUSH1 0x20 SWAP1 POP PUSH1 0x1F DUP4 GT PUSH1 0x1 DUP2 EQ PUSH2 0x1AD0 JUMPI PUSH0 DUP5 ISZERO PUSH2 0x1ABE JUMPI DUP3 DUP8 ADD MLOAD SWAP1 POP JUMPDEST PUSH2 0x1AC8 DUP6 DUP3 PUSH2 0x1A4D JUMP JUMPDEST DUP7 SSTORE POP PUSH2 0x1B2F JUMP JUMPDEST PUSH1 0x1F NOT DUP5 AND PUSH2 0x1ADE DUP7 PUSH2 0x18C8 JUMP JUMPDEST PUSH0 JUMPDEST DUP3 DUP2 LT ISZERO PUSH2 0x1B05 JUMPI DUP5 DUP10 ADD MLOAD DUP3 SSTORE PUSH1 0x1 DUP3 ADD SWAP2 POP PUSH1 0x20 DUP6 ADD SWAP5 POP PUSH1 0x20 DUP2 ADD SWAP1 POP PUSH2 0x1AE0 JUMP JUMPDEST DUP7 DUP4 LT ISZERO PUSH2 0x1B22 JUMPI DUP5 DUP10 ADD MLOAD PUSH2 0x1B1E PUSH1 0x1F DUP10 AND DUP3 PUSH2 0x1A31 JUMP JUMPDEST DUP4 SSTORE POP JUMPDEST PUSH1 0x1 PUSH1 0x2 DUP9 MUL ADD DUP9 SSTORE POP POP POP JUMPDEST POP POP POP POP POP POP JUMP JUMPDEST PUSH32 0x4E487B7100000000000000000000000000000000000000000000000000000000 PUSH0 MSTORE PUSH1 0x32 PUSH1 0x4 MSTORE PUSH1 0x24 PUSH0 REVERT JUMPDEST PUSH0 DUP2 SLOAD SWAP1 POP PUSH2 0x1B72 DUP2 PUSH2 0x1898 JUMP JUMPDEST SWAP1 POP SWAP2 SWAP1 POP JUMP JUMPDEST DUP2 DUP2 SUB PUSH2 0x1B87 JUMPI POP POP PUSH2 0x1C5C JUMP JUMPDEST PUSH2 0x1B90 DUP3 PUSH2 0x1B64 JUMP JUMPDEST PUSH8 0xFFFFFFFFFFFFFFFF DUP2 GT ISZERO PUSH2 0x1BA9 JUMPI PUSH2 0x1BA8 PUSH2 0x1473 JUMP JUMPDEST JUMPDEST PUSH2 0x1BB3 DUP3 SLOAD PUSH2 0x1898 JUMP JUMPDEST PUSH2 0x1BBE DUP3 DUP3 DUP6 PUSH2 0x19DF JUMP JUMPDEST PUSH0 PUSH1 0x1F DUP4 GT PUSH1 0x1 DUP2 EQ PUSH2 0x1BEB JUMPI PUSH0 DUP5 ISZERO PUSH2 0x1BD9 JUMPI DUP3 DUP8 ADD SLOAD SWAP1 POP JUMPDEST PUSH2 0x1BE3 DUP6 DUP3 PUSH2 0x1A4D JUMP JUMPDEST DUP7 SSTORE POP PUSH2 0x1C55 JUMP JUMPDEST PUSH1 0x1F NOT DUP5 AND PUSH2 0x1BF9 DUP8 PUSH2 0x18C8 JUMP JUMPDEST SWAP7 POP PUSH2 0x1C04 DUP7 PUSH2 0x18C8 JUMP JUMPDEST PUSH0 JUMPDEST DUP3 DUP2 LT ISZERO PUSH2 0x1C2B JUMPI DUP5 DUP10 ADD SLOAD DUP3 SSTORE PUSH1 0x1 DUP3 ADD SWAP2 POP PUSH1 0x1 DUP6 ADD SWAP5 POP PUSH1 0x20 DUP2 ADD SWAP1 POP PUSH2 0x1C06 JUMP JUMPDEST DUP7 DUP4 LT ISZERO PUSH2 0x1C48 JUMPI DUP5 DUP10 ADD SLOAD PUSH2 0x1C44 PUSH1 0x1F DUP10 AND DUP3 PUSH2 0x1A31 JUMP JUMPDEST DUP4 SSTORE POP JUMPDEST PUSH1 0x1 PUSH1 0x2 DUP9 MUL ADD DUP9 SSTORE POP POP POP JUMPDEST POP POP POP POP POP POP JUMPDEST JUMP JUMPDEST PUSH32 0x4E487B7100000000000000000000000000000000000000000000000000000000 PUSH0 MSTORE PUSH1 0x11 PUSH1 0x4 MSTORE PUSH1 0x24 PUSH0 REVERT JUMPDEST PUSH0 PUSH2 0x1C95 DUP3 PUSH2 0x15DE JUMP JUMPDEST SWAP2 POP PUSH2 0x1CA0 DUP4 PUSH2 0x15DE JUMP JUMPDEST SWAP3 POP DUP3 DUP3 ADD SWAP1 POP DUP1 DUP3 GT ISZERO PUSH2 0x1CB8 JUMPI PUSH2 0x1CB7 PUSH2 0x1C5E JUMP JUMPDEST JUMPDEST SWAP3 SWAP2 POP POP JUMP INVALID LOG2 PUSH5 0x6970667358 0x22 SLT KECCAK256 PUSH31 0xA626947CBFF72EC98D5020667440FCECC0F77A7D9BBCE0CD53B78F1B9BCB96 PUSH5 0x736F6C6343 STOP ADDMOD 0x1E STOP CALLER "
				},
				"gasEstimates": {
					"creation": {
						"codeDepositCost": "1482400",
						"executionCost": "1546",
						"totalCost": "1483946"
					},
					"external": {
						"addMedicine(string)": "infinite",
						"approveDistributor(uint256,address)": "infinite",
						"approveMedicine(uint256)": "infinite",
						"companies(uint256)": "infinite",
						"companyAddresses(uint256)": "5055",
						"dispatchMedicine(uint256)": "infinite",
						"medicineCounter()": "2447",
						"medicineIds(uint256)": "infinite",
						"medicines(uint256)": "infinite",
						"registerCompany(string)": "infinite",
						"removeDistributor(uint256)": "infinite",
						"transferOwnership(uint256,address)": "infinite"
					}
				},
				"methodIdentifiers": {
					"addMedicine(string)": "60234f10",
					"approveDistributor(uint256,address)": "bfc6e00a",
					"approveMedicine(uint256)": "7fd6a66b",
					"companies(uint256)": "2813d19d",
					"companyAddresses(uint256)": "99687845",
					"dispatchMedicine(uint256)": "f3e00839",
					"medicineCounter()": "ac859a4b",
					"medicineIds(uint256)": "a5d7cedd",
					"medicines(uint256)": "c85e766d",
					"registerCompany(string)": "00544194",
					"removeDistributor(uint256)": "aca9daa3",
					"transferOwnership(uint256,address)": "29507f73"
				}
			},
			"storageLayout": {
				"storage": [
					{
						"astId": 31,
						"contract": "unoptimized pharmaceutical supplychain.sol:PharmaceuticalSupplyChain",
						"label": "companies",
						"offset": 0,
						"slot": "0",
						"type": "t_array(t_struct(Company)10_storage)dyn_storage"
					},
					{
						"astId": 35,
						"contract": "unoptimized pharmaceutical supplychain.sol:PharmaceuticalSupplyChain",
						"label": "medicines",
						"offset": 0,
						"slot": "1",
						"type": "t_array(t_struct(Medicine)27_storage)dyn_storage"
					},
					{
						"astId": 38,
						"contract": "unoptimized pharmaceutical supplychain.sol:PharmaceuticalSupplyChain",
						"label": "medicineIds",
						"offset": 0,
						"slot": "2",
						"type": "t_array(t_uint256)dyn_storage"
					},
					{
						"astId": 41,
						"contract": "unoptimized pharmaceutical supplychain.sol:PharmaceuticalSupplyChain",
						"label": "companyAddresses",
						"offset": 0,
						"slot": "3",
						"type": "t_array(t_address)dyn_storage"
					},
					{
						"astId": 43,
						"contract": "unoptimized pharmaceutical supplychain.sol:PharmaceuticalSupplyChain",
						"label": "medicineCounter",
						"offset": 0,
						"slot": "4",
						"type": "t_uint256"
					}
				],
				"types": {
					"t_address": {
						"encoding": "inplace",
						"label": "address",
						"numberOfBytes": "20"
					},
					"t_array(t_address)dyn_storage": {
						"base": "t_address",
						"encoding": "dynamic_array",
						"label": "address[]",
						"numberOfBytes": "32"
					},
					"t_array(t_struct(Company)10_storage)dyn_storage": {
						"base": "t_struct(Company)10_storage",
						"encoding": "dynamic_array",
						"label": "struct PharmaceuticalSupplyChain.Company[]",
						"numberOfBytes": "32"
					},
					"t_array(t_struct(Medicine)27_storage)dyn_storage": {
						"base": "t_struct(Medicine)27_storage",
						"encoding": "dynamic_array",
						"label": "struct PharmaceuticalSupplyChain.Medicine[]",
						"numberOfBytes": "32"
					},
					"t_array(t_uint256)dyn_storage": {
						"base": "t_uint256",
						"encoding": "dynamic_array",
						"label": "uint256[]",
						"numberOfBytes": "32"
					},
					"t_bool": {
						"encoding": "inplace",
						"label": "bool",
						"numberOfBytes": "1"
					},
					"t_string_storage": {
						"encoding": "bytes",
						"label": "string",
						"numberOfBytes": "32"
					},
					"t_struct(Company)10_storage": {
						"encoding": "inplace",
						"label": "struct PharmaceuticalSupplyChain.Company",
						"members": [
							{
								"astId": 3,
								"contract": "unoptimized pharmaceutical supplychain.sol:PharmaceuticalSupplyChain",
								"label": "companyAddress",
								"offset": 0,
								"slot": "0",
								"type": "t_address"
							},
							{
								"astId": 5,
								"contract": "unoptimized pharmaceutical supplychain.sol:PharmaceuticalSupplyChain",
								"label": "name",
								"offset": 0,
								"slot": "1",
								"type": "t_string_storage"
							},
							{
								"astId": 7,
								"contract": "unoptimized pharmaceutical supplychain.sol:PharmaceuticalSupplyChain",
								"label": "approved",
								"offset": 0,
								"slot": "2",
								"type": "t_bool"
							},
							{
								"astId": 9,
								"contract": "unoptimized pharmaceutical supplychain.sol:PharmaceuticalSupplyChain",
								"label": "createdAt",
								"offset": 0,
								"slot": "3",
								"type": "t_uint256"
							}
						],
						"numberOfBytes": "128"
					},
					"t_struct(Medicine)27_storage": {
						"encoding": "inplace",
						"label": "struct PharmaceuticalSupplyChain.Medicine",
						"members": [
							{
								"astId": 12,
								"contract": "unoptimized pharmaceutical supplychain.sol:PharmaceuticalSupplyChain",
								"label": "medicineId",
								"offset": 0,
								"slot": "0",
								"type": "t_uint256"
							},
							{
								"astId": 14,
								"contract": "unoptimized pharmaceutical supplychain.sol:PharmaceuticalSupplyChain",
								"label": "name",
								"offset": 0,
								"slot": "1",
								"type": "t_string_storage"
							},
							{
								"astId": 16,
								"contract": "unoptimized pharmaceutical supplychain.sol:PharmaceuticalSupplyChain",
								"label": "manufacturer",
								"offset": 0,
								"slot": "2",
								"type": "t_address"
							},
							{
								"astId": 18,
								"contract": "unoptimized pharmaceutical supplychain.sol:PharmaceuticalSupplyChain",
								"label": "approved",
								"offset": 20,
								"slot": "2",
								"type": "t_bool"
							},
							{
								"astId": 20,
								"contract": "unoptimized pharmaceutical supplychain.sol:PharmaceuticalSupplyChain",
								"label": "distributor",
								"offset": 0,
								"slot": "3",
								"type": "t_address"
							},
							{
								"astId": 22,
								"contract": "unoptimized pharmaceutical supplychain.sol:PharmaceuticalSupplyChain",
								"label": "owner",
								"offset": 0,
								"slot": "4",
								"type": "t_address"
							},
							{
								"astId": 24,
								"contract": "unoptimized pharmaceutical supplychain.sol:PharmaceuticalSupplyChain",
								"label": "createdAt",
								"offset": 0,
								"slot": "5",
								"type": "t_uint256"
							},
							{
								"astId": 26,
								"contract": "unoptimized pharmaceutical supplychain.sol:PharmaceuticalSupplyChain",
								"label": "updatedAt",
								"offset": 0,
								"slot": "6",
								"type": "t_uint256"
							}
						],
						"numberOfBytes": "224"
					},
					"t_uint256": {
						"encoding": "inplace",
						"label": "uint256",
						"numberOfBytes": "32"
					}
				}
			},
			"userdoc": {
				"kind": "user",
				"methods": {},
				"version": 1
			}
		}
	}
}