{
	"Unoptimized Project Manager Contract.sol": {
		"ProjectManager": {
			"abi": [
				{
					"inputs": [
						{
							"internalType": "uint256",
							"name": "_projectId",
							"type": "uint256"
						},
						{
							"internalType": "address",
							"name": "_contractor",
							"type": "address"
						}
					],
					"name": "assignContractor",
					"outputs": [],
					"stateMutability": "nonpayable",
					"type": "function"
				},
				{
					"inputs": [
						{
							"internalType": "uint256",
							"name": "",
							"type": "uint256"
						}
					],
					"name": "contractors",
					"outputs": [
						{
							"internalType": "address",
							"name": "contractorAddress",
							"type": "address"
						},
						{
							"internalType": "string",
							"name": "name",
							"type": "string"
						},
						{
							"internalType": "bool",
							"name": "isRegistered",
							"type": "bool"
						}
					],
					"stateMutability": "view",
					"type": "function"
				},
				{
					"inputs": [
						{
							"internalType": "string",
							"name": "_name",
							"type": "string"
						}
					],
					"name": "createProject",
					"outputs": [],
					"stateMutability": "nonpayable",
					"type": "function"
				},
				{
					"inputs": [
						{
							"internalType": "uint256",
							"name": "_projectId",
							"type": "uint256"
						}
					],
					"name": "findProject",
					"outputs": [
						{
							"components": [
								{
									"internalType": "uint256",
									"name": "projectId",
									"type": "uint256"
								},
								{
									"internalType": "string",
									"name": "projectName",
									"type": "string"
								},
								{
									"internalType": "address",
									"name": "assignedContractor",
									"type": "address"
								},
								{
									"internalType": "string",
									"name": "status",
									"type": "string"
								},
								{
									"internalType": "bool",
									"name": "exists",
									"type": "bool"
								}
							],
							"internalType": "struct ProjectManager.Project",
							"name": "",
							"type": "tuple"
						}
					],
					"stateMutability": "view",
					"type": "function"
				},
				{
					"inputs": [
						{
							"internalType": "address",
							"name": "_addr",
							"type": "address"
						}
					],
					"name": "isContractorRegistered",
					"outputs": [
						{
							"internalType": "bool",
							"name": "",
							"type": "bool"
						}
					],
					"stateMutability": "view",
					"type": "function"
				},
				{
					"inputs": [],
					"name": "projectCounter",
					"outputs": [
						{
							"internalType": "uint256",
							"name": "",
							"type": "uint256"
						}
					],
					"stateMutability": "view",
					"type": "function"
				},
				{
					"inputs": [
						{
							"internalType": "uint256",
							"name": "",
							"type": "uint256"
						}
					],
					"name": "projects",
					"outputs": [
						{
							"internalType": "uint256",
							"name": "projectId",
							"type": "uint256"
						},
						{
							"internalType": "string",
							"name": "projectName",
							"type": "string"
						},
						{
							"internalType": "address",
							"name": "assignedContractor",
							"type": "address"
						},
						{
							"internalType": "string",
							"name": "status",
							"type": "string"
						},
						{
							"internalType": "bool",
							"name": "exists",
							"type": "bool"
						}
					],
					"stateMutability": "view",
					"type": "function"
				},
				{
					"inputs": [
						{
							"internalType": "string",
							"name": "_name",
							"type": "string"
						}
					],
					"name": "registerContractor",
					"outputs": [],
					"stateMutability": "nonpayable",
					"type": "function"
				},
				{
					"inputs": [
						{
							"internalType": "uint256",
							"name": "_projectId",
							"type": "uint256"
						},
						{
							"internalType": "string",
							"name": "_status",
							"type": "string"
						}
					],
					"name": "updateProjectStatus",
					"outputs": [],
					"stateMutability": "nonpayable",
					"type": "function"
				}
			],
			"devdoc": {
				"kind": "dev",
				"methods": {},
				"version": 1
			},
			"evm": {
				"assembly": "    /* \"Unoptimized Project Manager Contract.sol\":61:2231  contract ProjectManager {... */\n  mstore(0x40, 0x80)\n  callvalue\n  dup1\n  iszero\n  tag_1\n  jumpi\n  revert(0x00, 0x00)\ntag_1:\n  pop\n  dataSize(sub_0)\n  dup1\n  dataOffset(sub_0)\n  0x00\n  codecopy\n  0x00\n  return\nstop\n\nsub_0: assembly {\n        /* \"Unoptimized Project Manager Contract.sol\":61:2231  contract ProjectManager {... */\n      mstore(0x40, 0x80)\n      callvalue\n      dup1\n      iszero\n      tag_1\n      jumpi\n      revert(0x00, 0x00)\n    tag_1:\n      pop\n      jumpi(tag_2, lt(calldatasize, 0x04))\n      shr(0xe0, calldataload(0x00))\n      dup1\n      0x3481a95a\n      gt\n      tag_12\n      jumpi\n      dup1\n      0x3481a95a\n      eq\n      tag_7\n      jumpi\n      dup1\n      0x3e891180\n      eq\n      tag_8\n      jumpi\n      dup1\n      0xbb0e9df6\n      eq\n      tag_9\n      jumpi\n      dup1\n      0xbb60762e\n      eq\n      tag_10\n      jumpi\n      dup1\n      0xf8a518ed\n      eq\n      tag_11\n      jumpi\n      revert(0x00, 0x00)\n    tag_12:\n      dup1\n      0x107046bd\n      eq\n      tag_3\n      jumpi\n      dup1\n      0x15ee4df1\n      eq\n      tag_4\n      jumpi\n      dup1\n      0x30445b48\n      eq\n      tag_5\n      jumpi\n      dup1\n      0x3434d6d5\n      eq\n      tag_6\n      jumpi\n    tag_2:\n      revert(0x00, 0x00)\n        /* \"Unoptimized Project Manager Contract.sol\":423:448  Project[] public projects */\n    tag_3:\n      tag_13\n      tag_14\n      calldatasize\n      0x04\n      tag_15\n      jump\t// in\n    tag_14:\n      tag_16\n      jump\t// in\n    tag_13:\n      mload(0x40)\n      tag_17\n      swap6\n      swap5\n      swap4\n      swap3\n      swap2\n      swap1\n      tag_18\n      jump\t// in\n    tag_17:\n      mload(0x40)\n      dup1\n      swap2\n      sub\n      swap1\n      return\n        /* \"Unoptimized Project Manager Contract.sol\":1025:1196  function createProject(string memory _name) public {... */\n    tag_4:\n      tag_19\n      tag_20\n      calldatasize\n      0x04\n      tag_21\n      jump\t// in\n    tag_20:\n      tag_22\n      jump\t// in\n    tag_19:\n      stop\n        /* \"Unoptimized Project Manager Contract.sol\":523:651  function registerContractor(string memory _name) public {... */\n    tag_5:\n      tag_19\n      tag_24\n      calldatasize\n      0x04\n      tag_21\n      jump\t// in\n    tag_24:\n      tag_25\n      jump\t// in\n        /* \"Unoptimized Project Manager Contract.sol\":1246:1602  function assignContractor(uint256 _projectId, address _contractor) public {... */\n    tag_6:\n      tag_19\n      tag_27\n      calldatasize\n      0x04\n      tag_28\n      jump\t// in\n    tag_27:\n      tag_29\n      jump\t// in\n        /* \"Unoptimized Project Manager Contract.sol\":385:416  Contractor[] public contractors */\n    tag_7:\n      tag_30\n      tag_31\n      calldatasize\n      0x04\n      tag_15\n      jump\t// in\n    tag_31:\n      tag_32\n      jump\t// in\n    tag_30:\n      mload(0x40)\n      tag_17\n      swap4\n      swap3\n      swap2\n      swap1\n      tag_34\n      jump\t// in\n        /* \"Unoptimized Project Manager Contract.sol\":1939:2228  function findProject(uint256 _projectId) public view returns (Project memory) {... */\n    tag_8:\n      tag_35\n      tag_36\n      calldatasize\n      0x04\n      tag_15\n      jump\t// in\n    tag_36:\n      tag_37\n      jump\t// in\n    tag_35:\n      mload(0x40)\n      tag_17\n      swap2\n      swap1\n      tag_39\n      jump\t// in\n        /* \"Unoptimized Project Manager Contract.sol\":1640:1910  function updateProjectStatus(uint256 _projectId, string memory _status) public {... */\n    tag_9:\n      tag_19\n      tag_41\n      calldatasize\n      0x04\n      tag_42\n      jump\t// in\n    tag_41:\n      tag_43\n      jump\t// in\n        /* \"Unoptimized Project Manager Contract.sol\":714:994  function isContractorRegistered(address _addr) public view returns (bool) {... */\n    tag_10:\n      tag_44\n      tag_45\n      calldatasize\n      0x04\n      tag_46\n      jump\t// in\n    tag_45:\n      tag_47\n      jump\t// in\n    tag_44:\n      mload(0x40)\n        /* \"#utility.yul\":4835:4849   */\n      swap1\n      iszero\n        /* \"#utility.yul\":4828:4850   */\n      iszero\n        /* \"#utility.yul\":4810:4851   */\n      dup2\n      mstore\n        /* \"#utility.yul\":4798:4800   */\n      0x20\n        /* \"#utility.yul\":4783:4801   */\n      add\n        /* \"Unoptimized Project Manager Contract.sol\":714:994  function isContractorRegistered(address _addr) public view returns (bool) {... */\n      tag_17\n        /* \"#utility.yul\":4670:4857   */\n      jump\n        /* \"Unoptimized Project Manager Contract.sol\":457:486  uint256 public projectCounter */\n    tag_11:\n      tag_50\n      sload(0x02)\n      dup2\n      jump\n    tag_50:\n      mload(0x40)\n        /* \"#utility.yul\":5008:5033   */\n      swap1\n      dup2\n      mstore\n        /* \"#utility.yul\":4996:4998   */\n      0x20\n        /* \"#utility.yul\":4981:4999   */\n      add\n        /* \"Unoptimized Project Manager Contract.sol\":457:486  uint256 public projectCounter */\n      tag_17\n        /* \"#utility.yul\":4862:5039   */\n      jump\n        /* \"Unoptimized Project Manager Contract.sol\":423:448  Project[] public projects */\n    tag_16:\n      0x01\n      dup2\n      dup2\n      sload\n      dup2\n      lt\n      tag_54\n      jumpi\n      0x00\n      dup1\n      revert\n    tag_54:\n      0x00\n      swap2\n      dup3\n      mstore\n      0x20\n      swap1\n      swap2\n      keccak256\n      0x05\n      swap1\n      swap2\n      mul\n      add\n      dup1\n      sload\n      0x01\n      dup3\n      add\n      dup1\n      sload\n      swap2\n      swap4\n      pop\n      swap1\n      tag_56\n      swap1\n      tag_57\n      jump\t// in\n    tag_56:\n      dup1\n      0x1f\n      add\n      0x20\n      dup1\n      swap2\n      div\n      mul\n      0x20\n      add\n      mload(0x40)\n      swap1\n      dup2\n      add\n      0x40\n      mstore\n      dup1\n      swap3\n      swap2\n      swap1\n      dup2\n      dup2\n      mstore\n      0x20\n      add\n      dup3\n      dup1\n      sload\n      tag_58\n      swap1\n      tag_57\n      jump\t// in\n    tag_58:\n      dup1\n      iszero\n      tag_59\n      jumpi\n      dup1\n      0x1f\n      lt\n      tag_60\n      jumpi\n      0x0100\n      dup1\n      dup4\n      sload\n      div\n      mul\n      dup4\n      mstore\n      swap2\n      0x20\n      add\n      swap2\n      jump(tag_59)\n    tag_60:\n      dup3\n      add\n      swap2\n      swap1\n      0x00\n      mstore\n      keccak256(0x00, 0x20)\n      swap1\n    tag_61:\n      dup2\n      sload\n      dup2\n      mstore\n      swap1\n      0x01\n      add\n      swap1\n      0x20\n      add\n      dup1\n      dup4\n      gt\n      tag_61\n      jumpi\n      dup3\n      swap1\n      sub\n      0x1f\n      and\n      dup3\n      add\n      swap2\n    tag_59:\n      pop\n      pop\n      pop\n      0x02\n      dup5\n      add\n      sload\n      0x03\n      dup6\n      add\n      dup1\n      sload\n      swap5\n      swap6\n      sub(shl(0xa0, 0x01), 0x01)\n      swap1\n      swap3\n      and\n      swap5\n      swap2\n      swap4\n      pop\n      swap2\n      pop\n      tag_62\n      swap1\n      tag_57\n      jump\t// in\n    tag_62:\n      dup1\n      0x1f\n      add\n      0x20\n      dup1\n      swap2\n      div\n      mul\n      0x20\n      add\n      mload(0x40)\n      swap1\n      dup2\n      add\n      0x40\n      mstore\n      dup1\n      swap3\n      swap2\n      swap1\n      dup2\n      dup2\n      mstore\n      0x20\n      add\n      dup3\n      dup1\n      sload\n      tag_63\n      swap1\n      tag_57\n      jump\t// in\n    tag_63:\n      dup1\n      iszero\n      tag_64\n      jumpi\n      dup1\n      0x1f\n      lt\n      tag_65\n      jumpi\n      0x0100\n      dup1\n      dup4\n      sload\n      div\n      mul\n      dup4\n      mstore\n      swap2\n      0x20\n      add\n      swap2\n      jump(tag_64)\n    tag_65:\n      dup3\n      add\n      swap2\n      swap1\n      0x00\n      mstore\n      keccak256(0x00, 0x20)\n      swap1\n    tag_66:\n      dup2\n      sload\n      dup2\n      mstore\n      swap1\n      0x01\n      add\n      swap1\n      0x20\n      add\n      dup1\n      dup4\n      gt\n      tag_66\n      jumpi\n      dup3\n      swap1\n      sub\n      0x1f\n      and\n      dup3\n      add\n      swap2\n    tag_64:\n      pop\n      pop\n      pop\n      0x04\n      swap1\n      swap4\n      add\n      sload\n      swap2\n      swap3\n      pop\n      pop\n      0xff\n      and\n      dup6\n      jump\t// out\n        /* \"Unoptimized Project Manager Contract.sol\":1025:1196  function createProject(string memory _name) public {... */\n    tag_22:\n        /* \"Unoptimized Project Manager Contract.sol\":1087:1101  projectCounter */\n      0x02\n        /* \"Unoptimized Project Manager Contract.sol\":1087:1103  projectCounter++ */\n      dup1\n      sload\n      swap1\n        /* \"Unoptimized Project Manager Contract.sol\":1087:1101  projectCounter */\n      0x00\n        /* \"Unoptimized Project Manager Contract.sol\":1087:1103  projectCounter++ */\n      tag_68\n      dup4\n      tag_69\n      jump\t// in\n    tag_68:\n      swap1\n      swap2\n      sstore\n      pop\n      pop\n        /* \"Unoptimized Project Manager Contract.sol\":1128:1187  Project(projectCounter, _name, address(0), \"Created\", true) */\n      0x40\n      dup1\n      mload\n      0xa0\n      dup2\n      add\n      dup3\n      mstore\n        /* \"Unoptimized Project Manager Contract.sol\":1136:1150  projectCounter */\n      sload(0x02)\n        /* \"Unoptimized Project Manager Contract.sol\":1128:1187  Project(projectCounter, _name, address(0), \"Created\", true) */\n      dup2\n      mstore\n      0x20\n      dup1\n      dup3\n      add\n      dup5\n      dup2\n      mstore\n      0x00\n      dup4\n      dup6\n      add\n      dup2\n      swap1\n      mstore\n      dup5\n      mload\n      dup1\n      dup7\n      add\n      swap1\n      swap6\n      mstore\n      0x07\n      dup6\n      mstore\n      shl(0xca, 0x10dc99585d1959)\n      swap3\n      dup6\n      add\n      swap3\n      swap1\n      swap3\n      mstore\n      0x60\n      dup4\n      add\n      swap4\n      swap1\n      swap4\n      mstore\n        /* \"Unoptimized Project Manager Contract.sol\":1114:1122  projects */\n      0x01\n        /* \"Unoptimized Project Manager Contract.sol\":1128:1187  Project(projectCounter, _name, address(0), \"Created\", true) */\n      0x80\n      dup4\n      add\n      dup2\n      swap1\n      mstore\n        /* \"Unoptimized Project Manager Contract.sol\":1114:1188  projects.push(Project(projectCounter, _name, address(0), \"Created\", true)) */\n      dup1\n      sload\n      dup1\n      dup3\n      add\n      dup3\n      sstore\n      swap2\n      mstore\n      dup2\n      mload\n      0x05\n      swap1\n      swap2\n      mul\n      0xb10e2d527612073b26eecdfd717e6a320cf44b4afac2b0732d9fcbe2b7fa0cf6\n      dup2\n      add\n      swap2\n      dup3\n      sstore\n      swap3\n      mload\n        /* \"Unoptimized Project Manager Contract.sol\":1128:1187  Project(projectCounter, _name, address(0), \"Created\", true) */\n      swap2\n      swap3\n        /* \"Unoptimized Project Manager Contract.sol\":1114:1188  projects.push(Project(projectCounter, _name, address(0), \"Created\", true)) */\n      swap1\n      swap2\n      0xb10e2d527612073b26eecdfd717e6a320cf44b4afac2b0732d9fcbe2b7fa0cf7\n      swap1\n      swap2\n      add\n      swap1\n      tag_71\n      swap1\n      dup3\n      tag_72\n      jump\t// in\n    tag_71:\n      pop\n      0x40\n      dup3\n      add\n      mload\n      0x02\n      dup3\n      add\n      dup1\n      sload\n      not(sub(shl(0xa0, 0x01), 0x01))\n      and\n      sub(shl(0xa0, 0x01), 0x01)\n      swap1\n      swap3\n      and\n      swap2\n      swap1\n      swap2\n      or\n      swap1\n      sstore\n      0x60\n      dup3\n      add\n      mload\n      0x03\n      dup3\n      add\n      swap1\n      tag_73\n      swap1\n      dup3\n      tag_72\n      jump\t// in\n    tag_73:\n      pop\n      0x80\n      swap2\n      swap1\n      swap2\n      add\n      mload\n      0x04\n      swap1\n      swap2\n      add\n      dup1\n      sload\n      not(0xff)\n      and\n      swap2\n      iszero\n      iszero\n      swap2\n      swap1\n      swap2\n      or\n      swap1\n      sstore\n      pop\n        /* \"Unoptimized Project Manager Contract.sol\":1025:1196  function createProject(string memory _name) public {... */\n      jump\t// out\n        /* \"Unoptimized Project Manager Contract.sol\":523:651  function registerContractor(string memory _name) public {... */\n    tag_25:\n        /* \"Unoptimized Project Manager Contract.sol\":607:642  Contractor(msg.sender, _name, true) */\n      0x40\n      dup1\n      mload\n      0x60\n      dup2\n      add\n      dup3\n      mstore\n        /* \"Unoptimized Project Manager Contract.sol\":618:628  msg.sender */\n      caller\n        /* \"Unoptimized Project Manager Contract.sol\":607:642  Contractor(msg.sender, _name, true) */\n      dup2\n      mstore\n      0x20\n      dup2\n      add\n      dup4\n      dup2\n      mstore\n        /* \"Unoptimized Project Manager Contract.sol\":637:641  true */\n      0x01\n        /* \"Unoptimized Project Manager Contract.sol\":607:642  Contractor(msg.sender, _name, true) */\n      swap3\n      dup3\n      add\n      dup4\n      swap1\n      mstore\n      0x00\n        /* \"Unoptimized Project Manager Contract.sol\":590:643  contractors.push(Contractor(msg.sender, _name, true)) */\n      dup1\n      sload\n      swap4\n      dup5\n      add\n      dup2\n      sstore\n      dup1\n      mstore\n      dup2\n      mload\n      0x290decd9548b62a8d60345a988386fc84ba6bc95484008f6362f93160ef3e563\n      0x03\n      swap1\n      swap5\n      mul\n      swap4\n      dup5\n      add\n      dup1\n      sload\n      not(sub(shl(0xa0, 0x01), 0x01))\n      and\n      sub(shl(0xa0, 0x01), 0x01)\n      swap1\n      swap3\n      and\n      swap2\n      swap1\n      swap2\n      or\n      dup2\n      sstore\n      swap1\n      mload\n        /* \"Unoptimized Project Manager Contract.sol\":607:642  Contractor(msg.sender, _name, true) */\n      swap2\n      swap3\n        /* \"Unoptimized Project Manager Contract.sol\":590:643  contractors.push(Contractor(msg.sender, _name, true)) */\n      swap1\n      swap2\n      0x290decd9548b62a8d60345a988386fc84ba6bc95484008f6362f93160ef3e564\n      swap1\n      swap2\n      add\n      swap1\n      tag_76\n      swap1\n      dup3\n      tag_72\n      jump\t// in\n    tag_76:\n      pop\n      0x40\n      swap2\n      swap1\n      swap2\n      add\n      mload\n      0x02\n      swap1\n      swap2\n      add\n      dup1\n      sload\n      not(0xff)\n      and\n      swap2\n      iszero\n      iszero\n      swap2\n      swap1\n      swap2\n      or\n      swap1\n      sstore\n      pop\n        /* \"Unoptimized Project Manager Contract.sol\":523:651  function registerContractor(string memory _name) public {... */\n      jump\t// out\n        /* \"Unoptimized Project Manager Contract.sol\":1246:1602  function assignContractor(uint256 _projectId, address _contractor) public {... */\n    tag_29:\n        /* \"Unoptimized Project Manager Contract.sol\":1339:1374  isContractorRegistered(_contractor) */\n      tag_78\n        /* \"Unoptimized Project Manager Contract.sol\":1362:1373  _contractor */\n      dup2\n        /* \"Unoptimized Project Manager Contract.sol\":1339:1361  isContractorRegistered */\n      tag_47\n        /* \"Unoptimized Project Manager Contract.sol\":1339:1374  isContractorRegistered(_contractor) */\n      jump\t// in\n    tag_78:\n        /* \"Unoptimized Project Manager Contract.sol\":1331:1393  require(isContractorRegistered(_contractor), \"Not registered\") */\n      tag_79\n      jumpi\n      mload(0x40)\n      shl(0xe5, 0x461bcd)\n      dup2\n      mstore\n        /* \"#utility.yul\":7992:7994   */\n      0x20\n        /* \"Unoptimized Project Manager Contract.sol\":1331:1393  require(isContractorRegistered(_contractor), \"Not registered\") */\n      0x04\n      dup3\n      add\n        /* \"#utility.yul\":7974:7995   */\n      mstore\n        /* \"#utility.yul\":8031:8033   */\n      0x0e\n        /* \"#utility.yul\":8011:8029   */\n      0x24\n      dup3\n      add\n        /* \"#utility.yul\":8004:8034   */\n      mstore\n      shl(0x92, 0x139bdd081c9959da5cdd195c9959)\n        /* \"#utility.yul\":8050:8068   */\n      0x44\n      dup3\n      add\n        /* \"#utility.yul\":8043:8087   */\n      mstore\n        /* \"#utility.yul\":8104:8122   */\n      0x64\n      add\n        /* \"Unoptimized Project Manager Contract.sol\":1331:1393  require(isContractorRegistered(_contractor), \"Not registered\") */\n    tag_80:\n      mload(0x40)\n      dup1\n      swap2\n      sub\n      swap1\n      revert\n    tag_79:\n        /* \"Unoptimized Project Manager Contract.sol\":1411:1417  uint i */\n      0x00\n        /* \"Unoptimized Project Manager Contract.sol\":1406:1595  for (uint i = 0; i < projects.length; i++) {... */\n    tag_82:\n        /* \"Unoptimized Project Manager Contract.sol\":1427:1435  projects */\n      0x01\n        /* \"Unoptimized Project Manager Contract.sol\":1427:1442  projects.length */\n      sload\n        /* \"Unoptimized Project Manager Contract.sol\":1423:1442  i < projects.length */\n      dup2\n      lt\n        /* \"Unoptimized Project Manager Contract.sol\":1406:1595  for (uint i = 0; i < projects.length; i++) {... */\n      iszero\n      tag_83\n      jumpi\n        /* \"Unoptimized Project Manager Contract.sol\":1493:1503  _projectId */\n      dup3\n        /* \"Unoptimized Project Manager Contract.sol\":1468:1476  projects */\n      0x01\n        /* \"Unoptimized Project Manager Contract.sol\":1477:1478  i */\n      dup3\n        /* \"Unoptimized Project Manager Contract.sol\":1468:1479  projects[i] */\n      dup2\n      sload\n      dup2\n      lt\n      tag_86\n      jumpi\n      tag_86\n      tag_87\n      jump\t// in\n    tag_86:\n      swap1\n      0x00\n      mstore\n      keccak256(0x00, 0x20)\n      swap1\n      0x05\n      mul\n      add\n        /* \"Unoptimized Project Manager Contract.sol\":1468:1489  projects[i].projectId */\n      0x00\n      add\n      sload\n        /* \"Unoptimized Project Manager Contract.sol\":1468:1503  projects[i].projectId == _projectId */\n      sub\n        /* \"Unoptimized Project Manager Contract.sol\":1464:1584  if (projects[i].projectId == _projectId) {... */\n      tag_89\n      jumpi\n        /* \"Unoptimized Project Manager Contract.sol\":1557:1568  _contractor */\n      dup2\n        /* \"Unoptimized Project Manager Contract.sol\":1524:1532  projects */\n      0x01\n        /* \"Unoptimized Project Manager Contract.sol\":1533:1534  i */\n      dup3\n        /* \"Unoptimized Project Manager Contract.sol\":1524:1535  projects[i] */\n      dup2\n      sload\n      dup2\n      lt\n      tag_91\n      jumpi\n      tag_91\n      tag_87\n      jump\t// in\n    tag_91:\n      swap1\n      0x00\n      mstore\n      keccak256(0x00, 0x20)\n      swap1\n      0x05\n      mul\n      add\n        /* \"Unoptimized Project Manager Contract.sol\":1524:1554  projects[i].assignedContractor */\n      0x02\n      add\n      0x00\n        /* \"Unoptimized Project Manager Contract.sol\":1524:1568  projects[i].assignedContractor = _contractor */\n      0x0100\n      exp\n      dup2\n      sload\n      dup2\n      sub(shl(0xa0, 0x01), 0x01)\n      mul\n      not\n      and\n      swap1\n      dup4\n      sub(shl(0xa0, 0x01), 0x01)\n      and\n      mul\n      or\n      swap1\n      sstore\n      pop\n        /* \"Unoptimized Project Manager Contract.sol\":1464:1584  if (projects[i].projectId == _projectId) {... */\n    tag_89:\n        /* \"Unoptimized Project Manager Contract.sol\":1444:1447  i++ */\n      0x01\n      add\n        /* \"Unoptimized Project Manager Contract.sol\":1406:1595  for (uint i = 0; i < projects.length; i++) {... */\n      jump(tag_82)\n    tag_83:\n      pop\n        /* \"Unoptimized Project Manager Contract.sol\":1246:1602  function assignContractor(uint256 _projectId, address _contractor) public {... */\n      pop\n      pop\n      jump\t// out\n        /* \"Unoptimized Project Manager Contract.sol\":385:416  Contractor[] public contractors */\n    tag_32:\n      0x00\n      dup2\n      dup2\n      sload\n      dup2\n      lt\n      tag_93\n      jumpi\n      0x00\n      dup1\n      revert\n    tag_93:\n      0x00\n      swap2\n      dup3\n      mstore\n      0x20\n      swap1\n      swap2\n      keccak256\n      0x03\n      swap1\n      swap2\n      mul\n      add\n      dup1\n      sload\n      0x01\n      dup3\n      add\n      dup1\n      sload\n      sub(shl(0xa0, 0x01), 0x01)\n      swap1\n      swap3\n      and\n      swap4\n      pop\n      swap1\n      tag_95\n      swap1\n      tag_57\n      jump\t// in\n    tag_95:\n      dup1\n      0x1f\n      add\n      0x20\n      dup1\n      swap2\n      div\n      mul\n      0x20\n      add\n      mload(0x40)\n      swap1\n      dup2\n      add\n      0x40\n      mstore\n      dup1\n      swap3\n      swap2\n      swap1\n      dup2\n      dup2\n      mstore\n      0x20\n      add\n      dup3\n      dup1\n      sload\n      tag_96\n      swap1\n      tag_57\n      jump\t// in\n    tag_96:\n      dup1\n      iszero\n      tag_97\n      jumpi\n      dup1\n      0x1f\n      lt\n      tag_98\n      jumpi\n      0x0100\n      dup1\n      dup4\n      sload\n      div\n      mul\n      dup4\n      mstore\n      swap2\n      0x20\n      add\n      swap2\n      jump(tag_97)\n    tag_98:\n      dup3\n      add\n      swap2\n      swap1\n      0x00\n      mstore\n      keccak256(0x00, 0x20)\n      swap1\n    tag_99:\n      dup2\n      sload\n      dup2\n      mstore\n      swap1\n      0x01\n      add\n      swap1\n      0x20\n      add\n      dup1\n      dup4\n      gt\n      tag_99\n      jumpi\n      dup3\n      swap1\n      sub\n      0x1f\n      and\n      dup3\n      add\n      swap2\n    tag_97:\n      pop\n      pop\n      pop\n      0x02\n      swap1\n      swap4\n      add\n      sload\n      swap2\n      swap3\n      pop\n      pop\n      0xff\n      and\n      dup4\n      jump\t// out\n        /* \"Unoptimized Project Manager Contract.sol\":1939:2228  function findProject(uint256 _projectId) public view returns (Project memory) {... */\n    tag_37:\n        /* \"Unoptimized Project Manager Contract.sol\":2001:2015  Project memory */\n      tag_100\n      mload(0x40)\n      dup1\n      0xa0\n      add\n      0x40\n      mstore\n      dup1\n      0x00\n      dup2\n      mstore\n      0x20\n      add\n      0x60\n      dup2\n      mstore\n      0x20\n      add\n      and(sub(shl(0xa0, 0x01), 0x01), 0x00)\n      dup2\n      mstore\n      0x20\n      add\n      0x60\n      dup2\n      mstore\n      0x20\n      add\n      iszero(iszero(0x00))\n      dup2\n      mstore\n      pop\n      swap1\n      jump\n    tag_100:\n        /* \"Unoptimized Project Manager Contract.sol\":2033:2039  uint i */\n      0x00\n        /* \"Unoptimized Project Manager Contract.sol\":2028:2191  for (uint i = 0; i < projects.length; i++) {... */\n    tag_103:\n        /* \"Unoptimized Project Manager Contract.sol\":2049:2057  projects */\n      0x01\n        /* \"Unoptimized Project Manager Contract.sol\":2049:2064  projects.length */\n      sload\n        /* \"Unoptimized Project Manager Contract.sol\":2045:2064  i < projects.length */\n      dup2\n      lt\n        /* \"Unoptimized Project Manager Contract.sol\":2028:2191  for (uint i = 0; i < projects.length; i++) {... */\n      iszero\n      tag_104\n      jumpi\n        /* \"Unoptimized Project Manager Contract.sol\":2115:2125  _projectId */\n      dup3\n        /* \"Unoptimized Project Manager Contract.sol\":2090:2098  projects */\n      0x01\n        /* \"Unoptimized Project Manager Contract.sol\":2099:2100  i */\n      dup3\n        /* \"Unoptimized Project Manager Contract.sol\":2090:2101  projects[i] */\n      dup2\n      sload\n      dup2\n      lt\n      tag_107\n      jumpi\n      tag_107\n      tag_87\n      jump\t// in\n    tag_107:\n      swap1\n      0x00\n      mstore\n      keccak256(0x00, 0x20)\n      swap1\n      0x05\n      mul\n      add\n        /* \"Unoptimized Project Manager Contract.sol\":2090:2111  projects[i].projectId */\n      0x00\n      add\n      sload\n        /* \"Unoptimized Project Manager Contract.sol\":2090:2125  projects[i].projectId == _projectId */\n      sub\n        /* \"Unoptimized Project Manager Contract.sol\":2086:2180  if (projects[i].projectId == _projectId) {... */\n      tag_109\n      jumpi\n        /* \"Unoptimized Project Manager Contract.sol\":2153:2161  projects */\n      0x01\n        /* \"Unoptimized Project Manager Contract.sol\":2162:2163  i */\n      dup2\n        /* \"Unoptimized Project Manager Contract.sol\":2153:2164  projects[i] */\n      dup2\n      sload\n      dup2\n      lt\n      tag_111\n      jumpi\n      tag_111\n      tag_87\n      jump\t// in\n    tag_111:\n      swap1\n      0x00\n      mstore\n      keccak256(0x00, 0x20)\n      swap1\n      0x05\n      mul\n      add\n        /* \"Unoptimized Project Manager Contract.sol\":2146:2164  return projects[i] */\n      mload(0x40)\n      dup1\n      0xa0\n      add\n      0x40\n      mstore\n      swap1\n      dup2\n      0x00\n      dup3\n      add\n      sload\n      dup2\n      mstore\n      0x20\n      add\n      0x01\n      dup3\n      add\n      dup1\n      sload\n      tag_113\n      swap1\n      tag_57\n      jump\t// in\n    tag_113:\n      dup1\n      0x1f\n      add\n      0x20\n      dup1\n      swap2\n      div\n      mul\n      0x20\n      add\n      mload(0x40)\n      swap1\n      dup2\n      add\n      0x40\n      mstore\n      dup1\n      swap3\n      swap2\n      swap1\n      dup2\n      dup2\n      mstore\n      0x20\n      add\n      dup3\n      dup1\n      sload\n      tag_114\n      swap1\n      tag_57\n      jump\t// in\n    tag_114:\n      dup1\n      iszero\n      tag_115\n      jumpi\n      dup1\n      0x1f\n      lt\n      tag_116\n      jumpi\n      0x0100\n      dup1\n      dup4\n      sload\n      div\n      mul\n      dup4\n      mstore\n      swap2\n      0x20\n      add\n      swap2\n      jump(tag_115)\n    tag_116:\n      dup3\n      add\n      swap2\n      swap1\n      0x00\n      mstore\n      keccak256(0x00, 0x20)\n      swap1\n    tag_117:\n      dup2\n      sload\n      dup2\n      mstore\n      swap1\n      0x01\n      add\n      swap1\n      0x20\n      add\n      dup1\n      dup4\n      gt\n      tag_117\n      jumpi\n      dup3\n      swap1\n      sub\n      0x1f\n      and\n      dup3\n      add\n      swap2\n    tag_115:\n      pop\n      pop\n      pop\n      swap2\n      dup4\n      mstore\n      pop\n      pop\n      0x02\n      dup3\n      add\n      sload\n      sub(shl(0xa0, 0x01), 0x01)\n      and\n      0x20\n      dup3\n      add\n      mstore\n      0x03\n      dup3\n      add\n      dup1\n      sload\n      0x40\n      swap1\n      swap3\n      add\n      swap2\n      tag_118\n      swap1\n      tag_57\n      jump\t// in\n    tag_118:\n      dup1\n      0x1f\n      add\n      0x20\n      dup1\n      swap2\n      div\n      mul\n      0x20\n      add\n      mload(0x40)\n      swap1\n      dup2\n      add\n      0x40\n      mstore\n      dup1\n      swap3\n      swap2\n      swap1\n      dup2\n      dup2\n      mstore\n      0x20\n      add\n      dup3\n      dup1\n      sload\n      tag_119\n      swap1\n      tag_57\n      jump\t// in\n    tag_119:\n      dup1\n      iszero\n      tag_120\n      jumpi\n      dup1\n      0x1f\n      lt\n      tag_121\n      jumpi\n      0x0100\n      dup1\n      dup4\n      sload\n      div\n      mul\n      dup4\n      mstore\n      swap2\n      0x20\n      add\n      swap2\n      jump(tag_120)\n    tag_121:\n      dup3\n      add\n      swap2\n      swap1\n      0x00\n      mstore\n      keccak256(0x00, 0x20)\n      swap1\n    tag_122:\n      dup2\n      sload\n      dup2\n      mstore\n      swap1\n      0x01\n      add\n      swap1\n      0x20\n      add\n      dup1\n      dup4\n      gt\n      tag_122\n      jumpi\n      dup3\n      swap1\n      sub\n      0x1f\n      and\n      dup3\n      add\n      swap2\n    tag_120:\n      pop\n      pop\n      pop\n      swap2\n      dup4\n      mstore\n      pop\n      pop\n      0x04\n      swap2\n      swap1\n      swap2\n      add\n      sload\n      0xff\n      and\n      iszero\n      iszero\n      0x20\n      swap1\n      swap2\n      add\n      mstore\n      swap4\n        /* \"Unoptimized Project Manager Contract.sol\":1939:2228  function findProject(uint256 _projectId) public view returns (Project memory) {... */\n      swap3\n      pop\n      pop\n      pop\n      jump\t// out\n        /* \"Unoptimized Project Manager Contract.sol\":2086:2180  if (projects[i].projectId == _projectId) {... */\n    tag_109:\n        /* \"Unoptimized Project Manager Contract.sol\":2066:2069  i++ */\n      0x01\n      add\n        /* \"Unoptimized Project Manager Contract.sol\":2028:2191  for (uint i = 0; i < projects.length; i++) {... */\n      jump(tag_103)\n    tag_104:\n      pop\n        /* \"Unoptimized Project Manager Contract.sol\":2201:2220  revert(\"Not found\") */\n      mload(0x40)\n      shl(0xe5, 0x461bcd)\n      dup2\n      mstore\n        /* \"#utility.yul\":8467:8469   */\n      0x20\n        /* \"Unoptimized Project Manager Contract.sol\":2201:2220  revert(\"Not found\") */\n      0x04\n      dup3\n      add\n        /* \"#utility.yul\":8449:8470   */\n      mstore\n        /* \"#utility.yul\":8506:8507   */\n      0x09\n        /* \"#utility.yul\":8486:8504   */\n      0x24\n      dup3\n      add\n        /* \"#utility.yul\":8479:8508   */\n      mstore\n      shl(0xba, 0x139bdd08199bdd5b99)\n        /* \"#utility.yul\":8524:8542   */\n      0x44\n      dup3\n      add\n        /* \"#utility.yul\":8517:8556   */\n      mstore\n        /* \"#utility.yul\":8573:8591   */\n      0x64\n      add\n        /* \"Unoptimized Project Manager Contract.sol\":2201:2220  revert(\"Not found\") */\n      tag_80\n        /* \"#utility.yul\":8265:8597   */\n      jump\n        /* \"Unoptimized Project Manager Contract.sol\":1640:1910  function updateProjectStatus(uint256 _projectId, string memory _status) public {... */\n    tag_43:\n        /* \"Unoptimized Project Manager Contract.sol\":1735:1741  uint i */\n      0x00\n        /* \"Unoptimized Project Manager Contract.sol\":1730:1903  for (uint i = 0; i < projects.length; i++) {... */\n    tag_126:\n        /* \"Unoptimized Project Manager Contract.sol\":1751:1759  projects */\n      0x01\n        /* \"Unoptimized Project Manager Contract.sol\":1751:1766  projects.length */\n      sload\n        /* \"Unoptimized Project Manager Contract.sol\":1747:1766  i < projects.length */\n      dup2\n      lt\n        /* \"Unoptimized Project Manager Contract.sol\":1730:1903  for (uint i = 0; i < projects.length; i++) {... */\n      iszero\n      tag_83\n      jumpi\n        /* \"Unoptimized Project Manager Contract.sol\":1817:1827  _projectId */\n      dup3\n        /* \"Unoptimized Project Manager Contract.sol\":1792:1800  projects */\n      0x01\n        /* \"Unoptimized Project Manager Contract.sol\":1801:1802  i */\n      dup3\n        /* \"Unoptimized Project Manager Contract.sol\":1792:1803  projects[i] */\n      dup2\n      sload\n      dup2\n      lt\n      tag_130\n      jumpi\n      tag_130\n      tag_87\n      jump\t// in\n    tag_130:\n      swap1\n      0x00\n      mstore\n      keccak256(0x00, 0x20)\n      swap1\n      0x05\n      mul\n      add\n        /* \"Unoptimized Project Manager Contract.sol\":1792:1813  projects[i].projectId */\n      0x00\n      add\n      sload\n        /* \"Unoptimized Project Manager Contract.sol\":1792:1827  projects[i].projectId == _projectId */\n      sub\n        /* \"Unoptimized Project Manager Contract.sol\":1788:1892  if (projects[i].projectId == _projectId) {... */\n      tag_132\n      jumpi\n        /* \"Unoptimized Project Manager Contract.sol\":1869:1876  _status */\n      dup2\n        /* \"Unoptimized Project Manager Contract.sol\":1848:1856  projects */\n      0x01\n        /* \"Unoptimized Project Manager Contract.sol\":1857:1858  i */\n      dup3\n        /* \"Unoptimized Project Manager Contract.sol\":1848:1859  projects[i] */\n      dup2\n      sload\n      dup2\n      lt\n      tag_134\n      jumpi\n      tag_134\n      tag_87\n      jump\t// in\n    tag_134:\n      swap1\n      0x00\n      mstore\n      keccak256(0x00, 0x20)\n      swap1\n      0x05\n      mul\n      add\n        /* \"Unoptimized Project Manager Contract.sol\":1848:1866  projects[i].status */\n      0x03\n      add\n        /* \"Unoptimized Project Manager Contract.sol\":1848:1876  projects[i].status = _status */\n      swap1\n      dup2\n      tag_136\n      swap2\n      swap1\n      tag_72\n      jump\t// in\n    tag_136:\n      pop\n        /* \"Unoptimized Project Manager Contract.sol\":1788:1892  if (projects[i].projectId == _projectId) {... */\n    tag_132:\n        /* \"Unoptimized Project Manager Contract.sol\":1768:1771  i++ */\n      0x01\n      add\n        /* \"Unoptimized Project Manager Contract.sol\":1730:1903  for (uint i = 0; i < projects.length; i++) {... */\n      jump(tag_126)\n        /* \"Unoptimized Project Manager Contract.sol\":714:994  function isContractorRegistered(address _addr) public view returns (bool) {... */\n    tag_47:\n        /* \"Unoptimized Project Manager Contract.sol\":782:786  bool */\n      0x00\n      dup1\n        /* \"Unoptimized Project Manager Contract.sol\":799:964  for (uint i = 0; i < contractors.length; i++) {... */\n    tag_138:\n        /* \"Unoptimized Project Manager Contract.sol\":820:831  contractors */\n      0x00\n        /* \"Unoptimized Project Manager Contract.sol\":820:838  contractors.length */\n      sload\n        /* \"Unoptimized Project Manager Contract.sol\":816:838  i < contractors.length */\n      dup2\n      lt\n        /* \"Unoptimized Project Manager Contract.sol\":799:964  for (uint i = 0; i < contractors.length; i++) {... */\n      iszero\n      tag_139\n      jumpi\n        /* \"Unoptimized Project Manager Contract.sol\":900:905  _addr */\n      dup3\n      sub(shl(0xa0, 0x01), 0x01)\n        /* \"Unoptimized Project Manager Contract.sol\":864:905  contractors[i].contractorAddress == _addr */\n      and\n        /* \"Unoptimized Project Manager Contract.sol\":864:875  contractors */\n      0x00\n        /* \"Unoptimized Project Manager Contract.sol\":876:877  i */\n      dup3\n        /* \"Unoptimized Project Manager Contract.sol\":864:878  contractors[i] */\n      dup2\n      sload\n      dup2\n      lt\n      tag_142\n      jumpi\n      tag_142\n      tag_87\n      jump\t// in\n    tag_142:\n      0x00\n      swap2\n      dup3\n      mstore\n      0x20\n      swap1\n      swap2\n      keccak256\n      0x03\n      swap1\n      swap2\n      mul\n      add\n        /* \"Unoptimized Project Manager Contract.sol\":864:896  contractors[i].contractorAddress */\n      sload\n      sub(shl(0xa0, 0x01), 0x01)\n      and\n        /* \"Unoptimized Project Manager Contract.sol\":864:905  contractors[i].contractorAddress == _addr */\n      sub\n        /* \"Unoptimized Project Manager Contract.sol\":860:953  if (contractors[i].contractorAddress == _addr) {... */\n      tag_144\n      jumpi\n      pop\n        /* \"Unoptimized Project Manager Contract.sol\":933:937  true */\n      0x01\n      swap3\n        /* \"Unoptimized Project Manager Contract.sol\":714:994  function isContractorRegistered(address _addr) public view returns (bool) {... */\n      swap2\n      pop\n      pop\n      jump\t// out\n        /* \"Unoptimized Project Manager Contract.sol\":860:953  if (contractors[i].contractorAddress == _addr) {... */\n    tag_144:\n        /* \"Unoptimized Project Manager Contract.sol\":840:843  i++ */\n      0x01\n      add\n        /* \"Unoptimized Project Manager Contract.sol\":799:964  for (uint i = 0; i < contractors.length; i++) {... */\n      jump(tag_138)\n    tag_139:\n      pop\n        /* \"Unoptimized Project Manager Contract.sol\":981:986  false */\n      0x00\n      swap3\n        /* \"Unoptimized Project Manager Contract.sol\":714:994  function isContractorRegistered(address _addr) public view returns (bool) {... */\n      swap2\n      pop\n      pop\n      jump\t// out\n        /* \"#utility.yul\":14:240   */\n    tag_15:\n        /* \"#utility.yul\":73:79   */\n      0x00\n        /* \"#utility.yul\":126:128   */\n      0x20\n        /* \"#utility.yul\":114:123   */\n      dup3\n        /* \"#utility.yul\":105:112   */\n      dup5\n        /* \"#utility.yul\":101:124   */\n      sub\n        /* \"#utility.yul\":97:129   */\n      slt\n        /* \"#utility.yul\":94:146   */\n      iszero\n      tag_154\n      jumpi\n        /* \"#utility.yul\":142:143   */\n      0x00\n        /* \"#utility.yul\":139:140   */\n      0x00\n        /* \"#utility.yul\":132:144   */\n      revert\n        /* \"#utility.yul\":94:146   */\n    tag_154:\n      pop\n        /* \"#utility.yul\":187:210   */\n      calldataload\n      swap2\n        /* \"#utility.yul\":14:240   */\n      swap1\n      pop\n      jump\t// out\n        /* \"#utility.yul\":245:534   */\n    tag_145:\n        /* \"#utility.yul\":287:290   */\n      0x00\n        /* \"#utility.yul\":325:330   */\n      dup2\n        /* \"#utility.yul\":319:331   */\n      mload\n        /* \"#utility.yul\":352:358   */\n      dup1\n        /* \"#utility.yul\":347:350   */\n      dup5\n        /* \"#utility.yul\":340:359   */\n      mstore\n        /* \"#utility.yul\":408:414   */\n      dup1\n        /* \"#utility.yul\":401:405   */\n      0x20\n        /* \"#utility.yul\":394:399   */\n      dup5\n        /* \"#utility.yul\":390:406   */\n      add\n        /* \"#utility.yul\":383:387   */\n      0x20\n        /* \"#utility.yul\":378:381   */\n      dup7\n        /* \"#utility.yul\":374:388   */\n      add\n        /* \"#utility.yul\":368:415   */\n      mcopy\n        /* \"#utility.yul\":460:461   */\n      0x00\n        /* \"#utility.yul\":453:457   */\n      0x20\n        /* \"#utility.yul\":444:450   */\n      dup3\n        /* \"#utility.yul\":439:442   */\n      dup7\n        /* \"#utility.yul\":435:451   */\n      add\n        /* \"#utility.yul\":431:458   */\n      add\n        /* \"#utility.yul\":424:462   */\n      mstore\n        /* \"#utility.yul\":523:527   */\n      0x20\n        /* \"#utility.yul\":516:518   */\n      0x1f\n        /* \"#utility.yul\":512:519   */\n      not\n        /* \"#utility.yul\":507:509   */\n      0x1f\n        /* \"#utility.yul\":499:505   */\n      dup4\n        /* \"#utility.yul\":495:510   */\n      add\n        /* \"#utility.yul\":491:520   */\n      and\n        /* \"#utility.yul\":486:489   */\n      dup6\n        /* \"#utility.yul\":482:521   */\n      add\n        /* \"#utility.yul\":478:528   */\n      add\n        /* \"#utility.yul\":471:528   */\n      swap2\n      pop\n      pop\n        /* \"#utility.yul\":245:534   */\n      swap3\n      swap2\n      pop\n      pop\n      jump\t// out\n        /* \"#utility.yul\":539:1174   */\n    tag_18:\n        /* \"#utility.yul\":814:820   */\n      dup6\n        /* \"#utility.yul\":803:812   */\n      dup2\n        /* \"#utility.yul\":796:821   */\n      mstore\n        /* \"#utility.yul\":857:860   */\n      0xa0\n        /* \"#utility.yul\":852:854   */\n      0x20\n        /* \"#utility.yul\":841:850   */\n      dup3\n        /* \"#utility.yul\":837:855   */\n      add\n        /* \"#utility.yul\":830:861   */\n      mstore\n        /* \"#utility.yul\":777:781   */\n      0x00\n        /* \"#utility.yul\":884:930   */\n      tag_157\n        /* \"#utility.yul\":925:928   */\n      0xa0\n        /* \"#utility.yul\":914:923   */\n      dup4\n        /* \"#utility.yul\":910:929   */\n      add\n        /* \"#utility.yul\":902:908   */\n      dup8\n        /* \"#utility.yul\":884:930   */\n      tag_145\n      jump\t// in\n    tag_157:\n      sub(shl(0xa0, 0x01), 0x01)\n        /* \"#utility.yul\":966:998   */\n      dup7\n      and\n        /* \"#utility.yul\":961:963   */\n      0x40\n        /* \"#utility.yul\":946:964   */\n      dup5\n      add\n        /* \"#utility.yul\":939:999   */\n      mstore\n        /* \"#utility.yul\":1035:1057   */\n      dup3\n      dup2\n      sub\n        /* \"#utility.yul\":1030:1032   */\n      0x60\n        /* \"#utility.yul\":1015:1033   */\n      dup5\n      add\n        /* \"#utility.yul\":1008:1058   */\n      mstore\n        /* \"#utility.yul\":1075:1108   */\n      tag_158\n        /* \"#utility.yul\":1039:1045   */\n      dup2\n        /* \"#utility.yul\":1093:1099   */\n      dup7\n        /* \"#utility.yul\":1075:1108   */\n      tag_145\n      jump\t// in\n    tag_158:\n        /* \"#utility.yul\":1067:1108   */\n      swap2\n      pop\n      pop\n        /* \"#utility.yul\":1159:1165   */\n      dup3\n        /* \"#utility.yul\":1152:1166   */\n      iszero\n        /* \"#utility.yul\":1145:1167   */\n      iszero\n        /* \"#utility.yul\":1139:1142   */\n      0x80\n        /* \"#utility.yul\":1128:1137   */\n      dup4\n        /* \"#utility.yul\":1124:1143   */\n      add\n        /* \"#utility.yul\":1117:1168   */\n      mstore\n        /* \"#utility.yul\":539:1174   */\n      swap7\n      swap6\n      pop\n      pop\n      pop\n      pop\n      pop\n      pop\n      jump\t// out\n        /* \"#utility.yul\":1179:1306   */\n    tag_146:\n        /* \"#utility.yul\":1240:1250   */\n      0x4e487b71\n        /* \"#utility.yul\":1235:1238   */\n      0xe0\n        /* \"#utility.yul\":1231:1251   */\n      shl\n        /* \"#utility.yul\":1228:1229   */\n      0x00\n        /* \"#utility.yul\":1221:1252   */\n      mstore\n        /* \"#utility.yul\":1271:1275   */\n      0x41\n        /* \"#utility.yul\":1268:1269   */\n      0x04\n        /* \"#utility.yul\":1261:1276   */\n      mstore\n        /* \"#utility.yul\":1295:1299   */\n      0x24\n        /* \"#utility.yul\":1292:1293   */\n      0x00\n        /* \"#utility.yul\":1285:1300   */\n      revert\n        /* \"#utility.yul\":1311:2037   */\n    tag_147:\n        /* \"#utility.yul\":1354:1359   */\n      0x00\n        /* \"#utility.yul\":1407:1410   */\n      dup3\n        /* \"#utility.yul\":1400:1404   */\n      0x1f\n        /* \"#utility.yul\":1392:1398   */\n      dup4\n        /* \"#utility.yul\":1388:1405   */\n      add\n        /* \"#utility.yul\":1384:1411   */\n      slt\n        /* \"#utility.yul\":1374:1429   */\n      tag_161\n      jumpi\n        /* \"#utility.yul\":1425:1426   */\n      0x00\n        /* \"#utility.yul\":1422:1423   */\n      0x00\n        /* \"#utility.yul\":1415:1427   */\n      revert\n        /* \"#utility.yul\":1374:1429   */\n    tag_161:\n        /* \"#utility.yul\":1465:1471   */\n      dup2\n        /* \"#utility.yul\":1452:1472   */\n      calldataload\n        /* \"#utility.yul\":1495:1513   */\n      0xffffffffffffffff\n        /* \"#utility.yul\":1487:1493   */\n      dup2\n        /* \"#utility.yul\":1484:1514   */\n      gt\n        /* \"#utility.yul\":1481:1537   */\n      iszero\n      tag_163\n      jumpi\n        /* \"#utility.yul\":1517:1535   */\n      tag_163\n      tag_146\n      jump\t// in\n    tag_163:\n        /* \"#utility.yul\":1566:1568   */\n      0x40\n        /* \"#utility.yul\":1560:1569   */\n      mload\n        /* \"#utility.yul\":1658:1660   */\n      0x1f\n        /* \"#utility.yul\":1620:1637   */\n      dup3\n      add\n      not(0x1f)\n        /* \"#utility.yul\":1616:1647   */\n      swap1\n      dup2\n      and\n        /* \"#utility.yul\":1649:1651   */\n      0x3f\n        /* \"#utility.yul\":1612:1652   */\n      add\n        /* \"#utility.yul\":1608:1662   */\n      and\n        /* \"#utility.yul\":1596:1663   */\n      dup2\n      add\n        /* \"#utility.yul\":1693:1711   */\n      0xffffffffffffffff\n        /* \"#utility.yul\":1678:1712   */\n      dup2\n      gt\n        /* \"#utility.yul\":1714:1736   */\n      dup3\n      dup3\n      lt\n        /* \"#utility.yul\":1675:1737   */\n      or\n        /* \"#utility.yul\":1672:1760   */\n      iszero\n      tag_165\n      jumpi\n        /* \"#utility.yul\":1740:1758   */\n      tag_165\n      tag_146\n      jump\t// in\n    tag_165:\n        /* \"#utility.yul\":1776:1778   */\n      0x40\n        /* \"#utility.yul\":1769:1791   */\n      mstore\n        /* \"#utility.yul\":1800:1822   */\n      dup2\n      dup2\n      mstore\n        /* \"#utility.yul\":1841:1860   */\n      dup4\n      dup3\n      add\n        /* \"#utility.yul\":1862:1866   */\n      0x20\n        /* \"#utility.yul\":1837:1867   */\n      add\n        /* \"#utility.yul\":1834:1873   */\n      dup6\n      lt\n        /* \"#utility.yul\":1831:1890   */\n      iszero\n      tag_166\n      jumpi\n        /* \"#utility.yul\":1886:1887   */\n      0x00\n        /* \"#utility.yul\":1883:1884   */\n      0x00\n        /* \"#utility.yul\":1876:1888   */\n      revert\n        /* \"#utility.yul\":1831:1890   */\n    tag_166:\n        /* \"#utility.yul\":1950:1956   */\n      dup2\n        /* \"#utility.yul\":1943:1947   */\n      0x20\n        /* \"#utility.yul\":1935:1941   */\n      dup6\n        /* \"#utility.yul\":1931:1948   */\n      add\n        /* \"#utility.yul\":1924:1928   */\n      0x20\n        /* \"#utility.yul\":1916:1922   */\n      dup4\n        /* \"#utility.yul\":1912:1929   */\n      add\n        /* \"#utility.yul\":1899:1957   */\n      calldatacopy\n        /* \"#utility.yul\":2005:2006   */\n      0x00\n        /* \"#utility.yul\":1977:1996   */\n      swap2\n      dup2\n      add\n        /* \"#utility.yul\":1998:2002   */\n      0x20\n        /* \"#utility.yul\":1973:2003   */\n      add\n        /* \"#utility.yul\":1966:2007   */\n      swap2\n      swap1\n      swap2\n      mstore\n        /* \"#utility.yul\":1981:1987   */\n      swap4\n        /* \"#utility.yul\":1311:2037   */\n      swap3\n      pop\n      pop\n      pop\n      jump\t// out\n        /* \"#utility.yul\":2042:2364   */\n    tag_21:\n        /* \"#utility.yul\":2111:2117   */\n      0x00\n        /* \"#utility.yul\":2164:2166   */\n      0x20\n        /* \"#utility.yul\":2152:2161   */\n      dup3\n        /* \"#utility.yul\":2143:2150   */\n      dup5\n        /* \"#utility.yul\":2139:2162   */\n      sub\n        /* \"#utility.yul\":2135:2167   */\n      slt\n        /* \"#utility.yul\":2132:2184   */\n      iszero\n      tag_168\n      jumpi\n        /* \"#utility.yul\":2180:2181   */\n      0x00\n        /* \"#utility.yul\":2177:2178   */\n      0x00\n        /* \"#utility.yul\":2170:2182   */\n      revert\n        /* \"#utility.yul\":2132:2184   */\n    tag_168:\n        /* \"#utility.yul\":2220:2229   */\n      dup2\n        /* \"#utility.yul\":2207:2230   */\n      calldataload\n        /* \"#utility.yul\":2253:2271   */\n      0xffffffffffffffff\n        /* \"#utility.yul\":2245:2251   */\n      dup2\n        /* \"#utility.yul\":2242:2272   */\n      gt\n        /* \"#utility.yul\":2239:2289   */\n      iszero\n      tag_169\n      jumpi\n        /* \"#utility.yul\":2285:2286   */\n      0x00\n        /* \"#utility.yul\":2282:2283   */\n      0x00\n        /* \"#utility.yul\":2275:2287   */\n      revert\n        /* \"#utility.yul\":2239:2289   */\n    tag_169:\n        /* \"#utility.yul\":2308:2358   */\n      tag_170\n        /* \"#utility.yul\":2350:2357   */\n      dup5\n        /* \"#utility.yul\":2341:2347   */\n      dup3\n        /* \"#utility.yul\":2330:2339   */\n      dup6\n        /* \"#utility.yul\":2326:2348   */\n      add\n        /* \"#utility.yul\":2308:2358   */\n      tag_147\n      jump\t// in\n    tag_170:\n        /* \"#utility.yul\":2298:2358   */\n      swap5\n        /* \"#utility.yul\":2042:2364   */\n      swap4\n      pop\n      pop\n      pop\n      pop\n      jump\t// out\n        /* \"#utility.yul\":2369:2542   */\n    tag_148:\n        /* \"#utility.yul\":2437:2457   */\n      dup1\n      calldataload\n      sub(shl(0xa0, 0x01), 0x01)\n        /* \"#utility.yul\":2486:2517   */\n      dup2\n      and\n        /* \"#utility.yul\":2476:2518   */\n      dup2\n      eq\n        /* \"#utility.yul\":2466:2536   */\n      tag_172\n      jumpi\n        /* \"#utility.yul\":2532:2533   */\n      0x00\n        /* \"#utility.yul\":2529:2530   */\n      0x00\n        /* \"#utility.yul\":2522:2534   */\n      revert\n        /* \"#utility.yul\":2466:2536   */\n    tag_172:\n        /* \"#utility.yul\":2369:2542   */\n      swap2\n      swap1\n      pop\n      jump\t// out\n        /* \"#utility.yul\":2547:2847   */\n    tag_28:\n        /* \"#utility.yul\":2615:2621   */\n      0x00\n        /* \"#utility.yul\":2623:2629   */\n      0x00\n        /* \"#utility.yul\":2676:2678   */\n      0x40\n        /* \"#utility.yul\":2664:2673   */\n      dup4\n        /* \"#utility.yul\":2655:2662   */\n      dup6\n        /* \"#utility.yul\":2651:2674   */\n      sub\n        /* \"#utility.yul\":2647:2679   */\n      slt\n        /* \"#utility.yul\":2644:2696   */\n      iszero\n      tag_174\n      jumpi\n        /* \"#utility.yul\":2692:2693   */\n      0x00\n        /* \"#utility.yul\":2689:2690   */\n      0x00\n        /* \"#utility.yul\":2682:2694   */\n      revert\n        /* \"#utility.yul\":2644:2696   */\n    tag_174:\n        /* \"#utility.yul\":2737:2760   */\n      dup3\n      calldataload\n      swap2\n      pop\n        /* \"#utility.yul\":2803:2841   */\n      tag_175\n        /* \"#utility.yul\":2837:2839   */\n      0x20\n        /* \"#utility.yul\":2822:2840   */\n      dup5\n      add\n        /* \"#utility.yul\":2803:2841   */\n      tag_148\n      jump\t// in\n    tag_175:\n        /* \"#utility.yul\":2793:2841   */\n      swap1\n      pop\n        /* \"#utility.yul\":2547:2847   */\n      swap3\n      pop\n      swap3\n      swap1\n      pop\n      jump\t// out\n        /* \"#utility.yul\":2852:3250   */\n    tag_34:\n      sub(shl(0xa0, 0x01), 0x01)\n        /* \"#utility.yul\":3051:3083   */\n      dup5\n      and\n        /* \"#utility.yul\":3033:3084   */\n      dup2\n      mstore\n        /* \"#utility.yul\":3120:3122   */\n      0x60\n        /* \"#utility.yul\":3115:3117   */\n      0x20\n        /* \"#utility.yul\":3100:3118   */\n      dup3\n      add\n        /* \"#utility.yul\":3093:3123   */\n      dup2\n      swap1\n      mstore\n      0x00\n      swap1\n        /* \"#utility.yul\":3140:3185   */\n      tag_177\n      swap1\n        /* \"#utility.yul\":3166:3184   */\n      dup4\n      add\n        /* \"#utility.yul\":3158:3164   */\n      dup6\n        /* \"#utility.yul\":3140:3185   */\n      tag_145\n      jump\t// in\n    tag_177:\n        /* \"#utility.yul\":3132:3185   */\n      swap1\n      pop\n        /* \"#utility.yul\":3235:3241   */\n      dup3\n        /* \"#utility.yul\":3228:3242   */\n      iszero\n        /* \"#utility.yul\":3221:3243   */\n      iszero\n        /* \"#utility.yul\":3216:3218   */\n      0x40\n        /* \"#utility.yul\":3205:3214   */\n      dup4\n        /* \"#utility.yul\":3201:3219   */\n      add\n        /* \"#utility.yul\":3194:3244   */\n      mstore\n        /* \"#utility.yul\":2852:3250   */\n      swap5\n      swap4\n      pop\n      pop\n      pop\n      pop\n      jump\t// out\n        /* \"#utility.yul\":3255:4033   */\n    tag_39:\n        /* \"#utility.yul\":3430:3432   */\n      0x20\n        /* \"#utility.yul\":3419:3428   */\n      dup2\n        /* \"#utility.yul\":3412:3433   */\n      mstore\n        /* \"#utility.yul\":3475:3481   */\n      dup2\n        /* \"#utility.yul\":3469:3482   */\n      mload\n        /* \"#utility.yul\":3464:3466   */\n      0x20\n        /* \"#utility.yul\":3453:3462   */\n      dup3\n        /* \"#utility.yul\":3449:3467   */\n      add\n        /* \"#utility.yul\":3442:3483   */\n      mstore\n        /* \"#utility.yul\":3393:3397   */\n      0x00\n        /* \"#utility.yul\":3530:3532   */\n      0x20\n        /* \"#utility.yul\":3522:3528   */\n      dup4\n        /* \"#utility.yul\":3518:3533   */\n      add\n        /* \"#utility.yul\":3512:3534   */\n      mload\n        /* \"#utility.yul\":3570:3574   */\n      0xa0\n        /* \"#utility.yul\":3565:3567   */\n      0x40\n        /* \"#utility.yul\":3554:3563   */\n      dup5\n        /* \"#utility.yul\":3550:3568   */\n      add\n        /* \"#utility.yul\":3543:3575   */\n      mstore\n        /* \"#utility.yul\":3598:3650   */\n      tag_179\n        /* \"#utility.yul\":3645:3648   */\n      0xc0\n        /* \"#utility.yul\":3634:3643   */\n      dup5\n        /* \"#utility.yul\":3630:3649   */\n      add\n        /* \"#utility.yul\":3616:3628   */\n      dup3\n        /* \"#utility.yul\":3598:3650   */\n      tag_145\n      jump\t// in\n    tag_179:\n        /* \"#utility.yul\":3708:3710   */\n      0x40\n        /* \"#utility.yul\":3696:3711   */\n      dup6\n      add\n        /* \"#utility.yul\":3690:3712   */\n      mload\n      sub(shl(0xa0, 0x01), 0x01)\n        /* \"#utility.yul\":3686:3734   */\n      and\n        /* \"#utility.yul\":3681:3683   */\n      0x60\n        /* \"#utility.yul\":3666:3684   */\n      dup6\n      dup2\n      add\n        /* \"#utility.yul\":3659:3735   */\n      swap2\n      swap1\n      swap2\n      mstore\n        /* \"#utility.yul\":3772:3787   */\n      dup6\n      add\n        /* \"#utility.yul\":3766:3788   */\n      mload\n        /* \"#utility.yul\":3829:3851   */\n      dup5\n      dup3\n      sub\n      not(0x1f)\n        /* \"#utility.yul\":3825:3861   */\n      add\n        /* \"#utility.yul\":3819:3822   */\n      0x80\n        /* \"#utility.yul\":3804:3823   */\n      dup7\n      add\n        /* \"#utility.yul\":3797:3862   */\n      mstore\n        /* \"#utility.yul\":3584:3650   */\n      swap1\n      swap2\n      pop\n        /* \"#utility.yul\":3885:3926   */\n      tag_180\n        /* \"#utility.yul\":3584:3650   */\n      dup3\n        /* \"#utility.yul\":3766:3788   */\n      dup3\n        /* \"#utility.yul\":3885:3926   */\n      tag_145\n      jump\t// in\n    tag_180:\n        /* \"#utility.yul\":3871:3926   */\n      swap2\n      pop\n      pop\n        /* \"#utility.yul\":3996:3999   */\n      0x80\n        /* \"#utility.yul\":3988:3994   */\n      dup5\n        /* \"#utility.yul\":3984:4000   */\n      add\n        /* \"#utility.yul\":3978:4001   */\n      mload\n        /* \"#utility.yul\":3971:4002   */\n      iszero\n        /* \"#utility.yul\":3964:4003   */\n      iszero\n        /* \"#utility.yul\":3957:3961   */\n      0xa0\n        /* \"#utility.yul\":3946:3955   */\n      dup5\n        /* \"#utility.yul\":3942:3962   */\n      add\n        /* \"#utility.yul\":3935:4004   */\n      mstore\n        /* \"#utility.yul\":4021:4027   */\n      dup1\n        /* \"#utility.yul\":4013:4027   */\n      swap2\n      pop\n      pop\n        /* \"#utility.yul\":3255:4033   */\n      swap3\n      swap2\n      pop\n      pop\n      jump\t// out\n        /* \"#utility.yul\":4038:4474   */\n    tag_42:\n        /* \"#utility.yul\":4116:4122   */\n      0x00\n        /* \"#utility.yul\":4124:4130   */\n      0x00\n        /* \"#utility.yul\":4177:4179   */\n      0x40\n        /* \"#utility.yul\":4165:4174   */\n      dup4\n        /* \"#utility.yul\":4156:4163   */\n      dup6\n        /* \"#utility.yul\":4152:4175   */\n      sub\n        /* \"#utility.yul\":4148:4180   */\n      slt\n        /* \"#utility.yul\":4145:4197   */\n      iszero\n      tag_182\n      jumpi\n        /* \"#utility.yul\":4193:4194   */\n      0x00\n        /* \"#utility.yul\":4190:4191   */\n      0x00\n        /* \"#utility.yul\":4183:4195   */\n      revert\n        /* \"#utility.yul\":4145:4197   */\n    tag_182:\n        /* \"#utility.yul\":4238:4261   */\n      dup3\n      calldataload\n      swap2\n      pop\n        /* \"#utility.yul\":4336:4338   */\n      0x20\n        /* \"#utility.yul\":4321:4339   */\n      dup4\n      add\n        /* \"#utility.yul\":4308:4340   */\n      calldataload\n        /* \"#utility.yul\":4363:4381   */\n      0xffffffffffffffff\n        /* \"#utility.yul\":4352:4382   */\n      dup2\n      gt\n        /* \"#utility.yul\":4349:4399   */\n      iszero\n      tag_183\n      jumpi\n        /* \"#utility.yul\":4395:4396   */\n      0x00\n        /* \"#utility.yul\":4392:4393   */\n      0x00\n        /* \"#utility.yul\":4385:4397   */\n      revert\n        /* \"#utility.yul\":4349:4399   */\n    tag_183:\n        /* \"#utility.yul\":4418:4468   */\n      tag_184\n        /* \"#utility.yul\":4460:4467   */\n      dup6\n        /* \"#utility.yul\":4451:4457   */\n      dup3\n        /* \"#utility.yul\":4440:4449   */\n      dup7\n        /* \"#utility.yul\":4436:4458   */\n      add\n        /* \"#utility.yul\":4418:4468   */\n      tag_147\n      jump\t// in\n    tag_184:\n        /* \"#utility.yul\":4408:4468   */\n      swap2\n      pop\n      pop\n        /* \"#utility.yul\":4038:4474   */\n      swap3\n      pop\n      swap3\n      swap1\n      pop\n      jump\t// out\n        /* \"#utility.yul\":4479:4665   */\n    tag_46:\n        /* \"#utility.yul\":4538:4544   */\n      0x00\n        /* \"#utility.yul\":4591:4593   */\n      0x20\n        /* \"#utility.yul\":4579:4588   */\n      dup3\n        /* \"#utility.yul\":4570:4577   */\n      dup5\n        /* \"#utility.yul\":4566:4589   */\n      sub\n        /* \"#utility.yul\":4562:4594   */\n      slt\n        /* \"#utility.yul\":4559:4611   */\n      iszero\n      tag_186\n      jumpi\n        /* \"#utility.yul\":4607:4608   */\n      0x00\n        /* \"#utility.yul\":4604:4605   */\n      0x00\n        /* \"#utility.yul\":4597:4609   */\n      revert\n        /* \"#utility.yul\":4559:4611   */\n    tag_186:\n        /* \"#utility.yul\":4630:4659   */\n      tag_187\n        /* \"#utility.yul\":4649:4658   */\n      dup3\n        /* \"#utility.yul\":4630:4659   */\n      tag_148\n      jump\t// in\n    tag_187:\n        /* \"#utility.yul\":4620:4659   */\n      swap4\n        /* \"#utility.yul\":4479:4665   */\n      swap3\n      pop\n      pop\n      pop\n      jump\t// out\n        /* \"#utility.yul\":5044:5424   */\n    tag_57:\n        /* \"#utility.yul\":5123:5124   */\n      0x01\n        /* \"#utility.yul\":5119:5131   */\n      dup2\n      dup2\n      shr\n      swap1\n        /* \"#utility.yul\":5166:5178   */\n      dup3\n      and\n      dup1\n        /* \"#utility.yul\":5187:5248   */\n      tag_191\n      jumpi\n        /* \"#utility.yul\":5241:5245   */\n      0x7f\n        /* \"#utility.yul\":5233:5239   */\n      dup3\n        /* \"#utility.yul\":5229:5246   */\n      and\n        /* \"#utility.yul\":5219:5246   */\n      swap2\n      pop\n        /* \"#utility.yul\":5187:5248   */\n    tag_191:\n        /* \"#utility.yul\":5294:5296   */\n      0x20\n        /* \"#utility.yul\":5286:5292   */\n      dup3\n        /* \"#utility.yul\":5283:5297   */\n      lt\n        /* \"#utility.yul\":5263:5281   */\n      dup2\n        /* \"#utility.yul\":5260:5298   */\n      sub\n        /* \"#utility.yul\":5257:5418   */\n      tag_192\n      jumpi\n        /* \"#utility.yul\":5340:5350   */\n      0x4e487b71\n        /* \"#utility.yul\":5335:5338   */\n      0xe0\n        /* \"#utility.yul\":5331:5351   */\n      shl\n        /* \"#utility.yul\":5328:5329   */\n      0x00\n        /* \"#utility.yul\":5321:5352   */\n      mstore\n        /* \"#utility.yul\":5375:5379   */\n      0x22\n        /* \"#utility.yul\":5372:5373   */\n      0x04\n        /* \"#utility.yul\":5365:5380   */\n      mstore\n        /* \"#utility.yul\":5403:5407   */\n      0x24\n        /* \"#utility.yul\":5400:5401   */\n      0x00\n        /* \"#utility.yul\":5393:5408   */\n      revert\n        /* \"#utility.yul\":5257:5418   */\n    tag_192:\n      pop\n        /* \"#utility.yul\":5044:5424   */\n      swap2\n      swap1\n      pop\n      jump\t// out\n        /* \"#utility.yul\":5429:5661   */\n    tag_69:\n        /* \"#utility.yul\":5468:5471   */\n      0x00\n        /* \"#utility.yul\":5489:5506   */\n      0x01\n      dup3\n      add\n        /* \"#utility.yul\":5486:5626   */\n      tag_194\n      jumpi\n        /* \"#utility.yul\":5548:5558   */\n      0x4e487b71\n        /* \"#utility.yul\":5543:5546   */\n      0xe0\n        /* \"#utility.yul\":5539:5559   */\n      shl\n        /* \"#utility.yul\":5536:5537   */\n      0x00\n        /* \"#utility.yul\":5529:5560   */\n      mstore\n        /* \"#utility.yul\":5583:5587   */\n      0x11\n        /* \"#utility.yul\":5580:5581   */\n      0x04\n        /* \"#utility.yul\":5573:5588   */\n      mstore\n        /* \"#utility.yul\":5611:5615   */\n      0x24\n        /* \"#utility.yul\":5608:5609   */\n      0x00\n        /* \"#utility.yul\":5601:5616   */\n      revert\n        /* \"#utility.yul\":5486:5626   */\n    tag_194:\n      pop\n        /* \"#utility.yul\":5653:5654   */\n      0x01\n        /* \"#utility.yul\":5642:5655   */\n      add\n      swap1\n        /* \"#utility.yul\":5429:5661   */\n      jump\t// out\n        /* \"#utility.yul\":5792:6310   */\n    tag_150:\n        /* \"#utility.yul\":5894:5896   */\n      0x1f\n        /* \"#utility.yul\":5889:5892   */\n      dup3\n        /* \"#utility.yul\":5886:5897   */\n      gt\n        /* \"#utility.yul\":5883:6304   */\n      iszero\n      tag_83\n      jumpi\n        /* \"#utility.yul\":5930:5935   */\n      dup1\n        /* \"#utility.yul\":5927:5928   */\n      0x00\n        /* \"#utility.yul\":5920:5936   */\n      mstore\n        /* \"#utility.yul\":5974:5978   */\n      0x20\n        /* \"#utility.yul\":5971:5972   */\n      0x00\n        /* \"#utility.yul\":5961:5979   */\n      keccak256\n        /* \"#utility.yul\":6044:6046   */\n      0x1f\n        /* \"#utility.yul\":6032:6042   */\n      dup5\n        /* \"#utility.yul\":6028:6047   */\n      add\n        /* \"#utility.yul\":6025:6026   */\n      0x05\n        /* \"#utility.yul\":6021:6048   */\n      shr\n        /* \"#utility.yul\":6015:6019   */\n      dup2\n        /* \"#utility.yul\":6011:6049   */\n      add\n        /* \"#utility.yul\":6080:6084   */\n      0x20\n        /* \"#utility.yul\":6068:6078   */\n      dup6\n        /* \"#utility.yul\":6065:6085   */\n      lt\n        /* \"#utility.yul\":6062:6109   */\n      iszero\n      tag_198\n      jumpi\n      pop\n        /* \"#utility.yul\":6103:6107   */\n      dup1\n        /* \"#utility.yul\":6062:6109   */\n    tag_198:\n        /* \"#utility.yul\":6158:6160   */\n      0x1f\n        /* \"#utility.yul\":6153:6156   */\n      dup5\n        /* \"#utility.yul\":6149:6161   */\n      add\n        /* \"#utility.yul\":6146:6147   */\n      0x05\n        /* \"#utility.yul\":6142:6162   */\n      shr\n        /* \"#utility.yul\":6136:6140   */\n      dup3\n        /* \"#utility.yul\":6132:6163   */\n      add\n        /* \"#utility.yul\":6122:6163   */\n      swap2\n      pop\n        /* \"#utility.yul\":6213:6294   */\n    tag_199:\n        /* \"#utility.yul\":6231:6233   */\n      dup2\n        /* \"#utility.yul\":6224:6229   */\n      dup2\n        /* \"#utility.yul\":6221:6234   */\n      lt\n        /* \"#utility.yul\":6213:6294   */\n      iszero\n      tag_201\n      jumpi\n        /* \"#utility.yul\":6290:6291   */\n      0x00\n        /* \"#utility.yul\":6276:6292   */\n      dup2\n      sstore\n        /* \"#utility.yul\":6257:6258   */\n      0x01\n        /* \"#utility.yul\":6246:6259   */\n      add\n        /* \"#utility.yul\":6213:6294   */\n      jump(tag_199)\n    tag_201:\n        /* \"#utility.yul\":6217:6220   */\n      pop\n      pop\n        /* \"#utility.yul\":5792:6310   */\n      pop\n      pop\n      pop\n      jump\t// out\n        /* \"#utility.yul\":6486:7785   */\n    tag_72:\n        /* \"#utility.yul\":6612:6615   */\n      dup2\n        /* \"#utility.yul\":6606:6616   */\n      mload\n        /* \"#utility.yul\":6639:6657   */\n      0xffffffffffffffff\n        /* \"#utility.yul\":6631:6637   */\n      dup2\n        /* \"#utility.yul\":6628:6658   */\n      gt\n        /* \"#utility.yul\":6625:6681   */\n      iszero\n      tag_205\n      jumpi\n        /* \"#utility.yul\":6661:6679   */\n      tag_205\n      tag_146\n      jump\t// in\n    tag_205:\n        /* \"#utility.yul\":6690:6787   */\n      tag_206\n        /* \"#utility.yul\":6780:6786   */\n      dup2\n        /* \"#utility.yul\":6740:6778   */\n      tag_207\n        /* \"#utility.yul\":6772:6776   */\n      dup5\n        /* \"#utility.yul\":6766:6777   */\n      sload\n        /* \"#utility.yul\":6740:6778   */\n      tag_57\n      jump\t// in\n    tag_207:\n        /* \"#utility.yul\":6734:6738   */\n      dup5\n        /* \"#utility.yul\":6690:6787   */\n      tag_150\n      jump\t// in\n    tag_206:\n        /* \"#utility.yul\":6836:6840   */\n      0x20\n        /* \"#utility.yul\":6867:6869   */\n      0x1f\n        /* \"#utility.yul\":6856:6870   */\n      dup3\n      gt\n        /* \"#utility.yul\":6884:6885   */\n      0x01\n        /* \"#utility.yul\":6879:7528   */\n      dup2\n      eq\n      tag_209\n      jumpi\n        /* \"#utility.yul\":7572:7573   */\n      0x00\n        /* \"#utility.yul\":7589:7595   */\n      dup4\n        /* \"#utility.yul\":7586:7675   */\n      iszero\n      tag_210\n      jumpi\n      pop\n        /* \"#utility.yul\":7641:7660   */\n      dup5\n      dup3\n      add\n        /* \"#utility.yul\":7635:7661   */\n      mload\n        /* \"#utility.yul\":7586:7675   */\n    tag_210:\n      not(0x00)\n        /* \"#utility.yul\":6443:6444   */\n      0x03\n        /* \"#utility.yul\":6439:6450   */\n      dup6\n      swap1\n      shl\n        /* \"#utility.yul\":6435:6459   */\n      shr\n        /* \"#utility.yul\":6431:6460   */\n      not\n        /* \"#utility.yul\":6421:6461   */\n      and\n        /* \"#utility.yul\":6467:6468   */\n      0x01\n        /* \"#utility.yul\":6463:6474   */\n      dup5\n      swap1\n      shl\n        /* \"#utility.yul\":6418:6475   */\n      or\n        /* \"#utility.yul\":7688:7769   */\n      dup5\n      sstore\n        /* \"#utility.yul\":6849:7779   */\n      jump(tag_201)\n        /* \"#utility.yul\":6879:7528   */\n    tag_209:\n        /* \"#utility.yul\":5739:5740   */\n      0x00\n        /* \"#utility.yul\":5732:5746   */\n      dup5\n      dup2\n      mstore\n        /* \"#utility.yul\":5776:5780   */\n      0x20\n        /* \"#utility.yul\":5763:5781   */\n      dup2\n      keccak256\n      not(0x1f)\n        /* \"#utility.yul\":6915:6935   */\n      dup6\n      and\n      swap2\n        /* \"#utility.yul\":7033:7255   */\n    tag_213:\n        /* \"#utility.yul\":7047:7054   */\n      dup3\n        /* \"#utility.yul\":7044:7045   */\n      dup2\n        /* \"#utility.yul\":7041:7055   */\n      lt\n        /* \"#utility.yul\":7033:7255   */\n      iszero\n      tag_215\n      jumpi\n        /* \"#utility.yul\":7129:7148   */\n      dup8\n      dup6\n      add\n        /* \"#utility.yul\":7123:7149   */\n      mload\n        /* \"#utility.yul\":7108:7150   */\n      dup3\n      sstore\n        /* \"#utility.yul\":7236:7240   */\n      0x20\n        /* \"#utility.yul\":7221:7241   */\n      swap5\n      dup6\n      add\n      swap5\n        /* \"#utility.yul\":7189:7190   */\n      0x01\n        /* \"#utility.yul\":7177:7191   */\n      swap1\n      swap3\n      add\n      swap2\n        /* \"#utility.yul\":7063:7075   */\n      add\n        /* \"#utility.yul\":7033:7255   */\n      jump(tag_213)\n    tag_215:\n        /* \"#utility.yul\":7037:7040   */\n      pop\n        /* \"#utility.yul\":7283:7289   */\n      dup5\n        /* \"#utility.yul\":7274:7281   */\n      dup3\n        /* \"#utility.yul\":7271:7290   */\n      lt\n        /* \"#utility.yul\":7268:7469   */\n      iszero\n      tag_216\n      jumpi\n        /* \"#utility.yul\":7344:7363   */\n      dup7\n      dup5\n      add\n        /* \"#utility.yul\":7338:7364   */\n      mload\n      not(0x00)\n        /* \"#utility.yul\":7427:7428   */\n      0x03\n        /* \"#utility.yul\":7423:7437   */\n      dup8\n      swap1\n      shl\n        /* \"#utility.yul\":7439:7442   */\n      0xf8\n        /* \"#utility.yul\":7419:7443   */\n      and\n        /* \"#utility.yul\":7415:7452   */\n      shr\n        /* \"#utility.yul\":7411:7453   */\n      not\n        /* \"#utility.yul\":7396:7454   */\n      and\n        /* \"#utility.yul\":7381:7455   */\n      dup2\n      sstore\n        /* \"#utility.yul\":7268:7469   */\n    tag_216:\n      pop\n      pop\n      pop\n      pop\n        /* \"#utility.yul\":7515:7516   */\n      0x01\n        /* \"#utility.yul\":7499:7513   */\n      swap1\n      dup2\n      shl\n        /* \"#utility.yul\":7495:7517   */\n      add\n        /* \"#utility.yul\":7482:7518   */\n      swap1\n      sstore\n      pop\n        /* \"#utility.yul\":6486:7785   */\n      jump\t// out\n        /* \"#utility.yul\":8133:8260   */\n    tag_87:\n        /* \"#utility.yul\":8194:8204   */\n      0x4e487b71\n        /* \"#utility.yul\":8189:8192   */\n      0xe0\n        /* \"#utility.yul\":8185:8205   */\n      shl\n        /* \"#utility.yul\":8182:8183   */\n      0x00\n        /* \"#utility.yul\":8175:8206   */\n      mstore\n        /* \"#utility.yul\":8225:8229   */\n      0x32\n        /* \"#utility.yul\":8222:8223   */\n      0x04\n        /* \"#utility.yul\":8215:8230   */\n      mstore\n        /* \"#utility.yul\":8249:8253   */\n      0x24\n        /* \"#utility.yul\":8246:8247   */\n      0x00\n        /* \"#utility.yul\":8239:8254   */\n      revert\n\n    auxdata: 0xa2646970667358221220cd3b6cac13bff93b4ea3e9c1750221f7cb580efdde1fe0aacdb0217e0aebeaa364736f6c634300081e0033\n}\n",
				"bytecode": {
					"linkReferences": {},
					"object": "6080604052348015600e575f5ffd5b50610dca8061001c5f395ff3fe608060405234801561000f575f5ffd5b5060043610610090575f3560e01c80633481a95a116100635780633481a95a146100fc5780633e8911801461011e578063bb0e9df61461013e578063bb60762e14610151578063f8a518ed14610174575f5ffd5b8063107046bd1461009457806315ee4df1146100c157806330445b48146100d65780633434d6d5146100e9575b5f5ffd5b6100a76100a2366004610963565b61018b565b6040516100b89594939291906109a8565b60405180910390f35b6100d46100cf366004610a95565b6102e9565b005b6100d46100e4366004610a95565b61040f565b6100d46100f7366004610aea565b6104d1565b61010f61010a366004610963565b6105a4565b6040516100b893929190610b14565b61013161012c366004610963565b61066a565b6040516100b89190610b49565b6100d461014c366004610bba565b610897565b61016461015f366004610bfe565b610904565b60405190151581526020016100b8565b61017d60025481565b6040519081526020016100b8565b6001818154811061019a575f80fd5b5f91825260209091206005909102018054600182018054919350906101be90610c1e565b80601f01602080910402602001604051908101604052809291908181526020018280546101ea90610c1e565b80156102355780601f1061020c57610100808354040283529160200191610235565b820191905f5260205f20905b81548152906001019060200180831161021857829003601f168201915b505050600284015460038501805494956001600160a01b0390921694919350915061025f90610c1e565b80601f016020809104026020016040519081016040528092919081815260200182805461028b90610c1e565b80156102d65780601f106102ad576101008083540402835291602001916102d6565b820191905f5260205f20905b8154815290600101906020018083116102b957829003601f168201915b5050506004909301549192505060ff1685565b60028054905f6102f883610c56565b90915550506040805160a081018252600254815260208082018481525f8385018190528451808601909552600785526610dc99585d195960ca1b928501929092526060830193909352600160808301819052805480820182559152815160059091027fb10e2d527612073b26eecdfd717e6a320cf44b4afac2b0732d9fcbe2b7fa0cf681019182559251919290917fb10e2d527612073b26eecdfd717e6a320cf44b4afac2b0732d9fcbe2b7fa0cf7909101906103b59082610cc5565b5060408201516002820180546001600160a01b0319166001600160a01b03909216919091179055606082015160038201906103f09082610cc5565b50608091909101516004909101805460ff191691151591909117905550565b604080516060810182523381526020810183815260019282018390525f80549384018155805281517f290decd9548b62a8d60345a988386fc84ba6bc95484008f6362f93160ef3e563600390940293840180546001600160a01b0319166001600160a01b039092169190911781559051919290917f290decd9548b62a8d60345a988386fc84ba6bc95484008f6362f93160ef3e564909101906104b29082610cc5565b50604091909101516002909101805460ff191691151591909117905550565b6104da81610904565b61051c5760405162461bcd60e51b815260206004820152600e60248201526d139bdd081c9959da5cdd195c995960921b60448201526064015b60405180910390fd5b5f5b60015481101561059f57826001828154811061053c5761053c610d80565b905f5260205f2090600502015f01540361059757816001828154811061056457610564610d80565b905f5260205f2090600502016002015f6101000a8154816001600160a01b0302191690836001600160a01b031602179055505b60010161051e565b505050565b5f81815481106105b2575f80fd5b5f918252602090912060039091020180546001820180546001600160a01b039092169350906105e090610c1e565b80601f016020809104026020016040519081016040528092919081815260200182805461060c90610c1e565b80156106575780601f1061062e57610100808354040283529160200191610657565b820191905f5260205f20905b81548152906001019060200180831161063a57829003601f168201915b5050506002909301549192505060ff1683565b6106a46040518060a001604052805f8152602001606081526020015f6001600160a01b03168152602001606081526020015f151581525090565b5f5b6001548110156108625782600182815481106106c4576106c4610d80565b905f5260205f2090600502015f01540361085a57600181815481106106eb576106eb610d80565b905f5260205f2090600502016040518060a00160405290815f820154815260200160018201805461071b90610c1e565b80601f016020809104026020016040519081016040528092919081815260200182805461074790610c1e565b80156107925780601f1061076957610100808354040283529160200191610792565b820191905f5260205f20905b81548152906001019060200180831161077557829003601f168201915b505050918352505060028201546001600160a01b031660208201526003820180546040909201916107c290610c1e565b80601f01602080910402602001604051908101604052809291908181526020018280546107ee90610c1e565b80156108395780601f1061081057610100808354040283529160200191610839565b820191905f5260205f20905b81548152906001019060200180831161081c57829003601f168201915b50505091835250506004919091015460ff1615156020909101529392505050565b6001016106a6565b5060405162461bcd60e51b8152602060048201526009602482015268139bdd08199bdd5b9960ba1b6044820152606401610513565b5f5b60015481101561059f5782600182815481106108b7576108b7610d80565b905f5260205f2090600502015f0154036108fc5781600182815481106108df576108df610d80565b905f5260205f20906005020160030190816108fa9190610cc5565b505b600101610899565b5f805b5f5481101561095b57826001600160a01b03165f828154811061092c5761092c610d80565b5f9182526020909120600390910201546001600160a01b0316036109535750600192915050565b600101610907565b505f92915050565b5f60208284031215610973575f5ffd5b5035919050565b5f81518084528060208401602086015e5f602082860101526020601f19601f83011685010191505092915050565b85815260a060208201525f6109c060a083018761097a565b6001600160a01b038616604084015282810360608401526109e1818661097a565b91505082151560808301529695505050505050565b634e487b7160e01b5f52604160045260245ffd5b5f82601f830112610a19575f5ffd5b813567ffffffffffffffff811115610a3357610a336109f6565b604051601f8201601f19908116603f0116810167ffffffffffffffff81118282101715610a6257610a626109f6565b604052818152838201602001851015610a79575f5ffd5b816020850160208301375f918101602001919091529392505050565b5f60208284031215610aa5575f5ffd5b813567ffffffffffffffff811115610abb575f5ffd5b610ac784828501610a0a565b949350505050565b80356001600160a01b0381168114610ae5575f5ffd5b919050565b5f5f60408385031215610afb575f5ffd5b82359150610b0b60208401610acf565b90509250929050565b6001600160a01b03841681526060602082018190525f90610b379083018561097a565b90508215156040830152949350505050565b60208152815160208201525f602083015160a06040840152610b6e60c084018261097a565b60408501516001600160a01b0316606085810191909152850151848203601f19016080860152909150610ba1828261097a565b9150506080840151151560a08401528091505092915050565b5f5f60408385031215610bcb575f5ffd5b82359150602083013567ffffffffffffffff811115610be8575f5ffd5b610bf485828601610a0a565b9150509250929050565b5f60208284031215610c0e575f5ffd5b610c1782610acf565b9392505050565b600181811c90821680610c3257607f821691505b602082108103610c5057634e487b7160e01b5f52602260045260245ffd5b50919050565b5f60018201610c7357634e487b7160e01b5f52601160045260245ffd5b5060010190565b601f82111561059f57805f5260205f20601f840160051c81016020851015610c9f5750805b601f840160051c820191505b81811015610cbe575f8155600101610cab565b5050505050565b815167ffffffffffffffff811115610cdf57610cdf6109f6565b610cf381610ced8454610c1e565b84610c7a565b6020601f821160018114610d25575f8315610d0e5750848201515b5f19600385901b1c1916600184901b178455610cbe565b5f84815260208120601f198516915b82811015610d545787850151825560209485019460019092019101610d34565b5084821015610d7157868401515f19600387901b60f8161c191681555b50505050600190811b01905550565b634e487b7160e01b5f52603260045260245ffdfea2646970667358221220cd3b6cac13bff93b4ea3e9c1750221f7cb580efdde1fe0aacdb0217e0aebeaa364736f6c634300081e0033",
					"opcodes": "PUSH1 0x80 PUSH1 0x40 MSTORE CALLVALUE DUP1 ISZERO PUSH1 0xE JUMPI PUSH0 PUSH0 REVERT JUMPDEST POP PUSH2 0xDCA DUP1 PUSH2 0x1C PUSH0 CODECOPY PUSH0 RETURN INVALID PUSH1 0x80 PUSH1 0x40 MSTORE CALLVALUE DUP1 ISZERO PUSH2 0xF JUMPI PUSH0 PUSH0 REVERT JUMPDEST POP PUSH1 0x4 CALLDATASIZE LT PUSH2 0x90 JUMPI PUSH0 CALLDATALOAD PUSH1 0xE0 SHR DUP1 PUSH4 0x3481A95A GT PUSH2 0x63 JUMPI DUP1 PUSH4 0x3481A95A EQ PUSH2 0xFC JUMPI DUP1 PUSH4 0x3E891180 EQ PUSH2 0x11E JUMPI DUP1 PUSH4 0xBB0E9DF6 EQ PUSH2 0x13E JUMPI DUP1 PUSH4 0xBB60762E EQ PUSH2 0x151 JUMPI DUP1 PUSH4 0xF8A518ED EQ PUSH2 0x174 JUMPI PUSH0 PUSH0 REVERT JUMPDEST DUP1 PUSH4 0x107046BD EQ PUSH2 0x94 JUMPI DUP1 PUSH4 0x15EE4DF1 EQ PUSH2 0xC1 JUMPI DUP1 PUSH4 0x30445B48 EQ PUSH2 0xD6 JUMPI DUP1 PUSH4 0x3434D6D5 EQ PUSH2 0xE9 JUMPI JUMPDEST PUSH0 PUSH0 REVERT JUMPDEST PUSH2 0xA7 PUSH2 0xA2 CALLDATASIZE PUSH1 0x4 PUSH2 0x963 JUMP JUMPDEST PUSH2 0x18B JUMP JUMPDEST PUSH1 0x40 MLOAD PUSH2 0xB8 SWAP6 SWAP5 SWAP4 SWAP3 SWAP2 SWAP1 PUSH2 0x9A8 JUMP JUMPDEST PUSH1 0x40 MLOAD DUP1 SWAP2 SUB SWAP1 RETURN JUMPDEST PUSH2 0xD4 PUSH2 0xCF CALLDATASIZE PUSH1 0x4 PUSH2 0xA95 JUMP JUMPDEST PUSH2 0x2E9 JUMP JUMPDEST STOP JUMPDEST PUSH2 0xD4 PUSH2 0xE4 CALLDATASIZE PUSH1 0x4 PUSH2 0xA95 JUMP JUMPDEST PUSH2 0x40F JUMP JUMPDEST PUSH2 0xD4 PUSH2 0xF7 CALLDATASIZE PUSH1 0x4 PUSH2 0xAEA JUMP JUMPDEST PUSH2 0x4D1 JUMP JUMPDEST PUSH2 0x10F PUSH2 0x10A CALLDATASIZE PUSH1 0x4 PUSH2 0x963 JUMP JUMPDEST PUSH2 0x5A4 JUMP JUMPDEST PUSH1 0x40 MLOAD PUSH2 0xB8 SWAP4 SWAP3 SWAP2 SWAP1 PUSH2 0xB14 JUMP JUMPDEST PUSH2 0x131 PUSH2 0x12C CALLDATASIZE PUSH1 0x4 PUSH2 0x963 JUMP JUMPDEST PUSH2 0x66A JUMP JUMPDEST PUSH1 0x40 MLOAD PUSH2 0xB8 SWAP2 SWAP1 PUSH2 0xB49 JUMP JUMPDEST PUSH2 0xD4 PUSH2 0x14C CALLDATASIZE PUSH1 0x4 PUSH2 0xBBA JUMP JUMPDEST PUSH2 0x897 JUMP JUMPDEST PUSH2 0x164 PUSH2 0x15F CALLDATASIZE PUSH1 0x4 PUSH2 0xBFE JUMP JUMPDEST PUSH2 0x904 JUMP JUMPDEST PUSH1 0x40 MLOAD SWAP1 ISZERO ISZERO DUP2 MSTORE PUSH1 0x20 ADD PUSH2 0xB8 JUMP JUMPDEST PUSH2 0x17D PUSH1 0x2 SLOAD DUP2 JUMP JUMPDEST PUSH1 0x40 MLOAD SWAP1 DUP2 MSTORE PUSH1 0x20 ADD PUSH2 0xB8 JUMP JUMPDEST PUSH1 0x1 DUP2 DUP2 SLOAD DUP2 LT PUSH2 0x19A JUMPI PUSH0 DUP1 REVERT JUMPDEST PUSH0 SWAP2 DUP3 MSTORE PUSH1 0x20 SWAP1 SWAP2 KECCAK256 PUSH1 0x5 SWAP1 SWAP2 MUL ADD DUP1 SLOAD PUSH1 0x1 DUP3 ADD DUP1 SLOAD SWAP2 SWAP4 POP SWAP1 PUSH2 0x1BE SWAP1 PUSH2 0xC1E JUMP JUMPDEST DUP1 PUSH1 0x1F ADD PUSH1 0x20 DUP1 SWAP2 DIV MUL PUSH1 0x20 ADD PUSH1 0x40 MLOAD SWAP1 DUP2 ADD PUSH1 0x40 MSTORE DUP1 SWAP3 SWAP2 SWAP1 DUP2 DUP2 MSTORE PUSH1 0x20 ADD DUP3 DUP1 SLOAD PUSH2 0x1EA SWAP1 PUSH2 0xC1E JUMP JUMPDEST DUP1 ISZERO PUSH2 0x235 JUMPI DUP1 PUSH1 0x1F LT PUSH2 0x20C JUMPI PUSH2 0x100 DUP1 DUP4 SLOAD DIV MUL DUP4 MSTORE SWAP2 PUSH1 0x20 ADD SWAP2 PUSH2 0x235 JUMP JUMPDEST DUP3 ADD SWAP2 SWAP1 PUSH0 MSTORE PUSH1 0x20 PUSH0 KECCAK256 SWAP1 JUMPDEST DUP2 SLOAD DUP2 MSTORE SWAP1 PUSH1 0x1 ADD SWAP1 PUSH1 0x20 ADD DUP1 DUP4 GT PUSH2 0x218 JUMPI DUP3 SWAP1 SUB PUSH1 0x1F AND DUP3 ADD SWAP2 JUMPDEST POP POP POP PUSH1 0x2 DUP5 ADD SLOAD PUSH1 0x3 DUP6 ADD DUP1 SLOAD SWAP5 SWAP6 PUSH1 0x1 PUSH1 0x1 PUSH1 0xA0 SHL SUB SWAP1 SWAP3 AND SWAP5 SWAP2 SWAP4 POP SWAP2 POP PUSH2 0x25F SWAP1 PUSH2 0xC1E JUMP JUMPDEST DUP1 PUSH1 0x1F ADD PUSH1 0x20 DUP1 SWAP2 DIV MUL PUSH1 0x20 ADD PUSH1 0x40 MLOAD SWAP1 DUP2 ADD PUSH1 0x40 MSTORE DUP1 SWAP3 SWAP2 SWAP1 DUP2 DUP2 MSTORE PUSH1 0x20 ADD DUP3 DUP1 SLOAD PUSH2 0x28B SWAP1 PUSH2 0xC1E JUMP JUMPDEST DUP1 ISZERO PUSH2 0x2D6 JUMPI DUP1 PUSH1 0x1F LT PUSH2 0x2AD JUMPI PUSH2 0x100 DUP1 DUP4 SLOAD DIV MUL DUP4 MSTORE SWAP2 PUSH1 0x20 ADD SWAP2 PUSH2 0x2D6 JUMP JUMPDEST DUP3 ADD SWAP2 SWAP1 PUSH0 MSTORE PUSH1 0x20 PUSH0 KECCAK256 SWAP1 JUMPDEST DUP2 SLOAD DUP2 MSTORE SWAP1 PUSH1 0x1 ADD SWAP1 PUSH1 0x20 ADD DUP1 DUP4 GT PUSH2 0x2B9 JUMPI DUP3 SWAP1 SUB PUSH1 0x1F AND DUP3 ADD SWAP2 JUMPDEST POP POP POP PUSH1 0x4 SWAP1 SWAP4 ADD SLOAD SWAP2 SWAP3 POP POP PUSH1 0xFF AND DUP6 JUMP JUMPDEST PUSH1 0x2 DUP1 SLOAD SWAP1 PUSH0 PUSH2 0x2F8 DUP4 PUSH2 0xC56 JUMP JUMPDEST SWAP1 SWAP2 SSTORE POP POP PUSH1 0x40 DUP1 MLOAD PUSH1 0xA0 DUP2 ADD DUP3 MSTORE PUSH1 0x2 SLOAD DUP2 MSTORE PUSH1 0x20 DUP1 DUP3 ADD DUP5 DUP2 MSTORE PUSH0 DUP4 DUP6 ADD DUP2 SWAP1 MSTORE DUP5 MLOAD DUP1 DUP7 ADD SWAP1 SWAP6 MSTORE PUSH1 0x7 DUP6 MSTORE PUSH7 0x10DC99585D1959 PUSH1 0xCA SHL SWAP3 DUP6 ADD SWAP3 SWAP1 SWAP3 MSTORE PUSH1 0x60 DUP4 ADD SWAP4 SWAP1 SWAP4 MSTORE PUSH1 0x1 PUSH1 0x80 DUP4 ADD DUP2 SWAP1 MSTORE DUP1 SLOAD DUP1 DUP3 ADD DUP3 SSTORE SWAP2 MSTORE DUP2 MLOAD PUSH1 0x5 SWAP1 SWAP2 MUL PUSH32 0xB10E2D527612073B26EECDFD717E6A320CF44B4AFAC2B0732D9FCBE2B7FA0CF6 DUP2 ADD SWAP2 DUP3 SSTORE SWAP3 MLOAD SWAP2 SWAP3 SWAP1 SWAP2 PUSH32 0xB10E2D527612073B26EECDFD717E6A320CF44B4AFAC2B0732D9FCBE2B7FA0CF7 SWAP1 SWAP2 ADD SWAP1 PUSH2 0x3B5 SWAP1 DUP3 PUSH2 0xCC5 JUMP JUMPDEST POP PUSH1 0x40 DUP3 ADD MLOAD PUSH1 0x2 DUP3 ADD DUP1 SLOAD PUSH1 0x1 PUSH1 0x1 PUSH1 0xA0 SHL SUB NOT AND PUSH1 0x1 PUSH1 0x1 PUSH1 0xA0 SHL SUB SWAP1 SWAP3 AND SWAP2 SWAP1 SWAP2 OR SWAP1 SSTORE PUSH1 0x60 DUP3 ADD MLOAD PUSH1 0x3 DUP3 ADD SWAP1 PUSH2 0x3F0 SWAP1 DUP3 PUSH2 0xCC5 JUMP JUMPDEST POP PUSH1 0x80 SWAP2 SWAP1 SWAP2 ADD MLOAD PUSH1 0x4 SWAP1 SWAP2 ADD DUP1 SLOAD PUSH1 0xFF NOT AND SWAP2 ISZERO ISZERO SWAP2 SWAP1 SWAP2 OR SWAP1 SSTORE POP JUMP JUMPDEST PUSH1 0x40 DUP1 MLOAD PUSH1 0x60 DUP2 ADD DUP3 MSTORE CALLER DUP2 MSTORE PUSH1 0x20 DUP2 ADD DUP4 DUP2 MSTORE PUSH1 0x1 SWAP3 DUP3 ADD DUP4 SWAP1 MSTORE PUSH0 DUP1 SLOAD SWAP4 DUP5 ADD DUP2 SSTORE DUP1 MSTORE DUP2 MLOAD PUSH32 0x290DECD9548B62A8D60345A988386FC84BA6BC95484008F6362F93160EF3E563 PUSH1 0x3 SWAP1 SWAP5 MUL SWAP4 DUP5 ADD DUP1 SLOAD PUSH1 0x1 PUSH1 0x1 PUSH1 0xA0 SHL SUB NOT AND PUSH1 0x1 PUSH1 0x1 PUSH1 0xA0 SHL SUB SWAP1 SWAP3 AND SWAP2 SWAP1 SWAP2 OR DUP2 SSTORE SWAP1 MLOAD SWAP2 SWAP3 SWAP1 SWAP2 PUSH32 0x290DECD9548B62A8D60345A988386FC84BA6BC95484008F6362F93160EF3E564 SWAP1 SWAP2 ADD SWAP1 PUSH2 0x4B2 SWAP1 DUP3 PUSH2 0xCC5 JUMP JUMPDEST POP PUSH1 0x40 SWAP2 SWAP1 SWAP2 ADD MLOAD PUSH1 0x2 SWAP1 SWAP2 ADD DUP1 SLOAD PUSH1 0xFF NOT AND SWAP2 ISZERO ISZERO SWAP2 SWAP1 SWAP2 OR SWAP1 SSTORE POP JUMP JUMPDEST PUSH2 0x4DA DUP2 PUSH2 0x904 JUMP JUMPDEST PUSH2 0x51C JUMPI PUSH1 0x40 MLOAD PUSH3 0x461BCD PUSH1 0xE5 SHL DUP2 MSTORE PUSH1 0x20 PUSH1 0x4 DUP3 ADD MSTORE PUSH1 0xE PUSH1 0x24 DUP3 ADD MSTORE PUSH14 0x139BDD081C9959DA5CDD195C9959 PUSH1 0x92 SHL PUSH1 0x44 DUP3 ADD MSTORE PUSH1 0x64 ADD JUMPDEST PUSH1 0x40 MLOAD DUP1 SWAP2 SUB SWAP1 REVERT JUMPDEST PUSH0 JUMPDEST PUSH1 0x1 SLOAD DUP2 LT ISZERO PUSH2 0x59F JUMPI DUP3 PUSH1 0x1 DUP3 DUP2 SLOAD DUP2 LT PUSH2 0x53C JUMPI PUSH2 0x53C PUSH2 0xD80 JUMP JUMPDEST SWAP1 PUSH0 MSTORE PUSH1 0x20 PUSH0 KECCAK256 SWAP1 PUSH1 0x5 MUL ADD PUSH0 ADD SLOAD SUB PUSH2 0x597 JUMPI DUP2 PUSH1 0x1 DUP3 DUP2 SLOAD DUP2 LT PUSH2 0x564 JUMPI PUSH2 0x564 PUSH2 0xD80 JUMP JUMPDEST SWAP1 PUSH0 MSTORE PUSH1 0x20 PUSH0 KECCAK256 SWAP1 PUSH1 0x5 MUL ADD PUSH1 0x2 ADD PUSH0 PUSH2 0x100 EXP DUP2 SLOAD DUP2 PUSH1 0x1 PUSH1 0x1 PUSH1 0xA0 SHL SUB MUL NOT AND SWAP1 DUP4 PUSH1 0x1 PUSH1 0x1 PUSH1 0xA0 SHL SUB AND MUL OR SWAP1 SSTORE POP JUMPDEST PUSH1 0x1 ADD PUSH2 0x51E JUMP JUMPDEST POP POP POP JUMP JUMPDEST PUSH0 DUP2 DUP2 SLOAD DUP2 LT PUSH2 0x5B2 JUMPI PUSH0 DUP1 REVERT JUMPDEST PUSH0 SWAP2 DUP3 MSTORE PUSH1 0x20 SWAP1 SWAP2 KECCAK256 PUSH1 0x3 SWAP1 SWAP2 MUL ADD DUP1 SLOAD PUSH1 0x1 DUP3 ADD DUP1 SLOAD PUSH1 0x1 PUSH1 0x1 PUSH1 0xA0 SHL SUB SWAP1 SWAP3 AND SWAP4 POP SWAP1 PUSH2 0x5E0 SWAP1 PUSH2 0xC1E JUMP JUMPDEST DUP1 PUSH1 0x1F ADD PUSH1 0x20 DUP1 SWAP2 DIV MUL PUSH1 0x20 ADD PUSH1 0x40 MLOAD SWAP1 DUP2 ADD PUSH1 0x40 MSTORE DUP1 SWAP3 SWAP2 SWAP1 DUP2 DUP2 MSTORE PUSH1 0x20 ADD DUP3 DUP1 SLOAD PUSH2 0x60C SWAP1 PUSH2 0xC1E JUMP JUMPDEST DUP1 ISZERO PUSH2 0x657 JUMPI DUP1 PUSH1 0x1F LT PUSH2 0x62E JUMPI PUSH2 0x100 DUP1 DUP4 SLOAD DIV MUL DUP4 MSTORE SWAP2 PUSH1 0x20 ADD SWAP2 PUSH2 0x657 JUMP JUMPDEST DUP3 ADD SWAP2 SWAP1 PUSH0 MSTORE PUSH1 0x20 PUSH0 KECCAK256 SWAP1 JUMPDEST DUP2 SLOAD DUP2 MSTORE SWAP1 PUSH1 0x1 ADD SWAP1 PUSH1 0x20 ADD DUP1 DUP4 GT PUSH2 0x63A JUMPI DUP3 SWAP1 SUB PUSH1 0x1F AND DUP3 ADD SWAP2 JUMPDEST POP POP POP PUSH1 0x2 SWAP1 SWAP4 ADD SLOAD SWAP2 SWAP3 POP POP PUSH1 0xFF AND DUP4 JUMP JUMPDEST PUSH2 0x6A4 PUSH1 0x40 MLOAD DUP1 PUSH1 0xA0 ADD PUSH1 0x40 MSTORE DUP1 PUSH0 DUP2 MSTORE PUSH1 0x20 ADD PUSH1 0x60 DUP2 MSTORE PUSH1 0x20 ADD PUSH0 PUSH1 0x1 PUSH1 0x1 PUSH1 0xA0 SHL SUB AND DUP2 MSTORE PUSH1 0x20 ADD PUSH1 0x60 DUP2 MSTORE PUSH1 0x20 ADD PUSH0 ISZERO ISZERO DUP2 MSTORE POP SWAP1 JUMP JUMPDEST PUSH0 JUMPDEST PUSH1 0x1 SLOAD DUP2 LT ISZERO PUSH2 0x862 JUMPI DUP3 PUSH1 0x1 DUP3 DUP2 SLOAD DUP2 LT PUSH2 0x6C4 JUMPI PUSH2 0x6C4 PUSH2 0xD80 JUMP JUMPDEST SWAP1 PUSH0 MSTORE PUSH1 0x20 PUSH0 KECCAK256 SWAP1 PUSH1 0x5 MUL ADD PUSH0 ADD SLOAD SUB PUSH2 0x85A JUMPI PUSH1 0x1 DUP2 DUP2 SLOAD DUP2 LT PUSH2 0x6EB JUMPI PUSH2 0x6EB PUSH2 0xD80 JUMP JUMPDEST SWAP1 PUSH0 MSTORE PUSH1 0x20 PUSH0 KECCAK256 SWAP1 PUSH1 0x5 MUL ADD PUSH1 0x40 MLOAD DUP1 PUSH1 0xA0 ADD PUSH1 0x40 MSTORE SWAP1 DUP2 PUSH0 DUP3 ADD SLOAD DUP2 MSTORE PUSH1 0x20 ADD PUSH1 0x1 DUP3 ADD DUP1 SLOAD PUSH2 0x71B SWAP1 PUSH2 0xC1E JUMP JUMPDEST DUP1 PUSH1 0x1F ADD PUSH1 0x20 DUP1 SWAP2 DIV MUL PUSH1 0x20 ADD PUSH1 0x40 MLOAD SWAP1 DUP2 ADD PUSH1 0x40 MSTORE DUP1 SWAP3 SWAP2 SWAP1 DUP2 DUP2 MSTORE PUSH1 0x20 ADD DUP3 DUP1 SLOAD PUSH2 0x747 SWAP1 PUSH2 0xC1E JUMP JUMPDEST DUP1 ISZERO PUSH2 0x792 JUMPI DUP1 PUSH1 0x1F LT PUSH2 0x769 JUMPI PUSH2 0x100 DUP1 DUP4 SLOAD DIV MUL DUP4 MSTORE SWAP2 PUSH1 0x20 ADD SWAP2 PUSH2 0x792 JUMP JUMPDEST DUP3 ADD SWAP2 SWAP1 PUSH0 MSTORE PUSH1 0x20 PUSH0 KECCAK256 SWAP1 JUMPDEST DUP2 SLOAD DUP2 MSTORE SWAP1 PUSH1 0x1 ADD SWAP1 PUSH1 0x20 ADD DUP1 DUP4 GT PUSH2 0x775 JUMPI DUP3 SWAP1 SUB PUSH1 0x1F AND DUP3 ADD SWAP2 JUMPDEST POP POP POP SWAP2 DUP4 MSTORE POP POP PUSH1 0x2 DUP3 ADD SLOAD PUSH1 0x1 PUSH1 0x1 PUSH1 0xA0 SHL SUB AND PUSH1 0x20 DUP3 ADD MSTORE PUSH1 0x3 DUP3 ADD DUP1 SLOAD PUSH1 0x40 SWAP1 SWAP3 ADD SWAP2 PUSH2 0x7C2 SWAP1 PUSH2 0xC1E JUMP JUMPDEST DUP1 PUSH1 0x1F ADD PUSH1 0x20 DUP1 SWAP2 DIV MUL PUSH1 0x20 ADD PUSH1 0x40 MLOAD SWAP1 DUP2 ADD PUSH1 0x40 MSTORE DUP1 SWAP3 SWAP2 SWAP1 DUP2 DUP2 MSTORE PUSH1 0x20 ADD DUP3 DUP1 SLOAD PUSH2 0x7EE SWAP1 PUSH2 0xC1E JUMP JUMPDEST DUP1 ISZERO PUSH2 0x839 JUMPI DUP1 PUSH1 0x1F LT PUSH2 0x810 JUMPI PUSH2 0x100 DUP1 DUP4 SLOAD DIV MUL DUP4 MSTORE SWAP2 PUSH1 0x20 ADD SWAP2 PUSH2 0x839 JUMP JUMPDEST DUP3 ADD SWAP2 SWAP1 PUSH0 MSTORE PUSH1 0x20 PUSH0 KECCAK256 SWAP1 JUMPDEST DUP2 SLOAD DUP2 MSTORE SWAP1 PUSH1 0x1 ADD SWAP1 PUSH1 0x20 ADD DUP1 DUP4 GT PUSH2 0x81C JUMPI DUP3 SWAP1 SUB PUSH1 0x1F AND DUP3 ADD SWAP2 JUMPDEST POP POP POP SWAP2 DUP4 MSTORE POP POP PUSH1 0x4 SWAP2 SWAP1 SWAP2 ADD SLOAD PUSH1 0xFF AND ISZERO ISZERO PUSH1 0x20 SWAP1 SWAP2 ADD MSTORE SWAP4 SWAP3 POP POP POP JUMP JUMPDEST PUSH1 0x1 ADD PUSH2 0x6A6 JUMP JUMPDEST POP PUSH1 0x40 MLOAD PUSH3 0x461BCD PUSH1 0xE5 SHL DUP2 MSTORE PUSH1 0x20 PUSH1 0x4 DUP3 ADD MSTORE PUSH1 0x9 PUSH1 0x24 DUP3 ADD MSTORE PUSH9 0x139BDD08199BDD5B99 PUSH1 0xBA SHL PUSH1 0x44 DUP3 ADD MSTORE PUSH1 0x64 ADD PUSH2 0x513 JUMP JUMPDEST PUSH0 JUMPDEST PUSH1 0x1 SLOAD DUP2 LT ISZERO PUSH2 0x59F JUMPI DUP3 PUSH1 0x1 DUP3 DUP2 SLOAD DUP2 LT PUSH2 0x8B7 JUMPI PUSH2 0x8B7 PUSH2 0xD80 JUMP JUMPDEST SWAP1 PUSH0 MSTORE PUSH1 0x20 PUSH0 KECCAK256 SWAP1 PUSH1 0x5 MUL ADD PUSH0 ADD SLOAD SUB PUSH2 0x8FC JUMPI DUP2 PUSH1 0x1 DUP3 DUP2 SLOAD DUP2 LT PUSH2 0x8DF JUMPI PUSH2 0x8DF PUSH2 0xD80 JUMP JUMPDEST SWAP1 PUSH0 MSTORE PUSH1 0x20 PUSH0 KECCAK256 SWAP1 PUSH1 0x5 MUL ADD PUSH1 0x3 ADD SWAP1 DUP2 PUSH2 0x8FA SWAP2 SWAP1 PUSH2 0xCC5 JUMP JUMPDEST POP JUMPDEST PUSH1 0x1 ADD PUSH2 0x899 JUMP JUMPDEST PUSH0 DUP1 JUMPDEST PUSH0 SLOAD DUP2 LT ISZERO PUSH2 0x95B JUMPI DUP3 PUSH1 0x1 PUSH1 0x1 PUSH1 0xA0 SHL SUB AND PUSH0 DUP3 DUP2 SLOAD DUP2 LT PUSH2 0x92C JUMPI PUSH2 0x92C PUSH2 0xD80 JUMP JUMPDEST PUSH0 SWAP2 DUP3 MSTORE PUSH1 0x20 SWAP1 SWAP2 KECCAK256 PUSH1 0x3 SWAP1 SWAP2 MUL ADD SLOAD PUSH1 0x1 PUSH1 0x1 PUSH1 0xA0 SHL SUB AND SUB PUSH2 0x953 JUMPI POP PUSH1 0x1 SWAP3 SWAP2 POP POP JUMP JUMPDEST PUSH1 0x1 ADD PUSH2 0x907 JUMP JUMPDEST POP PUSH0 SWAP3 SWAP2 POP POP JUMP JUMPDEST PUSH0 PUSH1 0x20 DUP3 DUP5 SUB SLT ISZERO PUSH2 0x973 JUMPI PUSH0 PUSH0 REVERT JUMPDEST POP CALLDATALOAD SWAP2 SWAP1 POP JUMP JUMPDEST PUSH0 DUP2 MLOAD DUP1 DUP5 MSTORE DUP1 PUSH1 0x20 DUP5 ADD PUSH1 0x20 DUP7 ADD MCOPY PUSH0 PUSH1 0x20 DUP3 DUP7 ADD ADD MSTORE PUSH1 0x20 PUSH1 0x1F NOT PUSH1 0x1F DUP4 ADD AND DUP6 ADD ADD SWAP2 POP POP SWAP3 SWAP2 POP POP JUMP JUMPDEST DUP6 DUP2 MSTORE PUSH1 0xA0 PUSH1 0x20 DUP3 ADD MSTORE PUSH0 PUSH2 0x9C0 PUSH1 0xA0 DUP4 ADD DUP8 PUSH2 0x97A JUMP JUMPDEST PUSH1 0x1 PUSH1 0x1 PUSH1 0xA0 SHL SUB DUP7 AND PUSH1 0x40 DUP5 ADD MSTORE DUP3 DUP2 SUB PUSH1 0x60 DUP5 ADD MSTORE PUSH2 0x9E1 DUP2 DUP7 PUSH2 0x97A JUMP JUMPDEST SWAP2 POP POP DUP3 ISZERO ISZERO PUSH1 0x80 DUP4 ADD MSTORE SWAP7 SWAP6 POP POP POP POP POP POP JUMP JUMPDEST PUSH4 0x4E487B71 PUSH1 0xE0 SHL PUSH0 MSTORE PUSH1 0x41 PUSH1 0x4 MSTORE PUSH1 0x24 PUSH0 REVERT JUMPDEST PUSH0 DUP3 PUSH1 0x1F DUP4 ADD SLT PUSH2 0xA19 JUMPI PUSH0 PUSH0 REVERT JUMPDEST DUP2 CALLDATALOAD PUSH8 0xFFFFFFFFFFFFFFFF DUP2 GT ISZERO PUSH2 0xA33 JUMPI PUSH2 0xA33 PUSH2 0x9F6 JUMP JUMPDEST PUSH1 0x40 MLOAD PUSH1 0x1F DUP3 ADD PUSH1 0x1F NOT SWAP1 DUP2 AND PUSH1 0x3F ADD AND DUP2 ADD PUSH8 0xFFFFFFFFFFFFFFFF DUP2 GT DUP3 DUP3 LT OR ISZERO PUSH2 0xA62 JUMPI PUSH2 0xA62 PUSH2 0x9F6 JUMP JUMPDEST PUSH1 0x40 MSTORE DUP2 DUP2 MSTORE DUP4 DUP3 ADD PUSH1 0x20 ADD DUP6 LT ISZERO PUSH2 0xA79 JUMPI PUSH0 PUSH0 REVERT JUMPDEST DUP2 PUSH1 0x20 DUP6 ADD PUSH1 0x20 DUP4 ADD CALLDATACOPY PUSH0 SWAP2 DUP2 ADD PUSH1 0x20 ADD SWAP2 SWAP1 SWAP2 MSTORE SWAP4 SWAP3 POP POP POP JUMP JUMPDEST PUSH0 PUSH1 0x20 DUP3 DUP5 SUB SLT ISZERO PUSH2 0xAA5 JUMPI PUSH0 PUSH0 REVERT JUMPDEST DUP2 CALLDATALOAD PUSH8 0xFFFFFFFFFFFFFFFF DUP2 GT ISZERO PUSH2 0xABB JUMPI PUSH0 PUSH0 REVERT JUMPDEST PUSH2 0xAC7 DUP5 DUP3 DUP6 ADD PUSH2 0xA0A JUMP JUMPDEST SWAP5 SWAP4 POP POP POP POP JUMP JUMPDEST DUP1 CALLDATALOAD PUSH1 0x1 PUSH1 0x1 PUSH1 0xA0 SHL SUB DUP2 AND DUP2 EQ PUSH2 0xAE5 JUMPI PUSH0 PUSH0 REVERT JUMPDEST SWAP2 SWAP1 POP JUMP JUMPDEST PUSH0 PUSH0 PUSH1 0x40 DUP4 DUP6 SUB SLT ISZERO PUSH2 0xAFB JUMPI PUSH0 PUSH0 REVERT JUMPDEST DUP3 CALLDATALOAD SWAP2 POP PUSH2 0xB0B PUSH1 0x20 DUP5 ADD PUSH2 0xACF JUMP JUMPDEST SWAP1 POP SWAP3 POP SWAP3 SWAP1 POP JUMP JUMPDEST PUSH1 0x1 PUSH1 0x1 PUSH1 0xA0 SHL SUB DUP5 AND DUP2 MSTORE PUSH1 0x60 PUSH1 0x20 DUP3 ADD DUP2 SWAP1 MSTORE PUSH0 SWAP1 PUSH2 0xB37 SWAP1 DUP4 ADD DUP6 PUSH2 0x97A JUMP JUMPDEST SWAP1 POP DUP3 ISZERO ISZERO PUSH1 0x40 DUP4 ADD MSTORE SWAP5 SWAP4 POP POP POP POP JUMP JUMPDEST PUSH1 0x20 DUP2 MSTORE DUP2 MLOAD PUSH1 0x20 DUP3 ADD MSTORE PUSH0 PUSH1 0x20 DUP4 ADD MLOAD PUSH1 0xA0 PUSH1 0x40 DUP5 ADD MSTORE PUSH2 0xB6E PUSH1 0xC0 DUP5 ADD DUP3 PUSH2 0x97A JUMP JUMPDEST PUSH1 0x40 DUP6 ADD MLOAD PUSH1 0x1 PUSH1 0x1 PUSH1 0xA0 SHL SUB AND PUSH1 0x60 DUP6 DUP2 ADD SWAP2 SWAP1 SWAP2 MSTORE DUP6 ADD MLOAD DUP5 DUP3 SUB PUSH1 0x1F NOT ADD PUSH1 0x80 DUP7 ADD MSTORE SWAP1 SWAP2 POP PUSH2 0xBA1 DUP3 DUP3 PUSH2 0x97A JUMP JUMPDEST SWAP2 POP POP PUSH1 0x80 DUP5 ADD MLOAD ISZERO ISZERO PUSH1 0xA0 DUP5 ADD MSTORE DUP1 SWAP2 POP POP SWAP3 SWAP2 POP POP JUMP JUMPDEST PUSH0 PUSH0 PUSH1 0x40 DUP4 DUP6 SUB SLT ISZERO PUSH2 0xBCB JUMPI PUSH0 PUSH0 REVERT JUMPDEST DUP3 CALLDATALOAD SWAP2 POP PUSH1 0x20 DUP4 ADD CALLDATALOAD PUSH8 0xFFFFFFFFFFFFFFFF DUP2 GT ISZERO PUSH2 0xBE8 JUMPI PUSH0 PUSH0 REVERT JUMPDEST PUSH2 0xBF4 DUP6 DUP3 DUP7 ADD PUSH2 0xA0A JUMP JUMPDEST SWAP2 POP POP SWAP3 POP SWAP3 SWAP1 POP JUMP JUMPDEST PUSH0 PUSH1 0x20 DUP3 DUP5 SUB SLT ISZERO PUSH2 0xC0E JUMPI PUSH0 PUSH0 REVERT JUMPDEST PUSH2 0xC17 DUP3 PUSH2 0xACF JUMP JUMPDEST SWAP4 SWAP3 POP POP POP JUMP JUMPDEST PUSH1 0x1 DUP2 DUP2 SHR SWAP1 DUP3 AND DUP1 PUSH2 0xC32 JUMPI PUSH1 0x7F DUP3 AND SWAP2 POP JUMPDEST PUSH1 0x20 DUP3 LT DUP2 SUB PUSH2 0xC50 JUMPI PUSH4 0x4E487B71 PUSH1 0xE0 SHL PUSH0 MSTORE PUSH1 0x22 PUSH1 0x4 MSTORE PUSH1 0x24 PUSH0 REVERT JUMPDEST POP SWAP2 SWAP1 POP JUMP JUMPDEST PUSH0 PUSH1 0x1 DUP3 ADD PUSH2 0xC73 JUMPI PUSH4 0x4E487B71 PUSH1 0xE0 SHL PUSH0 MSTORE PUSH1 0x11 PUSH1 0x4 MSTORE PUSH1 0x24 PUSH0 REVERT JUMPDEST POP PUSH1 0x1 ADD SWAP1 JUMP JUMPDEST PUSH1 0x1F DUP3 GT ISZERO PUSH2 0x59F JUMPI DUP1 PUSH0 MSTORE PUSH1 0x20 PUSH0 KECCAK256 PUSH1 0x1F DUP5 ADD PUSH1 0x5 SHR DUP2 ADD PUSH1 0x20 DUP6 LT ISZERO PUSH2 0xC9F JUMPI POP DUP1 JUMPDEST PUSH1 0x1F DUP5 ADD PUSH1 0x5 SHR DUP3 ADD SWAP2 POP JUMPDEST DUP2 DUP2 LT ISZERO PUSH2 0xCBE JUMPI PUSH0 DUP2 SSTORE PUSH1 0x1 ADD PUSH2 0xCAB JUMP JUMPDEST POP POP POP POP POP JUMP JUMPDEST DUP2 MLOAD PUSH8 0xFFFFFFFFFFFFFFFF DUP2 GT ISZERO PUSH2 0xCDF JUMPI PUSH2 0xCDF PUSH2 0x9F6 JUMP JUMPDEST PUSH2 0xCF3 DUP2 PUSH2 0xCED DUP5 SLOAD PUSH2 0xC1E JUMP JUMPDEST DUP5 PUSH2 0xC7A JUMP JUMPDEST PUSH1 0x20 PUSH1 0x1F DUP3 GT PUSH1 0x1 DUP2 EQ PUSH2 0xD25 JUMPI PUSH0 DUP4 ISZERO PUSH2 0xD0E JUMPI POP DUP5 DUP3 ADD MLOAD JUMPDEST PUSH0 NOT PUSH1 0x3 DUP6 SWAP1 SHL SHR NOT AND PUSH1 0x1 DUP5 SWAP1 SHL OR DUP5 SSTORE PUSH2 0xCBE JUMP JUMPDEST PUSH0 DUP5 DUP2 MSTORE PUSH1 0x20 DUP2 KECCAK256 PUSH1 0x1F NOT DUP6 AND SWAP2 JUMPDEST DUP3 DUP2 LT ISZERO PUSH2 0xD54 JUMPI DUP8 DUP6 ADD MLOAD DUP3 SSTORE PUSH1 0x20 SWAP5 DUP6 ADD SWAP5 PUSH1 0x1 SWAP1 SWAP3 ADD SWAP2 ADD PUSH2 0xD34 JUMP JUMPDEST POP DUP5 DUP3 LT ISZERO PUSH2 0xD71 JUMPI DUP7 DUP5 ADD MLOAD PUSH0 NOT PUSH1 0x3 DUP8 SWAP1 SHL PUSH1 0xF8 AND SHR NOT AND DUP2 SSTORE JUMPDEST POP POP POP POP PUSH1 0x1 SWAP1 DUP2 SHL ADD SWAP1 SSTORE POP JUMP JUMPDEST PUSH4 0x4E487B71 PUSH1 0xE0 SHL PUSH0 MSTORE PUSH1 0x32 PUSH1 0x4 MSTORE PUSH1 0x24 PUSH0 REVERT INVALID LOG2 PUSH5 0x6970667358 0x22 SLT KECCAK256 0xCD EXTCODESIZE PUSH13 0xAC13BFF93B4EA3E9C1750221F7 0xCB PC 0xE REVERT 0xDE 0x1F RJUMP 0xAACD 0xB0 0x21 PUSH31 0xAEBEAA364736F6C634300081E003300000000000000000000000000000000 "
				},
				"gasEstimates": {
					"creation": {
						"codeDepositCost": "706000",
						"executionCost": "739",
						"totalCost": "706739"
					},
					"external": {
						"assignContractor(uint256,address)": "infinite",
						"contractors(uint256)": "infinite",
						"createProject(string)": "infinite",
						"findProject(uint256)": "infinite",
						"isContractorRegistered(address)": "infinite",
						"projectCounter()": "2382",
						"projects(uint256)": "infinite",
						"registerContractor(string)": "infinite",
						"updateProjectStatus(uint256,string)": "infinite"
					}
				},
				"methodIdentifiers": {
					"assignContractor(uint256,address)": "3434d6d5",
					"contractors(uint256)": "3481a95a",
					"createProject(string)": "15ee4df1",
					"findProject(uint256)": "3e891180",
					"isContractorRegistered(address)": "bb60762e",
					"projectCounter()": "f8a518ed",
					"projects(uint256)": "107046bd",
					"registerContractor(string)": "30445b48",
					"updateProjectStatus(uint256,string)": "bb0e9df6"
				}
			},
			"storageLayout": {
				"storage": [
					{
						"astId": 23,
						"contract": "Unoptimized Project Manager Contract.sol:ProjectManager",
						"label": "contractors",
						"offset": 0,
						"slot": "0",
						"type": "t_array(t_struct(Contractor)8_storage)dyn_storage"
					},
					{
						"astId": 27,
						"contract": "Unoptimized Project Manager Contract.sol:ProjectManager",
						"label": "projects",
						"offset": 0,
						"slot": "1",
						"type": "t_array(t_struct(Project)19_storage)dyn_storage"
					},
					{
						"astId": 29,
						"contract": "Unoptimized Project Manager Contract.sol:ProjectManager",
						"label": "projectCounter",
						"offset": 0,
						"slot": "2",
						"type": "t_uint256"
					}
				],
				"types": {
					"t_address": {
						"encoding": "inplace",
						"label": "address",
						"numberOfBytes": "20"
					},
					"t_array(t_struct(Contractor)8_storage)dyn_storage": {
						"base": "t_struct(Contractor)8_storage",
						"encoding": "dynamic_array",
						"label": "struct ProjectManager.Contractor[]",
						"numberOfBytes": "32"
					},
					"t_array(t_struct(Project)19_storage)dyn_storage": {
						"base": "t_struct(Project)19_storage",
						"encoding": "dynamic_array",
						"label": "struct ProjectManager.Project[]",
						"numberOfBytes": "32"
					},
					"t_bool": {
						"encoding": "inplace",
						"label": "bool",
						"numberOfBytes": "1"
					},
					"t_string_storage": {
						"encoding": "bytes",
						"label": "string",
						"numberOfBytes": "32"
					},
					"t_struct(Contractor)8_storage": {
						"encoding": "inplace",
						"label": "struct ProjectManager.Contractor",
						"members": [
							{
								"astId": 3,
								"contract": "Unoptimized Project Manager Contract.sol:ProjectManager",
								"label": "contractorAddress",
								"offset": 0,
								"slot": "0",
								"type": "t_address"
							},
							{
								"astId": 5,
								"contract": "Unoptimized Project Manager Contract.sol:ProjectManager",
								"label": "name",
								"offset": 0,
								"slot": "1",
								"type": "t_string_storage"
							},
							{
								"astId": 7,
								"contract": "Unoptimized Project Manager Contract.sol:ProjectManager",
								"label": "isRegistered",
								"offset": 0,
								"slot": "2",
								"type": "t_bool"
							}
						],
						"numberOfBytes": "96"
					},
					"t_struct(Project)19_storage": {
						"encoding": "inplace",
						"label": "struct ProjectManager.Project",
						"members": [
							{
								"astId": 10,
								"contract": "Unoptimized Project Manager Contract.sol:ProjectManager",
								"label": "projectId",
								"offset": 0,
								"slot": "0",
								"type": "t_uint256"
							},
							{
								"astId": 12,
								"contract": "Unoptimized Project Manager Contract.sol:ProjectManager",
								"label": "projectName",
								"offset": 0,
								"slot": "1",
								"type": "t_string_storage"
							},
							{
								"astId": 14,
								"contract": "Unoptimized Project Manager Contract.sol:ProjectManager",
								"label": "assignedContractor",
								"offset": 0,
								"slot": "2",
								"type": "t_address"
							},
							{
								"astId": 16,
								"contract": "Unoptimized Project Manager Contract.sol:ProjectManager",
								"label": "status",
								"offset": 0,
								"slot": "3",
								"type": "t_string_storage"
							},
							{
								"astId": 18,
								"contract": "Unoptimized Project Manager Contract.sol:ProjectManager",
								"label": "exists",
								"offset": 0,
								"slot": "4",
								"type": "t_bool"
							}
						],
						"numberOfBytes": "160"
					},
					"t_uint256": {
						"encoding": "inplace",
						"label": "uint256",
						"numberOfBytes": "32"
					}
				}
			},
			"userdoc": {
				"kind": "user",
				"methods": {},
				"version": 1
			}
		}
	}
}