{
	"data": {
		"bytecode": {
			"linkReferences": {},
			"object": "6080604052348015600e575f5ffd5b5061065a8061001c5f395ff3fe608060405234801561000f575f5ffd5b5060043610610060575f3560e01c806315ee4df114610064578063188cb1501461007957806330445b48146100c15780633f42053a146100d457806352e08e19146100e7578063bb60762e146100fa575b5f5ffd5b6100776100723660046104b1565b61013c565b005b61008c6100873660046104b1565b6101eb565b604080516001600160a01b03909416845267ffffffffffffffff90921660208401521515908201526060015b60405180910390f35b6100776100cf3660046104b1565b61025b565b6100776100e23660046104f0565b6102d5565b6100776100f5366004610577565b610379565b61012c6101083660046105c7565b6001600160a01b03165f90815260208190526040902054600160a01b900460ff1690565b60405190151581526020016100b8565b5f610147838361044b565b604080516060810182525f80825267ffffffffffffffff42811660208085019182526001858701818152888652915285842094518554925191511515600160e01b0260ff60e01b1992909416600160a01b026001600160e01b03199093166001600160a01b039190911617919091171617909155905191925082917fe762f1c9faa7ee6dc1d37ac245d668ccb7be4e7efb597812013684769b3c3ed59190a2505050565b5f5f5f5f6101f9868661044b565b5f90815260016020908152604091829020825160608101845290546001600160a01b038116808352600160a01b820467ffffffffffffffff16938301849052600160e01b90910460ff1615159190930181905291989097509095509350505050565b60408051808201825233808252600160208084019182525f838152908190528481209351845492511515600160a01b026001600160a81b03199093166001600160a01b0391909116179190911790925591517f418d86a6f1126ffd1d3f161b92aa5095b154265a11806fee848eee90aff329869190a25050565b5f6102e0858561044b565b5f81815260016020526040902054909150600160e01b900460ff166103385760405162461bcd60e51b8152602060048201526009602482015268139bdd08199bdd5b9960ba1b60448201526064015b60405180910390fd5b807fb8ae96626ff801005588a546eb6b0ce71a7f39b931f2ee6607d6e444aec97430848460405161036a9291906105e7565b60405180910390a25050505050565b6001600160a01b0381165f90815260208190526040902054600160a01b900460ff166103d85760405162461bcd60e51b815260206004820152600e60248201526d139bdd081c9959da5cdd195c995960921b604482015260640161032f565b5f6103e3848461044b565b5f8181526001602090815260409182902080546001600160a01b0319166001600160a01b038716908117909155915191825291925082917f21cf652928ee3386d187adb2415d80b17ea155940722618ed57796195e2f8b3c910160405180910390a250505050565b5f828260405161045c929190610615565b6040518091039020905092915050565b5f5f83601f84011261047c575f5ffd5b50813567ffffffffffffffff811115610493575f5ffd5b6020830191508360208285010111156104aa575f5ffd5b9250929050565b5f5f602083850312156104c2575f5ffd5b823567ffffffffffffffff8111156104d8575f5ffd5b6104e48582860161046c565b90969095509350505050565b5f5f5f5f60408587031215610503575f5ffd5b843567ffffffffffffffff811115610519575f5ffd5b6105258782880161046c565b909550935050602085013567ffffffffffffffff811115610544575f5ffd5b6105508782880161046c565b95989497509550505050565b80356001600160a01b0381168114610572575f5ffd5b919050565b5f5f5f60408486031215610589575f5ffd5b833567ffffffffffffffff81111561059f575f5ffd5b6105ab8682870161046c565b90945092506105be90506020850161055c565b90509250925092565b5f602082840312156105d7575f5ffd5b6105e08261055c565b9392505050565b60208152816020820152818360408301375f818301604090810191909152601f909201601f19160101919050565b818382375f910190815291905056fea264697066735822122023ab62bb9b24d45259a496e9f4f480f69727e6c789b76baaa17129c36cf07a9b64736f6c634300081e0033",
			"opcodes": "PUSH1 0x80 PUSH1 0x40 MSTORE CALLVALUE DUP1 ISZERO PUSH1 0xE JUMPI PUSH0 PUSH0 REVERT JUMPDEST POP PUSH2 0x65A DUP1 PUSH2 0x1C PUSH0 CODECOPY PUSH0 RETURN INVALID PUSH1 0x80 PUSH1 0x40 MSTORE CALLVALUE DUP1 ISZERO PUSH2 0xF JUMPI PUSH0 PUSH0 REVERT JUMPDEST POP PUSH1 0x4 CALLDATASIZE LT PUSH2 0x60 JUMPI PUSH0 CALLDATALOAD PUSH1 0xE0 SHR DUP1 PUSH4 0x15EE4DF1 EQ PUSH2 0x64 JUMPI DUP1 PUSH4 0x188CB150 EQ PUSH2 0x79 JUMPI DUP1 PUSH4 0x30445B48 EQ PUSH2 0xC1 JUMPI DUP1 PUSH4 0x3F42053A EQ PUSH2 0xD4 JUMPI DUP1 PUSH4 0x52E08E19 EQ PUSH2 0xE7 JUMPI DUP1 PUSH4 0xBB60762E EQ PUSH2 0xFA JUMPI JUMPDEST PUSH0 PUSH0 REVERT JUMPDEST PUSH2 0x77 PUSH2 0x72 CALLDATASIZE PUSH1 0x4 PUSH2 0x4B1 JUMP JUMPDEST PUSH2 0x13C JUMP JUMPDEST STOP JUMPDEST PUSH2 0x8C PUSH2 0x87 CALLDATASIZE PUSH1 0x4 PUSH2 0x4B1 JUMP JUMPDEST PUSH2 0x1EB JUMP JUMPDEST PUSH1 0x40 DUP1 MLOAD PUSH1 0x1 PUSH1 0x1 PUSH1 0xA0 SHL SUB SWAP1 SWAP5 AND DUP5 MSTORE PUSH8 0xFFFFFFFFFFFFFFFF SWAP1 SWAP3 AND PUSH1 0x20 DUP5 ADD MSTORE ISZERO ISZERO SWAP1 DUP3 ADD MSTORE PUSH1 0x60 ADD JUMPDEST PUSH1 0x40 MLOAD DUP1 SWAP2 SUB SWAP1 RETURN JUMPDEST PUSH2 0x77 PUSH2 0xCF CALLDATASIZE PUSH1 0x4 PUSH2 0x4B1 JUMP JUMPDEST PUSH2 0x25B JUMP JUMPDEST PUSH2 0x77 PUSH2 0xE2 CALLDATASIZE PUSH1 0x4 PUSH2 0x4F0 JUMP JUMPDEST PUSH2 0x2D5 JUMP JUMPDEST PUSH2 0x77 PUSH2 0xF5 CALLDATASIZE PUSH1 0x4 PUSH2 0x577 JUMP JUMPDEST PUSH2 0x379 JUMP JUMPDEST PUSH2 0x12C PUSH2 0x108 CALLDATASIZE PUSH1 0x4 PUSH2 0x5C7 JUMP JUMPDEST PUSH1 0x1 PUSH1 0x1 PUSH1 0xA0 SHL SUB AND PUSH0 SWAP1 DUP2 MSTORE PUSH1 0x20 DUP2 SWAP1 MSTORE PUSH1 0x40 SWAP1 KECCAK256 SLOAD PUSH1 0x1 PUSH1 0xA0 SHL SWAP1 DIV PUSH1 0xFF AND SWAP1 JUMP JUMPDEST PUSH1 0x40 MLOAD SWAP1 ISZERO ISZERO DUP2 MSTORE PUSH1 0x20 ADD PUSH2 0xB8 JUMP JUMPDEST PUSH0 PUSH2 0x147 DUP4 DUP4 PUSH2 0x44B JUMP JUMPDEST PUSH1 0x40 DUP1 MLOAD PUSH1 0x60 DUP2 ADD DUP3 MSTORE PUSH0 DUP1 DUP3 MSTORE PUSH8 0xFFFFFFFFFFFFFFFF TIMESTAMP DUP2 AND PUSH1 0x20 DUP1 DUP6 ADD SWAP2 DUP3 MSTORE PUSH1 0x1 DUP6 DUP8 ADD DUP2 DUP2 MSTORE DUP9 DUP7 MSTORE SWAP2 MSTORE DUP6 DUP5 KECCAK256 SWAP5 MLOAD DUP6 SLOAD SWAP3 MLOAD SWAP2 MLOAD ISZERO ISZERO PUSH1 0x1 PUSH1 0xE0 SHL MUL PUSH1 0xFF PUSH1 0xE0 SHL NOT SWAP3 SWAP1 SWAP5 AND PUSH1 0x1 PUSH1 0xA0 SHL MUL PUSH1 0x1 PUSH1 0x1 PUSH1 0xE0 SHL SUB NOT SWAP1 SWAP4 AND PUSH1 0x1 PUSH1 0x1 PUSH1 0xA0 SHL SUB SWAP2 SWAP1 SWAP2 AND OR SWAP2 SWAP1 SWAP2 OR AND OR SWAP1 SWAP2 SSTORE SWAP1 MLOAD SWAP2 SWAP3 POP DUP3 SWAP2 PUSH32 0xE762F1C9FAA7EE6DC1D37AC245D668CCB7BE4E7EFB597812013684769B3C3ED5 SWAP2 SWAP1 LOG2 POP POP POP JUMP JUMPDEST PUSH0 PUSH0 PUSH0 PUSH0 PUSH2 0x1F9 DUP7 DUP7 PUSH2 0x44B JUMP JUMPDEST PUSH0 SWAP1 DUP2 MSTORE PUSH1 0x1 PUSH1 0x20 SWAP1 DUP2 MSTORE PUSH1 0x40 SWAP2 DUP3 SWAP1 KECCAK256 DUP3 MLOAD PUSH1 0x60 DUP2 ADD DUP5 MSTORE SWAP1 SLOAD PUSH1 0x1 PUSH1 0x1 PUSH1 0xA0 SHL SUB DUP2 AND DUP1 DUP4 MSTORE PUSH1 0x1 PUSH1 0xA0 SHL DUP3 DIV PUSH8 0xFFFFFFFFFFFFFFFF AND SWAP4 DUP4 ADD DUP5 SWAP1 MSTORE PUSH1 0x1 PUSH1 0xE0 SHL SWAP1 SWAP2 DIV PUSH1 0xFF AND ISZERO ISZERO SWAP2 SWAP1 SWAP4 ADD DUP2 SWAP1 MSTORE SWAP2 SWAP9 SWAP1 SWAP8 POP SWAP1 SWAP6 POP SWAP4 POP POP POP POP JUMP JUMPDEST PUSH1 0x40 DUP1 MLOAD DUP1 DUP3 ADD DUP3 MSTORE CALLER DUP1 DUP3 MSTORE PUSH1 0x1 PUSH1 0x20 DUP1 DUP5 ADD SWAP2 DUP3 MSTORE PUSH0 DUP4 DUP2 MSTORE SWAP1 DUP2 SWAP1 MSTORE DUP5 DUP2 KECCAK256 SWAP4 MLOAD DUP5 SLOAD SWAP3 MLOAD ISZERO ISZERO PUSH1 0x1 PUSH1 0xA0 SHL MUL PUSH1 0x1 PUSH1 0x1 PUSH1 0xA8 SHL SUB NOT SWAP1 SWAP4 AND PUSH1 0x1 PUSH1 0x1 PUSH1 0xA0 SHL SUB SWAP2 SWAP1 SWAP2 AND OR SWAP2 SWAP1 SWAP2 OR SWAP1 SWAP3 SSTORE SWAP2 MLOAD PUSH32 0x418D86A6F1126FFD1D3F161B92AA5095B154265A11806FEE848EEE90AFF32986 SWAP2 SWAP1 LOG2 POP POP JUMP JUMPDEST PUSH0 PUSH2 0x2E0 DUP6 DUP6 PUSH2 0x44B JUMP JUMPDEST PUSH0 DUP2 DUP2 MSTORE PUSH1 0x1 PUSH1 0x20 MSTORE PUSH1 0x40 SWAP1 KECCAK256 SLOAD SWAP1 SWAP2 POP PUSH1 0x1 PUSH1 0xE0 SHL SWAP1 DIV PUSH1 0xFF AND PUSH2 0x338 JUMPI PUSH1 0x40 MLOAD PUSH3 0x461BCD PUSH1 0xE5 SHL DUP2 MSTORE PUSH1 0x20 PUSH1 0x4 DUP3 ADD MSTORE PUSH1 0x9 PUSH1 0x24 DUP3 ADD MSTORE PUSH9 0x139BDD08199BDD5B99 PUSH1 0xBA SHL PUSH1 0x44 DUP3 ADD MSTORE PUSH1 0x64 ADD JUMPDEST PUSH1 0x40 MLOAD DUP1 SWAP2 SUB SWAP1 REVERT JUMPDEST DUP1 PUSH32 0xB8AE96626FF801005588A546EB6B0CE71A7F39B931F2EE6607D6E444AEC97430 DUP5 DUP5 PUSH1 0x40 MLOAD PUSH2 0x36A SWAP3 SWAP2 SWAP1 PUSH2 0x5E7 JUMP JUMPDEST PUSH1 0x40 MLOAD DUP1 SWAP2 SUB SWAP1 LOG2 POP POP POP POP POP JUMP JUMPDEST PUSH1 0x1 PUSH1 0x1 PUSH1 0xA0 SHL SUB DUP2 AND PUSH0 SWAP1 DUP2 MSTORE PUSH1 0x20 DUP2 SWAP1 MSTORE PUSH1 0x40 SWAP1 KECCAK256 SLOAD PUSH1 0x1 PUSH1 0xA0 SHL SWAP1 DIV PUSH1 0xFF AND PUSH2 0x3D8 JUMPI PUSH1 0x40 MLOAD PUSH3 0x461BCD PUSH1 0xE5 SHL DUP2 MSTORE PUSH1 0x20 PUSH1 0x4 DUP3 ADD MSTORE PUSH1 0xE PUSH1 0x24 DUP3 ADD MSTORE PUSH14 0x139BDD081C9959DA5CDD195C9959 PUSH1 0x92 SHL PUSH1 0x44 DUP3 ADD MSTORE PUSH1 0x64 ADD PUSH2 0x32F JUMP JUMPDEST PUSH0 PUSH2 0x3E3 DUP5 DUP5 PUSH2 0x44B JUMP JUMPDEST PUSH0 DUP2 DUP2 MSTORE PUSH1 0x1 PUSH1 0x20 SWAP1 DUP2 MSTORE PUSH1 0x40 SWAP2 DUP3 SWAP1 KECCAK256 DUP1 SLOAD PUSH1 0x1 PUSH1 0x1 PUSH1 0xA0 SHL SUB NOT AND PUSH1 0x1 PUSH1 0x1 PUSH1 0xA0 SHL SUB DUP8 AND SWAP1 DUP2 OR SWAP1 SWAP2 SSTORE SWAP2 MLOAD SWAP2 DUP3 MSTORE SWAP2 SWAP3 POP DUP3 SWAP2 PUSH32 0x21CF652928EE3386D187ADB2415D80B17EA155940722618ED57796195E2F8B3C SWAP2 ADD PUSH1 0x40 MLOAD DUP1 SWAP2 SUB SWAP1 LOG2 POP POP POP POP JUMP JUMPDEST PUSH0 DUP3 DUP3 PUSH1 0x40 MLOAD PUSH2 0x45C SWAP3 SWAP2 SWAP1 PUSH2 0x615 JUMP JUMPDEST PUSH1 0x40 MLOAD DUP1 SWAP2 SUB SWAP1 KECCAK256 SWAP1 POP SWAP3 SWAP2 POP POP JUMP JUMPDEST PUSH0 PUSH0 DUP4 PUSH1 0x1F DUP5 ADD SLT PUSH2 0x47C JUMPI PUSH0 PUSH0 REVERT JUMPDEST POP DUP2 CALLDATALOAD PUSH8 0xFFFFFFFFFFFFFFFF DUP2 GT ISZERO PUSH2 0x493 JUMPI PUSH0 PUSH0 REVERT JUMPDEST PUSH1 0x20 DUP4 ADD SWAP2 POP DUP4 PUSH1 0x20 DUP3 DUP6 ADD ADD GT ISZERO PUSH2 0x4AA JUMPI PUSH0 PUSH0 REVERT JUMPDEST SWAP3 POP SWAP3 SWAP1 POP JUMP JUMPDEST PUSH0 PUSH0 PUSH1 0x20 DUP4 DUP6 SUB SLT ISZERO PUSH2 0x4C2 JUMPI PUSH0 PUSH0 REVERT JUMPDEST DUP3 CALLDATALOAD PUSH8 0xFFFFFFFFFFFFFFFF DUP2 GT ISZERO PUSH2 0x4D8 JUMPI PUSH0 PUSH0 REVERT JUMPDEST PUSH2 0x4E4 DUP6 DUP3 DUP7 ADD PUSH2 0x46C JUMP JUMPDEST SWAP1 SWAP7 SWAP1 SWAP6 POP SWAP4 POP POP POP POP JUMP JUMPDEST PUSH0 PUSH0 PUSH0 PUSH0 PUSH1 0x40 DUP6 DUP8 SUB SLT ISZERO PUSH2 0x503 JUMPI PUSH0 PUSH0 REVERT JUMPDEST DUP5 CALLDATALOAD PUSH8 0xFFFFFFFFFFFFFFFF DUP2 GT ISZERO PUSH2 0x519 JUMPI PUSH0 PUSH0 REVERT JUMPDEST PUSH2 0x525 DUP8 DUP3 DUP9 ADD PUSH2 0x46C JUMP JUMPDEST SWAP1 SWAP6 POP SWAP4 POP POP PUSH1 0x20 DUP6 ADD CALLDATALOAD PUSH8 0xFFFFFFFFFFFFFFFF DUP2 GT ISZERO PUSH2 0x544 JUMPI PUSH0 PUSH0 REVERT JUMPDEST PUSH2 0x550 DUP8 DUP3 DUP9 ADD PUSH2 0x46C JUMP JUMPDEST SWAP6 SWAP9 SWAP5 SWAP8 POP SWAP6 POP POP POP POP JUMP JUMPDEST DUP1 CALLDATALOAD PUSH1 0x1 PUSH1 0x1 PUSH1 0xA0 SHL SUB DUP2 AND DUP2 EQ PUSH2 0x572 JUMPI PUSH0 PUSH0 REVERT JUMPDEST SWAP2 SWAP1 POP JUMP JUMPDEST PUSH0 PUSH0 PUSH0 PUSH1 0x40 DUP5 DUP7 SUB SLT ISZERO PUSH2 0x589 JUMPI PUSH0 PUSH0 REVERT JUMPDEST DUP4 CALLDATALOAD PUSH8 0xFFFFFFFFFFFFFFFF DUP2 GT ISZERO PUSH2 0x59F JUMPI PUSH0 PUSH0 REVERT JUMPDEST PUSH2 0x5AB DUP7 DUP3 DUP8 ADD PUSH2 0x46C JUMP JUMPDEST SWAP1 SWAP5 POP SWAP3 POP PUSH2 0x5BE SWAP1 POP PUSH1 0x20 DUP6 ADD PUSH2 0x55C JUMP JUMPDEST SWAP1 POP SWAP3 POP SWAP3 POP SWAP3 JUMP JUMPDEST PUSH0 PUSH1 0x20 DUP3 DUP5 SUB SLT ISZERO PUSH2 0x5D7 JUMPI PUSH0 PUSH0 REVERT JUMPDEST PUSH2 0x5E0 DUP3 PUSH2 0x55C JUMP JUMPDEST SWAP4 SWAP3 POP POP POP JUMP JUMPDEST PUSH1 0x20 DUP2 MSTORE DUP2 PUSH1 0x20 DUP3 ADD MSTORE DUP2 DUP4 PUSH1 0x40 DUP4 ADD CALLDATACOPY PUSH0 DUP2 DUP4 ADD PUSH1 0x40 SWAP1 DUP2 ADD SWAP2 SWAP1 SWAP2 MSTORE PUSH1 0x1F SWAP1 SWAP3 ADD PUSH1 0x1F NOT AND ADD ADD SWAP2 SWAP1 POP JUMP JUMPDEST DUP2 DUP4 DUP3 CALLDATACOPY PUSH0 SWAP2 ADD SWAP1 DUP2 MSTORE SWAP2 SWAP1 POP JUMP INVALID LOG2 PUSH5 0x6970667358 0x22 SLT KECCAK256 0x23 0xAB PUSH3 0xBB9B24 0xD4 MSTORE MSIZE LOG4 SWAP7 0xE9 DELEGATECALL DELEGATECALL DUP1 0xF6 SWAP8 0x27 DUPN 0xC7 DUP10 0xB7 PUSH12 0xAAA17129C36CF07A9B64736F PUSH13 0x634300081E0033000000000000 "
		},
		"gasEstimates": {
			"creation": {
				"codeDepositCost": "325200",
				"executionCost": "360",
				"totalCost": "325560"
			},
			"external": {
				"assignContractor(string,address)": "infinite",
				"createProject(string)": "infinite",
				"findProject(string)": "infinite",
				"isContractorRegistered(address)": "2654",
				"registerContractor(string)": "26048",
				"updateProjectStatus(string,string)": "infinite"
			},
			"internal": {
				"_key(string calldata)": "infinite"
			}
		},
		"methodIdentifiers": {
			"assignContractor(string,address)": "52e08e19",
			"createProject(string)": "15ee4df1",
			"findProject(string)": "188cb150",
			"isContractorRegistered(address)": "bb60762e",
			"registerContractor(string)": "30445b48",
			"updateProjectStatus(string,string)": "3f42053a"
		}
	},
	"abi": [
		{
			"anonymous": false,
			"inputs": [
				{
					"indexed": true,
					"internalType": "bytes32",
					"name": "projectId",
					"type": "bytes32"
				},
				{
					"indexed": false,
					"internalType": "address",
					"name": "contractor",
					"type": "address"
				}
			],
			"name": "ContractorAssigned",
			"type": "event"
		},
		{
			"anonymous": false,
			"inputs": [
				{
					"indexed": true,
					"internalType": "address",
					"name": "contractor",
					"type": "address"
				}
			],
			"name": "ContractorRegistered",
			"type": "event"
		},
		{
			"anonymous": false,
			"inputs": [
				{
					"indexed": true,
					"internalType": "bytes32",
					"name": "projectId",
					"type": "bytes32"
				}
			],
			"name": "ProjectCreated",
			"type": "event"
		},
		{
			"anonymous": false,
			"inputs": [
				{
					"indexed": true,
					"internalType": "bytes32",
					"name": "projectId",
					"type": "bytes32"
				},
				{
					"indexed": false,
					"internalType": "string",
					"name": "status",
					"type": "string"
				}
			],
			"name": "ProjectStatusUpdated",
			"type": "event"
		},
		{
			"inputs": [
				{
					"internalType": "string",
					"name": "_id",
					"type": "string"
				},
				{
					"internalType": "address",
					"name": "_contractor",
					"type": "address"
				}
			],
			"name": "assignContractor",
			"outputs": [],
			"stateMutability": "nonpayable",
			"type": "function"
		},
		{
			"inputs": [
				{
					"internalType": "string",
					"name": "_id",
					"type": "string"
				}
			],
			"name": "createProject",
			"outputs": [],
			"stateMutability": "nonpayable",
			"type": "function"
		},
		{
			"inputs": [
				{
					"internalType": "string",
					"name": "_id",
					"type": "string"
				}
			],
			"name": "findProject",
			"outputs": [
				{
					"internalType": "address",
					"name": "assignedContractor",
					"type": "address"
				},
				{
					"internalType": "uint64",
					"name": "createdAt",
					"type": "uint64"
				},
				{
					"internalType": "bool",
					"name": "exists",
					"type": "bool"
				}
			],
			"stateMutability": "view",
			"type": "function"
		},
		{
			"inputs": [
				{
					"internalType": "address",
					"name": "_addr",
					"type": "address"
				}
			],
			"name": "isContractorRegistered",
			"outputs": [
				{
					"internalType": "bool",
					"name": "",
					"type": "bool"
				}
			],
			"stateMutability": "view",
			"type": "function"
		},
		{
			"inputs": [
				{
					"internalType": "string",
					"name": "",
					"type": "string"
				}
			],
			"name": "registerContractor",
			"outputs": [],
			"stateMutability": "nonpayable",
			"type": "function"
		},
		{
			"inputs": [
				{
					"internalType": "string",
					"name": "_id",
					"type": "string"
				},
				{
					"internalType": "string",
					"name": "status",
					"type": "string"
				}
			],
			"name": "updateProjectStatus",
			"outputs": [],
			"stateMutability": "nonpayable",
			"type": "function"
		}
	]
}